:020000040000FA
:060000000A128A110C280F
:10000800FE00030EF2000A08F3000A128A115C28A7
:100018000A128A110F28F701F801F90183010A125F
:100028008A1116280A128A11E9200A128A110A125C
:100038008A1108210A128A110A128A11A1200A12A9
:100048008A11831203139F14033083120313A3002E
:100058008A30A2005530A100A10B3028A20B30280D
:10006800A30B3028831203139F183B283C28282809
:100078001F0CA100210C0F39053A031D44284528FF
:100088004A281F08C33918389F004E281F08C3394B
:1000980014389F00203083120313A100A10B5228AB
:1000A8000000831203139F1428280A128A110C28AF
:1000B800831203138C1D6128622883280A128A116F
:1000C800FF200A128A11831203138800051C6D2869
:1000D8006E28742878080A128A1117210A128A11C0
:1000E80083120313051879287A28802877080A12BA
:1000F8008A1117210A128A11831203138C110C1FFB
:10010800862887289A281F0CF100710C0F39053AA8
:10011800031D8F28902895281E08F1007108F80003
:1001280099281E08F1007108F7000C1373088A005B
:10013800720E8300FE0E7E0E090020308316031710
:10014800880089018316031386018801033089001A
:100158000514851005118511831203138601880182
:100168008B170B17831603130C17831203130C1327
:100178008C11831603138C158516F401F501F6010D
:1001880024300A128A11CB200A128A11080083121D
:100198000313A00083160313871283120313201D71
:1001A800D628D728DD2876088316031394008715E8
:1001B800E3287408760483160313940087118312C6
:1001C80003132008750494000800831603139F1373
:1001D8001F129F12831203131F139F131F08C33983
:1001E80014389F004230F400F40BF8280000831202
:1001F80003131F1408000A128A1110210A128A1107
:100208008312031313080800831603130F088F398A
:1002180040388F000F14080083160313141C152987
:10022800162910290800F0007008831203139300A0
:020238000800BC
:04400E00D620FF3F7A
:00000001FF
