:020000040000FA
:060000000A128A11F72F1D
:100CAC00831603130F088F3960388F000F14080058
:100CBC000A128A117A260A128A1183160313111446
:100CCC0008000A128A117A260A128A118316031353
:100CDC00111508000A128A117A260A128A11700854
:100CEC0083120313930008008316031314197F2E29
:100CFC00802E7A2E11081F39031D852E862E7A2EF2
:100D0C0008008316031788018901831603138501D4
:100D1C008601880183120313860188010030A30029
:100D2C000130A2008630A100A030A0000A128A1166
:100D3C00D0260A128A1108000A128A117A260A127F
:100D4C008A118316031391150A128A117A260A1234
:100D5C008A11831203131308F200F3017208F400D2
:100D6C007308F5000A128A117A260A128A11700386
:100D7C007104031DC22EC32EC72E831603139112AA
:100D8C00CA2E83160313911611167508F1007408F8
:100D9C00F000080028308312031394008316031309
:100DAC009101831203132008A4002108A500220836
:100DBC00A6002308A70002300310A40DA50DA60D54
:100DCC00A70DFF3E031DE22E2708F3002608F200B4
:100DDC002508F1002408F0000030F7003D30F60043
:100DEC000930F5000030F4000A128A1108270A12A3
:100DFC008A117008FF3E8316031393009401871524
:100E0C00071608000030FC000030FB000030FA0030
:100E1C000030F90073087204710470040319172F61
:100E2C00182F652FFD01FD0A282F0130F800031043
:100E3C00F00DF10DF20DF30DF80B1D2F0130F80034
:100E4C007808FD07F31F2B2F2C2F1B2F0130F800D8
:100E5C000310F90DFA0DFB0DFC0DF80B2E2F73087A
:100E6C007702031D432F72087602031D432F71086E
:100E7C007502031D432F70087402031C462F472F65
:100E8C00562F7008F4027108031C710FF5027208DA
:100E9C00031C720FF6027308031C730FF70279140C
:100EAC0001300310F30CF20CF10CF00CFF3E031D9F
:100EBC00572F0130FD02031D642F652F2C2F7C084A
:100ECC00F3007B08F2007A08F1007908F0000800C2
:100EDC000A128A1187260A128A110A128A115626B8
:100EEC000A128A110A128A115E260A128A115030CD
:100EFC00F0000030F1000A128A1170260A128A11D1
:100F0C00831203130608A800A9012808F000290879
:100F1C00F1000A128A1170260A128A110A128A1119
:100F2C0067260A128A11023083120313AA000430B6
:100F3C00A900B930A800A80BA12FA90BA12FAA0BAF
:100F4C00A12FA82F0A128A115E260A128A1151307B
:100F5C00F0000030F1000A128A1170260A128A1170
:100F6C000030F000F1000A128A11A2260A128A112E
:100F7C0070088312031385000A128A1167260A125D
:100F8C008A11023083120313AA000430A900B9306D
:100F9C00A800A80BCF2FA90BCF2FAA0BCF2FD62F82
:100FAC00013083120313A8002808860705080F399F
:100FBC00A8002808AD000508A80004300310A80CF0
:100FCC00FF3E031DE42F28080F39A9002908AC00A7
:100FDC002C08A80028072D048800782F0A128A11E3
:100FEC00002883120313AB01AC01AD0183010A127B
:040FFC008A116E2FB9
:04400E00D420FF3F7C
:00000001FF
