:020000040000FA
:060000000A128A110C280F
:10000800FE00030EF9000A08FA000A128A112428D1
:100018000A128A110F287030840079300A128A1166
:1000280060200A128A1183132030840032300A12A9
:100038008A1160200A128A1183010A128A11402843
:10004800831203138C1E29282A28392831301A06CE
:10005800031D2F2830283228F601F60A30301A06F8
:10006800031D372838283928F6017A088A00790EBE
:100078008300FE0E7E0E09000A128A1153200A120E
:100088008A110A128A1168200A128A11831203132C
:100098000514033088004A280A128A110C2883168E
:1000A80003178801890183160313880185018312C8
:1000B800031388018501080064008001840A04068E
:1000C8000319003404066128831603130F088F39B7
:0800D80060388F000F140800CE
:04400E00D420FF3F7C
:00000001FF
