:020000040000FA
:060000000A128A110C280F
:10000800FE00030EF0000A08F1000A168A15D82A25
:100018000A128A110F28FB018313D3308400ED30B4
:100028000A168A1598220A128A1183010A168A1159
:100038009B29831603134B0883120313D8008316D6
:1000480003134A0883120313D700831603134908BE
:1000580083120313D600831603134808831203136D
:10006800D5000A168A1524260A128A118312031348
:10007800580883160313BD00831203135708831609
:100088000313BC0083120313560883160313BB0023
:1000980083120313550883160313BA003D08F500AD
:1000A8003C08F4003B08F3003A08F20000300A1656
:1000B8008A1544270A128A11750883160313A300A8
:1000C8007408A2007308A1007208A0004B08A700DA
:1000D8004A08A6004908A5004808A4000A168A1577
:1000E800BD240A128A11831603132308CB002208A1
:1000F800CA002108C9002008C800C201C301CF01F5
:10010800CF0A4F0883120313EA0001300310EA0DE7
:10011800FF3E031D8A2803106A0D693E84000A16F3
:100128008A1500200A128A11EB000A168A15002087
:100138000A128A11EC000A168A1500200A128A117E
:10014800ED000A168A1500200A128A11EE006E08C0
:10015800831603133D02031DC728831203136D087A
:10016800831603133C02031DC728831203136C086C
:10017800831603133B02031DC728831203136B085E
:10018800831603133A020318CA28CB28CC28DA2886
:10019800013083120313EA006A0883160313CF079A
:1001A8000A304F06031DD928DA2885284F084C073E
:1001B80083120313EA00831603134D0803184D0A2C
:1001C80083120313EB0083160313420883120313ED
:1001D8006A07EC008316031343080318430A8312C3
:1001E80003136B07ED006C0883160313C602831212
:1001F80003136D0883160313031CC703C7024C08B7
:100208004D040319082909290F29FF30C6070318C7
:10021800C70AFF30C7070330440583120313EA00F7
:10022800003083160313450583120313EB006A0895
:100238006B040319202921292929FF308316031368
:10024800C6070318C70AFF30C70783160313441DE0
:100258002E292F2995290330440583120313EA0018
:10026800003083160313450583120313EB006A0855
:100278006B040319402941296C292D30EA008316A3
:1002880003134E088400831203136A088313800043
:100298000130EA006A0883160313CE076C29303050
:1002A80083120313EA00831603134E088400831293
:1002B80003136A08831380000130EA006A08831672
:1002C8000313CE07FF30C6070318C70AFF30C70756
:1002D800831603134708803AFF0080307F02031D0E
:1002E80077290130460203187A297B2953293A2AAB
:1002F800203083120313EA00831603134E08840088
:10030800831203136A08831380000130EA006A0825
:1003180083160313CE07FF30C6070318C70AFF303A
:10032800C7074708803AFF0080307F02031D9E29D7
:10033800013046020318A129A2297C29033083161B
:100348000313440583120313EA00003083160313D2
:10035800450583120313EB006A086B040319B529DA
:10036800B6293A2A2D30EA00831603134E08840072
:10037800831203136A08831380000130EA006A08B5
:1003880083160313CE073A2A4F0883120313EA0091
:1003980001300310EA0DFF3E031DCD2903106A0D3D
:1003A800693E84000A168A1500200A128A11F20092
:1003B8000A168A1500200A128A11F3000A168A15ED
:1003C80000200A128A11F4000A168A1500200A125F
:1003D8008A11F500831603133D08F9003C08F8005C
:1003E8003B08F7003A08F6000A168A15BC250A12D7
:1003F8008A11750883160313C1007408C0007308B6
:10040800BF007208BE000030F5000030F400003074
:10041800F3000A30F2004108F9004008F8003F08EC
:10042800F7003E08F6000A168A150D250A128A11E9
:10043800750883160313C1007408C0007308BF0051
:100448007208BE003E08303E83120313EA0083168A
:1004580003134E088400831203136A088313800071
:100468000130EA006A0883160313CE0701308316A9
:100478000313CF024F0A031D422A432AC8295D2AC3
:10048800303083120313EA00831603134E088400E6
:10049800831203136A08831380000130EA006A0894
:1004A80083160313CE07FF30C2070318C30AFF30B1
:1004B800C3074308803AFF0080307F02031D662A85
:1004C800013042020318692A6A2A442A8316031350
:1004D8004D08803AFF0080307F02031D752A0930DD
:1004E8004C02031C782A792A822A083083120313C3
:1004F800EA006A0883160313CF008C2A83160313B5
:100508004C0883120313EA006A0883160313CF000A
:100518004F0883120313EA00EB016A0883160313DA
:10052800CC02831203136B0883160313031CCD0339
:10053800CD024F080319A12AA22AB52A2E30831208
:100548000313EA00831603134E088400831203136F
:100558006A08831380000130EA006A0883160313CF
:10056800CE074F080A128A159D240A128A1183128F
:100578000313450883160313B800831203134408B2
:1005880083160313B7008312031343088316031358
:10059800B60083120313420883160313B500380804
:1005A80083120313AF008316031337088312031350
:1005B800AE0083160313360883120313AD008316A7
:1005C8000313350883120313AC00831603134B0877
:1005D80083120313AB00831603134A088312031311
:1005E800AA0083160313490883120313A90083166C
:1005F8000313480883120313A8000A128A153C2122
:100608000A128A11831203132B08D8002A08D7006C
:100618002908D6002808D5000A168A1524260A12A1
:100628008A1183120313580883160313BD0083121B
:100638000313570883160313BC00831203135608C9
:1006480083160313BB008312031355088316031381
:10065800BA00DF2B4F0883120313EA00013003109E
:10066800EA0DFF3E031D332B03106A0D693E84001B
:100678000A168A1500200A128A11F2000A168A152B
:1006880000200A128A11F3000A168A1500200A129D
:100698008A11F4000A168A1500200A128A11F50038
:1006A800831603133D08F9003C08F8003B08F700DF
:1006B8003A08F6000A168A15BC250A128A11750826
:1006C80083160313C1007408C0007308BF007208C2
:1006D800BE000030F5000030F4000030F3000A30AE
:1006E800F2004108F9004008F8003F08F7003E080A
:1006F800F6000A168A150D250A128A11750883163E
:100708000313C1007408C0007308BF007208BE005C
:100718003E08303E83120313EA00831603134E0883
:100728008400831203136A08831380000130EA00EF
:100738006A0883160313CE074F0883120313EA00CF
:1007480001300310EA0DFF3E031DA52B03106A0DAF
:10075800693E84000A168A1500200A128A11F200DE
:100768000A168A1500200A128A11F3000A168A1539
:1007780000200A128A11F4000A168A1500200A12AB
:100788008A11F500831603133D08F9003C08F800A8
:100798003B08F7003A08F6000A168A150D250A12D2
:1007A8008A11750883160313BD007408BC0073080A
:1007B800BB007208BA000130CF024F0A031DE52BB7
:1007C800E62B2E2B002C303083120313EA008316FD
:1007D80003134E088400831203136A0883138000EE
:1007E8000130EA006A0883160313CE07FF30CC07EE
:1007F8000318CD0AFF30CD074C084D04031D052C06
:10080800062CE72B592D831603134C084D04031DA2
:100818000E2C0F2C1D2C3D083C043B043A04031DF0
:10082800162C172C1D2C0130CC070318CD0A0030CC
:10083800CD074D08803A803C031D242C4C084F02FC
:100848000318272C282C332C831603134C088312E7
:100858000313EA006A0883160313CF00572C831684
:1008680003134D08803A83120313EA0080306A02AA
:10087800031D422C831603134F084C020318452C02
:10088800462C572C831603134F0883120313EA00D0
:10089800EB016A0883160313CC00831203136B0859
:1008A80083160313CD008316031346084704031960
:1008B8005E2C5F2C792C0330440583120313EA0065
:1008C800003083160313450583120313EB006A08EF
:1008D8006B040319702C712C792CFF3083160313C9
:1008E800C6070318C70AFF30C70783160313451F37
:1008F8007E2C7F2CA22C4D08803A83120313EA0029
:10090800831603134708803A831203136A02031DF0
:10091800912C8316031346084C020318942C952C2B
:100928009E2C831603134C08C6024D08031CC703EC
:10093800C702A22C83160313C601C7014708803AD1
:10094800803C031DA92C46084F020318AC2CAD2C83
:10095800C12C831603134F0883120313EA00EB011B
:100968006A0883160313C602831203136B088316DF
:100978000313031CC703C702C52C83160313C60140
:10098800C701441DC82CC92C142D033044058312FB
:100998000313EA000030831603134505831203137B
:1009A800EB006A086B040319DA2CDB2CEC2C2D30D5
:1009B800EA00831603134E088400831203136A089F
:1009C800831380000130EA006A0883160313CE07F8
:1009D80083160313460847040319F32CF42C592DE6
:1009E800303083120313EA00831603134E08840081
:1009F800831203136A08831380000130EA006A082F
:100A080083160313CE07FF30C6070318C70AFF3043
:100A1800C70746084704031D122D132DF42C592D22
:100A2800460847040319192D1A2D392D2030831231
:100A38000313EA00831603134E088400831203137A
:100A48006A08831380000130EA006A0883160313DA
:100A5800CE07FF30C6070318C70AFF30C707460886
:100A68004704031D382D392D1A2D033044058312F0
:100A78000313EA000030831603134505831203139A
:100A8800EB006A086B0403194A2D4B2D592D2D30A4
:100A9800EA00831603134E088400831203136A08BE
:100AA800831380000A128A154B280130831603131A
:100AB800A807FF30280784000A168A1500200A12A2
:100AC8008A1183120313EA006A0883160313CF00FE
:100AD8004F08031D702D732D0A128A1538288316A6
:100AE80003134E0884008313800108008312031344
:100AF800D5006E305502031C822D832D922E3F3077
:100B0800AB000030AA000030A9000030A800643013
:100B1800A0000030A1005508C600C7014608A20081
:100B28004708A3000A168A1527240A128A11831275
:100B380003132008C80001300310C80DFF3E031D31
:100B4800A02D0310480D7D3E84000A168A1500204A
:100B58000A128A11C9000A168A1500200A128A1177
:100B6800CA000A168A1500200A128A11CB000A1632
:100B78008A1500200A128A11CC004C08AF004B08D5
:100B8800AE004A08AD004908AC000A128A153C219B
:100B98000A128A11831203132B08D4002A08D300DF
:100BA8002908D2002808D1000A30A0000030A1008E
:100BB8005508C600C7014608F4004708F500643028
:100BC800F2000030F3000A168A15ED230A128A1182
:100BD800730883120313A3007208A2000A168A1569
:100BE80027240A128A11831203132008C80001302F
:100BF8000310C80DFF3E031DFC2D0310480D593E80
:100C080084000A168A1500200A128A11C9000A16D9
:100C18008A1500200A128A11CA000A168A150020AD
:100C28000A128A11CB000A168A1500200A128A11A4
:100C3800CC004C08AB004B08AA004A08A900490898
:100C4800A8005408AF005308AE005208AD00510880
:100C5800AC000A128A153C210A128A118312031366
:100C68002B08D0002A08CF002908CE002808CD007C
:100C78000A30F2000030F3005508C600C7014608E4
:100C8800F4004708F5000A168A15ED230A128A119E
:100C9800720883120313C80001300310C80DFF3E09
:100CA800031D512E0310480D353E84000A168A157F
:100CB80000200A128A11C9000A168A1500200A1291
:100CC8008A11CA000A168A1500200A128A11CB0056
:100CD8000A168A1500200A128A11CC004C08AB00AB
:100CE8004B08AA004A08A9004908A8005008AF0004
:100CF8004F08AE004E08AD004D08AC000A128A1528
:100D08003C210A128A11831203132B08C5002A08F2
:100D1800C4002908C3002808C200862F0B305502DA
:100D2800031C972E982E432F3F30AB000030AA00AB
:100D38000030A9000030A8000A30A0000030A1004F
:100D48005508C600C7014608A2004708A3000A16AE
:100D58008A1527240A128A11831203132008C8004F
:100D680001300310C80DFF3E031DB52E0310480DBA
:100D7800593E84000A168A1500200A128A11C900F1
:100D88000A168A1500200A128A11CA000A168A153C
:100D980000200A128A11CB000A168A1500200A12AE
:100DA8008A11CC004C08AF004B08AE004A08AD00D1
:100DB8004908AC000A128A153C210A128A118312CA
:100DC80003132B08D4002A08D3002908D2002808C6
:100DD800D1000A30F2000030F3005508C600C70100
:100DE8004608F4004708F5000A168A15ED230A128A
:100DF8008A11720883120313C80001300310C80D4A
:100E0800FF3E031D022F0310480D353E84000A16CD
:100E18008A1500200A128A11C9000A168A150020AC
:100E28000A128A11CA000A168A1500200A128A11A3
:100E3800CB000A168A1500200A128A11CC004C0829
:100E4800AB004B08AA004A08A9004908A8005408A2
:100E5800AF005308AE005208AD005108AC000A12AA
:100E68008A153C210A128A11831203132B08C50024
:100E78002A08C4002908C3002808C200862F3F306A
:100E8800AB000030AA000030A9000030A8005508C7
:100E9800C60001300310C60DFF3E031D4E2F031080
:100EA800460D353E84000A168A1500200A128A115A
:100EB800C7000A168A1500200A128A11C8000A16E5
:100EC8008A1500200A128A11C9000A168A150020FC
:100ED8000A128A11CA004A08AF004908AE00480839
:100EE800AD004708AC000A128A153C210A128A1183
:100EF800831203132B08C5002A08C4002908C3005D
:100F08002808C200080083120313A501A11F8D2F12
:100F18008E2F952FA009A109A00A0319A10AA501DE
:100F2800A50AA31F982F992FA22FA209A309A20AE5
:100F38000319A30A0130F9007908A506A601A7013B
:100F4800200821040319A92FAA2FE12FA401A40A1C
:100F5800B82F01300310A00DA10DFF3E031DAE2FC9
:100F68000130F9007908A407A11FBB2FBC2FAD2FB2
:100F780001300310A60DA70DFF3E031DBD2F21084C
:100F88002302031DC92F20082202031CCC2FCD2FBA
:100F9800D42F2008A2022108031CA303A3022614AD
:100FA80001300310A10CA00CFF3E031DD52F01300A
:100FB800A402031DE02FE12FBC2F25080319E52FFC
:100FC800E62FEB2FA609A709A60A0319A70A2708DF
:100FD800A1002608A0000800831603131419F52F92
:100FE800F62FF02F11081F39031DFB2FFC2FF02FB0
:020FF8000800EF
:1010020083120313B2003208AA00AB01AC01AD0196
:101012002D08F5002C08F4002B08F3002A08F20032
:1010220001300A168A1544270A128A157508831296
:101032000313B1007408B0007308AF007208AE0069
:101042003108A9003008A8002F08A7002E08A60022
:10105200080083160313CE00A93083120313EA009B
:101062006A0883160313B9000A128A11592D253012
:101072004F0603193D283E2852284F0883120313B6
:10108200EA00831603134E088400831203136A08CE
:10109200831380000130EA006A0883160313CE0727
:1010A2003528C601C701C401C5016228831603138E
:1010B2004415013083120313EA006A0883160313EE
:1010C200A807280884000A168A1500200A128A1521
:1010D20083120313EA00EB016B08003A031972282A
:1010E20077286A08303A031957287728831603139A
:1010F200280884000A168A1500200A128A150A1680
:101102008A15C6220A128A15031C88288928D5281E
:1011120083160313C601C7010A30F2000030F30040
:10112200831603134708F5004608F4000A168A15C9
:101132003B230A128A15730883160313C700720829
:10114200C600280884000A168A1500200A128A1589
:10115200D03E83120313EA00FF3003180030EB0085
:101162006A0883160313C6070318C70A83120313F8
:101172006B0883160313C707013083120313EA00B7
:101182006A0883160313A807280884000A168A151A
:1011920000200A128A150A168A15C6220A128A1510
:1011A2000318D428D5288D28831603132808840011
:1011B2000A168A1500200A128A152E3A031DE22801
:1011C200E5280A168A11222D4517013083120313CE
:1011D200EA006A0883160313A807CC01CD01292966
:1011E2000A30F2000030F300831603134D08F500B5
:1011F2004C08F4000A168A153B230A128A15730852
:1012020083160313CD007208CC00280884000A1646
:101212008A1500200A128A15D03E83120313EA00AF
:10122200FF3003180030EB006A0883160313CC0763
:101232000318CD0A831203136B0883160313CD0719
:10124200013083120313EA006A0883160313A80706
:10125200280884000A168A1500200A128A150A161E
:101262008A15C6220A128A15031838293929F12843
:101272000A168A112A2D831203132B088039B00013
:101282003008B5002B08B0003007B1003108BB00B0
:10129200AA1F4C294D294E293B143B0803195229F8
:1012A200532962293B0A031D572958296029003016
:1012B200AB000030AA000030A9000030A800AA1735
:1012C2006A290030AB000030AA000030A9000030CB
:1012D200A8002F088039B0003008B5062F08B000EA
:1012E2003007B1003108BA00AE1F782979297A296E
:1012F2003A143A0803197E297F298E293A0A031DD6
:10130200832984298C290030AF000030AE000030E0
:10131200AD000030AC00AE1796290030AF000030AF
:10132200AE000030AD000030AC003A0803199A2933
:101332009B29A0293B08031D9F29A029A929003028
:10134200AB000030AA000030A9000030A8009C2C9D
:101352002808B0003008F2002E080A168A15602309
:101362000A128A15730883120313C1007208C0009F
:101372004008B000B101B201B3013308B90032082C
:10138200B8003108B7003008B6004108B000B1011A
:10139200B201B3013308BF003208BE003108BD00FC
:1013A2003008BC002908B0003008F2002D080A16E7
:1013B2008A1560230A128A15730883120313C10067
:1013C2007208C0004008B000B101B201B301300898
:1013D200B607310803110318013E0319F129B707B3
:1013E200320803110318013E0319F829B80733081C
:1013F20003110318013E0319FF29B9074108B00080
:10140200B101B201B3013008BC073108031103185E
:10141200013E03190D2ABD07320803110318013ECC
:101422000319142ABE07330803110318013E0319D6
:101432001B2ABF072A08B0003008F2002C080A163F
:101442008A1560230A128A15730883120313C100D6
:101452007208C0004008B000B101B201B301300807
:10146200B607310803110318013E0319392AB707D9
:10147200320803110318013E0319402AB807330842
:1014820003110318013E0319472AB9074108B000A6
:10149200B101B201B3013008BC07310803110318CE
:1014A200013E0319552ABD07320803110318013EF4
:1014B20003195C2ABE07330803110318013E0319FE
:1014C200632ABF070830B0000310B60DB70DB80D80
:1014D200B90DB00B652A2908B0003008F2002C08BB
:1014E2000A168A1560230A128A15730883120313D7
:1014F200C1007208C0004008B0004108B100B2014A
:10150200B3013008B607310803110318013E03196D
:101512008B2AB707320803110318013E0319922AD6
:10152200B807330803110318013E0319992AB907B2
:101532002808B0003008F2002D080A168A15602328
:101542000A128A15730883120313C1007208C000BD
:101552004008B0004108B100B201B3013008B6073B
:10156200310803110318013E0319B82AB7073208DC
:1015720003110318013E0319BF2AB80733080311E8
:101582000318013E0319C62AB9070830B000031038
:10159200B60DB70DB80DB90DB00BC82A2808B000AA
:1015A2003008F2002C080A168A1560230A128A15DE
:1015B200730883120313C1007208C0004008B00010
:1015C2004108B100B201B3013008B6073108031176
:1015D2000318013E0319EE2AB70732080311031854
:1015E200013E0319F52AB807330803110318013E17
:1015F2000319FC2AB9072908B0003008F2002E08A6
:101602000A168A1560230A128A15730883120313B5
:10161200C1007208C0004008B0004108B100B20128
:10162200B3013008BC07310803110318013E031946
:101632001B2BBD07320803110318013E0319222B8D
:10164200BE07330803110318013E0319292BBF07F4
:101652002A08B0003008F2002D080A168A15602305
:101662000A128A15730883120313C1007208C0009C
:101672004008B0004108B100B201B3013008BC0714
:10168200310803110318013E0319482BBD07320824
:1016920003110318013E03194F2BBE073308031130
:1016A2000318013E0319562BBF072A08B000300861
:1016B200F2002E080A168A1560230A128A15730888
:1016C20083120313C1007208C0004008B000410831
:1016D200B100B201B30108300310B00DB10DB20D6B
:1016E200B30DFF3E031D6D2B3008BC0731080311FB
:1016F2000318013E03197E2BBD073208031103189C
:10170200013E0319852BBE07330803110318013E5E
:1017120003198C2BBF073608B0003708B100380810
:10172200B2003908B30018300310B30CB20CB10C7C
:10173200B00CFF3E031D952B3008BC073108031186
:101742000318013E0319A62BBD0732080311031823
:10175200013E0319AD2BBE07330803110318013EE6
:101762000319B42BBF070830B0000310B60DB70D34
:10177200B80DB90DB00BB62B3B083A07B000B1015A
:10178200B10D3008823EC00031080318013EFF3E11
:10179200C100E82B0130B0000310BC0DBD0DBE0D21
:1017A200BF0DB00BCD2BB91FD72BD82BD92B3C1487
:1017B2000130B0000310B60DB70DB80DB90DB00B66
:1017C200DB2BFF30C0070318C10AFF30C107BE1F61
:1017D200EB2BEC2BCB2BBA01B91FF02BF12B0D2CE1
:1017E200FF303605B000FF303705B100FF30380555
:1017F200B2007F303905B3003308320431043004BB
:101802000319042C052C082CBA01BA0A0D2C3C1C15
:101812000B2C0C2C0D2C052C3A080319112C122C14
:10182200432C0130BC07003003180130BD070030E3
:1018320003180130BE07003003180130BF073F1CF8
:10184200232C242C432C3C08B0003D08B1003E0858
:10185200B2003F08B3000130B400330DB30CB20C38
:10186200B10CB00CB40B2E2C3308BF003208BE00F2
:101872003108BD003008BC000130C0070318C10A9E
:101882000030C1074108803AFF0080307F02031D0B
:101892004C2CFF304002031C4F2C502C5B2C7F3011
:1018A20083120313BF008030BE000030BD00003041
:1018B200BC00902C831203134108803AFF00803051
:1018C2007F02031D662C013040020318692C6A2C2A
:1018D200762C003083120313BF000030BE000030AC
:1018E200BD000030BC00B501902C831203134008E8
:1018F200B0003008BB00FF30BC05FF30BD057F30B3
:10190200BE050030BF053B1C872C882C892CBE17D6
:101912003B08B0000310300CB1003108BF0035089D
:10192200B0003008BF043F08AB003E08AA003D08E3
:10193200A9003C08A800080083120313D400D41F96
:10194200A32CA42C532ED409D40A5408803A123E54
:10195200031CAC2CAD2C972D0A30A0000030A10046
:101962005408F400F501F41BF5036430F200003072
:10197200F3000A168A1563250A128A157308831260
:101982000313A3007208A2000A128A1187270A12FF
:101992008A15831203132008C60001300310C60DF6
:1019A200FF3E031DCF2C0310460D593E84000A163C
:1019B2008A1500200A128A15C7000A168A15002005
:1019C2000A128A15C8000A168A1500200A128A15F8
:1019D200C9000A168A1500200A128A15CA004A0886
:1019E200AB004908AA004808A9004708A8006430CB
:1019F200A0000030A1005408A200A301A21BA3036F
:101A02000A128A1187270A128A15831203132008E1
:101A1200CB0001300310CB0DFF3E031D0B2D031035
:101A22004B0D7D3E84000A168A1500200A128A1583
:101A3200CC000A168A1500200A128A15CD000A1651
:101A42008A1500200A128A15CE000A168A1500206D
:101A52000A128A15CF004F08AF004E08AE004D089B
:101A6200AD004C08AC000A128A153C210A128A15F4
:101A7200831203132B08D3002A08D2002908D100AD
:101A82002808D0000A30F2000030F3005408F400B5
:101A9200F501F41BF5030A168A1563250A128A1545
:101AA200720883120313C60001300310C60DFF3EF5
:101AB200031D562D0310460D353E84000A168A1565
:101AC20000200A128A15C7000A168A1500200A1277
:101AD2008A15C8000A168A1500200A128A15C9003A
:101AE2000A168A1500200A128A15CA004A08AB0093
:101AF2004908AA004808A9004708A8005308AF00EF
:101B02005208AE005108AD005008AC000A128A1506
:101B12003C210A128A15831203132B08C5002A08D6
:101B2200C4002908C3002808C200FF2F5408803AC5
:101B3200753E031C9D2D9E2D262E0A30F20000308C
:101B4200F3005408F400F501F41BF5030A168A1594
:101B520063250A128A15720883120313C600013024
:101B62000310C60DFF3E031DB12D0310460D353E79
:101B720084000A168A1500200A128A15C7000A165E
:101B82008A1500200A128A15C8000A168A15002032
:101B92000A128A15C9000A168A1500200A128A1525
:101BA200CA004A08AB004908AA004808A900470829
:101BB200A8000A30A0000030A1005408A200A3012E
:101BC200A21BA3030A128A1187270A128A158312FB
:101BD20003132008CB0001300310CB0DFF3E031D81
:101BE200ED2D03104B0D593E84000A168A15002074
:101BF2000A128A15CC000A168A1500200A128A15C2
:101C0200CD000A168A1500200A128A15CE000A167D
:101C12008A1500200A128A15CF004F08AF004E081D
:101C2200AE004D08AD004C08AC000A128A153C21EA
:101C32000A128A15831203132B08C5002A08C4004E
:101C42002908C3002808C200FF2F5408C60001302B
:101C52000310C60DFF3E031D292E0310460D353E0F
:101C620084000A168A1500200A128A15C7000A166D
:101C72008A1500200A128A15C8000A168A15002041
:101C82000A128A15C9000A168A1500200A128A1534
:101C9200CA004A08C5004908C4004808C3004708EA
:101CA200C200FF2F5408803A123E031C592E5A2EAE
:101CB200442F0A30A0000030A1005408F400F501BE
:101CC200F41BF5036430F2000030F3000A168A15A3
:101CD20063250A128A15730883120313A30072087C
:101CE200A2000A128A1187270A128A158312031385
:101CF2002008C60001300310C60DFF3E031D7C2ED6
:101D02000310460D253E84000A168A1500200A1289
:101D12008A15C7000A168A1500200A128A15C800F9
:101D22000A168A1500200A128A15C9000A168A158F
:101D320000200A128A15CA004A08AB004908AA0004
:101D42004808A9004708A8006430A0000030A1009C
:101D52005408A200A301A21BA3030A128A11872717
:101D62000A128A15831203132008CB0001300310D4
:101D7200CB0DFF3E031DB82E03104B0D493E8400D0
:101D82000A168A1500200A128A15CC000A168A152C
:101D920000200A128A15CD000A168A1500200A129E
:101DA2008A15CE000A168A1500200A128A15CF005B
:101DB2004F08AF004E08AE004D08AD004C08AC0015
:101DC2000A128A153C210A128A15831203132B0860
:101DD200D3002A08D2002908D1002808D0000A30EE
:101DE200F2000030F3005408F400F501F41BF5038F
:101DF2000A168A1563250A128A15720883120313BA
:101E0200C60001300310C60DFF3E031D032F031051
:101E1200460D013E84000A168A1500200A128A1510
:101E2200C7000A168A1500200A128A15C8000A1667
:101E32008A1500200A128A15C9000A168A1500207E
:101E42000A128A15CA004A08AB004908AA004808C3
:101E5200A9004708A8005308AF005208AE00510875
:101E6200AD005008AC000A128A153C210A128A15EC
:101E7200831203132B08C5002A08C4002908C300D3
:101E82002808C200FF2F5408803A753E031C4A2FCF
:101E92004B2FD32F0A30F2000030F3005408F40025
:101EA200F501F41BF5030A168A1563250A128A1531
:101EB200720883120313C60001300310C60DFF3EE1
:101EC200031D5E2F0310460D013E84000A168A157B
:101ED20000200A128A15C7000A168A1500200A1263
:101EE2008A15C8000A168A1500200A128A15C90026
:101EF2000A168A1500200A128A15CA004A08AB007F
:101F02004908AA004808A9004708A8000A30A0000A
:101F12000030A1005408A200A301A21BA3030A12CD
:101F22008A1187270A128A15831203132008CB000D
:101F320001300310CB0DFF3E031D9A2F03104B0DF2
:101F4200253E84000A168A1500200A128A15CC0042
:101F52000A168A1500200A128A15CD000A168A1559
:101F620000200A128A15CE000A168A1500200A12CB
:101F72008A15CF004F08AF004E08AE004D08AD00E5
:101F82004C08AC000A128A153C210A128A158312E7
:101F920003132B08C5002A08C4002908C300280817
:101FA200C200FF2F5408C60001300310C60DFF3EC9
:101FB200031DD62F0310460D013E84000A168A1512
:101FC20000200A128A15C7000A168A1500200A1272
:101FD2008A15C8000A168A1500200A128A15C90035
:101FE2000A168A1500200A128A15CA004A08C50074
:101FF2004908C4004808C3004708C2000800750821
:102002007404730472040319072808280A2880300C
:10201200F506080083160313181218158316031702
:10202200871567308316031399009A0183120313ED
:1020320098171813181683160313981608007208B7
:1020420083120313A0007308A1007408A2000310F6
:10205200210D220DA3002308A9002908031D3228FF
:1020620033283C280030F5000030F4000030F30043
:102072000030F200DC287608A0007708A10078087A
:10208200A2000310210D220DA3002308A800280896
:10209200031D4C284D284E283328F317FF30F20534
:1020A200FF30F3050030F405F717FF30F605FF3077
:1020B200F7050030F8050030A7000030A600003018
:1020C200A5000030A4007F30A90298302807A000A4
:1020D2002008A9021830A0002008A8000130A000A2
:1020E2000310A40DA50DA60DA70DA00B712878084D
:1020F2007402031D822877087302031D8228760862
:102102007202031C8528862891287608F202770835
:10211200031C770FF3027808031C780AF4022414D4
:1021220001300310F20DF30DF40DFF3E031D922852
:102132000130A802031D9E289F286F28A91FA228EC
:10214200A328BD282908803A973E0318A928AA285F
:10215200AB28332801300310A70CA60CA50CA40C45
:10216200FF3E031DAC280130A0002008A907031D73
:10217200BB28BC28AB28D42818302902031CC2284B
:10218200C328CF2833280130A0000310A40DA50DC9
:10219200A60DA70DA00BC6280130A9022908031D10
:1021A200D328D428C4282708F5002608F4002508D7
:1021B200F3002408F20008000310740D750DFA00F4
:1021C2007A0883120313A5002508031DE928EA28CB
:1021D200F3280030F5000030F4000030F300003046
:1021E200F2009A290310780D790DFA007A08A400FA
:1021F2002408031DFD28FE28FF28EA28F417FF30D3
:10220200F205FF30F305FF30F4050030F505F8174D
:10221200FF30F605FF30F705FF30F8050030F9050D
:102222000030A3000030A2000030A1000030A00066
:102232007F30A502A0302407FA007A08A5022030D8
:10224200FA007A08A4000130FA000310A00DA10DD3
:10225200A20DA30DFA0B262979087502031D3B294D
:1022620078087402031D3B2977087302031D3B297A
:1022720076087202031C3E293F294E297608F20293
:102282007708031C770FF3027808031C780FF40217
:102292007908031C790FF50220140130FA000310AB
:1022A200F20DF30DF40DF50DFA0B50290130A402D5
:1022B200031D5C295D292429A51F602961297B2929
:1022C2002508803A9F3E0318672968296929EA2868
:1022D20001300310A30CA20CA10CA00CFF3E031DA5
:1022E2006A290130FA007A08A507031D79297A299B
:1022F2006929922920302502031C802981298D29F0
:10230200EA280130FA000310A00DA10DA20DA30DC1
:10231200FA0B84290130A5022508031D912992296F
:1023220082292308F5002208F4002108F30020087E
:10233200F20008000A168A151A230A168A110A16CA
:102342008A1590220A168A110A168A110B200A1679
:102352008A110A168A15A0220A168A115130F20031
:102362000030F3000A168A15B2220A168A110030CA
:10237200F200F3000A168A1587230A168A117208D8
:1023820083160313D0005008EC000A168A15A922FE
:102392000A168A11023083160313D2000430D100C8
:1023A200B930D000D00BD329D10BD329D20BD329EA
:1023B200DA29831603136C080F39D0005008E100A4
:1023C2006C08D00004300310D00CFF3E031DE4293A
:1023D20050080F39D1005108E00061080A128A152D
:1023E20001200A168A118312031329088316031384
:1023F200DE0083120313280883160313DD00831201
:102402000313270883160313DC0083120313260821
:1024120083160313DB0060080A128A1501200A16CC
:102422008A1183120313290883160313DA00831215
:102432000313280883160313D900831203132708F2
:1024420083160313D800831203132608831603137B
:10245200D7005F080A128A1501200A168A11831210
:102462000313290883160313D600831203132808C3
:1024720083160313D500831203132708831603134D
:10248200D40083120313260883160313D30091305A
:10249200D0005008A8005E08AC005D08AB005C08E4
:1024A200AA005B08A9005A08B0005908AF005808F2
:1024B200AE005708AD005608B4005508B3005408E2
:1024C200B2005308B100E2300A128A152A200A1615
:1024D2008A11E2300A168A15F9220A168A1183161F
:1024E2000313610C83120313031C0810031808144E
:1024F20083160313600C83120313031C8810031842
:102502008814831603135F03031D882A892A8C2AE1
:10251200831203130514831603135F08031D922A03
:10252200932AAA29831203130510AA290A128A11CF
:102532000C288312031359088039DE005E08E60076
:102542005908DE005E07DF005F08E800D81FAA2AEC
:10255200AB2AAC2A681468080319B02AB12AC12A26
:10256200680A031DB52AB62ABE2A0030D9000030F7
:10257200D8000030D7000030D600D817D901C92AB8
:102582000030D9000030D8000030D7000030D6002B
:102592005D088039DE005E08E700670866060319F9
:1025A200D32AD42AD52A66175D08DE005E07DF002B
:1025B2005F08E700DC1FDE2ADF2AE02A67146708CB
:1025C2000319E42AE52AF52A670A031DE92AEA2AF9
:1025D200F22A0030DD000030DC000030DB00003089
:1025E200DA00DC17DD01FD2A0030DD000030DC00FE
:1025F2000030DB000030DA00680867020318022BA3
:10260200032B472B661F062B072B0B2B8030DE007C
:102612005E08E6066808DE005E08E9006708DE007C
:102622005E08E8006908DE005E08E7005608DE0082
:102632005E08E9005A08DE005E08D6006908DE007E
:102642005E08DA005708DE005E08E9005B08DE007B
:102652005E08D7006908DE005E08DB005808DE006D
:102662005E08E9005C08DE005E08D8006908DE004A
:102672005E08DC005908DE005E08E9005D08DE0045
:102682005E08D9006908DE005E08DD00E90167081E
:10269200DE00DF015F08E10068085E02E000031C63
:1026A200E1036108803AFF0080307F02031D5B2B4B
:1026B2001A306002031C5E2B5F2B9C2B83120313C8
:1026C2005908580457045604031D682B6A2B01301D
:1026D2006B2B0030DE005E08E9000030D9000030CC
:1026E200D8000030D7000030D6006708DE005E0850
:1026F200E800A42B691C7E2B7F2B882B6908DE0047
:1027020003105E0C0138DF005F08E9008A2B03101A
:10271200E90C561C8D2B8E2B8F2BE9170130DE0016
:10272200590DD90CD80CD70CD60CDE0B912B0130DD
:10273200DE005E08E8078312031367086802031CC1
:10274200A32BA42B7B2B661BA72BA82BF32B680890
:10275200031DAC2BAD2BB62B0030D9000030D800B6
:102762000030D7000030D600212D5A08D6075B086A
:1027720003110318013E0319BF2BD7075C0803118D
:102782000318013E0319C62BD8075D08031103186D
:10279200013E0319CD2BD907591CD02BD12BA72CC5
:1027A200691CD42BD52BDE2B6908DE0003105E0CCE
:1027B2000138DF005F08E900E02B0310E90C561C2A
:1027C200E32BE42BE52BE9170130DE00590DD90C80
:1027D200D80CD70CD60CDE0BE72B0130DE005E08DE
:1027E200E807A72C5908803AFF005D08803A7F026B
:1027F200031D052C5C085802031D052C5B085702BB
:10280200031D052C5A0856020318082C092C612CAA
:10281200FF30DE00FF30DF00FF30E000FF30E1007C
:102822005A08E2005B08E3005C08E4005D08E5008A
:102832005608E2025708031C570F202C212CE302F2
:102842005808031C580F262C272CE4025908031C95
:10285200590F2C2C2D2CE5026208DE0763080318A1
:10286200630F342C352CDF0764080318640F3A2CED
:102872003B2CE00765080318650AE1076108D900E7
:102882006008D8005F08D7005E08D6008030DE00FE
:102892005E08E606E909E90A6908031D512C522C73
:1028A2006F2C0130D607003003180130D7070030F3
:1028B20003180130D807003003180130D9076F2CF4
:1028C2005A08D6025B08031C5B0FD7025C08031C84
:1028D2005C0FD8025D08031C5D0FD9025908580429
:1028E20057045604031D762C772CA32C6908031D6C
:1028F2007B2C7C2CA32C0030D9000030D800003077
:10290200D7000030D600212D0130DE000310D60D95
:10291200D70DD80DD90DDE0B872CE91F912C922CE7
:10292200932C5614691C962C972C9A2C0314E90D9F
:102932009C2C0310E90D68080319A02CA12CA32CD0
:102942000130E802D81FA62CA72C852CE701E91F2D
:10295200AB2CAC2CBA2C69087F390319B12CB22CE0
:10296200B52CE701E70ABA2C561CB82CB92CBA2CA4
:10297200B22C67080319BE2CBF2CF32C0130D607EA
:10298200003003180130D707003003180130D80790
:10299200003003180130D907591CD02CD12CF32C4C
:1029A2005608DE005708DF005808E0005908E10029
:1029B2000130E200610DE10CE00CDF0CDE0CE20BF9
:1029C200DB2C6108D9006008D8005F08D7005E08D8
:1029D200D600680A0319EE2CEF2CF32C0130DE002E
:1029E2005E08E807680A0319F72CF82CFD2C680822
:1029F200031DFC2CFD2C0B2D0030D9000030D8001B
:102A02000030D7000030D6006808031D092D0A2DBA
:102A12000B2DE601681C0E2D0F2D112DD817152D2B
:102A22007F30DE005E08D8056808DE0003105E0C09
:102A3200DF005F08D900E61F1F2D202D212DD91799
:102A42000800CC01CD0145162A2D83160313451526
:102A52004A2D013083160313A807FF30280784008C
:102A62000A168A1500200A168A11CF008312031350
:102A7200EA00EB016B08003A0319422D0A128A118F
:102A8200592D6A08003A0319FD2F663A0319262DBB
:102A92003F2D0030440583120313EA0007308316EA
:102AA2000313450583120313EB006A086B04031931
:102AB2005B2D5E2D0A128A11072C83160313451E05
:102AC200632D642D682D0630CC000030CD0039080E
:102AD200840083130008C800840A0008C900840A1D
:102AE2000008CA00840A0008CB00043083120313D2
:102AF200EA006A0883160313B9074B08F5004A086F
:102B0200F4004908F3004808F2000030F9000030F0
:102B1200F8000030F7000030F6000A168A15A026E9
:102B22000A168A110318962D972DB42D83160313B6
:102B32004B08F5004A08F4004908F3004808F2007F
:102B42000A168A1100200A168A11750883160313C1
:102B5200CB007408CA007308C9007208C8000330A9
:102B6200C4040030C50483160313C201C3014B0819
:102B7200F5004A08F4004908F3004808F200003062
:102B8200F9000030F8000030F7000030F6000A16B5
:102B92008A156D240A168A110318D02DD12DD12E33
:102BA2000310831603134A0D4B0D823EC200FF3001
:102BB20003180030C300FF30C2070318C30AFF30F6
:102BC200C3070330F2000030F3004308F500420867
:102BD200F4000A168A153B230A168A117308831613
:102BE2000313C3007208C2000A3083120313A00049
:102BF2000030A10083160313430883120313A300BA
:102C020083160313420883120313A2000A128A11C5
:102C120087270A168A1183120313210883160313C6
:102C2200C30083120313200883160313C200C31FB9
:102C32001B2E1C2E222EFF30C2070318C30AFF30A0
:102C4200C3074203FF3A0A128A159D240A168A1103
:102C520083120313450883160313C100831203135F
:102C6200440883160313C000831203134308831618
:102C72000313BF0083120313420883160313BE001B
:102C82004B0883120313AB00831603134A08831203
:102C92000313AA0083160313490883120313A9001E
:102CA20083160313480883120313A8008316031321
:102CB200410883120313AF008316031340088312E3
:102CC2000313AE00831603133F0883120313AD00F0
:102CD200831603133E0883120313AC000A128A15EB
:102CE2003C210A168A11831203132B08831603133D
:102CF200C100831203132A0883160313C000831230
:102D02000313290883160313BF0083120313280831
:102D120083160313BE004108F5004008F4003F0883
:102D2200F3003E08F2003F30F9008030F800003036
:102D3200F7000030F6000A168A15A0260A168A1134
:102D42000318A42EA52EAE2EFF3083160313C2073E
:102D52000318C30AFF30C307D12E83160313410899
:102D6200F5004008F4003F08F3003E08F20041304D
:102D7200F9002030F8000030F7000030F6000A16A3
:102D82008A15A0260A168A11031CC82EC92ED12E16
:102D9200013083160313C2070318C30A0030C307A6
:102DA200831603134D08803AFF0080307F02031D13
:102DB200DC2E0D304C020318DF2EE02E272F831657
:102DC20003134C080A128A117A250A168A118312F1
:102DD20003134508D9004408D8004308D700420825
:102DE200D600831603134B0883120313DD008316E8
:102DF20003134A0883120313DC00831603134908E2
:102E020083120313DB008316031348088312031390
:102E1200DA000A168A119A220A168A1183120313F9
:102E2200590883160313CB00831203135808831621
:102E32000313CA0083120313570883160313C9002E
:102E420083120313560883160313C8008316031351
:102E52004308803AFF0080307F02031D322F0A3080
:102E620042020318352F362F892F831603134B087E
:102E7200F5004A08F4004908F3004808F20000305F
:102E8200F9000030F8000030F7000030F6000A16B2
:102E92008A156D240A168A110318502F532F0A120D
:102EA2008A111D28831603134B0883120313D800BB
:102EB200831603134A0883120313D70083160313DE
:102EC200490883120313D60083160313480883129A
:102ED2000313D5000A168A1524260A168A118312AC
:102EE20003135808570456045504031D792F7A2FEB
:102EF200502F831603134308803AFF0080307F026D
:102F0200031D852F02304202031C882F892F502F68
:102F1200831603134108F5004008F4003F08F3004C
:102F22003E08F2004030F9008930F8007030F700B6
:102F32005F30F6000A168A15A0260A168A110318AF
:102F4200A32FA42FAD2FF73083160313C207031844
:102F5200C30AFF30C307B52FF83083160313C20725
:102F62000318C30AFF30C30742080A128A159D24B8
:102F72000A168A1183120313450883160313C1002C
:102F820083120313440883160313C000831203132E
:102F9200430883160313BF008312031342088316E8
:102FA2000313BE004B08F5004A08F4004908F30079
:102FB2004808F2004108F9004008F8003F08F7000D
:102FC2003E08F6000A168A11DD200A168A117508D3
:102FD20083160313BD007408BC007308BB0072089B
:102FE200BA000030CB000030CA000030C900003007
:102FF200C8000A128A1183280A128A11732D183006
:103002008A000408840A82070034003400348034C1
:103012003F34003400342034413400340034C834A6
:103022004234003400347A344434003440341C34A2
:10303200463400345034C3344734003424347434B6
:1030420049348034963418344B342034BC34BE3482
:103052004C3428346B346E344E34F9340234153423
:103062005034EC347834AD346034CA34F2344934F8
:1030720071340034003480343F34CD34CC34CC3419
:103082003D340A34D73423343C346F34123483341D
:103092003A341734B734D1343834AC34C5342734E5
:1030A2003734BD343734863435349534BF34D6346E
:1030B20033347734CC342B3432345F347034893443
:1030C2003034FF34E634DB342E340834E5343C3417
:1030D2001E3460344234A2340D34013400340034DE
:1030E20000340A34003400340034643400340034D0
:1030F2000034E8340334003400341034273400340C
:103102000034A034863401340034403442340F3465
:10311200003480349634983400340034E134F53489
:1031220005340034CA349A343B342C3425343034D8
:103132002E34303466342C34253430342E3430344A
:1031420066342C34253430342E34303466342C3406
:02315200003447
:10352000831603130F088F3960388F000F140800BB
:1035300064008001840A0406031900340406992AF1
:103540000A128A11F0270A168A158316031311141A
:1035500008000A128A11F0270A168A158316031327
:10356000111508000A128A11F0270A168A15720826
:103570008312031393000800F200831203130C1E3E
:10358000C22AC32ABD2A720899000800F300F2017A
:103590003A3073020318CD2ACE2AD62A303073026D
:1035A000031CD32AD42AD62AF201F20A720C08008C
:1035B000831203138C1EDD2ADE2AF22A31301A060A
:1035C000031DE32AE42AE82A83160313DF01DF0A36
:1035D000303083121A06031DEE2AEF2AF22A8316D0
:1035E0000313DF0171088A00700E8300FE0E7E0E49
:1035F0000900F600F401F5010E2B74087607F300BC
:103600007308840000080A168A15BC220A168A1557
:103610000130F4070318F50A0030F507740876073F
:10362000F3007308840083130008031D182B192B63
:10363000FD2A0800831603178801890183160313E6
:103640008801850183120313880185018B170B17ED
:10365000831603138C16003083120313A800013065
:10366000A7008630A600A030A5000A168A15B5234B
:103670000A168A150800F601F701721C402B412B2F
:10368000472B7408F6070318F70A7508F707013087
:103690000310F40DF50DFF3E031D482B0130031000
:1036A000F30CF20CFF3E031D4F2B72087304031D35
:1036B0005A2B5B2B3D2B7708F3007608F2000800AD
:1036C000FA00F601F7017208F400F5017408F80039
:1036D0007508F9007A1C6D2B6E2B742B7808F60791
:1036E0000318F70A7908F70701300310F80DF90DF0
:1036F000FF3E031D752B0310FA0C7A08031D812B66
:10370000822B6A2B7708F3007608F20008000A1271
:103710008A11F0270A168A158316031391150A12C7
:103720008A11F0270A168A15831203131308F4006E
:10373000F5017408F6007508F7000A128A11F027DF
:103740000A168A1572037304031DA72BA82BAC2B32
:10375000831603139112AF2B8316031391161116C0
:103760007708F3007608F20008002830831203136C
:103770009400831603139101831203132508A900F3
:103780002608AA002708AB002808AC000230031066
:10379000A90DAA0DAB0DAC0DFF3E031DC72B2C08C8
:1037A000F5002B08F4002A08F3002908F200003085
:1037B000F9003D30F8000930F7000030F6000A1635
:1037C0008A15BC250A168A157208FF3E8316031354
:1037D00093009401871507160800720873040319F3
:1037E000F22BF32B222CF701F70A012C01300310E6
:1037F000F20DF30DFF3E031DF72B0130F6007608A6
:10380000F707F31F042C052CF62B73087502031D14
:103810000B2C72087402031C0E2C0F2C152C720832
:10382000F4027308031CF503F50201300310F30CD6
:10383000F20CFF3E031D162C0130F702031D212C54
:10384000222C052C7508F3007408F200080083127E
:103850000313A501A601200821040319302C312CE3
:10386000682CA401A40A3F2C01300310A00DA10D67
:10387000FF3E031D352C0130F8007808A407A11F76
:10388000422C432C342C01300310A50DA60DFF3E15
:10389000031D442C21082302031D502C2008220262
:1038A000031C532C542C5B2C2008A2022108031C5F
:1038B000A303A302251401300310A10CA00CFF3EAA
:1038C000031D5C2C0130A402031D672C682C432CC3
:1038D0002608A1002508A000080000307205831208
:1038E0000313A00000307305A10080307405A2000E
:1038F0007F307505A3002308220421042004031D42
:10390000822C832C8B2C0030F5000030F40000302A
:10391000F3000030F20000307605A000003077059B
:10392000A10080307805A2007F307905A30023082C
:10393000220421042004031D9E2C9F2CA72C003060
:10394000F9000030F8000030F7000030F600790888
:103950007506031DB52C78087406031DB52C770871
:103960007306031DB52C760872060319B82CB92C02
:10397000BB2C0310BC2C03140800803083160313E7
:10398000A306270883120313D900831603132608FE
:1039900083120313D800831603132508831203131D
:1039A000D70083160313240883120313D60083164B
:1039B0000313230883120313DD0083160313220865
:1039C00083120313DC0083160313210883120313ED
:1039D000DB0083160313200883120313DA000A1690
:1039E0008A119A220A168A1583120313590883161C
:1039F0000313A30083120313580883160313A200B2
:103A000083120313570883160313A10083120313B1
:103A1000560883160313A000080075087404730485
:103A200072040319142D152D5A2D83120313A001AE
:103A3000A00A272D0130FA000310F20DF30DF40D4A
:103A4000F50DFA0B1C2D0130FA007A08A007F51FBE
:103A50002A2D2B2D1A2D75087902031D392D740876
:103A60007802031D392D73087702031D392D720862
:103A70007602031C3C2D3D2D4B2D7208F602730877
:103A8000031C730FF7027408031C740FF802750807
:103A9000031C750FF90201300310F50CF40CF30C44
:103AA000F20CFF3E031D4C2D0130A002031D592DC9
:103AB0005A2D2B2D7908F5007808F4007708F300CB
:103AC0007608F2000800F801F51F672D682D6F2DAC
:103AD000F409F509F40A0319F50AF801F80AF31FC5
:103AE000722D732D782DF209F309F20A0319F30AE6
:103AF0007208730403197D2D7E2DAD2DF701F70A91
:103B00008C2D01300310F20DF30DFF3E031D822DAD
:103B10000130F6007608F707F31F8F2D902D812DC9
:103B200073087502031D962D72087402031C992DEB
:103B30009A2DA02D7208F4027308031CF503F502F8
:103B400001300310F30CF20CFF3E031DA12D0130D8
:103B5000F702031DAC2DAD2D902D78080319B12D62
:103B6000B22DB72DF409F509F40A0319F50A750801
:103B7000F3007408F2000800003083120313A3005E
:103B80000030A2000030A1000030A00075087404CD
:103B9000730472040319CD2DCE2D1B2EA401A40A8B
:103BA000DE2D0130FA000310F20DF30DF40DF50DCA
:103BB000FA0BD32D0130FA007A08A407F51FE12D86
:103BC000E22DD12D0130FA000310A00DA10DA20DA0
:103BD000A30DFA0BE42D75087902031DF92D740865
:103BE0007802031DF92D73087702031DF92D720861
:103BF0007602031CFC2DFD2D0C2E7208F6027308B4
:103C0000031C730FF7027408031C740FF802750885
:103C1000031C750FF902201401300310F50CF40C8D
:103C2000F30CF20CFF3E031D0D2E0130A402031D08
:103C30001A2E1B2EE22D2308F5002208F40021087D
:103C4000F3002008F2000800031083120313570D3D
:103C5000580DD9005908DF005F08031D302E312EA2
:103C60003A2E0030D8000030D7000030D6000030A7
:103C7000D5009F2E5508D9005608DA005708DB00FA
:103C80005808DC001F300310DC0CDB0CDA0CD90CFC
:103C9000FF3E031D432E5908DD005D08DE00D717E7
:103CA000FF30D505FF30D605FF30D7050030D805E9
:103CB0009630DF02DF1F5D2E5E2E782E5F08803A81
:103CC000973E0318642E652E662E312E01300310A8
:103CD000D80CD70CD60CD50CFF3E031D672E013037
:103CE000D9005908DF07031D762E772E662E8F2EFA
:103CF00020305F02031C7D2E7E2E8A2E312E013055
:103D0000D9000310D50DD60DD70DD80DD90B812EA6
:103D10000130DF025F08031D8E2E8F2E7F2E5E087E
:103D20000319932E942E9F2ED509D609D709D809A9
:103D3000D50A0319D60A0319D70A0319D80A0800A5
:103D40000030720583120313A00000307305A10038
:103D500080307405A2007F307505A300230822047B
:103D600021042004031DB52EB62EBE2E0030F50012
:103D70000030F4000030F3000030F200003076052F
:103D8000A00000307705A10080307805A2007F30C8
:103D90007905A3002308220421042004031DD12E49
:103DA000D22EDA2E0030F9000030F8000030F70093
:103DB0000030F600F51FDD2EDE2E022F0030A000B1
:103DC0000030A1000030A2008030A3007208A002E1
:103DD0007308031C730FED2EEE2EA1027408031C52
:103DE000740FF32EF42EA2027508031C750FF92E22
:103DF000FA2EA3022308F5002208F4002108F3009C
:103E00002008F200F91F052F062F2A2F0030A000EE
:103E10000030A1000030A2008030A3007608A0028C
:103E20007708031C770F152F162FA1027808031CA3
:103E3000780F1B2F1C2FA2027908031C790F212F4A
:103E4000222FA3022308F9002208F8002108F70016
:103E50002008F6008030F5068030F90679087502F2
:103E6000031D3C2F78087402031D3C2F7708730252
:103E7000031D3C2F7608720203183F2F402F422F5C
:103E80000310432F0314080083120313A00020081B
:103E900003194B2F4C2F602FF51F4F2F502F602FE2
:103EA0007209A2007309A3007409A4007509A50092
:103EB000A20A0319A30A0319A40A0319A50A682F61
:103EC0007508A5007408A4007308A3007208A20076
:103ED0007508740473047204031D6F2F702F792FFB
:103EE0000030F5000030F4000030F3000030F20044
:103EF000FF2F9630F6007608A1008B2F0130F600D8
:103F00007608A10701300310A50CA40CA30CA20C89
:103F1000FF3E031D832FFE302505031D902F912F9B
:103F20007E2FAD2F0130F6007608A1070130A207E1
:103F3000003003180130A307003003180130A40734
:103F4000003003180130A50701300310A50CA40CA4
:103F5000A30CA20CFF3E031DA52FFF302505031D5A
:103F6000B22FB32F922FBF2F0130A1020130F600E4
:103F70000310A20DA30DA40DA50DF60BB82FA41BC5
:103F8000C22FC32FC92F023021020318C82FC92FF7
:103F9000B42F2118CC2FCD2FD52FFF30A205FF3005
:103FA000A3057F30A405FF30A5050310A10C21084F
:103FB000F600F701F801F90118300310F60DF70DBE
:103FC000F80DF90DFF3E031DDD2F7608A2047708DA
:103FD000A3047808A4047908A50420080319F12F84
:103FE000F22FF72FF51FF52FF62FF72FA51725081E
:103FF000F5002408F4002308F3002208F20008006A
:04400E00D420FF3F7C
:00000001FF
