:020000040000FA
:060000000A128A11F62F1E
:100D0A00831603130F088F3960388F000F140800F9
:100D1A000A128A11A9260A128A11831603131114B8
:100D2A0008000A128A11A9260A128A1183160313C5
:100D3A00111508000A128A11A9260A128A117008C6
:100D4A008312031393000800831603131419AE2E9B
:100D5A00AF2EA92E11081F39031DB42EB52EA92EA8
:100D6A000800831603178801890183160313880173
:100D7A008312031388010030A3000130A2008630D9
:100D8A00A100A030A0000A128A11FC260A128A11B8
:100D9A0008000A128A11A9260A128A118316031355
:100DAA0091150A128A11A9260A128A1183120313AB
:100DBA001308F200F3017208F4007308F5000A122E
:100DCA008A11A9260A128A1170037104031DEE2ED4
:100DDA00EF2EF32E831603139112F62E83160313A6
:100DEA00911611167508F1007408F00008002830F1
:100DFA0083120313940083160313910183120313BE
:100E0A002008A4002108A5002208A6002308A7009C
:100E1A0002300310A40DA50DA60DA70DFF3E031D5C
:100E2A000E2F2708F3002608F2002508F1002408EF
:100E3A00F0000030F7003D30F6000930F5000030D0
:100E4A00F4000A128A1190270A128A117008FF3ECA
:100E5A0083160313930094018715071608000A12D4
:100E6A008A11B6260A128A110A128A1185260A12CC
:100E7A008A110A128A118D260A128A115130F0003B
:100E8A000030F1000A128A119F260A128A110030D4
:100E9A00F000F1000A128A11CE260A128A1170088D
:100EAA0083120313A8002808AE000A128A11962694
:100EBA000A128A11023083120313AA000430A9000D
:100ECA00B930A800A80B672FA90B672FAA0B672FA9
:100EDA006E2F831203132E080F39A8002808AD00BD
:100EEA002E08A80004300310A80CFF3E031D782F1B
:100EFA0028080F39A9002908AC002D0C031C08107A
:100F0A00031808142C0C031C8810031888143E2F8D
:100F1A000A128A1100280030FC000030FB00003061
:100F2A00FA000030F900730872047104700403199E
:100F3A009F2FA02FED2FFD01FD0AB02F0130F800E1
:100F4A000310F00DF10DF20DF30DF80BA52F013082
:100F5A00F8007808FD07F31FB32FB42FA32F013031
:100F6A00F8000310F90DFA0DFB0DFC0DF80BB62F66
:100F7A0073087702031DCB2F72087602031DCB2F4D
:100F8A0071087502031DCB2F70087402031CCE2F43
:100F9A00CF2FDE2F7008F4027108031C710FF502BF
:100FAA007208031C720FF6027308031C730FF70210
:100FBA00791401300310F30CF20CF10CF00CFF3E23
:100FCA00031DDF2F0130FD02031DEC2FED2FB42F7F
:100FDA007C08F3007B08F2007A08F1007908F00037
:100FEA00080083120313AB01AC01AD01AE0183010A
:060FFA000A128A11342FD7
:04400E00D420FF3F7C
:00000001FF
