:020000040000FA
:060000000A128A11F62F1E
:100CB600831603130F088F3960388F000F1408004E
:100CC6000A128A117F260A128A1183160313111437
:100CD60008000A128A117F260A128A118316031344
:100CE600111508000A128A117F260A128A11700845
:100CF6008312031393000800831603131419842E1A
:100D0600852E7F2E11081F39031D8A2E8B2E7F2ECE
:100D16000800831603178801890183160313081038
:100D26008810003083120313A3000130A20086301E
:100D3600A100A030A0000A128A11D2260A128A1136
:100D460008000A128A117F260A128A1183160313D3
:100D560091150A128A117F260A128A118312031329
:100D66001308F200F3017208F4007308F5000A1282
:100D76008A117F260A128A1170037104031DC42E7C
:100D8600C52EC92E831603139112CC2E8316031378
:100D9600911611167508F1007408F0000800283045
:100DA6008312031394008316031391018312031312
:100DB6002008A4002108A5002208A6002308A700F1
:100DC60002300310A40DA50DA60DA70DFF3E031DB1
:100DD600E42E2708F3002608F2002508F10024086F
:100DE600F0000030F7003D30F6000930F500003025
:100DF600F4000A128A110A270A128A117008FF3EA5
:100E06008316031393009401871507160800003014
:100E1600FC000030FB000030FA000030F9007308D7
:100E26007204710470040319192F1A2F672FFD011C
:100E3600FD0A2A2F0130F8000310F00DF10DF20D16
:100E4600F30DF80B1F2F0130F8007808FD07F31F8C
:100E56002D2F2E2F1D2F0130F8000310F90DFA0D3E
:100E6600FB0DFC0DF80B302F73087702031D452F81
:100E760072087602031D452F71087502031D452F62
:100E860070087402031C482F492F582F7008F4026B
:100E96007108031C710FF5027208031C720FF6022B
:100EA6007308031C730FF702791401300310F30C57
:100EB600F20CF10CF00CFF3E031D592F0130FD0220
:100EC600031D662F672F2E2F7C08F3007B08F20088
:100ED6007A08F1007908F00008000A128A118C26B7
:100EE6000A128A110A128A115B260A128A110A123A
:100EF6008A1163260A128A115030F0000030F10080
:100F06000A128A1175260A128A110030F000F100C1
:100F16000A128A1175260A128A110A128A116C2679
:100F26000A128A11023083120313AA000430A900A0
:100F3600B930A800A80B9D2FA90B9D2FAA0B9D2F9A
:100F4600A42F0A128A1163260A128A115130F00060
:100F56000030F1000A128A1175260A128A11003031
:100F6600F000F1000A128A11A4260A128A117008EA
:100F760083120313A8002808AE000A128A116C26F1
:100F86000A128A11023083120313AA000430A90040
:100F9600B930A800A80BCD2FA90BCD2FAA0BCD2FAA
:100FA600D42F831203132E080F39A8002808AD008A
:100FB6002E08A80004300310A80CFF3E031DDE2FE8
:100FC60028080F39A9002908AC002D0C031C0810AD
:100FD600031808142C0C031C8810031888147A2F85
:100FE6000A128A11002883120313AB01AC01AD016A
:0A0FF600AE0183010A128A11702F68
:04400E00D420FF3F7C
:00000001FF
