:020000040000FA
:060000000A128A11F32F21
:10000800730872047104700403190B280C280E2855
:100018008030F306080083120313A101F81F152886
:1000280016281D28F709F809F70A0319F80AA10183
:10003800A10AFA1F202821282A28F909FA09F90A09
:100048000319FA0A0130FB007B08A106A201A301EB
:10005800770878040319312832286928A001A00AF2
:10006800402801300310F70DF80DFF3E031D362818
:100078000130FB007B08A007F81F432844283528D7
:1000880001300310A20DA30DFF3E031D452878087B
:100098007A02031D512877087902031C5428552831
:1000A8005C287708F9027808031CFA03FA0222147C
:1000B80001300310F80CF70CFF3E031D5D280130DA
:1000C800A002031D682869284428210803196D28FF
:1000D8006E287328A209A309A20A0319A30A2308F0
:1000E800F8002208F700080083160313C900A1309E
:1000F800AD002D08B600DC2F25304C0603198528E5
:10010800862892284C08AD00490884002D088313DE
:1001180080000130AD002D08C907DC2FBD01BE01EC
:10012800BB01BC01200884000A128A150A200A12A1
:100138008A110A168A15B9210A128A11031CA528E0
:10014800A628E62883160313BD01BE010A30F00075
:100158000030F100831603133E08F3003D08F20057
:100168000A168A1564220A128A1171088316031363
:10017800BE007008BD00200884000A128A150A20F3
:100188000A128A11D03EAD00FF3003180030AE00CD
:100198002D08BD070318BE0A2E08BE070130AD00A2
:1001A8002D08A007200884000A128A150A200A12BE
:1001B8008A110A168A15B9210A128A110318E52824
:1001C800E628AA2883160313200884000A128A1531
:1001D8000A200A128A112E3A031DF328F428392915
:1001E8003C170130AD002D08A007CA01CB01282912
:1001F8000A30F0000030F100831603134B08F300B7
:100208004A08F2000A168A1564220A128A1171082D
:1002180083160313CB007008CA00200884000A1252
:100228008A150A200A128A11D03EAD00FF30031841
:100238000030AE002D08CA070318CB0A2E08CB07DA
:100248000130AD002D08A007200884000A128A1585
:100258000A200A128A110A168A15B9210A128A1165
:10026800031837293829FC283F29CA01CB013C1635
:100278003F293C155B29013083160313A007FF3083
:10028800200784000A128A150A200A128A11CC0053
:10029800AD00AE012E08003A03195329DC2F2D08B2
:1002A800003A0319EE2F663A03193D29DC2F003076
:1002B8003B05AD0007303C05AE002D082E040319A0
:1002C80066296729192F3C1E6A296B296F29063070
:1002D800CA000030CB003608840083130008C5002C
:1002E800840A0008C600840A0008C700840A0008B7
:1002F800C8000430AD002D08B6074808F3004708C9
:10030800F2004608F1004508F0000030F700003020
:10031800F6000030F5000030F4000A168A15A4260D
:100328000A128A11031899299A29B72983160313DF
:100338004808F3004708F2004608F1004508F000B5
:100348000A128A1104200A128A11730883160313E9
:10035800C8007208C7007108C6007008C5000330DD
:10036800BB040030BC0483160313C301C40148084E
:10037800F3004708F2004608F1004508F000003095
:10038800F7000030F6000030F5000030F4000A16DF
:100398008A15C7240A128A110318D329D429C42A12
:1003A800031083160313470D480D823EC300FF3028
:1003B80003180030C400FF30C3070318C40AFF3015
:1003C800C4070330F0000030F1004408F30043088C
:1003D800F2000A168A1564220A128A117108831615
:1003E8000313C4007008C3000A30F7000030F80097
:1003F8004408FA004308F9000A128A110F200A1269
:100408008A11780883160313C4007708C300C41F31
:100418000E2A0F2A152AFF30C3070318C40AFF3013
:10042800C4074303FF3A0A128A1540210A128A11A7
:1004380083120313410883160313C20083120313A4
:10044800400883160313C100831203133F08831661
:100458000313C000831203133E0883160313BF005F
:10046800480883120313A70083160313470883124F
:100478000313A60083160313460883120313A5006B
:1004880083160313450883120313A400831603136A
:10049800420883120313AB00831603134108831227
:1004A8000313AA0083160313400883120313A90039
:1004B800831603133F0883120313A8000A128A1530
:1004C8009F240A128A118312031327088316031321
:1004D800C20083120313260883160313C100831274
:1004E8000313250883160313C0008312031324087B
:1004F80083160313BF004208F3004108F2004008C6
:10050800F1003F08F0003F30F7008030F60000307F
:10051800F5000030F4000A168A15A4260A128A117A
:100528000318972A982AA12AFF3083160313C307B2
:100538000318C40AFF30C407C42A831603134208E9
:10054800F3004108F2004008F1003F08F000413094
:10055800F7002030F6000030F5000030F4000A16ED
:100568008A15A4260A128A11031CBB2ABC2AC42A8B
:10057800013083160313C3070318C40A0030C407E5
:10058800831603134B08803AFF0080307F02031D57
:10059800CF2A0D304A020318D22AD32A1A2B8316DF
:1005A80003134A080A168A116D230A128A11831244
:1005B80003134108D5004008D4003F08D3003E0883
:1005C800D20083160313480883120313D900831635
:1005D8000313470883120313D8008316031346082E
:1005E80083120313D70083160313450883120313DA
:1005F800D6000A168A1178250A128A118312031363
:10060800550883160313C80083120313540883166E
:100618000313C70083120313530883160313C6007A
:1006280083120313520883160313C500831603139A
:100638004408803AFF0080307F02031D252B0A30D2
:1006480043020318282B292B7A2B831603134808F7
:10065800F3004708F2004608F1004508F0000030B2
:10066800F7000030F6000030F5000030F4000A16FC
:100678008A15C7240A128A110318432B442BEC2B22
:1006880083160313480883120313D4008316031335
:10069800470883120313D3008316031346088312F3
:1006A8000313D20083160313450883120313D100E2
:1006B8000A168A1528260A128A1183120313540867
:1006C800530452045104031D6A2B6B2BEC2B831625
:1006D80003134408803AFF0080307F02031D762B05
:1006E80002304302031C792B7A2BEC2B831603135D
:1006F8004208F3004108F2004008F1003F08F0000A
:100708004030F7008930F6007030F5005F30F400B3
:100718000A168A15A4260A128A110318942B952BF7
:100728009E2BF73083160313C3070318C40AFF3040
:10073800C407A62BF83083160313C3070318C40A8B
:10074800FF30C40743080A128A1540210A128A1189
:1007580083120313410883160313C2008312031381
:10076800400883160313C100831203133F0883163E
:100778000313C000831203133E0883160313BF003C
:100788004808F3004708F2004608F1004508F00061
:100798004208F7004108F6004008F5003F08F40059
:1007A8000A168A11C7200A128A11730883160313BE
:1007B800BA007208B9007108B8007008B7000030B4
:1007C800C8000030C7000030C6000030C500702CDB
:1007D80083160313480883120313D40083160313E4
:1007E800470883120313D3008316031346088312A2
:1007F8000313D20083160313450883120313D10091
:100808000A168A1528260A128A1183120313540815
:1008180083160313BA0083120313530883160313B2
:10082800B90083120313520883160313B800831206
:100838000313510883160313B7003A08F300390865
:10084800F2003808F1003708F00000300A168A155F
:1008580046270A128A11730883120313E9007208E3
:10086800E8007108E7007008E600831603134808DB
:1008780083120313ED00831603134708831203132F
:10088800EC0083160313460883120313EB00831648
:100898000313450883120313EA000A168A15402237
:1008A8000A128A1183120313690883160313C800F6
:1008B80083120313680883160313C70083120313F4
:1008C800670883160313C60083120313660883168A
:1008D8000313C500C301C401CC01CC0A4C08AD0008
:1008E80001300310AD0DFF3E031D752C03102D0DB7
:1008F800693E84000A128A150A200A128A11AE007B
:100908000A128A150A200A128A11AF000A128A15D9
:100918000A200A128A11B0000A128A150A200A123D
:100928008A11B10031083A02031DA42C300839029B
:10093800031DA42C2F083802031DA42C2E083702EF
:100948000318A72CA82CA92CB32C0130AD002D0816
:10095800CC070A304C06031DB22CB32C722C4C0861
:100968004A07AD004B0803184B0AAE0043082D0791
:10097800AF0044080318440A2E07B0002F08BD0230
:100988003008031CBE03BE024A084B040319CD2CD1
:10099800CE2CD42CFF30BD070318BE0AFF30BE078B
:1009A80003303B05AD0000303C05AE002D082E0499
:1009B8000319DF2CE02CF52CFF30BD070318BE0A05
:1009C800FF30BE07F52C203083160313AD0049080D
:1009D80084002D08831380000130AD002D08C9075D
:1009E800E02C3E08803AFF0080307F02031DFE2C79
:1009F80001303D020318012D022DE72C0330831628
:100A080003133B05AD0000303C05AE002D082E0455
:100A180003190F2D102D822D2D30AD0049088400AB
:100A28002D08831380000130AD002D08C907822DE1
:100A38004C08AD0001300310AD0DFF3E031D1F2D06
:100A480003102D0D693E84000A128A150A200A1225
:100A58008A11F0000A128A150A200A128A11F10076
:100A68000A128A150A200A128A11F2000A128A1535
:100A78000A200A128A11F3003A08F7003908F6002A
:100A88003808F5003708F4000A168A15C2250A1234
:100A98008A11730883160313C2007208C100710813
:100AA800C0007008BF000030F3000030F2000030D2
:100AB800F1000A30F0004208F7004108F60040084B
:100AC800F5003F08F4000A168A1515250A128A113E
:100AD800730883160313C2007208C1007108C000AE
:100AE8007008BF003F08303EAD00490884002D085B
:100AF800831380000130AD002D08C9070130CC02F6
:100B08004C0A031D882D892D1C2D9D2D30308316F0
:100B18000313AD00490884002D08831380000130B9
:100B2800AD002D08C907FF30C3070318C40AFF30FA
:100B3800C4074408803AFF0080307F02031DA62DB9
:100B4800013043020318A92DAA2D8A2D83160313F9
:100B58004B08803AFF0080307F02031DB52D093015
:100B68004A02031CB82DB92DC02D08308316031373
:100B7800AD002D08CC00C62D831603134A08AD001E
:100B88002D08CC004C08AD00AE012D08CA022E0875
:100B9800031CCB03CB024C080319D32DD42DDF2D16
:100BA8002E30AD00490884002D08831380000130E1
:100BB800AD002D08C9074C080A128A1540210A12EF
:100BC8008A1183120313410883160313B500831295
:100BD8000313400883160313B400831203133F085A
:100BE80083160313B300831203133E0883160313FB
:100BF800B200350883120313AB00831603133408BD
:100C080083120313AA0083160313330883120313F2
:100C1800A90083160313320883120313A80083164E
:100C28000313480883120313A70083160313470806
:100C380083120313A60083160313460883120313B3
:100C4800A50083160313450883120313A4000A1290
:100C58008A159F240A128A11831203132708D400C5
:100C68002608D3002508D2002408D1000A168A15C0
:100C780028260A128A1183120313540883160313B1
:100C8800BA0083120313530883160313B90083129F
:100C98000313520883160313B80083120313510871
:100CA80083160313B700F92E4C08AD00013003106A
:100CB800AD0DFF3E031D5B2E03102D0D693E840014
:100CC8000A128A150A200A128A11F0000A128A15D5
:100CD8000A200A128A11F1000A128A150A200A1239
:100CE8008A11F2000A128A150A200A128A11F300E0
:100CF8003A08F7003908F6003808F5003708F40014
:100D08000A168A15C2250A128A1173088316031354
:100D1800C2007208C1007108C0007008BF0000302E
:100D2800F3000030F2000030F1000A30F000420811
:100D3800F7004108F6004008F5003F08F4000A16DD
:100D48008A1515250A128A11730883160313C2001F
:100D58007208C1007108C0007008BF003F08303E2B
:100D6800AD00490884002D08831380000130AD00D0
:100D78002D08C9074C08AD0001300310AD0DFF3E2A
:100D8800031DC12E03102D0D693E84000A128A1519
:100D98000A200A128A11F0000A128A150A200A1279
:100DA8008A11F1000A128A150A200A128A11F20021
:100DB8000A128A150A200A128A11F3003A08F70063
:100DC8003908F6003808F5003708F4000A168A15BD
:100DD80015250A128A11730883160313BA007208BC
:100DE800B9007108B8007008B7000130CC024C0A8D
:100DF800031DFF2E002F582E122F3030AD0049084A
:100E080084002D08831380000130AD002D08C90728
:100E1800FF30CA070318CB0AFF30CB074A084B0438
:100E2800031D172F182F012FDC2F4A084B04031D11
:100E38001E2F1F2F2D2F3A08390438043704031D9D
:100E4800262F272F2D2F0130CA070318CB0A003071
:100E5800CB074B08803A803C031D342F4A084C02CC
:100E68000318372F382F3F2F831603134A08AD0076
:100E78002D08CC00572F831603134B08803AAD007A
:100E880080302D02031D4A2F4C084A0203184D2FAB
:100E98004E2F572F831603134C08AD00AE012D08B3
:100EA800CA002E08CB00831603133D083E0403191D
:100EB8005E2F5F2F712F03303B05AD0000303C05DE
:100EC800AE002D082E0403196A2F6B2F712FFF30E7
:100ED800BD070318BE0AFF30BE073C1F742F752FCD
:100EE800902F4B08803AAD003E08803A2D02031D32
:100EF8007F2F3D084A020318822F832F8C2F8316D9
:100F080003134A08BD024B08031CBE03BE02902F00
:100F180083160313BD01BE013E08803A803C031DC1
:100F2800972F3D084C0203189A2F9B2FA72F831643
:100F380003134C08AD00AE012D08BD022E08031C9A
:100F4800BE03BE02AB2F83160313BD01BE013D08CD
:100F58003E040319B02FB12FC82F2030AD00490827
:100F680084002D08831380000130AD002D08C907C7
:100F7800FF30BD070318BE0AFF30BE073D083E0418
:100F8800031DC72FC82FB12F03303B05AD0000301C
:100F98003C05AE002D082E040319D32FD42FDC2FC7
:100FA8002D30AD00490884002D08831380008D285A
:100FB8000130A007FF30200784000A128A150A2092
:100FC8000A128A11AD002D08CC004C08031DED2F24
:100FD800EE2F8028490884008313800108008313BA
:100FE800D0308400E9300A168A1585210A128A1140
:100FF80083010A168A118529FF1B0A2883137F1883
:1010080083170008840A0319FF0A080008308A00B9
:101018000408840A820700340034003480343F34E2
:10102800003400342034413400340034C8344234AD
:10103800003400347A344434003440341C344634A8
:1010480000345034C33447340034243474344934BD
:101058008034963418344B342034BC34BE344C3489
:1010680028346B346E344E34F93402341534503429
:10107800EC347834AD346034CA34F23449347134E1
:101088000034003480343F34CD34CC34CC343D3457
:101098000A34D73423343C346F34123483343A342A
:1010A8001734B734D1343834AC34C53427343734F2
:1010B800BD343734863435349534BF34D63433347C
:1010C8007734CC342B3432345F3470348934303450
:1010D800FF34E634DB342E340834E5343C341E3433
:1010E80060344234A2340D34013400340034003406
:1010F8000A340034003400346434003400340034DA
:10110800E834033400340034103427340034003415
:10111800A034863401340034403442340F3400346F
:1011280080349634983400340034E134F53405348E
:101138000034CA349A343B34253433342E343134B1
:1011480066344B342034253433342E343134663409
:1011580056342034253433342E3430346634003455
:101168002034533431343A34203420342034533446
:1011780032343A34203420342034533433343A343B
:02118800003431
:10118E0083160313A400433083120313D500693072
:10119E00D4002630D3006630D2003F30A700203076
:1011AE00A600A030A5009030A400831603132408D7
:1011BE0083120313EA00EB01EC01ED016D08F3005D
:1011CE006C08F2006B08F1006A08F00001300A1694
:1011DE008A1546270A128A15730883120313AB0069
:1011EE007208AA007108A9007008A8000A128A15D0
:1011FE009F240A128A15831203132708D900260882
:10120E00D8002508D7002408D6000A168A1178259A
:10121E000A128A1583120313550883160313A300AB
:10122E0083120313540883160313A20083120313AD
:10123E00530883160313A100831203135208831657
:10124E000313A000230883120313E900831603136C
:10125E00220883120313E800831603132108831256
:10126E000313E70083160313200883120313E6000B
:10127E00080083120313D000D01F46294729F42AF1
:10128E00D009D00A5008803A123E031C4F2950292B
:10129E00382A0A30F7000030F8005008F200F30147
:1012AE00F21BF3036430F0000030F1000A168A15C9
:1012BE0069250A128A157108FA007008F9000A12D7
:1012CE008A110F200A128A15770883120313C2009F
:1012DE0001300310C20DFF3E031D70290310420D95
:1012EE00593E84000A128A150A200A128A15C30072
:1012FE000A128A150A200A128A15C4000A128A15C1
:10130E000A200A128A15C5000A128A150A200A1224
:10131E008A15C6004608A7004508A6004408A50081
:10132E004308A4006430F7000030F8005008F900BC
:10133E00FA01F91BFA030A128A110F200A128A15F2
:10134E00770883120313C70001300310C70DFF3E49
:10135E00031DAC290310470D7D3E84000A128A1529
:10136E000A200A128A15C8000A128A150A200A12C1
:10137E008A15C9000A128A150A200A128A15CA008D
:10138E000A128A150A200A128A15CB004B08AB00E6
:10139E004A08AA004908A9004808A8000A128A1596
:1013AE009F240A128A15831203132708CF002608DA
:1013BE00CE002508CD002408CC000A30F000003005
:1013CE00F1005008F200F301F21BF3030A168A151E
:1013DE0069250A128A15700883120313C2000130A0
:1013EE000310C20DFF3E031DF7290310420D353EBB
:1013FE0084000A128A150A200A128A15C3000A12DC
:10140E008A150A200A128A15C4000A128A150A20A1
:10141E000A128A15C5000A128A150A200A128A159E
:10142E00C6004608A7004508A6004408A5004308C4
:10143E00A4004F08AB004E08AA004D08A9004C08A6
:10144E00A8000A128A159F240A128A158312031302
:10145E002708C1002608C0002508BF002408BE00CA
:10146E009E2C5008803A753E031C3E2A3F2AC72AFE
:10147E000A30F0000030F1005008F200F301F21BC8
:10148E00F3030A168A1569250A128A157008831243
:10149E000313C20001300310C20DFF3E031D522A7A
:1014AE000310420D353E84000A128A150A200A12D4
:1014BE008A15C3000A128A150A200A128A15C40058
:1014CE000A128A150A200A128A15C5000A128A15EE
:1014DE000A200A128A15C6004608A7004508A6006B
:1014EE004408A5004308A4000A30F7000030F800B5
:1014FE005008F900FA01F91BFA030A128A110F209B
:10150E000A128A15770883120313C70001300310DD
:10151E00C70DFF3E031D8E2A0310470D593E840052
:10152E000A128A150A200A128A15C8000A128A158A
:10153E000A200A128A15C9000A128A150A200A12EE
:10154E008A15CA000A128A150A200A128A15CB00B9
:10155E004B08AB004A08AA004908A9004808A80091
:10156E000A128A159F240A128A158312031327085A
:10157E00C1002608C0002508BF002408BE009E2C0E
:10158E005008C20001300310C20DFF3E031DCA2ACF
:10159E000310420D353E84000A128A150A200A12E3
:1015AE008A15C3000A128A150A200A128A15C40067
:1015BE000A128A150A200A128A15C5000A128A15FD
:1015CE000A200A128A15C6004608C1004508C00046
:1015DE004408BF004308BE009E2C5008803A123EBD
:1015EE00031CFA2AFB2AE32B0A30F7000030F8001E
:1015FE005008F200F301F21BF3036430F0000030E8
:10160E00F1000A168A1569250A128A157108FA0060
:10161E007008F9000A128A110F200A128A1577082B
:10162E0083120313C20001300310C20DFF3E031DCF
:10163E001B2B0310420D253E84000A128A150A2028
:10164E000A128A15C3000A128A150A200A128A156E
:10165E00C4000A128A150A200A128A15C5000A1237
:10166E008A150A200A128A15C6004608A7004508E0
:10167E00A6004408A5004308A4006430F70000301B
:10168E00F8005008F900FA01F91BFA030A128A1140
:10169E000F200A128A15770883120313C700013030
:1016AE000310C70DFF3E031D572B0310470D493E78
:1016BE0084000A128A150A200A128A15C8000A1214
:1016CE008A150A200A128A15C9000A128A150A20DA
:1016DE000A128A15CA000A128A150A200A128A15D7
:1016EE00CB004B08AB004A08AA004908A9004808DD
:1016FE00A8000A128A159F240A128A158312031350
:10170E002708CF002608CE002508CD002408CC00DF
:10171E000A30F0000030F1005008F200F301F21B25
:10172E00F3030A168A1569250A128A1570088312A0
:10173E000313C20001300310C20DFF3E031DA22B86
:10174E000310420D013E84000A128A150A200A1265
:10175E008A15C3000A128A150A200A128A15C400B5
:10176E000A128A150A200A128A15C5000A128A154B
:10177E000A200A128A15C6004608A7004508A600C8
:10178E004408A5004308A4004F08AB004E08AA0069
:10179E004D08A9004C08A8000A128A159F240A12A7
:1017AE008A15831203132708C1002608C0002508D6
:1017BE00BF002408BE009E2C5008803A753E031CC4
:1017CE00E92BEA2B722C0A30F0000030F1005008A1
:1017DE00F200F301F21BF3030A168A1569250A12A9
:1017EE008A15700883120313C20001300310C20D54
:1017FE00FF3E031DFD2B0310420D013E84000A1215
:10180E008A150A200A128A15C3000A128A150A209E
:10181E000A128A15C4000A128A150A200A128A159B
:10182E00C5000A128A150A200A128A15C600460831
:10183E00A7004508A6004408A5004308A4000A30E6
:10184E00F7000030F8005008F900FA01F91BFA030E
:10185E000A128A110F200A128A15770883120313AF
:10186E00C70001300310C70DFF3E031D392C0310B6
:10187E00470D253E84000A128A150A200A128A157F
:10188E00C8000A128A150A200A128A15C9000A12FD
:10189E008A150A200A128A15CA000A128A150A2007
:1018AE000A128A15CB004B08AB004A08AA00490859
:1018BE00A9004808A8000A128A159F240A128A1540
:1018CE00831203132708C1002608C0002508BF0095
:1018DE002408BE009E2C5008C20001300310C20D19
:1018EE00FF3E031D752C0310420D013E84000A12AB
:1018FE008A150A200A128A15C3000A128A150A20AE
:10190E000A128A15C4000A128A150A200A128A15AA
:10191E00C5000A128A150A200A128A15C600460840
:10192E00C1004508C0004408BF004308BE000800BF
:10193E008312031327088039AC002C08B100270846
:10194E00AC002C07AD002D08B700A61FAF2CB02C95
:10195E00B12C371437080319B52CB62CC52C370A01
:10196E00031DBA2CBB2CC32C0030A7000030A600E0
:10197E000030A5000030A400A617CD2C0030A70023
:10198E000030A6000030A5000030A4002B088039DE
:10199E00AC002C08B1062B08AC002C07AD002D08AE
:1019AE00B600AA1FDB2CDC2CDD2C361436080319EE
:1019BE00E12CE22CF12C360A031DE62CE72CEF2C41
:1019CE000030AB000030AA000030A9000030A800A3
:1019DE00AA17F92C0030AB000030AA000030A90085
:1019EE000030A80036080319FD2CFE2C032D3708F5
:1019FE00031D022D032D0C2D0030A7000030A60074
:101A0E000030A5000030A400FF2F2408AC002C08E5
:101A1E00F0002A080A168A1589220A128A157108F8
:101A2E0083120313BD007008BC003C08AC00AD016E
:101A3E00AE01AF012F08B5002E08B4002D08B3007B
:101A4E002C08B2003D08AC00AD01AE01AF012F086D
:101A5E00BB002E08BA002D08B9002C08B8002508C6
:101A6E00AC002C08F00029080A168A1589220A12E1
:101A7E008A15710883120313BD007008BC003C0860
:101A8E00AC00AD01AE01AF012C08B2072D08031159
:101A9E000318013E0319542DB3072E080311031822
:101AAE00013E03195B2DB4072F0803110318013EE5
:101ABE000319622DB5073D08AC00AD01AE01AF01B3
:101ACE002C08B8072D0803110318013E0319702DB9
:101ADE00B9072E0803110318013E0319772DBA0713
:101AEE002F0803110318013E03197E2DBB0726088C
:101AFE00AC002C08F00028080A168A1589220A1252
:101B0E008A15710883120313BD007008BC003C08CF
:101B1E00AC00AD01AE01AF012C08B2072D080311C8
:101B2E000318013E03199C2DB3072E080311031849
:101B3E00013E0319A32DB4072F0803110318013E0C
:101B4E000319AA2DB5073D08AC00AD01AE01AF01DA
:101B5E002C08B8072D0803110318013E0319B82DE0
:101B6E00B9072E0803110318013E0319BF2DBA073A
:101B7E002F0803110318013E0319C62DBB070830A9
:101B8E00AC000310B20DB30DB40DB50DAC0BC82DDA
:101B9E002508AC002C08F00028080A168A158922A0
:101BAE000A128A15710883120313BD007008BC0057
:101BBE003C08AC003D08AD00AE01AF012C08B207E9
:101BCE002D0803110318013E0319EE2DB3072E083D
:101BDE0003110318013E0319F52DB4072F08031145
:101BEE000318013E0319FC2DB5072408AC002C0880
:101BFE00F00029080A168A1589220A128A15710818
:101C0E0083120313BD007008BC003C08AC003D08F5
:101C1E00AD00AE01AF012C08B2072D080311031859
:101C2E00013E03191B2EB3072E0803110318013EA4
:101C3E000319222EB4072F0803110318013E0319AE
:101C4E00292EB5070830AC000310B20DB30DB40D3C
:101C5E00B50DAC0B2B2E2408AC002C08F000280878
:101C6E000A168A1589220A128A157108831203131D
:101C7E00BD007008BC003C08AC003D08AD00AE01D4
:101C8E00AF012C08B2072D0803110318013E0319EA
:101C9E00512EB3072E0803110318013E0319582EB7
:101CAE00B4072F0803110318013E03195F2EB50761
:101CBE002508AC002C08F0002A080A168A1589227D
:101CCE000A128A15710883120313BD007008BC0036
:101CDE003C08AC003D08AD00AE01AF012C08B807C2
:101CEE002D0803110318013E03197E2EB9072E0885
:101CFE0003110318013E0319852EBA072F0803118D
:101D0E000318013E03198C2EBB072608AC002C08C5
:101D1E00F00029080A168A1589220A128A157108F6
:101D2E0083120313BD007008BC003C08AC003D08D4
:101D3E00AD00AE01AF012C08B8072D080311031832
:101D4E00013E0319AB2EB9072E0803110318013EED
:101D5E000319B22EBA072F0803110318013E0319F7
:101D6E00B92EBB072608AC002C08F0002A080A166C
:101D7E008A1589220A128A15710883120313BD006F
:101D8E007008BC003C08AC003D08AD00AE01AF01D0
:101D9E0008300310AC0DAD0DAE0DAF0DFF3E031DA3
:101DAE00D02E2C08B8072D0803110318013E031975
:101DBE00E12EB9072E0803110318013E0319E82E70
:101DCE00BA072F0803110318013E0319EF2EBB07A4
:101DDE003208AC003308AD003408AE003508AF0051
:101DEE0018300310AF0CAE0CAD0CAC0CFF3E031D47
:101DFE00F82E2C08B8072D0803110318013E0319FD
:101E0E00092FB9072E0803110318013E0319102FCD
:101E1E00BA072F0803110318013E0319172FBB072A
:101E2E000830AC000310B20DB30DB40DB50DAC0BF4
:101E3E00192F37083607AC00AD01AD0D2C08823EC8
:101E4E00BC002D080318013EFF3EBD004B2F013094
:101E5E00AC000310B80DB90DBA0DBB0DAC0B302F85
:101E6E00B51F3A2F3B2F3C2F38140130AC00031016
:101E7E00B20DB30DB40DB50DAC0B3E2FFF30BC073C
:101E8E000318BD0AFF30BD07BA1F4E2F4F2F2E2F3E
:101E9E00B601B51F532F542F702FFF303205AC00F3
:101EAE00FF303305AD00FF303405AE007F30350511
:101EBE00AF002F082E042D042C040319672F682F52
:101ECE006B2FB601B60A702F381C6E2F6F2F702F26
:101EDE00682F36080319742F752FA62F0130B807F7
:101EEE00003003180130B907003003180130BA076B
:101EFE00003003180130BB073B1C862F872FA62FFF
:101F0E003808AC003908AD003A08AE003B08AF0007
:101F1E000130B0002F0DAF0CAE0CAD0CAC0CB00BF5
:101F2E00912F2F08BB002E08BA002D08B9002C08DF
:101F3E00B8000130BC070318BD0A0030BD073D08CC
:101F4E00803AFF0080307F02031DAF2FFF303C022E
:101F5E00031CB22FB32FBE2F7F3083120313BB008F
:101F6E008030BA000030B9000030B800F32F831271
:101F7E0003133D08803AFF0080307F02031DC92FF6
:101F8E0001303C020318CC2FCD2FD92F00308312F5
:101F9E000313BB000030BA000030B9000030B800A7
:101FAE00B101F32F831203133C08AC002C08B700C9
:101FBE00FF30B805FF30B9057F30BA050030BB05DC
:101FCE00371CEA2FEB2FEC2FBA173708AC00031093
:101FDE002C0CAD002D08BB003108AC002C08BB0446
:101FEE003B08A7003A08A6003908A5003808A40047
:101FFE0008000A168A159F210A168A117008831284
:10200E000313930008007008F8007108F9007208B5
:10201E00FA000310790D7A0DFB007B08831203136F
:10202E00A5002508031D1C281D2826280030F300B6
:10203E000030F2000030F1000030F000C6287408C5
:10204E00F8007508F9007608FA000310790D7A0D7C
:10205E00FB007B08A4002408031D362837283828E7
:10206E001D28F117FF30F005FF30F1050030F205A5
:10207E00F517FF30F405FF30F5050030F60500309A
:10208E00A3000030A2000030A1000030A0007F307D
:10209E00A50298302407F8007808A5021830F80039
:1020AE007808A4000130F8000310A00DA10DA20DB8
:1020BE00A30DF80B5B2876087202031D6C287508B9
:1020CE007102031D6C2874087002031C6F2870289F
:1020DE007B287408F0027508031C750FF102760850
:1020EE00031C760AF202201401300310F00DF10DDC
:1020FE00F20DFF3E031D7C280130A402031D88282B
:10210E0089285928A51F8C288D28A7282508803AAC
:10211E00973E03189328942895281D280130031004
:10212E00A30CA20CA10CA00CFF3E031D962801309F
:10213E00F8007808A507031DA528A6289528BE280F
:10214E0018302502031CAC28AD28B9281D280130F3
:10215E00F8000310A00DA10DA20DA30DF80BB028D1
:10216E000130A5022508031DBD28BE28AE28230870
:10217E00F3002208F2002108F1002008F000080008
:10218E000310720D730DF800780883120313A50067
:10219E002508031DD328D428DD280030F300003095
:1021AE00F2000030F1000030F00084290310760DAB
:1021BE00770DF8007808A4002408031DE728E82806
:1021CE00E928D428F217FF30F005FF30F105FF3073
:1021DE00F2050030F305F617FF30F405FF30F50574
:1021EE00FF30F6050030F7050030A3000030A200E6
:1021FE000030A1000030A0007F30A502A0302407DF
:10220E00F8007808A5022030F8007808A400013004
:10221E00F8000310A00DA10DA20DA30DF80B1029AF
:10222E0077087302031D252976087202031D2529DE
:10223E0075087102031D252974087002031C2829D4
:10224E00292938297408F0027508031C750FF1024C
:10225E007608031C760FF2027708031C770FF30241
:10226E0020140130F8000310F00DF10DF20DF30DF6
:10227E00F80B3A290130A402031D462947290E29DD
:10228E00A51F4A294B2965292508803A9F3E031828
:10229E00512952295329D42801300310A30CA20C22
:1022AE00A10CA00CFF3E031D54290130F800780844
:1022BE00A507031D6329642953297C292030250293
:1022CE00031C6A296B297729D4280130F8000310E2
:1022DE00A00DA10DA20DA30DF80B6E290130A502C4
:1022EE002508031D7B297C296C292308F30022086D
:1022FE00F2002108F1002008F00008000A168A15E5
:10230E007F210A168A110A168A1500220A168A11C8
:10231E000A168A157D240A168A110A168A158D2127
:10232E000A168A118030F0000030F1000A168A1168
:10233E0000200A168A11F330F0000030F1000A1660
:10234E008A1100200A168A110A168A1596210A1673
:10235E008A11033083160313CF000830CE00763077
:10236E00CD00CD0BB829CE0BB829CF0BB829000064
:10237E000A168A158D210A168A118130F000003056
:10238E00F1000A168A1100200A168A110030F00098
:10239E00F1000A168A15D9220A168A1170088316B8
:1023AE000313CD004D08DE000A168A1596210A1673
:1023BE008A11033083160313CF000830CE00763017
:1023CE00CD00CD0BE829CE0BE829CF0BE829000074
:1023DE000A168A158D210A168A115030F000003027
:1023EE00F1000A168A1100200A168A1183120313AD
:1023FE00060883160313CD00CE014D08F0004E08DB
:10240E00F1000A168A1100200A168A110A168A1578
:10241E0096210A168A11033083160313CF00083053
:10242E00CE007630CD00CD0B1A2ACE0B1A2ACF0B4A
:10243E001A2A00000A168A158D210A168A115130A1
:10244E00F0000030F1000A168A1100200A168A11D7
:10245E000030F000F1000A168A15D9220A168A11E8
:10246E00700883160313CD004D08DD000A168A1579
:10247E0096210A168A11033083160313CF000830F3
:10248E00CE007630CD00CD0B4A2ACE0B4A2ACF0B8A
:10249E004A2A00000A168A158D210A168A11403022
:1024AE00F0000030F1000A168A1100200A168A1177
:1024BE0083120313060883160313CD00CE014D08B5
:1024CE00F0004E08F1000A168A1100200A168A1131
:1024DE000A168A1596210A168A11033083160313DB
:1024EE00CF000830CE007630CD00CD0B7C2ACE0B3F
:1024FE007C2ACF0B7C2A00000A168A158D210A161B
:10250E008A114130F0000030F1000A168A110020C5
:10251E000A168A110030F000F1000A168A15D92227
:10252E000A168A11700883160313CD004D08DC00BD
:10253E000A168A1596210A168A110330831603137A
:10254E00CF000830CE007630CD00CD0BAC2ACE0BAE
:10255E00AC2ACF0BAC2A00000A168A15AC210A163B
:10256E008A11F401F40A01300A168A151C220A1681
:10257E008A11A530F3008030F4000A168A15F7236D
:10258E000A168A11831603135E080A128A15C720CB
:10259E000A168A1183120313690883160313DB00CC
:1025AE0083120313680883160313DA0083120313CE
:1025BE00670883160313D900831203136608831664
:1025CE000313D8005D080A168A15B7230A168A1156
:1025DE0083120313410883160313D70083120313C8
:1025EE00400883160313D600831203133F08831685
:1025FE000313D500831203133E0883160313D4006E
:10260E005C080A168A15B0220A168A118312031361
:10261E00230883160313D300831203132208831691
:10262E000313D20083120313210883160313D10060
:10263E0083120313200883160313D000F401F40A47
:10264E0002300A168A151C220A168A119130831638
:10265E000313CD004D08A0005B08A4005A08A30088
:10266E005908A2005808A1005708A8005608A7004C
:10267E005508A6005408A5005308AC005208AB003C
:10268E005108AA005008A900DF300A128A117820DA
:10269E000A168A11DF30F3000030F4000A168A158C
:1026AE00F7230A168A11023083160313CF00043063
:1026BE00CE00B930CD00CD0B622BCE0B622BCF0BE3
:1026CE00622B692B94290A128A1100288312031394
:1026DE00D1006E305102031C752B762B832C3F30AC
:1026EE00A7000030A6000030A5000030A400643022
:1026FE00F6000030F7005108C200C3014208F8008E
:10270E004308F9000A168A1539240A168A11760822
:10271E0083120313C40001300310C40DFF3E031DCA
:10272E00932B0310440D7D3E84000A128A150A2055
:10273E000A168A11C5000A128A150A200A168A116B
:10274E00C6000A128A150A200A168A11C7000A1232
:10275E008A150A200A168A11C8004808AB004708D5
:10276E00AA004608A9004508A8000A128A159F2447
:10277E000A168A11831203132708D0002608CF00E9
:10278E002508CE002408CD000A30F6000030F700F0
:10279E005108C200C3014208F2004308F30064303E
:1027AE00F0000030F1000A168A153F230A168A112E
:1027BE007108F9007008F8000A168A1539240A16ED
:1027CE008A11760883120313C40001300310C40D5E
:1027DE00FF3E031DED2B0310440D593E84000A12DB
:1027EE008A150A200A168A11C5000A128A150A20AD
:1027FE000A168A11C6000A128A150A200A168A11AA
:10280E00C7000A128A150A200A168A11C80048083B
:10281E00A7004708A6004608A5004508A4005008D2
:10282E00AB004F08AA004E08A9004D08A8000A12D6
:10283E008A159F240A168A11831203132708CC00C7
:10284E002608CB002508CA002408C9000A30F0006B
:10285E000030F1005108C200C3014208F2004308E3
:10286E00F3000A168A153F230A168A11700883127E
:10287E000313C40001300310C40DFF3E031D422C90
:10288E000310440D353E84000A128A150A200A16DA
:10289E008A11C5000A128A150A200A168A11C60064
:1028AE000A128A150A200A168A11C7000A128A15F8
:1028BE000A200A168A11C8004808A7004708A60071
:1028CE004608A5004508A4004C08AB004B08AA001A
:1028DE004A08A9004908A8000A128A159F240A1658
:1028EE008A11831203132708C1002608C000250889
:1028FE00BF002408BE00772D0B305102031C882C1C
:10290E00892C342D3F30A7000030A6000030A500E2
:10291E000030A4000A30F6000030F7005108C20063
:10292E00C3014208F8004308F9000A168A15392433
:10293E000A168A11760883120313C400013003109D
:10294E00C40DFF3E031DA62C0310440D593E8400FA
:10295E000A128A150A200A168A11C5000A128A1549
:10296E000A200A168A11C6000A128A150A200A16A9
:10297E008A11C7000A128A150A200A168A11C8007F
:10298E004808AB004708AA004608A9004508A80059
:10299E000A128A159F240A168A1183120313270816
:1029AE00D0002608CF002508CE002408CD000A301E
:1029BE00F0000030F1005108C200C3014208F200DD
:1029CE004308F3000A168A153F230A168A11700867
:1029DE0083120313C40001300310C40DFF3E031D08
:1029EE00F32C0310440D353E84000A128A150A207A
:1029FE000A168A11C5000A128A150A200A168A11A9
:102A0E00C6000A128A150A200A168A11C7000A126F
:102A1E008A150A200A168A11C8004808A700470816
:102A2E00A6004608A5004508A4005008AB004F08B4
:102A3E00AA004E08A9004D08A8000A128A159F2464
:102A4E000A168A11831203132708C1002608C00034
:102A5E002508BF002408BE00772D3F30A7000030A8
:102A6E00A6000030A5000030A4005108C2000130BD
:102A7E000310C20DFF3E031D3F2D0310420D353EC8
:102A8E0084000A128A150A200A168A11C3000A1235
:102A9E008A150A200A168A11C4000A128A150A20FB
:102AAE000A168A11C5000A128A150A200A168A11F8
:102ABE00C6004608AB004508AA004408A900430812
:102ACE00A8000A128A159F240A168A11831203136C
:102ADE002708C1002608C0002508BF002408BE0034
:102AEE0008008312031355088039DA005A08E200F1
:102AFE005508DA005A07DB005B08E400D41F882D66
:102B0E00892D8A2D6414640803198E2D8F2D9F2D07
:102B1E00640A031D932D942D9C2D0030D50000309A
:102B2E00D4000030D3000030D200D417D501A72D29
:102B3E000030D5000030D4000030D3000030D20079
:102B4E0059088039DA005A08E3006308620603194F
:102B5E00B12DB22DB32D62175908DA005A07DB00DA
:102B6E005B08E300D81FBC2DBD2DBE2D631463087A
:102B7E000319C22DC32DD32D630A031DC72DC82DD6
:102B8E00D02D0030D9000030D8000030D7000030F2
:102B9E00D600D817D901DB2D0030D9000030D8006F
:102BAE000030D7000030D600640863020318E02D11
:102BBE00E12D252E621FE42DE52DE92D8030DA0062
:102BCE005A08E2066408DA005A08E5006308DA00DB
:102BDE005A08E4006508DA005A08E3005208DA00E1
:102BEE005A08E5005608DA005A08D2006508DA00DD
:102BFE005A08D6005308DA005A08E5005708DA00DA
:102C0E005A08D3006508DA005A08D7005408DA00CB
:102C1E005A08E5005808DA005A08D4006508DA00A8
:102C2E005A08D8005508DA005A08E5005908DA00A3
:102C3E005A08D5006508DA005A08D900E50163087C
:102C4E00DA00DB015B08DD0064085A02DC00031CBD
:102C5E00DD035D08803AFF0080307F02031D392EB0
:102C6E001A305C02031C3C2E3D2E7A2E8312031367
:102C7E005508540453045204031D462E482E0130A9
:102C8E00492E0030DA005A08E5000030D500003039
:102C9E00D4000030D3000030D2006308DA005A08A6
:102CAE00E400822E651C5C2E5D2E662E6508DA0011
:102CBE0003105A0C0138DB005B08E500682E031088
:102CCE00E50C521C6B2E6C2E6D2EE5170130DA00C2
:102CDE00550DD50CD40CD30CD20CDA0B6F2E013053
:102CEE00DA005A08E4078312031363086402031C14
:102CFE00812E822E592E621B852E862ED12E640891
:102D0E00031D8A2E8B2E942E0030D5000030D40059
:102D1E000030D3000030D200FF2F5608D2075708DC
:102D2E0003110318013E03199D2ED30758080311F2
:102D3E000318013E0319A42ED407590803110318D2
:102D4E00013E0319AB2ED507551CAE2EAF2E852F87
:102D5E00651CB22EB32EBC2E6508DA0003105A0C79
:102D6E000138DB005B08E500BE2E0310E50C521C9B
:102D7E00C12EC22EC32EE5170130DA00550DD50C2B
:102D8E00D40CD30CD20CDA0BC52E0130DA005A0853
:102D9E00E407852F5508803AFF005908803A7F02D4
:102DAE00031DE32E58085402031DE32E5708530249
:102DBE00031DE32E560852020318E62EE72E3F2F70
:102DCE00FF30DA00FF30DB00FF30DC00FF30DD00CB
:102DDE005608DE005708DF005808E0005908E100E9
:102DEE005208DE025308031C530FFE2EFF2EDF0285
:102DFE005408031C540F042F052FE0025508031C22
:102E0E00550F0A2F0B2FE1025E08DA075F08031831
:102E1E005F0F122F132FDB0760080318600F182F98
:102E2E00192FDC0761080318610ADD075D08D5005C
:102E3E005C08D4005B08D3005A08D2008030DA0058
:102E4E005A08E206E509E50A6508031D2F2F302F03
:102E5E004D2F0130D207003003180130D307003058
:102E6E0003180130D407003003180130D5074D2F59
:102E7E005608D2025708031C570FD3025808031CDA
:102E8E00580FD4025908031C590FD5025508540483
:102E9E0053045204031D542F552F812F6508031D13
:102EAE00592F5A2F812F0030D5000030D40000301A
:102EBE00D3000030D200FF2F0130DA000310D20D04
:102ECE00D30DD40DD50DDA0B652FE51F6F2F702F97
:102EDE00712F5214651C742F752F782F0314E50D66
:102EEE007A2F0310E50D640803197E2F7F2F812F93
:102EFE000130E402D41F842F852F632FE301E51FD9
:102F0E00892F8A2F982F65087F3903198F2F902FBD
:102F1E00932FE301E30A982F521C962F972F982F89
:102F2E00902F630803199C2F9D2FD12F0130D207AC
:102F3E00003003180130D307003003180130D407D6
:102F4E00003003180130D507551CAE2FAF2FD12FEF
:102F5E005208DA005308DB005408DC005508DD0087
:102F6E000130DE005D0DDD0CDC0CDB0CDA0CDE0B53
:102F7E00B92F5D08D5005C08D4005B08D3005A0851
:102F8E00D200640A0319CC2FCD2FD12F0130DA00D5
:102F9E005A08E407640A0319D52FD62FDB2F6408CD
:102FAE00031DDA2FDB2FE92F0030D5000030D400BF
:102FBE000030D3000030D2006408031DE72FE82F45
:102FCE00E92FE201641CEC2FED2FEF2FD417F32F16
:102FDE007F30DA005A08D4056408DA0003105A0C60
:102FEE00DB005B08D500E21FFD2FFE2FFF2FD5174C
:022FFE000800C9
:1032FE007030831603138F040F14080064008001CE
:10330E00840A040603190034040686290A168A154F
:10331E009F210A168A1583160313111408000A1624
:10332E008A159F210A168A15831603131115080094
:10333E00831603131419A429A5299F2911081F39CF
:10334E00031DAA29AB299F29080000300A168A15E9
:10335E00CB210A168A1501300A168A15CB210A16B8
:10336E008A150800F100F0013A3071020318C029E5
:10337E00C129C92930307102031CC629C729C929A0
:10338E00F001F00A700C0800F3008312031307100B
:10339E0073080A168A1579230A168A1583120313DF
:1033AE0087140B30F2006230F100F10BDC29F20BC6
:1033BE00DC2900008312031387100800F200831229
:1033CE000313071472080A168A1579230A168A152A
:1033DE008312031387141A30F100F10BF429000045
:1033EE008312031387101A30F100F10BFC29000031
:1033FE00080083160317880189018316031307102B
:10340E00871086018801831203138601880100301C
:10341E00A3000130A2008630A100A030A0000A1641
:10342E008A1507230A168A150800F6007603031D6F
:10343E00212A222A2E2A74087F3EF5007508F700ED
:10344E0077080A168A15CB210A168A153F2A0230EA
:10345E007606031D332A342A3F2A7408BF3EF50030
:10346E007508F70077080A168A15CB210A168A15F1
:10347E000800803083120313E9066D08D5006C082E
:10348E00D4006B08D3006A08D2006908D900680816
:10349E00D8006708D7006608D6000A168A11782564
:1034AE000A168A15831203135508E9005408E8001A
:1034BE005308E7005208E6000800F401F501701CFD
:1034CE00692A6A2A702A7208F4070318F50A730823
:1034DE00F50701300310F20DF30DFF3E031D712AA7
:1034EE0001300310F10CF00CFF3E031D782A70081A
:1034FE007104031D832A842A662A7508F100740854
:10350E00F0000800F800F401F5017008F200F30174
:10351E007208F6007308F700781C962A972A9D2ADF
:10352E007608F4070318F50A7708F507013003103B
:10353E00F60DF70DFF3E031D9E2A0310F80C7808BA
:10354E00031DAA2AAB2A932A7508F1007408F0000D
:10355E00080083120313AC002C08A400A501A601D9
:10356E00A7012708F3002608F2002508F100240819
:10357E00F00001300A168A1546270A168A157308B6
:10358E0083120313AB007208AA007108A900700819
:10359E00A8002B08A3002A08A2002908A1002808C9
:1035AE00A00008000A168A159F210A168A1583168E
:1035BE00031391150A168A159F210A168A1583126E
:1035CE0003131308F200F3017208F4007308F500F8
:1035DE000A168A159F210A168A1570037104031D97
:1035EE00F92AFA2AFE2A831603139112012B831647
:1035FE000313911611167508F1007408F0000800F7
:10360E00283083120313940083160313910183123F
:10361E0003132008A4002108A5002208A6002308F1
:10362E00A70002300310A40DA50DA60DA70DFF3E99
:10363E00031D192B2708F3002608F2002508F100B8
:10364E002408F0000030F7007A30F6001230F50052
:10365E000030F4000A168A15C2250A168A1570085B
:10366E00FF3E831603139300940187150716080077
:10367E00700871040319442B452B742BF501F50AC0
:10368E00532B01300310F00DF10DFF3E031D492B9E
:10369E000130F4007408F507F11F562B572B482BF9
:1036AE0071087302031D5D2B70087202031C602BE0
:1036BE00612B672B7008F2027108031CF303F302EF
:1036CE0001300310F10CF00CFF3E031D682B01308E
:1036DE00F502031D732B742B572B7308F100720820
:1036EE00F0000800F000701C7D2B7E2B822B8312C5
:1036FE0003130814852B831203130810F01C882B58
:10370E00892B8B2B88148C2B8810701D8F2B902B54
:10371E00922B0815932B0811F01D962B972B992B96
:10372E0088159A2B8811701E9D2B9E2BA02B081688
:10373E00A12B0812F01EA42BA52BA72B8816A82BA5
:10374E008812701FAB2BAC2BAE2B0817AF2B0813A8
:10375E00F01FB22BB32BB52B8817B62B881308008E
:10376E0083120313CA003C30A700A030A60090308D
:10377E00A5002E30A4004A08C200C301C401C50131
:10378E004508F3004408F2004308F1004208F00037
:10379E0001300A168A1546270A168A1573088312EF
:1037AE000313AB007208AA007108A9007008A800E4
:1037BE000A128A159F240A168A15831203132708E4
:1037CE00C9002608C8002508C7002408C6004908F5
:1037DE00C1004808C0004708BF004608BE000800E8
:1037EE00F801F9011C2C78087307F6007408F5002F
:1037FE000318F50AF81F042CF5037508F70077086F
:10380E0083120313FF00760884000A128A15002023
:10381E000A168A150A168A15E5210A168A15013026
:10382E00F8070318F90A0030F90778087307F6004D
:10383E007408F5000318F50AF81F262CF503750811
:10384E00F700770883120313FF00760884000A122C
:10385E008A1500200A168A15003A031D372C382CBB
:10386E00FA2B0800FB01FC01760877040319402CA3
:10387E00412C782CFD01FD0A4F2C01300310F60D62
:10388E00F70DFF3E031D452C0130FA007A08FD07A7
:10389E00F71F522C532C442C01300310FB0DFC0D42
:1038AE00FF3E031D542C77087902031D602C760809
:1038BE007802031C632C642C6B2C7608F8027708B4
:1038CE00031CF903F9027B1401300310F70CF60CFC
:1038DE00FF3E031D6C2C0130FD02031D772C782C4E
:1038EE00532C7C08F7007B08F600080000300A16FF
:1038FE008A1579230A168A153430F500F130F40052
:10390E00F40B872CF50B872C8C2C3F300A168A155E
:10391E00CB210A168A150D30F500FB30F400F40B9E
:10392E00962CF50B962C9B2C3F300A168A15CB2124
:10393E000A168A150230F6001E30F500B330F40078
:10394E00F40BA72CF50BA72CF60BA72CAE2C3F30A7
:10395E000A168A15CB210A168A1538300A168A15C8
:10396E00CB210A168A150C300A168A15CB210A1697
:10397E008A1506300A168A15CB210A168A150800F2
:10398E0000307005F80000307105F90080307205C6
:10399E00FA007F307305FB007B087A047904780403
:1039AE00031DDA2CDB2CE32C0030F3000030F20088
:1039BE000030F1000030F00000307405F8000030E7
:1039CE007505F90080307605FA007F307705FB002B
:1039DE007B087A0479047804031DF62CF72CFF2C4F
:1039EE000030F7000030F6000030F5000030F40033
:1039FE0077087306031D0D2D76087206031D0D2D17
:103A0E0075087106031D0D2D740870060319102D0F
:103A1E00112D132D0310142D0314080073087204B6
:103A2E007104700403191C2D1D2D602DF901F90A66
:103A3E002D2D0130F8000310F00DF10DF20DF30DE8
:103A4E00F80B222D0130F8007808F907F31F302DFE
:103A5E00312D202D73087702031D3F2D720876023B
:103A6E00031D3F2D71087502031D3F2D7008740252
:103A7E00031C422D432D512D7008F4027108031CB6
:103A8E00710FF5027208031C720FF6027308031C05
:103A9E00730FF70201300310F30CF20CF10CF00C63
:103AAE00FF3E031D522D0130F902031D5F2D602DC7
:103ABE00312D7708F3007608F2007508F1007408CE
:103ACE00F0000800F601F31F6D2D6E2D752DF20915
:103ADE00F309F20A0319F30AF601F60AF11F782D1B
:103AEE00792D7E2DF009F109F00A0319F10A7008FB
:103AFE0071040319832D842DB32DF501F50A922D32
:103B0E0001300310F00DF10DFF3E031D882D013025
:103B1E00F4007408F507F11F952D962D872D710869
:103B2E007302031D9C2D70087202031C9F2DA02D85
:103B3E00A62D7008F2027108031CF303F302013084
:103B4E000310F10CF00CFF3E031DA72D0130F50202
:103B5E00031DB22DB32D962D76080319B72DB82D52
:103B6E00BD2DF209F309F20A0319F30A7308F100E5
:103B7E007208F00008000030FC000030FB0000303E
:103B8E00FA000030F900730872047104700403190E
:103B9E00D12DD22D1F2EFD01FD0AE22D0130F80090
:103BAE000310F00DF10DF20DF30DF80BD72D0130C2
:103BBE00F8007808FD07F31FE52DE62DD52D013011
:103BCE00F8000310F90DFA0DFB0DFC0DF80BE82DA6
:103BDE0073087702031DFD2D72087602031DFD2D5D
:103BEE0071087502031DFD2D70087402031C002E52
:103BFE00012E102E7008F4027108031C710FF502CD
:103C0E007208031C720FF6027308031C730FF7027F
:103C1E00791401300310F30CF20CF10CF00CFF3E92
:103C2E00031D112E0130FD02031D1E2E1F2EE62D2B
:103C3E007C08F3007B08F2007A08F1007908F000A6
:103C4E000800031083120313530D540DD5005508AD
:103C5E00DB005B08031D342E352E3E2E0030D400C3
:103C6E000030D3000030D2000030D100A32E510816
:103C7E00D5005208D6005308D7005408D8001F307C
:103C8E000310D80CD70CD60CD50CFF3E031D472EB7
:103C9E005508D9005908DA00D317FF30D105FF3087
:103CAE00D205FF30D3050030D4059630DB02DB1F82
:103CBE00612E622E7C2E5B08803A973E0318682E8A
:103CCE00692E6A2E352E01300310D40CD30CD20C73
:103CDE00D10CFF3E031D6B2E0130D5005508DB07BE
:103CEE00031D7A2E7B2E6A2E932E20305B02031C30
:103CFE00812E822E8E2E352E0130D5000310D10D41
:103D0E00D20DD30DD40DD50B852E0130DB025B0801
:103D1E00031D922E932E832E5A080319972E982E3A
:103D2E00A32ED109D209D309D409D10A0319D20A73
:103D3E000319D30A0319D40A080000307005F800DD
:103D4E0000307105F90080307205FA007F3073057E
:103D5E00FB007B087A0479047804031DB72EB82E75
:103D6E00C02E0030F3000030F2000030F1000030C1
:103D7E00F00000307405F80000307505F900803051
:103D8E007605FA007F307705FB007B087A0479040C
:103D9E007804031DD32ED42EDC2E0030F700003015
:103DAE00F6000030F5000030F400F31FDF2EE02E99
:103DBE00042F0030F8000030F9000030FA00803097
:103DCE00FB007008F8027108031C710FEF2EF02E25
:103DDE00F9027208031C720FF52EF62EFA02730802
:103DEE00031C730FFB2EFC2EFB027B08F3007A08DC
:103DFE00F2007908F1007808F000F71F072F082F5E
:103E0E002C2F0030F8000030F9000030FA0080301E
:103E1E00FB007408F8027508031C750F172F182F76
:103E2E00F9027608031C760F1D2F1E2FFA02770853
:103E3E00031C770F232F242FFB027B08F7007A0831
:103E4E00F6007908F5007808F4008030F30680302B
:103E5E00F70677087302031D3E2F76087202031DC4
:103E6E003E2F75087102031D3E2F74087002031851
:103E7E00412F422F442F0310452F03140800F80042
:103E8E00780803194B2F4C2F602FF31F4F2F502FF5
:103E9E00602F7009FA007109FB007209FC007309AA
:103EAE00FD00FA0A0319FB0A0319FC0A0319FD0A9D
:103EBE00682F7308FD007208FC007108FB00700883
:103ECE00FA007308720471047004031D6F2F702FB3
:103EDE00792F0030F3000030F2000030F100003096
:103EEE00F000FF2F9630F4007408F9008B2F01308C
:103EFE00F4007408F90701300310FD0CFC0CFB0CE8
:103F0E00FA0CFF3E031D832FFE307D05031D902FFF
:103F1E00912F7E2FAD2F0130F4007408F907013078
:103F2E00FA07003003180130FB0700300318013088
:103F3E00FC07003003180130FD0701300310FD0CA3
:103F4E00FC0CFB0CFA0CFF3E031DA52FFF307D056C
:103F5E00031DB22FB32F922FBF2F0130F902013064
:103F6E00F4000310FA0DFB0DFC0DFD0DF40BB82F34
:103F7E00FC1BC22FC32FC92F023079020318C82F82
:103F8E00C92FB42F7918CC2FCD2FD52FFF30FA058E
:103F9E00FF30FB057F30FC05FF30FD050310F90CEB
:103FAE007908F400F501F601F70118300310F40D4D
:103FBE00F50DF60DF70DFF3E031DDD2F7408FA0407
:103FCE007508FB047608FC047708FD0478080319CD
:103FDE00F12FF22FF72FF31FF52FF62FF72FFD17D7
:103FEE007D08F3007C08F2007B08F1007A08F000EF
:023FFE000800B9
:04400E00D420FF3F7C
:00000001FF
