:020000040000FA
:060000000A128A11FC2F18
:100CEA007030831603138F040F1408000A128A1136
:100CFA0097260A128A1183160313111408000A127E
:100D0A008A1197260A128A118316031311150800ED
:100D1A000A128A1197260A128A117008831203137B
:100D2A00930008008316031314199C2E9D2E972EE8
:100D3A0011081F39031DA22EA32E972E0800831611
:100D4A000317880189018316031386018801831218
:100D5A000313860188010030A3000130A200863007
:100D6A00A100A030A0000A128A11EC260A128A11E8
:100D7A0008000A128A1197260A128A118316031387
:100D8A0091150A128A1197260A128A1183120313DD
:100D9A001308F200F3017208F4007308F5000A124E
:100DAA008A1197260A128A1170037104031DDE2E16
:100DBA00DF2EE32E831603139112E62E83160313F6
:100DCA00911611167508F1007408F0000800283011
:100DDA0083120313940083160313910183120313DE
:100DEA002008A4002108A5002208A6002308A700BD
:100DFA0002300310A40DA50DA60DA70DFF3E031D7D
:100E0A00FE2E2708F3002608F2002508F100240820
:100E1A00F0000030F7007A30F6001230F5000030AA
:100E2A00F4000A128A1124270A128A117008FF3E56
:100E3A0083160313930094018715071608000030E0
:100E4A00FC000030FB000030FA000030F9007308A3
:100E5A007204710470040319332F342F812FFD019A
:100E6A00FD0A442F0130F8000310F00DF10DF20DC8
:100E7A00F30DF80B392F0130F8007808FD07F31F3E
:100E8A00472F482F372F0130F8000310F90DFA0DBC
:100E9A00FB0DFC0DF80B4A2F73087702031D5F2F19
:100EAA0072087602031D5F2F71087502031D5F2FFA
:100EBA0070087402031C622F632F722F7008F402E9
:100ECA007108031C710FF5027208031C720FF602F7
:100EDA007308031C730FF702791401300310F30C23
:100EEA00F20CF10CF00CFF3E031D732F0130FD02D2
:100EFA00031D802F812F482F7C08F3007B08F20006
:100F0A007A08F1007908F00008000A128A11752699
:100F1A000A128A110A128A11A4260A128A110A12BC
:100F2A008A117B260A128A115030F0000030F10033
:100F3A000A128A118D260A128A11831203130608CD
:100F4A00A800A9012808F0002908F1000A128A114C
:100F5A008D260A128A110A128A1184260A128A1105
:100F6A00033083120313AA000830A9007630A800C0
:100F7A00A80BBD2FA90BBD2FAA0BBD2F00000A126B
:100F8A008A117B260A128A115130F0000030F100D2
:100F9A000A128A118D260A128A110030F000F10015
:100FAA000A128A11BE260A128A11700883120313C2
:100FBA0088000A128A1184260A128A1103308312BF
:100FCA000313AA000830A9007630A800A80BEB2F5B
:100FDA00A90BEB2FAA0BEB2F00000130831203138E
:100FEA00A80028088607942F0A128A11002883016C
:060FFA000A128A118A2F81
:04400E00D420FF3F7C
:00000001FF
