:020000040000FA
:060000000A128A110C280F
:10000800FE00030EF0000A08F1000A168A15372CC4
:100018000A128A110F28FB018313CB308400E230C7
:100028000A168A1546240A128A1183010A128A15A9
:100038006428831603134308F5004208F4004108B6
:10004800F3004008F2000030F9000030F8000030FA
:10005800F7000030F6000A168A15BD250A128A1123
:10006800031837283828E028831603134308831217
:100078000313D80083160313420883120313D7000F
:1000880083160313410883120313D6008316031340
:10009800400883120313D5000A168A1584270A120A
:1000A8008A11831203135808570456045504031D74
:1000B8005E285F28E028831603133B08803AFF0078
:1000C80080307F02031D6A2802303A02031C6D2823
:1000D8006E28E028831603133908F5003808F40061
:1000E8003708F3003608F2004030F9008930F8008C
:1000F8007030F7005F30F6000A168A1115200A12D0
:100108008A110318882889289228F7308316031340
:10011800BA070318BB0AFF30BB079A28F8308316C2
:100128000313BA070318BB0AFF30BB073A080A12C1
:100138008A159D240A128A1183120313450883160F
:100148000313B90083120313440883160313B8007A
:1001580083120313430883160313B7008312031390
:10016800420883160313B6004308F5004208F4005A
:100178004108F3004008F2003908F9003808F8008F
:100188003708F7003608F6000A168A1132220A12D2
:100198008A11750883160313B5007408B400730830
:1001A800B3007208B2000030C3000030C200003053
:1001B800C1000030C0004629831603134308831288
:1001C8000313D80083160313420883120313D700BE
:1001D80083160313410883120313D60083160313EF
:1001E800400883120313D5000A168A1584270A12B9
:1001F8008A1183120313580883160313B500831258
:100208000313570883160313B40083120313560805
:1002180083160313B30083120313550883160313BD
:10022800B2003508F5003408F4003308F30032084A
:10023800F20000300A168A11B9200A128A117508CC
:1002480083160313A3007408A2007308A1007208A0
:10025800A0004308A7004208A6004108A5004008DE
:10026800A4000A168A150D260A128A11831603138A
:100278002308C3002208C2002108C1002008C000CA
:10028800BA01BB01C701C70A4708A800013003101B
:10029800A80DFF3E031D4B290310280D693E84005D
:1002A8000A168A1500200A128A11A9000A168A1548
:1002B80000200A128A11AA000A168A1500200A12BA
:1002C8008A11AB000A168A1500200A128A11AC009E
:1002D8002C083502031D7A292B083402031D7A29BC
:1002E8002A083302031D7A292908320203187D29B6
:1002F8007E297F2989290130A8002808C7070A30E4
:100308004706031D88298929482947084407A80062
:1003180045080318450AA9003A082807AA003B0817
:1003280003183B0A2907AB002A08BE022B08031C46
:10033800BF03BF02440845040319A329A429AA2915
:10034800FF30BE070318BF0AFF30BF0703303C0564
:10035800A80000303D05A900280829040319B5297B
:10036800B629BC29FF30BE070318BF0AFF30BF07F4
:100378003C1DBF29C0290C2A03303C05A8000030C9
:100388003D05A900280829040319CB29CC29EB2904
:100398002D30A80046088400280883138000013007
:1003A800A8002808C607EB29303083160313A800D5
:1003B800460884002808831380000130A800280814
:1003C800C607FF30BE070318BF0AFF30BF073F0844
:1003D800803AFF0080307F02031DF42901303E027D
:1003E8000318F729F829D829992A203083160313E6
:1003F800A800460884002808831380000130A8005C
:100408002808C607FF30BE070318BF0AFF30BF071A
:100418003F08803AFF0080307F02031D152A013013
:100428003E020318182A192AF929033083160313E0
:100438003C05A80000303D05A90028082904031937
:10044800262A272A992A2D30A80046088400280839
:10045800831380000130A8002808C607992A470896
:10046800A80001300310A80DFF3E031D362A031013
:10047800280D693E84000A168A1500200A128A117E
:10048800F2000A168A1500200A128A11F3000A16C9
:100498008A1500200A128A11F4000A168A1500200B
:1004A8000A128A11F5003508F9003408F8003308F3
:1004B800F7003208F6000A168A15B3260A128A11BE
:1004C800750883160313B9007408B8007308B700D9
:1004D8007208B6000030F5000030F4000030F30078
:1004E8000A30F2003908F9003808F8003708F70030
:1004F8003608F6000A168A155D260A128A1175084A
:1005080083160313B9007408B8007308B70072089B
:10051800B6003608303EA800460884002808831331
:1005280080000130A8002808C6070130831603138D
:10053800C702470A031DA12AA22A332AB62A303045
:1005480083160313A8004608840028088313800034
:100558000130A8002808C607FF30BA070318BB0AED
:10056800FF30BB073B08803AFF0080307F02031D45
:10057800BF2A01303A020318C22AC32AA32A8316C3
:1005880003134508803AFF0080307F02031DCE2AFE
:1005980009304402031CD12AD22AD92A08308316EA
:1005A8000313A8002808C700DF2A8316031344088A
:1005B800A8002808C7004708A800A9012808C402FD
:1005C8002908031CC503C50247080319EC2AED2AAC
:1005D800F82A2E30A80046088400280883138000D3
:1005E8000130A8002808C60747080A128A159D2462
:1005F8000A128A1183120313450883160313B000E5
:1006080083120313440883160313AF0083120313E2
:10061800430883160313AE0083120313420883169C
:100628000313AD00300883120313AF0083160313BE
:100638002F0883120313AE00831603132E088312A8
:100648000313AD00831603132D0883120313AC00A4
:1006580083160313430883120313AB008316031393
:10066800420883120313AA00831603134108831256
:100678000313A90083160313400883120313A80069
:100688000A128A153C210A128A11831203132B08B5
:10069800D8002A08D7002908D6002808D5000A1645
:1006A8008A1584270A128A1183120313580883169D
:1006B8000313B50083120313570883160313B400FA
:1006C80083120313560883160313B300831203130C
:1006D800550883160313B200122C4708A8000130EE
:1006E8000310A80DFF3E031D742B0310280D693E4F
:1006F80084000A168A1500200A128A11F2000A16C6
:100708008A1500200A128A11F3000A168A15002099
:100718000A128A11F4000A168A1500200A128A1190
:10072800F5003508F9003408F8003308F7003208F6
:10073800F6000A168A15B3260A128A117508831656
:100748000313B9007408B8007308B7007208B6003C
:100758000030F5000030F4000030F3000A30F200F9
:100768003908F9003808F8003708F7003608F600A5
:100778000A168A155D260A128A117508831603134C
:10078800B9007408B8007308B7007208B6003608D4
:10079800303EA800460884002808831380000130F2
:1007A800A8002808C6074708A80001300310A80DAC
:1007B800FF3E031DDA2B0310280D693E84000A163C
:1007C8008A1500200A128A11F2000A168A150020DA
:1007D8000A128A11F3000A168A1500200A128A11D1
:1007E800F4000A168A1500200A128A11F500350845
:1007F800F9003408F8003308F7003208F6000A1642
:100808008A155D260A128A11750883160313B50026
:100818007408B4007308B3007208B2000130C7024C
:10082800470A031D182C192C712B2B2C3030A800CB
:10083800460884002808831380000130A80028088F
:10084800C607FF30C4070318C50AFF30C5074408A8
:100858004504031D302C312C1A2C302D4408450436
:10086800031D372C382C462C350834043304320445
:10087800031D3F2C402C462C0130C4070318C50A21
:100888000030C5074508803A803C031D4D2C4408BC
:1008980047020318502C512C582C83160313440874
:1008A800A8002808C700702C831603134508803A4F
:1008B800A80080302802031D632C4708440203184F
:1008C800662C672C702C831603134708A800A9010F
:1008D8002808C4002908C500831603133E083F04EE
:1008E8000319772C782C8A2C03303C05A80000309B
:1008F8003D05A900280829040319832C842C8A2C77
:10090800FF30BE070318BF0AFF30BF073D1F8D2CFD
:100918008E2CA92C4508803AA8003F08803A280266
:10092800031D982C3E08440203189B2C9C2CA52CD4
:10093800831603134408BE024508031CBF03BF0205
:10094800A92C83160313BE01BF013F08803A803CDF
:10095800031DB02C3E0847020318B32CB42CC02C3E
:10096800831603134708A800A9012808BE0229080E
:10097800031CBF03BF02C42C83160313BE01BF01AF
:100988003C1DC72CC82CFD2C03303C05A8000030AA
:100998003D05A900280829040319D32CD42CDF2CE1
:1009A8002D30A800460884002808831380000130F1
:1009B800A8002808C6073E083F040319E42CE52CC4
:1009C800302D3030A80046088400280883138000A2
:1009D8000130A8002808C607FF30BE070318BF0A61
:1009E800FF30BF073E083F04031DFB2CFC2CE52C01
:1009F800302D3E083F040319022D032D1A2D2030F7
:100A0800A800460884002808831380000130A80045
:100A18002808C607FF30BE070318BF0AFF30BF0704
:100A28003E083F04031D192D1A2D032D03303C05E4
:100A3800A80000303D05A900280829040319252D20
:100A4800262D302D2D30A800460884002808831351
:100A580080000A168A11142D013083120313EA0745
:100A6800FF306A0784000A168A1500200A128A11C4
:100A780083160313A8002808C7004708031D452D3F
:100A8800482D0A168A11072D460884008313800111
:100A980008008312031359088039DE005E08E60057
:100AA8005908DE005E07DF005F08E800D81F5D2DEB
:100AB8005E2D5F2D681468080319632D642D742D4D
:100AC800680A031D682D692D712D0030D90000308A
:100AD800D8000030D7000030D600D817D9017C2DB7
:100AE8000030D9000030D8000030D7000030D600E0
:100AF8005D088039DE005E08E700670866060319AE
:100B0800862D872D882D66175D08DE005E07DF00BD
:100B18005F08E700DC1F912D922D932D671467085D
:100B28000319972D982DA82D670A031D9C2D9D2D1F
:100B3800A52D0030DD000030DC000030DB00003087
:100B4800DA00DC17DD01B02D0030DD000030DC00FC
:100B58000030DB000030DA00680867020318B52DA2
:100B6800B62DFA2D661FB92DBA2DBE2D8030DE00A8
:100B78005E08E6066808DE005E08E9006708DE0031
:100B88005E08E8006908DE005E08E7005608DE0037
:100B98005E08E9005A08DE005E08D6006908DE0033
:100BA8005E08DA005708DE005E08E9005B08DE0030
:100BB8005E08D7006908DE005E08DB005808DE0022
:100BC8005E08E9005C08DE005E08D8006908DE00FF
:100BD8005E08DC005908DE005E08E9005D08DE00FA
:100BE8005E08D9006908DE005E08DD00E9016708D3
:100BF800DE00DF015F08E10068085E02E000031C18
:100C0800E1036108803AFF0080307F02031D0E2E49
:100C18001A306002031C112E122E4F2E831203135A
:100C28005908580457045604031D1B2E1D2E013065
:100C38001E2E0030DE005E08E9000030D9000030CA
:100C4800D8000030D7000030D6006708DE005E0804
:100C5800E800572E691C312E322E3B2E6908DE0023
:100C680003105E0C0138DF005F08E9003D2E031019
:100C7800E90C561C402E412E422EE9170130DE00A9
:100C8800590DD90CD80CD70CD60CDE0B442E0130DC
:100C9800DE005E08E8078312031367086802031C76
:100CA800562E572E2E2E661B5A2E5B2EA62E680801
:100CB800031D5F2E602E692E0030D9000030D80049
:100CC8000030D7000030D600D42F5A08D6075B086A
:100CD80003110318013E0319722ED7075C0803118C
:100CE8000318013E0319792ED8075D08031103186C
:100CF800013E0319802ED907591C832E842E5A2FA2
:100D0800691C872E882E912E6908DE0003105E0C60
:100D18000138DF005F08E900932E0310E90C561C28
:100D2800962E972E982EE9170130DE00590DD90C12
:100D3800D80CD70CD60CDE0B9A2E0130DE005E08DC
:100D4800E8075A2F5908803AFF005D08803A7F0269
:100D5800031DB82E5C085802031DB82E5B08570205
:100D6800031DB82E5A0856020318BB2EBC2E142F8A
:100D7800FF30DE00FF30DF00FF30E000FF30E10031
:100D88005A08E2005B08E3005C08E4005D08E5003F
:100D98005608E2025708031C570FD32ED42EE3023D
:100DA8005808031C580FD92EDA2EE4025908031CE0
:100DB800590FDF2EE02EE5026208DE0763080318EC
:100DC800630FE72EE82EDF0764080318640FED2E83
:100DD800EE2EE00765080318650AE1076108D900E7
:100DE8006008D8005F08D7005E08D6008030DE00B3
:100DF8005E08E606E909E90A6908031D042F052FBC
:100E0800222F0130D607003003180130D7070030F1
:100E180003180130D807003003180130D907222FF2
:100E28005A08D6025B08031C5B0FD7025C08031C38
:100E38005C0FD8025D08031C5D0FD90259085804DD
:100E480057045604031D292F2A2F562F6908031DFE
:100E58002E2F2F2F562F0030D9000030D800003009
:100E6800D7000030D600D42F0130DE000310D60D95
:100E7800D70DD80DD90DDE0B3A2FE91F442F452F7A
:100E8800462F5614691C492F4A2F4D2F0314E90D7C
:100E98004F2F0310E90D68080319532F542F562FAD
:100EA8000130E802D81F592F5A2F382FE701E91FC0
:100EB8005E2F5F2F6D2F69087F390319642F652F07
:100EC800682FE701E70A6D2F561C6B2F6C2F6D2FCB
:100ED800652F67080319712F722FA62F0130D607C7
:100EE800003003180130D707003003180130D80745
:100EF800003003180130D907591C832F842FA62FDF
:100F08005608DE005708DF005808E0005908E100DD
:100F18000130E200610DE10CE00CDF0CDE0CE20BAD
:100F28008E2F6108D9006008D8005F08D7005E08D6
:100F3800D600680A0319A12FA22FA62F0130DE00C0
:100F48005E08E807680A0319AA2FAB2FB02F6808B4
:100F5800031DAF2FB02FBE2F0030D9000030D800AE
:100F68000030D7000030D6006808031DBC2FBD2F05
:100F7800BE2FE601681CC12FC22FC42FD817C82F57
:100F88007F30DE005E08D8056808DE0003105E0CBE
:100F9800DF005F08D900E61FD22FD32FD42FD9172F
:100FA8000800FA00F601F7017208F400F501740868
:100FB800F8007508F9007A1CE22FE32FE92F78086A
:100FC800F6070318F70A7908F70701300310F80D38
:100FD800F90DFF3E031DEA2F0310FA0C7A08031DD2
:100FE800F62FF72FDF2F7708F3007608F2000800B6
:1010000075087404730472040319072808280A2851
:101010008030F5060800F801F51F0F281028172862
:10102000F409F509F40A0319F50AF801F80AF31F9F
:101030001A281B282028F209F309F20A0319F30AD7
:10104000720873040319252826285528F701F70A82
:10105000342801300310F20DF30DFF3E031D2A2842
:101060000130F6007608F707F31F372838282928BB
:1010700073087502031D3E2872087402031C412880
:10108000422848287208F4027308031CF503F5028D
:1010900001300310F30CF20CFF3E031D4928013010
:1010A000F702031D542855283828780803195928B1
:1010B0005A285F28F409F509F40A0319F50A750896
:1010C000F3007408F20008000A168A1581240A1237
:1010D0008A150A168A1100200A128A150A168A151C
:1010E0003E240A128A150A168A154E240A128A15F7
:1010F0007230F2000030F3000A168A1560240A12DA
:101100008A158030F2000030F3000A168A15602438
:101110000A128A150330F2000030F3000A168A150D
:1011200060240A128A150A168A1557240A128A158B
:10113000023083160313CA000430C900B930C80056
:10114000C80BA028C90BA028CA0BA028A7280A16DC
:101150008A154E240A128A157330F2000030F3000B
:101160000A168A1560240A128A150030F200F3006C
:101170000A168A150F250A128A1573088316031397
:10118000D0007208CF000A168A1557240A128A1551
:10119000023083160313CA000430C900B930C800F6
:1011A000C80BD028C90BD028CA0BD028D728831643
:1011B0000313500883120313A700831603134F0869
:1011C00083120313A6000A168A15C6240A128A156A
:1011D00083120313290883160313CE00831203130B
:1011E000280883160313CD008312031327088316E0
:1011F0000313CC0083120313260883160313CB00BA
:101200009130C800480883120313EA0083160313C1
:101210004E0883120313EE00831603134D08831246
:101220000313ED00831603134C0883120313EC0021
:10123000831603134B0883120313EB00D3300A16F3
:101240008A11FD240A128A15D3300A168A15A5249C
:101250000A128A15033083160313CA008A30C900A4
:101260005530C800C80B3229C90B3229CA0B3229A4
:1012700073280A128A110C28831203132B08803951
:10128000B0003008B5002B08B0003007B1003108BD
:10129000BB00AA1F4C294D294E293B143B080319BA
:1012A0005229532962293B0A031D572958296029CD
:1012B0000030AB000030AA000030A9000030A800C8
:1012C000AA176A290030AB000030AA000030A9003C
:1012D0000030A8002F088039B0003008B5062F086C
:1012E000B0003007B1003108BA00AE1F7829792963
:1012F0007A293A143A0803197E297F298E293A0A55
:10130000031D832984298C290030AF000030AE00F2
:101310000030AD000030AC00AE1796290030AF00B1
:101320000030AE000030AD000030AC003A080319C8
:101330009A299B29A0293B08031D9F29A029A92997
:101340000030AB000030AA000030A9000030A80037
:101350009C2C2808B0003008F2002E080A128A11CE
:10136000D5270A128A15730883120313C100720865
:10137000C0004008B000B101B201B3013308B900A8
:101380003208B8003108B7003008B6004108B00094
:10139000B101B201B3013308BF003208BE00310809
:1013A000BD003008BC002908B0003008F2002D084C
:1013B0000A128A11D5270A128A1573088312031399
:1013C000C1007208C0004008B000B101B201B30111
:1013D0003008B607310803110318013E0319F1293B
:1013E000B707320803110318013E0319F829B8079B
:1013F000330803110318013E0319FF29B9074108F7
:10140000B000B101B201B3013008BC0731080311CB
:101410000318013E03190D2ABD07320803110318F2
:10142000013E0319142ABE07330803110318013EB5
:1014300003191B2ABF072A08B0003008F2002C0845
:101440000A128A11D5270A128A1573088312031308
:10145000C1007208C0004008B000B101B201B30180
:101460003008B607310803110318013E0319392A61
:10147000B707320803110318013E0319402AB807C1
:10148000330803110318013E0319472AB90741081D
:10149000B000B101B201B3013008BC07310803113B
:1014A0000318013E0319552ABD073208031103181A
:1014B000013E03195C2ABE07330803110318013EDD
:1014C0000319632ABF070830B0000310B60DB70D2B
:1014D000B80DB90DB00B652A2908B0003008F2002C
:1014E0002C080A128A11D5270A128A15730883124A
:1014F0000313C1007208C0004008B0004108B100E9
:10150000B201B3013008B607310803110318013ED8
:1015100003198B2AB707320803110318013E031978
:10152000922AB807330803110318013E0319992AB8
:10153000B9072808B0003008F2002D080A128A11F5
:10154000D5270A128A15730883120313C100720883
:10155000C0004008B0004108B100B201B30130083A
:10156000B607310803110318013E0319B82AB7075B
:10157000320803110318013E0319BF2AB8073308C4
:1015800003110318013E0319C62AB9070830B00039
:101590000310B60DB70DB80DB90DB00BC82A280849
:1015A000B0003008F2002C080A128A11D5270A125E
:1015B0008A15730883120313C1007208C000400823
:1015C000B0004108B100B201B3013008B6073108DC
:1015D00003110318013E0319EE2AB707320803115D
:1015E0000318013E0319F52AB8073308031103183D
:1015F000013E0319FC2AB9072908B0003008F2009F
:101600002E080A128A11D5270A128A157308831226
:101610000313C1007208C0004008B0004108B100C7
:10162000B201B3013008BC07310803110318013EB1
:1016300003191B2BBD07320803110318013E0319C0
:10164000222BBE07330803110318013E0319292B6F
:10165000BF072A08B0003008F2002D080A128A11CC
:10166000D5270A128A15730883120313C100720862
:10167000C0004008B0004108B100B201B301300819
:10168000BC07310803110318013E0319482BBD079D
:10169000320803110318013E03194F2BBE0733080C
:1016A00003110318013E0319562BBF072A08B00087
:1016B0003008F2002E080A128A11D5270A128A155C
:1016C000730883120313C1007208C0004008B00001
:1016D0004108B100B201B30108300310B00DB10DE3
:1016E000B20DB30DFF3E031D6D2B3008BC07310852
:1016F00003110318013E03197E2BBD0732080311A5
:101700000318013E0319852BBE0733080311031884
:10171000013E03198C2BBF073608B0003708B10013
:101720003808B2003908B30018300310B30CB20CFB
:10173000B10CB00CFF3E031D952B3008BC073108DF
:1017400003110318013E0319A62BBD07320803112C
:101750000318013E0319AD2BBE073308031103180C
:10176000013E0319B42BBF070830B0000310B60DBB
:10177000B70DB80DB90DB00BB62B3B083A07B0004A
:10178000B101B10D3008823EC00031080318013E9E
:10179000FF3EC100E82B0130B0000310BC0DBD0DB1
:1017A000BE0DBF0DB00BCD2BB91FD72BD82BD92B0E
:1017B0003C140130B0000310B60DB70DB80DB90DD3
:1017C000B00BDB2BFF30C0070318C10AFF30C10785
:1017D000BE1FEB2BEC2BCB2BBA01B91FF02BF12B3F
:1017E0000D2CFF303605B000FF303705B100FF305B
:1017F0003805B2007F303905B300330832043104B4
:1018000030040319042C052C082CBA01BA0A0D2C3B
:101810003C1C0B2C0C2C0D2C052C3A080319112CFC
:10182000122C432C0130BC07003003180130BD07D7
:10183000003003180130BE07003003180130BF0725
:101840003F1C232C242C432C3C08B0003D08B10045
:101850003E08B2003F08B3000130B400330DB30CB2
:10186000B20CB10CB00CB40B2E2C3308BF003208F4
:10187000BE003108BD003008BC000130C0070318AD
:10188000C10A0030C1074108803AFF0080307F0262
:10189000031D4C2CFF304002031C4F2C502C5B2CA2
:1018A0007F3083120313BF008030BE000030BD00C4
:1018B0000030BC00902C831203134108803AFF00D3
:1018C00080307F02031D662C013040020318692C12
:1018D0006A2C762C003083120313BF000030BE0048
:1018E0000030BD000030BC00B501902C8312031302
:1018F0004008B0003008BB00FF30BC05FF30BD051C
:101900007F30BE050030BF053B1C872C882C892CFE
:10191000BE173B08B0000310300CB1003108BF0007
:101920003508B0003008BF043F08AB003E08AA00ED
:101930003D08A9003C08A800080083120313D40046
:10194000D41FA32CA42C532ED409D40A5408803AB3
:10195000123E031CAC2CAD2C972D0A30A000003099
:10196000A1005408F400F501F41BF5036430F20003
:101970000030F3000A128A150B200A128A15730828
:1019800083120313A3007208A2000A168A151B27EC
:101990000A128A15831203132008C60001300310AF
:1019A000C60DFF3E031DCF2C0310460D593E84008B
:1019B0000A168A1500200A128A15C7000A168A1507
:1019C00000200A128A15C8000A168A1500200A1279
:1019D0008A15C9000A168A1500200A128A15CA003B
:1019E0004A08AB004908AA004808A9004708A8000F
:1019F0006430A0000030A1005408A200A301A21B83
:101A0000A3030A168A151B270A128A1583120313C9
:101A10002008CB0001300310CB0DFF3E031D0B2D22
:101A200003104B0D7D3E84000A168A1500200A1211
:101A30008A15CC000A168A1500200A128A15CD00D4
:101A40000A168A1500200A128A15CE000A168A156F
:101A500000200A128A15CF004F08AF004E08AE00D2
:101A60004D08AD004C08AC000A128A153C210A1240
:101A70008A15831203132B08D3002A08D2002908E1
:101A8000D1002808D0000A30F2000030F3005408DA
:101A9000F400F501F41BF5030A128A150B200A1253
:101AA0008A15720883120313C60001300310C60D95
:101AB000FF3E031D562D0310460D353E84000A16C9
:101AC0008A1500200A128A15C7000A168A150020F6
:101AD0000A128A15C8000A168A1500200A128A15E9
:101AE000C9000A168A1500200A128A15CA004A0877
:101AF000AB004908AA004808A9004708A8005308F5
:101B0000AF005208AE005108AD005008AC000A12F8
:101B10008A153C210A128A15831203132B08C5006B
:101B20002A08C4002908C3002808C200FF2F54084F
:101B3000803A753E031C9D2D9E2D262E0A30F20004
:101B40000030F3005408F400F501F41BF5030A1209
:101B50008A150B200A128A15720883120313C60015
:101B600001300310C60DFF3E031DB12D0310460DBD
:101B7000353E84000A168A1500200A128A15C7000D
:101B80000A168A1500200A128A15C8000A168A1534
:101B900000200A128A15C9000A168A1500200A12A6
:101BA0008A15CA004A08AB004908AA004808A900DB
:101BB0004708A8000A30A0000030A1005408A20085
:101BC000A301A21BA3030A168A151B270A128A1552
:101BD000831203132008CB0001300310CB0DFF3E0E
:101BE000031DED2D03104B0D593E84000A168A1576
:101BF00000200A128A15CC000A168A1500200A1243
:101C00008A15CD000A168A1500200A128A15CE0000
:101C10000A168A1500200A128A15CF004F08AF0055
:101C20004E08AE004D08AD004C08AC000A128A15F3
:101C30003C210A128A15831203132B08C5002A08B7
:101C4000C4002908C3002808C200FF2F5408C6009A
:101C500001300310C60DFF3E031D292E0310460D53
:101C6000353E84000A168A1500200A128A15C7001C
:101C70000A168A1500200A128A15C8000A168A1543
:101C800000200A128A15C9000A168A1500200A12B5
:101C90008A15CA004A08C5004908C4004808C3009C
:101CA0004708C200FF2F5408803A123E031C592EE9
:101CB0005A2E442F0A30A0000030A1005408F4002E
:101CC000F501F41BF5036430F2000030F3000A1252
:101CD0008A150B200A128A15730883120313A300B6
:101CE0007208A2000A168A151B270A128A15831287
:101CF00003132008C60001300310C60DFF3E031D6C
:101D00007C2E0310460D253E84000A168A150020FD
:101D10000A128A15C7000A168A1500200A128A15A7
:101D2000C8000A168A1500200A128A15C9000A1668
:101D30008A1500200A128A15CA004A08AB00490811
:101D4000AA004808A9004708A8006430A000003095
:101D5000A1005408A200A301A21BA3030A168A151E
:101D60001B270A128A15831203132008CB000130A7
:101D70000310CB0DFF3E031DB82E03104B0D493E43
:101D800084000A168A1500200A128A15CC000A1649
:101D90008A1500200A128A15CD000A168A1500201D
:101DA0000A128A15CE000A168A1500200A128A1510
:101DB000CF004F08AF004E08AE004D08AD004C08F4
:101DC000AC000A128A153C210A128A1583120313E9
:101DD0002B08D3002A08D2002908D1002808D000F7
:101DE0000A30F2000030F3005408F400F501F41B4F
:101DF000F5030A128A150B200A128A15720883123B
:101E00000313C60001300310C60DFF3E031D032F50
:101E10000310460D013E84000A168A1500200A129E
:101E20008A15C7000A168A1500200A128A15C800EA
:101E30000A168A1500200A128A15C9000A168A1580
:101E400000200A128A15CA004A08AB004908AA00F5
:101E50004808A9004708A8005308AF005208AE0080
:101E60005108AD005008AC000A128A153C210A1234
:101E70008A15831203132B08C5002A08C4002908F9
:101E8000C3002808C200FF2F5408803A753E031C87
:101E90004A2F4B2FD32F0A30F2000030F3005408A2
:101EA000F400F501F41BF5030A128A150B200A123F
:101EB0008A15720883120313C60001300310C60D81
:101EC000FF3E031D5E2F0310460D013E84000A16DF
:101ED0008A1500200A128A15C7000A168A150020E2
:101EE0000A128A15C8000A168A1500200A128A15D5
:101EF000C9000A168A1500200A128A15CA004A0863
:101F0000AB004908AA004808A9004708A8000A3001
:101F1000A0000030A1005408A200A301A21BA3034B
:101F20000A168A151B270A128A1583120313200822
:101F3000CB0001300310CB0DFF3E031D9A2F031081
:101F40004B0D253E84000A168A1500200A128A15B8
:101F5000CC000A168A1500200A128A15CD000A162E
:101F60008A1500200A128A15CE000A168A1500204A
:101F70000A128A15CF004F08AF004E08AE004D0878
:101F8000AD004C08AC000A128A153C210A128A15D1
:101F9000831203132B08C5002A08C4002908C300B4
:101FA0002808C200FF2F5408C60001300310C60DD8
:101FB000FF3E031DD62F0310460D013E84000A1676
:101FC0008A1500200A128A15C7000A168A150020F1
:101FD0000A128A15C8000A168A1500200A128A15E4
:101FE000C9000A168A1500200A128A15CA004A0872
:101FF000C5004908C4004808C3004708C2000800DB
:1020000083160313181218158316031787156730E4
:102010008316031399009A01831203139817181358
:1020200018168316031398160800003072058312E1
:102030000313A00000307305A10080307405A200D6
:102040007F307505A3002308220421042004031D0A
:102050002A282B2833280030F5000030F400003007
:10206000F3000030F20000307605A0000030770564
:10207000A10080307805A2007F307905A3002308F5
:10208000220421042004031D462847284F2800303D
:10209000F9000030F8000030F7000030F600F51FBE
:1020A0005228532877280030A0000030A1000030CB
:1020B000A2008030A3007208A0027308031C730FF3
:1020C00062286328A1027408031C740F6828692819
:1020D000A2027508031C750F6E286F28A30223083F
:1020E000F5002208F4002108F3002008F200F91F8F
:1020F0007A287B289F280030A0000030A100003003
:10210000A2008030A3007608A0027708031C770F96
:102110008A288B28A1027808031C780F9028912820
:10212000A2027908031C790F96289728A302230896
:10213000F9002208F8002108F7002008F600803096
:10214000F5068030F90679087502031DB128780874
:102150007402031DB12877087302031DB1287608A5
:1021600072020318B428B528B7280310B82803143E
:10217000080083120313A00020080319C028C128F7
:10218000D528F51FC428C528D5287209A2007309CF
:10219000A3007409A4007509A500A20A0319A30AE3
:1021A0000319A40A0319A50ADD287508A5007408F7
:1021B000A4007308A3007208A200750874047304D5
:1021C0007204031DE428E528EE280030F5000030F5
:1021D000F4000030F3000030F20074299630F6006D
:1021E0007608A10000290130F6007608A107013029
:1021F0000310A50CA40CA30CA20CFF3E031DF82891
:10220000FE302505031D05290629F3282229013062
:10221000F6007608A1070130A2070030031801304C
:10222000A307003003180130A40700300318013061
:10223000A50701300310A50CA40CA30CA20CFF3EB3
:10224000031D1A29FF302505031D272928290729E1
:1022500034290130A1020130F6000310A20DA30DB4
:10226000A40DA50DF60B2D29A41B372938293E29CD
:102270000230210203183D293E292929211841292C
:1022800042294A29FF30A205FF30A3057F30A4056B
:10229000FF30A5050310A10C2108F600F701F80195
:1022A000F90118300310F60DF70DF80DF90DFF3E8A
:1022B000031D52297608A2047708A3047808A40411
:1022C0007908A50420080319662967296C29F51FD8
:1022D0006A296B296C29A5172508F5002408F40044
:1022E0002308F3002208F200080072088312031387
:1022F000A0007308A1007408A2000310210D220D94
:10230000A3002308A9002908031D872988299129EA
:102310000030F5000030F4000030F3000030F2002F
:10232000312A7608A0007708A1007808A2000310DF
:10233000210D220DA3002308A8002808031DA129B0
:10234000A229A3298829F317FF30F205FF30F305EE
:102350000030F405F717FF30F605FF30F7050030C1
:10236000F8050030A7000030A6000030A5000030BE
:10237000A4007F30A90298302807A0002008A902F5
:102380001830A0002008A8000130A0000310A40D00
:10239000A50DA60DA70DA00BC62978087402031D74
:1023A000D72977087302031DD72976087202031C08
:1023B000DA29DB29E6297608F2027708031C770F71
:1023C000F3027808031C780AF40224140130031085
:1023D000F20DF30DF40DFF3E031DE7290130A802B5
:1023E000031DF329F429C429A91FF729F829122A62
:1023F0002908803A973E0318FE29FF29002A8829D8
:1024000001300310A70CA60CA50CA40CFF3E031D65
:10241000012A0130A0002008A907031D102A112A53
:10242000002A292A18302902031C172A182A242ACC
:1024300088290130A0000310A40DA50DA60DA70D3D
:10244000A00B1B2A0130A9022908031D282A292ACA
:10245000192A2708F5002608F4002508F3002408A7
:10246000F20008000310740D750DFA007A0883124B
:102470000313A5002508031D3E2A3F2A482A0030E1
:10248000F5000030F4000030F3000030F200EF2AD5
:102490000310780D790DFA007A08A4002408031DB2
:1024A000522A532A542A3F2AF417FF30F205FF30EC
:1024B000F305FF30F4050030F505F817FF30F60599
:1024C000FF30F705FF30F8050030F9050030A300B4
:1024D0000030A2000030A1000030A0007F30A50233
:1024E000A0302407FA007A08A5022030FA007A0802
:1024F000A4000130FA000310A00DA10DA20DA30D40
:10250000FA0B7B2A79087502031D902A7808740259
:10251000031D902A77087302031D902A7608720221
:10252000031C932A942AA32A7608F2027708031C34
:10253000770FF3027808031C780FF4027908031C64
:10254000790FF50220140130FA000310F20DF30D9B
:10255000F40DF50DFA0BA52A0130A402031DB12AD2
:10256000B22A792AA51FB52AB62AD02A2508803A88
:102570009F3E0318BC2ABD2ABE2A3F2A0130031001
:10258000A30CA20CA10CA00CFF3E031DBF2A01301E
:10259000FA007A08A507031DCE2ACF2ABE2AE72A09
:1025A00020302502031CD52AD62AE22A3F2A0130F0
:1025B000FA000310A00DA10DA20DA30DFA0BD92A4C
:1025C0000130A5022508031DE62AE72AD72A230899
:1025D000F5002208F4002108F3002008F2000800AA
:1025E00083120313D5006E305502031CF82AF92A12
:1025F000082C3F30AB000030AA000030A9000030AA
:10260000A8006430A0000030A1005508C600C70132
:102610004608A2004708A3000A168A1577250A165D
:102620008A11831203132008C80001300310C80D5B
:10263000FF3E031D162B0310480D7D3E84000A1635
:102640008A1500200A168A11C9000A168A15002068
:102650000A168A11CA000A168A1500200A168A115B
:10266000CB000A168A1500200A168A11CC004C08E5
:10267000AF004B08AE004A08AD004908AC000A1292
:102680008A153C210A168A11831203132B08D400E1
:102690002A08D3002908D2002808D1000A30A00057
:1026A0000030A1005508C600C7014608F4004708DD
:1026B000F5006430F2000030F3000A168A153D255B
:1026C0000A168A11730883120313A3007208A2006A
:1026D0000A168A1577250A168A1183120313200811
:1026E000C80001300310C80DFF3E031D722B0310FC
:1026F000480D593E84000A168A1500200A168A11D0
:10270000C9000A168A1500200A168A11CA000A167C
:102710008A1500200A168A11CB000A168A15002095
:102720000A168A11CC004C08AB004B08AA004A08D4
:10273000A9004908A8005408AF005308AE00520889
:10274000AD005108AC000A128A153C210A168A1104
:10275000831203132B08D0002A08CF002908CE00CB
:102760002808CD000A30F2000030F3005508C600FA
:10277000C7014608F4004708F5000A168A153D25EA
:102780000A168A11720883120313C800013003105D
:10279000C80DFF3E031DC72B0310480D353E8400B6
:1027A0000A168A1500200A168A11C9000A168A1507
:1027B00000200A168A11CA000A168A1500200A1675
:1027C0008A11CB000A168A1500200A168A11CC003D
:1027D0004C08AB004B08AA004A08A9004908A80009
:1027E0005008AF004F08AE004E08AD004D08AC00D9
:1027F0000A128A153C210A168A11831203132B0828
:10280000C5002A08C4002908C3002808C200FC2CFF
:102810000B305502031C0D2C0E2CB92C3F30AB0095
:102820000030AA000030A9000030A8000A30A00043
:102830000030A1005508C600C7014608A20047089D
:10284000A3000A168A1577250A168A118312031324
:102850002008C80001300310C80DFF3E031D2B2CBB
:102860000310480D593E84000A168A1500200A16E6
:102870008A11C9000A168A1500200A168A11CA0090
:102880000A168A1500200A168A11CB000A168A1524
:1028900000200A168A11CC004C08AF004B08AE008D
:1028A0004A08AD004908AC000A128A153C210A16F4
:1028B0008A11831203132B08D4002A08D300290895
:1028C000D2002808D1000A30F2000030F300550889
:1028D000C600C7014608F4004708F5000A168A1525
:1028E0003D250A168A11720883120313C8000130AD
:1028F0000310C80DFF3E031D782C0310480D353E14
:1029000084000A168A1500200A168A11C9000A16C0
:102910008A1500200A168A11CA000A168A15002094
:102920000A168A11CB000A168A1500200A168A1187
:10293000CC004C08AB004B08AA004A08A900490883
:10294000A8005408AF005308AE005208AD0051086B
:10295000AC000A128A153C210A168A11831203134D
:102960002B08C5002A08C4002908C3002808C20093
:10297000FC2C3F30AB000030AA000030A900003032
:10298000A8005508C60001300310C60DFF3E031D08
:10299000C42C0310460D353E84000A168A1500200B
:1029A0000A168A11C7000A168A1500200A168A110B
:1029B000C8000A168A1500200A168A11C9000A16CC
:1029C0008A1500200A168A11CA004A08AF00490871
:1029D000AE004808AD004708AC000A128A153C2139
:1029E0000A168A11831203132B08C5002A08C40093
:1029F0002908C3002808C200080083160313C60074
:102A00006B30A8002808B1000A128A11302D253039
:102A1000470603190C2D0D2D192D4708A80046084F
:102A200084002808831380000130A8002808C60706
:102A3000042DBE01BF01BC01BD01252D3C15013097
:102A4000A800280883120313EA0783126A08840087
:102A50000A168A1500200A168A1183160313A80085
:102A6000A9012908003A0319362D3B2D2808303AD0
:102A700003191E2D3B2D831203136A0884000A16C6
:102A80008A1500200A168A110A168A1593240A1636
:102A90008A11031C4C2D4D2D932D83160313BE015B
:102AA000BF010A30F2000030F300831603133F0821
:102AB000F5003E08F4000A168A15EA240A168A115F
:102AC000730883160313BF007208BE00831203133A
:102AD0006A0884000A168A1500200A168A11D03E58
:102AE00083160313A800FF3003180030A90028083C
:102AF000BE070318BF0A2908BF070130A80028082D
:102B000083120313EA076A0884000A168A15002054
:102B10000A168A110A168A1593240A168A110318AE
:102B2000922D932D512D831203136A0884000A16E7
:102B30008A1500200A168A112E3A031DA02DA12DF8
:102B4000F32D831603133D170130A80028088312C4
:102B50000313EA0783160313C401C501E12D0A30EC
:102B6000F2000030F300831603134508F500440813
:102B7000F4000A168A15EA240A168A1173088316C5
:102B80000313C5007208C400831203136A0884008B
:102B90000A168A1500200A168A11D03E83160313DE
:102BA000A800FF3003180030A9002808C407031844
:102BB000C50A2908C5070130A80028088312031395
:102BC000EA0783126A0884000A168A1500200A168A
:102BD0008A110A168A1593240A168A110318F12DF0
:102BE000F22DAF2DFB2D83160313C401C5013D1635
:102BF000FB2D3D15192E013083120313EA07FF3018
:102C00006A0784000A168A1500200A168A1183169C
:102C10000313C700A800A9012908003A0319112EBF
:102C2000042D2808003A0319FD2F663A0319F92DDF
:102C3000042D00303C05A80007303D05A9002808F8
:102C400029040319242E272E0A128A11322C3D1E24
:102C50002A2E2B2E2F2E0630C4000030C50031083E
:102C6000840083130008C000840A0008C100840A9D
:102C70000008C200840A0008C3000430A800280825
:102C8000B1074308F5004208F4004108F30040088A
:102C9000F2000030F9000030F8000030F70000309A
:102CA000F6000A168A1115200A168A110318592EE1
:102CB0005A2E772E831603134308F5004208F400BA
:102CC0004108F3004008F2000A128A1500200A1693
:102CD0008A11750883160313C3007408C2007308B1
:102CE000C1007208C0000330BC040030BD0483166C
:102CF0000313BA01BB014308F5004208F400410880
:102D0000F3004008F2000030F9000030F800003015
:102D1000F7000030F6000A168A15BD250A168A113A
:102D20000318932E942E942F031083160313420D31
:102D3000430D823EBA00FF3003180030BB00FF3065
:102D4000BA070318BB0AFF30BB070330F20000309C
:102D5000F3003B08F5003A08F4000A168A15EA2445
:102D60000A168A11730883160313BB007208BA008F
:102D70000A3083120313A0000030A100831603134E
:102D80003B0883120313A300831603133A0883122C
:102D90000313A2000A168A151B270A168A1183122A
:102DA0000313210883160313BB00831203132008A7
:102DB00083160313BA00BB1FDE2EDF2EE52EFF3075
:102DC000BA070318BB0AFF30BB073A03FF3A0A12DF
:102DD0008A159D240A168A11831203134508831647
:102DE0000313B90083120313440883160313B800B6
:102DF00083120313430883160313B70083120313CC
:102E0000420883160313B600430883120313AB0072
:102E100083160313420883120313AA0083160313B5
:102E2000410883120313A900831603134008831279
:102E30000313A80083160313390883120313AF008A
:102E400083160313380883120313AE00831603138B
:102E5000370883120313AD00831603133608831259
:102E60000313AC000A128A153C210A168A11831238
:102E700003132B0883160313B900831203132A08C4
:102E800083160313B8008312031329088316031350
:102E9000B70083120313280883160313B6003908FA
:102EA000F5003808F4003708F3003608F2003F3028
:102EB000F9008030F8000030F7000030F6000A1604
:102EC0008A1115200A168A110318672F682F712F8F
:102ED000FF3083160313BA070318BB0AFF30BB0782
:102EE000942F831603133908F5003808F4003708C7
:102EF000F3003608F2004130F9002030F8000030CD
:102F0000F7000030F6000A168A1115200A168A11F9
:102F1000031C8B2F8C2F942F013083160313BA07B9
:102F20000318BB0A0030BB07831603134508803A19
:102F3000FF0080307F02031D9F2F0D3044020318D5
:102F4000A22FA32FEA2F8316031344080A168A110F
:102F5000F0220A168A11831203134508D900440887
:102F6000D8004308D7004208D6008316031343084D
:102F700083120313DD008316031342088312031325
:102F8000DC0083160313410883120313DB0083164E
:102F90000313400883120313DA000A128A114D2525
:102FA0000A168A1183120313590883160313C300E8
:102FB00083120313580883160313C20083120313EA
:102FC000570883160313C100831203135608831690
:102FD0000313C000831603133B08803AFF008030C0
:102FE0007F02031DF52F0A303A020318FA2F0A1246
:102FF0008A111D280A128A116E280A128A11482D78
:1030000018308A000408840A82070034003400342F
:1030100080343F34003400342034413400340034F0
:10302000C8344234003400347A34443400344034F8
:103030001C34463400345034C33447340034243410
:10304000743449348034963418344B342034BC34CE
:10305000BE344C3428346B346E344E34F93402347C
:1030600015345034EC347834AD346034CA34F2342E
:10307000493471340034003480343F34CD34CC349E
:10308000CC343D340A34D73423343C346F341234D6
:1030900083343A341734B734D1343834AC34C5348B
:1030A00027343734BD343734863435349534BF341F
:1030B000D63433347734CC342B3432345F347034F8
:1030C00089343034FF34E634DB342E340834E534CC
:1030D0003C341E3460344234A2340D3401340034A4
:1030E000003400340A3400340034003464340034D2
:1030F00000340034E834033400340034103427340E
:1031000000340034A0348634013400344034423476
:103110000F34003480349634983400340034E13471
:10312000F53405340034CA349A343B342534303411
:0E3130002E3430346634203463346D34003471
:10386E0071088A00700E8300FE0E7E0E090083160C
:10387E0003130F088F3960388F000F14080064008F
:10388E008001840A0406031900340406472C0A1624
:10389E008A1574240A168A15831603131114080048
:1038AE000A168A1574240A168A158316031311151F
:1038BE0008000A168A1574240A168A1572088312CD
:1038CE00031393000800F200831203130C1E702CD6
:1038DE00712C6B2C720899000800831603131419AF
:1038EE00792C7A2C742C11081F39031D7F2C802CF7
:1038FE00742C08008316031788018901831603139D
:10390E00051085140515860188018601831203139F
:10391E008601880185010800F300F2013A30730236
:10392E0003189A2C9B2CA32C30307302031CA02C52
:10393E00A12CA32CF201F20A720C0800F600F4017D
:10394E00F501BA2C74087607F3007308840000089A
:10395E000A168A156A240A168A150130F407031806
:10396E00F50A0030F50774087607F3007308840033
:10397E0083130008031DC42CC52CA92C0800831228
:10398E0003132608F2002708F3000030F31BFF3064
:10399E00F400F50001300A168A11B9200A168A15AC
:1039AE00750883120313AD007408AC007308AB00E6
:1039BE007208AA002D08A9002C08A8002B08A70041
:1039CE002A08A6000800F601F701721CEF2CF02C55
:1039DE00F62C7408F6070318F70A7508F707013076
:1039EE000310F40DF50DFF3E031DF72C01300310EF
:1039FE00F30CF20CFF3E031DFE2C72087304031D24
:103A0E00092D0A2DEC2C7708F3007608F200080039
:103A1E000A168A1574240A168A158316031391152D
:103A2E000A168A1574240A168A15831203131308AC
:103A3E00F400F5017408F6007508F7000A168A15E9
:103A4E0074240A168A1572037304031D2F2D302D4C
:103A5E00342D831603139112372D831603139116EB
:103A6E0011167708F3007608F20008007208730446
:103A7E000319422D432D722DF701F70A512D0130F6
:103A8E000310F20DF30DFF3E031D472D0130F6001E
:103A9E007608F707F31F542D552D462D7308750222
:103AAE00031D5B2D72087402031C5E2D5F2D652DA8
:103ABE007208F4027308031CF503F50201300310BB
:103ACE00F30CF20CFF3E031D662D0130F702031DB1
:103ADE00712D722D552D7508F3007408F200080033
:103AEE0083120313A501A601200821040319802DBA
:103AFE00812DB82DA401A40A8F2D01300310A00D25
:103B0E00A10DFF3E031D852D0130F8007808A40796
:103B1E00A11F922D932D842D01300310A50DA60DFE
:103B2E00FF3E031D942D21082302031DA02D200806
:103B3E002202031CA32DA42DAB2D2008A2022108C6
:103B4E00031CA303A302251401300310A10CA00C27
:103B5E00FF3E031DAC2D0130A402031DB72DB82D61
:103B6E00932D2608A1002508A0000800003072053C
:103B7E0083120313A00000307305A100803074057A
:103B8E00A2007F307505A30023082204210420041F
:103B9E00031DD22DD32DDB2D0030F5000030F400A7
:103BAE000030F3000030F20000307605A000003047
:103BBE007705A10080307805A2007F307905A3003B
:103BCE002308220421042004031DEE2DEF2DF72DD2
:103BDE000030F9000030F8000030F7000030F60039
:103BEE0079087506031D052E78087406031D052E2B
:103BFE0077087306031D052E760872060319082E24
:103C0E00092E0B2E03100C2E031408008030831681
:103C1E000313A306270883120313D9008316031375
:103C2E00260883120313D800831603132508831264
:103C3E000313D70083160313240883120313D6002D
:103C4E0083160313230883120313DD008316031355
:103C5E00220883120313DC00831603132108831238
:103C6E000313DB0083160313200883120313DA00F9
:103C7E000A128A114D250A168A1583120313590842
:103C8E0083160313A300831203135808831603131A
:103C9E00A20083120313570883160313A100831285
:103CAE000313560883160313A00008007508740446
:103CBE00730472040319642E652EAA2E8312031345
:103CCE00A001A00A772E0130FA000310F20DF30DB9
:103CDE00F40DF50DFA0B6C2E0130FA007A08A007E0
:103CEE00F51F7A2E7B2E6A2E75087902031D892EFA
:103CFE0074087802031D892E73087702031D892E1E
:103D0E0072087602031C8C2E8D2E9B2E7208F602E4
:103D1E007308031C730FF7027408031C740FF80268
:103D2E007508031C750FF90201300310F50CF40C25
:103D3E00F30CF20CFF3E031D9C2E0130A002031D5E
:103D4E00A92EAA2E7B2E7908F5007808F4007708A4
:103D5E00F3007608F2000800003083120313A3006C
:103D6E000030A2000030A1000030A00075087404DD
:103D7E00730472040319C42EC52E122FA401A40AB3
:103D8E00D52E0130FA000310F20DF30DF40DF50DE2
:103D9E00FA0BCA2E0130FA007A08A407F51FD82EA6
:103DAE00D92EC82E0130FA000310A00DA10DA20DC0
:103DBE00A30DFA0BDB2E75087902031DF02E740885
:103DCE007802031DF02E73087702031DF02E720881
:103DDE007602031CF32EF42E032F7208F6027308DC
:103DEE00031C730FF7027408031C740FF802750896
:103DFE00031C750FF902201401300310F50CF40C9E
:103E0E00F30CF20CFF3E031D042F0130A402031D20
:103E1E00112F122FD92E2308F5002208F4002108A5
:103E2E00F3002008F200080083120313A501A11F5E
:103E3E00212F222F292FA009A109A00A0319A10AB7
:103E4E00A501A50AA31F2C2F2D2F362FA209A309DA
:103E5E00A20A0319A30A0130F9007908A506A601E2
:103E6E00A7012008210403193D2F3E2F752FA40111
:103E7E00A40A4C2F01300310A00DA10DFF3E031D0F
:103E8E00422F0130F9007908A407A11F4F2F502FA0
:103E9E00412F01300310A60DA70DFF3E031D512F1C
:103EAE0021082302031D5D2F20082202031C602F10
:103EBE00612F682F2008A2022108031CA303A3026E
:103ECE00261401300310A10CA00CFF3E031D692F18
:103EDE000130A402031D742F752F502F25080319CE
:103EEE00792F7A2F7F2FA609A709A60A0319A70AE9
:103EFE002708A1002608A000080003108312031350
:103F0E00570D580DD9005908DF005F08031D902F7B
:103F1E00912F9A2F0030D8000030D7000030D600F5
:103F2E000030D500FF2F5508D9005608DA00570883
:103F3E00DB005808DC001F300310DC0CDB0CDA0C45
:103F4E00D90CFF3E031DA32F5908DD005D08DE00CE
:103F5E00D717FF30D505FF30D605FF30D705003017
:103F6E00D8059630DF02DF1FBD2FBE2FD82F5F087A
:103F7E00803A973E0318C42FC52FC62F912F0130BC
:103F8E000310D80CD70CD60CD50CFF3E031DC72F33
:103F9E000130D9005908DF07031DD62FD72FC62FA2
:103FAE00EF2F20305F02031CDD2FDE2FEA2F912F23
:103FBE000130D9000310D50DD60DD70DD80DD90B64
:103FCE00E12F0130DF025F08031DEE2FEF2FDF2FF1
:103FDE005E080319F32FF42FFF2FD509D609D70941
:103FEE00D809D50A0319D60A0319D70A0319D80A0C
:023FFE000800B9
:04400E00D420FF3F7C
:00000001FF
