:020000040000FA
:060000000A128A110C280F
:10000800FE00030EF0000A08F1000A168A15722C89
:100018000A128A110F2883120313EF018313CB30BE
:100028008400E3300A168A1581240A128A11830192
:100038000A128A154A28831603134308F500420852
:10004800F4004108F3004008F2000030F9000030E5
:10005800F8000030F7000030F6000A168A15662509
:100068000A128A11031839283A28E228831603133A
:10007800430883120313D80083160313420883121C
:100088000313D70083160313410883120313D60002
:1000980083160313400883120313D5000A168A1522
:1000A80084270A128A118312031358085704560426
:1000B8005504031D60286128E228831603133B08B2
:1000C800803AFF0080307F02031D6C2802303A021C
:1000D800031C6F287028E228831603133908F500DB
:1000E8003808F4003708F3003608F2004030F90009
:1000F8008930F8007030F7005F30F6000A168A1170
:1001080017200A128A1103188A288B289428F73096
:1001180083160313BA070318BB0AFF30BB079C28D2
:10012800F83083160313BA070318BB0AFF30BB075E
:100138003A080A128A159D240A128A118312031397
:10014800450883160313B900831203134408831662
:100158000313B80083120313430883160313B7006D
:1001680083120313420883160313B6004308F500ED
:100178004208F4004108F3004008F2003908F90089
:100188003808F8003708F7003608F6000A168A110A
:1001980034220A128A11750883160313B5007408ED
:1001A800B4007308B3007208B2000030C300003016
:1001B800C2000030C1000030C00048298316031374
:1001C800430883120313D8008316031342088312CB
:1001D8000313D70083160313410883120313D600B1
:1001E80083160313400883120313D5000A168A15D1
:1001F80084270A128A1183120313580883160313DB
:10020800B50083120313570883160313B40083122F
:100218000313560883160313B300831203135508F8
:1002280083160313B2003508F5003408F4003308C8
:10023800F3003208F20000300A168A11BB200A12B5
:100248008A11750883160313A3007408A2007308A3
:10025800A1007208A0004308A7004208A6004108B0
:10026800A5004008A4000A168A15B6250A128A11A4
:10027800831603132308C3002208C2002108C10003
:100288002008C000BA01BB01C701C70A4708A80077
:1002980001300310A80DFF3E031D4D290310280D42
:1002A800693E84000A168A1500200A128A11A900DC
:1002B8000A168A1500200A128A11AA000A168A1537
:1002C80000200A128A11AB000A168A1500200A12A9
:1002D8008A11AC002C083502031D7C292B08340236
:1002E800031D7C292A083302031D7C2929083202B0
:1002F80003187F29802981298B290130A800280823
:10030800C7070A304706031D8A298B294A29470847
:100318004407A80045080318450AA9003A08280711
:10032800AA003B0803183B0A2907AB002A08BE02AB
:100338002B08031CBF03BF02440845040319A52961
:10034800A629AC29FF30BE070318BF0AFF30BF0734
:1003580003303C05A80000303D05A9002808290401
:100368000319B729B829BE29FF30BE070318BF0AE9
:10037800FF30BF073C1DC129C2290E2A03303C05A6
:10038800A80000303D05A900280829040319CD2933
:10039800CE29ED292D30A8004608840028088313AB
:1003A80080000130A8002808C607ED2930308316E0
:1003B8000313A8004608840028088313800001302E
:1003C800A8002808C607FF30BE070318BF0AFF3079
:1003D800BF073F08803AFF0080307F02031DF629DF
:1003E80001303E020318F929FA29DA299B2A20301C
:1003F80083160313A8004608840028088313800086
:100408000130A8002808C607FF30BE070318BF0A36
:10041800FF30BF073F08803AFF0080307F02031D8E
:10042800172A01303E0203181A2A1B2AFB29033017
:10043800831603133C05A80000303D05A9002808D1
:1004480029040319282A292A9B2A2D30A80046089E
:1004580084002808831380000130A8002808C607F4
:100468009B2A4708A80001300310A80DFF3E031D72
:10047800382A0310280D693E84000A168A150020C0
:100488000A128A11F2000A168A1500200A128A1125
:10049800F3000A168A1500200A128A11F4000A16B7
:1004A8008A1500200A128A11F5003508F900340867
:1004B800F8003308F7003208F6000A168A15B32642
:1004C8000A128A11750883160313B9007408B80054
:1004D8007308B7007208B6000030F5000030F40069
:1004E8000030F3000A30F2003908F9003808F80043
:1004F8003708F7003608F6000A168A1506260A1283
:100508008A11750883160313B9007408B8007308B4
:10051800B7007208B6003608303EA80046088400C6
:100528002808831380000130A8002808C607013076
:1005380083160313C702470A031DA32AA42A352AD0
:10054800B82A303083160313A80046088400280808
:10055800831380000130A8002808C607FF30BA07B7
:100568000318BB0AFF30BB073B08803AFF00803006
:100578007F02031DC12A01303A020318C42AC52A82
:10058800A52A831603134508803AFF0080307F02AE
:10059800031DD02A09304402031CD32AD42ADB2A9B
:1005A800083083160313A8002808C700E12A831619
:1005B80003134408A8002808C7004708A800A90191
:1005C8002808C4022908031CC503C50247080319E3
:1005D800EE2AEF2AFA2A2E30A800460884002808B6
:1005E800831380000130A8002808C60747080A12AC
:1005F8008A159D240A128A1183120313450883164B
:100608000313B00083120313440883160313AF00C7
:1006180083120313430883160313AE0083120313D4
:10062800420883160313AD00300883120313AF008A
:10063800831603132F0883120313AE0083160313C4
:100648002E0883120313AD00831603132D0883129B
:100658000313AC0083160313430883120313AB0080
:1006680083160313420883120313AA008316031385
:10067800410883120313A900831603134008831249
:100688000313A8000A128A153C210A128A11831240
:1006980003132B08D8002A08D7002908D6002808F1
:1006A800D5000A168A1584270A128A1183120313A1
:1006B800580883160313B5008312031357088316CB
:1006C8000313B40083120313560883160313B300ED
:1006D80083120313550883160313B200142C47081A
:1006E800A80001300310A80DFF3E031D762B031050
:1006F800280D693E84000A168A1500200A128A11FC
:10070800F2000A168A1500200A128A11F3000A1646
:100718008A1500200A128A11F4000A168A15002088
:100728000A128A11F5003508F9003408F800330870
:10073800F7003208F6000A168A15B3260A128A113B
:10074800750883160313B9007408B8007308B70056
:100758007208B6000030F5000030F4000030F300F5
:100768000A30F2003908F9003808F8003708F700AD
:100778003608F6000A168A1506260A128A1175081E
:1007880083160313B9007408B8007308B700720819
:10079800B6003608303EA8004608840028088313AF
:1007A80080000130A8002808C6074708A8000130C3
:1007B8000310A80DFF3E031DDC2B0310280D693E16
:1007C80084000A168A1500200A128A11F2000A16F5
:1007D8008A1500200A128A11F3000A168A150020C9
:1007E8000A128A11F4000A168A1500200A128A11C0
:1007F800F5003508F9003408F8003308F700320826
:10080800F6000A168A1506260A128A117508831632
:100818000313B5007408B4007308B3007208B2007B
:100828000130C702470A031D1A2C1B2C732B2D2CD1
:100838003030A8004608840028088313800001305F
:10084800A8002808C607FF30C4070318C50AFF30E8
:10085800C50744084504031D322C332C1C2C322DAB
:1008680044084504031D392C3A2C482C3508340417
:1008780033043204031D412C422C482C0130C40798
:100888000318C50A0030C5074508803A803C031D97
:100898004F2C440847020318522C532C5A2C831609
:1008A80003134408A8002808C700722C83160313F2
:1008B8004508803AA80080302802031D652C4708A7
:1008C80044020318682C692C722C831603134708FA
:1008D800A800A9012808C4002908C5008316031325
:1008E8003E083F040319792C7A2C8C2C03303C05E4
:1008F800A80000303D05A900280829040319852C03
:10090800862C8C2CFF30BE070318BF0AFF30BF07A8
:100918003D1F8F2C902CAB2C4508803AA8003F082F
:10092800803A2802031D9A2C3E08440203189D2C85
:100938009E2CA72C831603134408BE024508031CEB
:10094800BF03BF02AB2C83160313BE01BF013F08D0
:10095800803A803C031DB22C3E0847020318B52C90
:10096800B62CC22C831603134708A800A90128082F
:10097800BE022908031CBF03BF02C62C831603133B
:10098800BE01BF013C1DC92CCA2CFF2C03303C05FD
:10099800A80000303D05A900280829040319D52C12
:1009A800D62CE12C2D30A800460884002808831393
:1009B80080000130A8002808C6073E083F04031934
:1009C800E62CE72C322D3030A80046088400280891
:1009D800831380000130A8002808C607FF30BE072F
:1009E8000318BF0AFF30BF073E083F04031DFD2C54
:1009F800FE2CE72C322D3E083F040319042D052D4B
:100A08001C2D2030A8004608840028088313800085
:100A18000130A8002808C607FF30BE070318BF0A20
:100A2800FF30BF073E083F04031D1B2D1C2D052D5D
:100A380003303C05A80000303D05A900280829041A
:100A48000319272D282D322D2D30A80046088400A3
:100A58002808831380000A168A11142D0130831286
:100A68000313EA07FF306A0784000A168A15002074
:100A78000A128A1183160313A8002808C70047081A
:100A8800031D472D4A2D0A168A11072D4608840092
:100A98008313800108008312031359088039DE008C
:100AA8005E08E6005908DE005E07DF005F08E80020
:100AB800D81F5F2D602D612D681468080319652DF6
:100AC800662D762D680A031D6A2D6B2D732D003057
:100AD800D9000030D8000030D7000030D600D81731
:100AE800D9017E2D0030D9000030D8000030D70061
:100AF8000030D6005D088039DE005E08E700670830
:100B080066060319882D892D8A2D66175D08DE0073
:100B18005E07DF005F08E700DC1F932D942D952DFD
:100B2800671467080319992D9A2DAA2D670A031DC2
:100B38009E2D9F2DA72D0030DD000030DC000030F9
:100B4800DB000030DA00DC17DD01B22D0030DD00FB
:100B58000030DC000030DB000030DA006808670293
:100B68000318B72DB82DFC2D661FBB2DBC2DC02D2D
:100B78008030DE005E08E6066808DE005E08E900F0
:100B88006708DE005E08E8006908DE005E08E70026
:100B98005608DE005E08E9005A08DE005E08D60046
:100BA8006908DE005E08DA005708DE005E08E90022
:100BB8005B08DE005E08D7006908DE005E08DB001F
:100BC8005808DE005E08E9005C08DE005E08D80010
:100BD8006908DE005E08DC005908DE005E08E900EE
:100BE8005D08DE005E08D9006908DE005E08DD00E9
:100BF800E9016708DE00DF015F08E10068085E02BE
:100C0800E000031CE1036108803AFF0080307F02A6
:100C1800031D102E1A306002031C132E142E512EA1
:100C2800831203135908580457045604031D1D2E34
:100C38001F2E0130202E0030DE005E08E900003053
:100C4800D9000030D8000030D7000030D60067083F
:100C5800DE005E08E800592E691C332E342E3D2E26
:100C68006908DE0003105E0C0138DF005F08E90048
:100C78003F2E0310E90C561C422E432E442EE91732
:100C88000130DE00590DD90CD80CD70CD60CDE0B70
:100C9800462E0130DE005E08E8078312031367085A
:100CA8006802031C582E592E302E661B5C2E5D2EB2
:100CB800A82E6808031D612E622E6B2E0030D90005
:100CC8000030D8000030D7000030D600D62F5A08A0
:100CD800D6075B0803110318013E0319742ED707C2
:100CE8005C0803110318013E03197B2ED8075D0821
:100CF80003110318013E0319822ED907591C852EAA
:100D0800862E5C2F691C892E8A2E932E6908DE0098
:100D180003105E0C0138DF005F08E900952E031010
:100D2800E90C561C982E992E9A2EE9170130DE00F0
:100D3800590DD90CD80CD70CD60CDE0B9C2E0130D3
:100D4800DE005E08E8075C2F5908803AFF005D085E
:100D5800803A7F02031DBA2E5C085802031DBA2E82
:100D68005B085702031DBA2E5A0856020318BD2EF7
:100D7800BE2E162FFF30DE00FF30DF00FF30E00010
:100D8800FF30E1005A08E2005B08E3005C08E40079
:100D98005D08E5005608E2025708031C570FD52ED8
:100DA800D62EE3025808031C580FDB2EDC2EE40273
:100DB8005908031C590FE12EE22EE5026208DE07EE
:100DC80063080318630FE92EEA2EDF076408031887
:100DD800640FEF2EF02EE00765080318650AE10797
:100DE8006108D9006008D8005F08D7005E08D600FF
:100DF8008030DE005E08E606E909E90A6908031D95
:100E0800062F072F242F0130D60700300318013092
:100E1800D707003003180130D80700300318013015
:100E2800D907242F5A08D6025B08031C5B0FD70288
:100E38005C08031C5C0FD8025D08031C5D0FD90217
:100E48005908580457045604031D2B2F2C2F582FCC
:100E58006908031D302F312F582F0030D90000307A
:100E6800D8000030D7000030D600D62F0130DE0081
:100E78000310D60DD70DD80DD90DDE0B3C2FE91F69
:100E8800462F472F482F5614691C4B2F4C2F4F2F96
:100E98000314E90D512F0310E90D68080319552FA4
:100EA800562F582F0130E802D81F5B2F5C2F3A2F9E
:100EB800E701E91F602F612F6F2F69087F39031938
:100EC800662F672F6A2FE701E70A6F2F561C6D2FD1
:100ED8006E2F6F2F672F67080319732F742FA82F92
:100EE8000130D607003003180130D7070030031847
:100EF8000130D807003003180130D907591C852F55
:100F0800862FA82F5608DE005708DF005808E00093
:100F18005908E1000130E200610DE10CE00CDF0C42
:100F2800DE0CE20B902F6108D9006008D8005F083A
:100F3800D7005E08D600680A0319A32FA42FA82F8C
:100F48000130DE005E08E807680A0319AC2FAD2FF0
:100F5800B22F6808031DB12FB22FC02F0030D9005F
:100F68000030D8000030D7000030D6006808031DD4
:100F7800BE2FBF2FC02FE601681CC32FC42FC62F5A
:100F8800D817CA2F7F30DE005E08D8056808DE0053
:100F980003105E0CDF005F08D900E61FD42FD52FA1
:100FA800D62FD9170800FA00F601F7017208F400E5
:100FB800F5017408F8007508F9007A1CE42FE52F8C
:100FC800EB2F7808F6070318F70A7908F7070130B6
:100FD8000310F80DF90DFF3E031DEC2F0310FA0C5A
:100FE8007A08031DF82FF92FE12F7708F300760808
:040FF800F2000800FB
:1010080083120313A101A2017808790403190D289A
:101018000E284528A301A30A1C2801300310F80D47
:10102800F90DFF3E031D12280130A0002008A30778
:10103800F91F1F282028112801300310A10DA20D27
:10104800FF3E031D212879087B02031D2D287808FF
:101058007A02031C3028312838287808FA027908DF
:10106800031CFB03FB02211401300310F90CF80CDC
:10107800FF3E031D39280130A302031D44284528DB
:1010880020282208F9002108F80008000A168A1505
:101098009E240A128A150A168A1102200A128A1533
:1010A8000A168A1579240A128A15831203138F01E6
:1010B8008E010514023083160313C800C80B62287A
:1010C8000000831203130510851C6B286C28682800
:1010D80010148518702871286D2810100F088316B1
:1010E8000313D200831203130E0883160313D100CF
:1010F8003A3083120313A0000030A10083160313B3
:10110800520883120313A300831603135108831292
:101118000313A2000A168A151B270A128A158312BE
:101128000313210883160313D00083120313200826
:1011380083160313CF005008803AFF0080307F02E7
:10114800031DA8280A304F02031CAB28AC28B2287C
:1011580083120313881083160313D3018316031312
:101168005008803AFF0080307F02031DBD280A30F6
:101178004F020318C028C128C828831203138814F3
:1011880083160313D301D30A83160313500883125B
:101198000313A700831603134F0883120313A60033
:1011A8000A168A15E3240A128A15831203132908DA
:1011B80083160313CE008312031328088316031320
:1011C800CD0083120313270883160313CC00831260
:1011D8000313260883160313CB009130C800480870
:1011E80083120313EA00831603134E0883120313B2
:1011F800EE00831603134D0883120313ED008316C4
:1012080003134C0883120313EC00831603134B08D3
:1012180083120313EB00D4300A168A11FD240A1234
:101228008A15D4300A168A15C2240A128A1583121E
:101238000313051D2029212924290814EF01EF0A89
:101248000519272928292A290810EF0103308316B0
:101258000313CA008A30C9005530C800C80B3229A8
:10126800C90B3229CA0B322959280A128A110C28AB
:10127800831203132B088039B0003008B5002B08FF
:10128800B0003007B1003108BB00AA1F4C294D2916
:101298004E293B143B0803195229532962293B0A5A
:1012A800031D5729582960290030AB000030AA00D7
:1012B8000030A9000030A800AA176A290030AB0046
:1012C8000030AA000030A9000030A8002F0880399B
:1012D800B0003008B5062F08B0003007B10031085B
:1012E800BA00AE1F782979297A293A143A080319DD
:1012F8007E297F298E293A0A031D832984298C296E
:101308000030AF000030AE000030AD000030AC005F
:10131800AE1796290030AF000030AE000030AD00A7
:101328000030AC003A0803199A299B29A0293B08E8
:10133800031D9F29A029A9290030AB000030AA006D
:101348000030A9000030A8009C2C2808B000300804
:10135800F2002E080A128A11D7270A128A15730872
:1013680083120313C1007208C0004008B000B10125
:10137800B201B3013308B9003208B8003108B70028
:101388003008B6004108B000B101B201B30133081A
:10139800BF003208BE003108BD003008BC00290873
:1013A800B0003008F2002D080A128A11D7270A1255
:1013B8008A15730883120313C1007208C00040081D
:1013C800B000B101B201B3013008B607310803110A
:1013D8000318013E0319F129B7073208031103184E
:1013E800013E0319F829B807330803110318013E11
:1013F8000319FF29B9074108B000B101B201B301CF
:101408003008BC07310803110318013E03190D2ADF
:10141800BD07320803110318013E0319142ABE0739
:10142800330803110318013E03191B2ABF072A08B2
:10143800B0003008F2002C080A128A11D7270A12C5
:101448008A15730883120313C1007208C00040088C
:10145800B000B101B201B3013008B6073108031179
:101468000318013E0319392AB70732080311031874
:10147800013E0319402AB807330803110318013E37
:101488000319472AB9074108B000B101B201B301F5
:101498003008BC07310803110318013E0319552A07
:1014A800BD07320803110318013E03195C2ABE0761
:1014B800330803110318013E0319632ABF070830D4
:1014C800B0000310B60DB70DB80DB90DB00B652AF5
:1014D8002908B0003008F2002C080A128A11D72710
:1014E8000A128A15730883120313C1007208C00018
:1014F8004008B0004108B100B201B3013008B60796
:10150800310803110318013E03198B2AB707320863
:1015180003110318013E0319922AB807330803116F
:101528000318013E0319992AB9072808B0003008A2
:10153800F2002D080A128A11D7270A128A15730891
:1015480083120313C1007208C0004008B0004108AC
:10155800B100B201B3013008B6073108031103180E
:10156800013E0319B82AB707320803110318013ED0
:101578000319BF2AB807330803110318013E0319DA
:10158800C62AB9070830B0000310B60DB70DB80D5C
:10159800B90DB00BC82A2808B0003008F2002C0892
:1015A8000A128A11D7270A128A157308831203139D
:1015B800C1007208C0004008B0004108B100B20183
:1015C800B3013008B607310803110318013E0319A7
:1015D800EE2AB707320803110318013E0319F52A4A
:1015E800B807330803110318013E0319FC2AB90789
:1015F8002908B0003008F2002E080A128A11D727ED
:101608000A128A15730883120313C1007208C000F6
:101618004008B0004108B100B201B3013008BC076E
:10162800310803110318013E03191B2BBD073208AB
:1016380003110318013E0319222BBE0733080311B7
:101648000318013E0319292BBF072A08B0003008E8
:10165800F2002D080A128A11D7270A128A15730870
:1016680083120313C1007208C0004008B00041088B
:10167800B100B201B3013008BC07310803110318E7
:10168800013E0319482BBD07320803110318013E18
:1016980003194F2BBE07330803110318013E031922
:1016A800562BBF072A08B0003008F2002E080A128D
:1016B8008A11D7270A128A15730883120313C100E7
:1016C8007208C0004008B0004108B100B201B3017F
:1016D80008300310B00DB10DB20DB30DFF3E031D60
:1016E8006D2B3008BC07310803110318013E03199C
:1016F8007E2BBD07320803110318013E0319852B01
:10170800BE07330803110318013E03198C2BBF07CA
:101718003608B0003708B1003808B2003908B300FD
:1017280018300310B30CB20CB10CB00CFF3E031D03
:10173800952B3008BC07310803110318013E031923
:10174800A62BBD07320803110318013E0319AD2B60
:10175800BE07330803110318013E0319B42BBF0752
:101768000830B0000310B60DB70DB80DB90DB00BA9
:10177800B62B3B083A07B000B101B10D3008823EE4
:10178800C00031080318013EFF3EC100E82B0130BC
:10179800B0000310BC0DBD0DBE0DBF0DB00BCD2BA1
:1017A800B91FD72BD82BD92B3C140130B00003100C
:1017B800B60DB70DB80DB90DB00BDB2BFF30C00758
:1017C8000318C10AFF30C107BE1FEB2BEC2BCB2B34
:1017D800BA01B91FF02BF12B0D2CFF303605B000E4
:1017E800FF303705B100FF303805B2007F303905CA
:1017F800B30033083204310430040319042C052CD7
:10180800082CBA01BA0A0D2C3C1C0B2C0C2C0D2CE4
:10181800052C3A080319112C122C432C0130BC0753
:10182800003003180130BD07003003180130BE072F
:10183800003003180130BF073F1C232C242C432CF5
:101848003C08B0003D08B1003E08B2003F08B300B4
:101858000130B400330DB30CB20CB10CB00CB40BA6
:101868002E2C3308BF003208BE003108BD003008F6
:10187800BC000130C0070318C10A0030C107410885
:10188800803AFF0080307F02031D4C2CFF3040025D
:10189800031C4F2C502C5B2C7F3083120313BF008A
:1018A8008030BE000030BD000030BC00902C831298
:1018B80003134108803AFF0080307F02031D662C25
:1018C800013040020318692C6A2C762C00308312F0
:1018D8000313BF000030BE000030BD000030BC0064
:1018E800B501902C831203134008B0003008BB00E8
:1018F800FF30BC05FF30BD057F30BE050030BF0599
:101908003B1C872C882C892CBE173B08B000031081
:10191800300CB1003108BF003508B0003008BF04F2
:101928003F08AB003E08AA003D08A9003C08A800F3
:10193800080083120313D400D41FA32CA42C532E05
:10194800D409D40A5408803A123E031CAC2CAD2C9E
:10195800972D0A30A0000030A1005408F400F501CA
:10196800F41BF5036430F2000030F3000A168A1500
:101978005A260A128A15730883120313A3007208E1
:10198800A2000A168A151B270A128A158312031346
:101998002008C60001300310C60DFF3E031DCF2CE2
:1019A8000310460D593E84000A168A1500200A12B3
:1019B8008A15C7000A168A1500200A128A15C80057
:1019C8000A168A1500200A128A15C9000A168A15ED
:1019D80000200A128A15CA004A08AB004908AA0062
:1019E8004808A9004708A8006430A0000030A100FA
:1019F8005408A200A301A21BA3030A168A151B27D9
:101A08000A128A15831203132008CB000130031031
:101A1800CB0DFF3E031D0B2D03104B0D7D3E8400A7
:101A28000A168A1500200A128A15CC000A168A1589
:101A380000200A128A15CD000A168A1500200A12FB
:101A48008A15CE000A168A1500200A128A15CF00B8
:101A58004F08AF004E08AE004D08AD004C08AC0072
:101A68000A128A153C210A128A15831203132B08BD
:101A7800D3002A08D2002908D1002808D0000A304B
:101A8800F2000030F3005408F400F501F41BF503EC
:101A98000A168A155A260A128A157208831203131F
:101AA800C60001300310C60DFF3E031D562D03105E
:101AB800460D353E84000A168A1500200A128A153A
:101AC800C7000A168A1500200A128A15C8000A16C5
:101AD8008A1500200A128A15C9000A168A150020DC
:101AE8000A128A15CA004A08AB004908AA00480821
:101AF800A9004708A8005308AF005208AE005108D3
:101B0800AD005008AC000A128A153C210A128A1549
:101B1800831203132B08C5002A08C4002908C30030
:101B28002808C200FF2F5408803A753E031C9D2DDB
:101B38009E2D262E0A30F2000030F3005408F400DF
:101B4800F501F41BF5030A168A155A260A128A1596
:101B5800720883120313C60001300310C60DFF3E3E
:101B6800031DB12D0310460D353E84000A168A1553
:101B780000200A128A15C7000A168A1500200A12C0
:101B88008A15C8000A168A1500200A128A15C90083
:101B98000A168A1500200A128A15CA004A08AB00DC
:101BA8004908AA004808A9004708A8000A30A00068
:101BB8000030A1005408A200A301A21BA3030A1627
:101BC8008A151B270A128A15831203132008CB00D3
:101BD80001300310CB0DFF3E031DED2D03104B0DFF
:101BE800593E84000A168A1500200A128A15CC006C
:101BF8000A168A1500200A128A15CD000A168A15B7
:101C080000200A128A15CE000A168A1500200A1228
:101C18008A15CF004F08AF004E08AE004D08AD0042
:101C28004C08AC000A128A153C210A128A15831244
:101C380003132B08C5002A08C4002908C300280874
:101C4800C200FF2F5408C60001300310C60DFF3E26
:101C5800031D292E0310460D353E84000A168A15E9
:101C680000200A128A15C7000A168A1500200A12CF
:101C78008A15C8000A168A1500200A128A15C90092
:101C88000A168A1500200A128A15CA004A08C500D1
:101C98004908C4004808C3004708C200FF2F540879
:101CA800803A123E031C592E5A2E442F0A30A000A7
:101CB8000030A1005408F400F501F41BF50364306A
:101CC800F2000030F3000A168A155A260A128A15FD
:101CD800730883120313A3007208A2000A168A1558
:101CE8001B270A128A15831203132008C600013025
:101CF8000310C60DFF3E031D7C2E0310460D253E26
:101D080084000A168A1500200A128A15C7000A16C6
:101D18008A1500200A128A15C8000A168A1500209A
:101D28000A128A15C9000A168A1500200A128A158D
:101D3800CA004A08AB004908AA004808A900470891
:101D4800A8006430A0000030A1005408A200A3013C
:101D5800A21BA3030A168A151B270A128A158312C7
:101D680003132008CB0001300310CB0DFF3E031DE9
:101D7800B82E03104B0D493E84000A168A15002020
:101D88000A128A15CC000A168A1500200A128A152A
:101D9800CD000A168A1500200A128A15CE000A16E6
:101DA8008A1500200A128A15CF004F08AF004E0886
:101DB800AE004D08AD004C08AC000A128A153C2153
:101DC8000A128A15831203132B08D3002A08D2009B
:101DD8002908D1002808D0000A30F2000030F300AA
:101DE8005408F400F501F41BF5030A168A155A265F
:101DF8000A128A15720883120313C60001300310F1
:101E0800C60DFF3E031D032F0310460D013E84003F
:101E18000A168A1500200A128A15C7000A168A159A
:101E280000200A128A15C8000A168A1500200A120C
:101E38008A15C9000A168A1500200A128A15CA00CE
:101E48004A08AB004908AA004808A9004708A800A2
:101E58005308AF005208AE005108AD005008AC005E
:101E68000A128A153C210A128A15831203132B08B9
:101E7800C5002A08C4002908C3002808C200FF2F8B
:101E88005408803A753E031C4A2F4B2FD32F0A3033
:101E9800F2000030F3005408F400F501F41BF503D8
:101EA8000A168A155A260A128A157208831203130B
:101EB800C60001300310C60DFF3E031D5E2F031040
:101EC800460D013E84000A168A1500200A128A155A
:101ED800C7000A168A1500200A128A15C8000A16B1
:101EE8008A1500200A128A15C9000A168A150020C8
:101EF8000A128A15CA004A08AB004908AA0048080D
:101F0800A9004708A8000A30A0000030A100540822
:101F1800A200A301A21BA3030A168A151B270A12F3
:101F28008A15831203132008CB0001300310CB0D50
:101F3800FF3E031D9A2F03104B0D253E84000A1601
:101F48008A1500200A128A15CC000A168A15002064
:101F58000A128A15CD000A168A1500200A128A1557
:101F6800CE000A168A1500200A128A15CF004F08DB
:101F7800AF004E08AE004D08AD004C08AC000A1288
:101F88008A153C210A128A15831203132B08C500EF
:101F98002A08C4002908C3002808C200FF2F5408D3
:101FA800C60001300310C60DFF3E031DD62F0310D7
:101FB800460D013E84000A168A1500200A128A1569
:101FC800C7000A168A1500200A128A15C8000A16C0
:101FD8008A1500200A128A15C9000A168A150020D7
:101FE8000A128A15CA004A08C5004908C4004808E8
:081FF800C3004708C200080005
:1020040083160313181218158316031787156730E0
:102014008316031399009A01831203139817181354
:1020240018168316031398160800003072058312DD
:102034000313A00000307305A10080307405A200D2
:102044007F307505A3002308220421042004031D06
:102054002C282D2835280030F5000030F4000030FD
:10206400F3000030F20000307605A0000030770560
:10207400A10080307805A2007F307905A3002308F1
:10208400220421042004031D482849285128003033
:10209400F9000030F8000030F7000030F600F51FBA
:1020A4005428552879280030A0000030A1000030C1
:1020B400A2008030A3007208A0027308031C730FEF
:1020C40064286528A1027408031C740F6A286B280D
:1020D400A2027508031C750F70287128A302230837
:1020E400F5002208F4002108F3002008F200F91F8B
:1020F4007C287D28A1280030A0000030A1000030F9
:10210400A2008030A3007608A0027708031C770F92
:102114008C288D28A1027808031C780F9228932814
:10212400A2027908031C790F98289928A30223088E
:10213400F9002208F8002108F7002008F600803092
:10214400F5068030F90679087502031DB32878086E
:102154007402031DB32877087302031DB32876089D
:1021640072020318B628B728B9280310BA28031432
:10217400080083120313A00020080319C228C328EF
:10218400D728F51FC628C728D7287209A2007309C3
:10219400A3007409A4007509A500A20A0319A30ADF
:1021A4000319A40A0319A50ADF287508A5007408F1
:1021B400A4007308A3007208A200750874047304D1
:1021C4007204031DE628E728F0280030F5000030EB
:1021D400F4000030F3000030F20076299630F60067
:1021E4007608A10002290130F6007608A107013023
:1021F4000310A50CA40CA30CA20CFF3E031DFA288B
:10220400FE302505031D07290829F5282429013056
:10221400F6007608A1070130A20700300318013048
:10222400A307003003180130A4070030031801305D
:10223400A50701300310A50CA40CA30CA20CFF3EAF
:10224400031D1C29FF302505031D29292A290929D5
:1022540036290130A1020130F6000310A20DA30DAE
:10226400A40DA50DF60B2F29A41B39293A294029C1
:102274000230210203183F2940292B292118432920
:1022840044294C29FF30A205FF30A3057F30A40563
:10229400FF30A5050310A10C2108F600F701F80191
:1022A400F90118300310F60DF70DF80DF90DFF3E86
:1022B400031D54297608A2047708A3047808A4040B
:1022C4007908A50420080319682969296E29F51FCE
:1022D4006C296D296E29A5172508F5002408F4003A
:1022E4002308F3002208F200080072088312031383
:1022F400A0007308A1007408A2000310210D220D90
:10230400A3002308A9002908031D89298A299329E0
:102314000030F5000030F4000030F3000030F2002B
:10232400332A7608A0007708A1007808A2000310D9
:10233400210D220DA3002308A8002808031DA329AA
:10234400A429A5298A29F317FF30F205FF30F305E4
:102354000030F405F717FF30F605FF30F7050030BD
:10236400F8050030A7000030A6000030A5000030BA
:10237400A4007F30A90298302807A0002008A902F1
:102384001830A0002008A8000130A0000310A40DFC
:10239400A50DA60DA70DA00BC82978087402031D6E
:1023A400D92977087302031DD92976087202031C00
:1023B400DC29DD29E8297608F2027708031C770F67
:1023C400F3027808031C780AF40224140130031081
:1023D400F20DF30DF40DFF3E031DE9290130A802AF
:1023E400031DF529F629C629A91FF929FA29142A52
:1023F4002908803A973E0318002A012A022A8A29CA
:1024040001300310A70CA60CA50CA40CFF3E031D61
:10241400032A0130A0002008A907031D122A132A49
:10242400022A2B2A18302902031C192A1A2A262ABE
:102434008A290130A0000310A40DA50DA60DA70D37
:10244400A00B1D2A0130A9022908031D2A2A2B2AC0
:102454001B2A2708F5002608F4002508F3002408A1
:10246400F20008000310740D750DFA007A08831247
:102474000313A5002508031D402A412A4A2A0030D7
:10248400F5000030F4000030F3000030F200F12ACF
:102494000310780D790DFA007A08A4002408031DAE
:1024A400542A552A562A412AF417FF30F205FF30E0
:1024B400F305FF30F4050030F505F817FF30F60595
:1024C400FF30F705FF30F8050030F9050030A300B0
:1024D4000030A2000030A1000030A0007F30A5022F
:1024E400A0302407FA007A08A5022030FA007A08FE
:1024F400A4000130FA000310A00DA10DA20DA30D3C
:10250400FA0B7D2A79087502031D922A7808740251
:10251400031D922A77087302031D922A7608720219
:10252400031C952A962AA52A7608F2027708031C2A
:10253400770FF3027808031C780FF4027908031C60
:10254400790FF50220140130FA000310F20DF30D97
:10255400F40DF50DFA0BA72A0130A402031DB32ACA
:10256400B42A7B2AA51FB72AB82AD22A2508803A7A
:102574009F3E0318BE2ABF2AC02A412A01300310F5
:10258400A30CA20CA10CA00CFF3E031DC12A013018
:10259400FA007A08A507031DD02AD12AC02AE92AFD
:1025A40020302502031CD72AD82AE42A412A0130E4
:1025B400FA000310A00DA10DA20DA30DFA0BDB2A46
:1025C4000130A5022508031DE82AE92AD92A23088F
:1025D400F5002208F4002108F3002008F2000800A6
:1025E40083120313D5006E305502031CFA2AFB2A0A
:1025F400082C3F30AB000030AA000030A9000030A6
:10260400A8006430F8000030F9005508C600C7017E
:102614004608FA004708FB000A128A1504200A1625
:102624008A11780883120313C80001300310C80DFF
:10263400FF3E031D182B0310480D7D3E84000A162F
:102644008A1500200A168A11C9000A168A15002064
:102654000A168A11CA000A168A1500200A168A1157
:10266400CB000A168A1500200A168A11CC004C08E1
:10267400AF004B08AE004A08AD004908AC000A128E
:102684008A153C210A168A11831203132B08D400DD
:102694002A08D3002908D2002808D1000A30F800FB
:1026A4000030F9005508C600C7014608F400470881
:1026B400F5006430F2000030F3000A168A152C2568
:1026C4000A168A117308FB007208FA000A128A15A6
:1026D40004200A168A11780883120313C8000130F3
:1026E4000310C80DFF3E031D722B0310480D593E05
:1026F40084000A168A1500200A168A11C9000A16CF
:102704008A1500200A168A11CA000A168A150020A2
:102714000A168A11CB000A168A1500200A168A1195
:10272400CC004C08AB004B08AA004A08A900490891
:10273400A8005408AF005308AE005208AD00510879
:10274400AC000A128A153C210A168A11831203135B
:102754002B08D0002A08CF002908CE002808CD0075
:102764000A30F2000030F3005508C600C7014608DD
:10277400F4004708F5000A168A152C250A168A1152
:10278400720883120313C80001300310C80DFF3E02
:10279400031DC72B0310480D353E84000A168A1505
:1027A40000200A168A11C9000A168A1500200A1682
:1027B4008A11CA000A168A1500200A168A11CB004B
:1027C4000A168A1500200A168A11CC004C08AB00A0
:1027D4004B08AA004A08A9004908A8005008AF00FD
:1027E4004F08AE004E08AD004D08AC000A128A1521
:1027F4003C210A168A11831203132B08C5002A08E8
:10280400C4002908C3002808C200FC2C0B30550260
:10281400031C0D2C0E2CB92C3F30AB000030AA0049
:102824000030A9000030A8000A30F8000030F90098
:102834005508C600C7014608FA004708FB000A12FB
:102844008A1504200A168A11780883120313C80013
:1028540001300310C80DFF3E031D2B2C0310480D3F
:10286400593E84000A168A1500200A168A11C900E6
:102874000A168A1500200A168A11CA000A168A1531
:1028840000200A168A11CB000A168A1500200A169F
:102894008A11CC004C08AF004B08AE004A08AD00CA
:1028A4004908AC000A128A153C210A168A118312BF
:1028B40003132B08D4002A08D3002908D2002808BF
:1028C400D1000A30F2000030F3005508C600C701F9
:1028D4004608F4004708F5000A168A152C250A163E
:1028E4008A11720883120313C80001300310C80D43
:1028F400FF3E031D782C0310480D353E84000A1654
:102904008A1500200A168A11C9000A168A150020A1
:102914000A168A11CA000A168A1500200A168A1194
:10292400CB000A168A1500200A168A11CC004C081E
:10293400AB004B08AA004A08A9004908A80054089B
:10294400AF005308AE005208AD005108AC000A12A3
:102954008A153C210A168A11831203132B08C50019
:102964002A08C4002908C3002808C200FC2C3F30F0
:10297400AB000030AA000030A9000030A8005508C0
:10298400C60001300310C60DFF3E031DC42C031006
:10299400460D353E84000A168A1500200A168A114F
:1029A400C7000A168A1500200A168A11C8000A16DA
:1029B4008A1500200A168A11C9000A168A150020F1
:1029C4000A168A11CA004A08AF004908AE0048082E
:1029D400AD004708AC000A128A153C210A168A1178
:1029E400831203132B08C5002A08C4002908C30056
:1029F4002808C200080083160313C6006B30A80021
:102A04002808B1000A128A11322D2530470603190D
:102A14000C2D0D2D192D4708A80046088400280800
:102A2400831380000130A8002808C607042DBE01C6
:102A3400BF01BC01BD01252D3C150130A8002808AB
:102A440083120313EA0783126A0884000A168A159C
:102A540000200A168A1183160313A800A901290865
:102A6400003A0319362D3B2D2808303A03191E2D40
:102A74003B2D831203136A0884000A168A1500206A
:102A84000A168A110A168A15B0240A168A11031C1A
:102A94004C2D4D2D932D83160313BE01BF010A3017
:102AA400F2000030F300831603133F08F5003E08DC
:102AB400F4000A168A1507250A168A117308831664
:102AC4000313BF007208BE00831203136A08840054
:102AD4000A168A1500200A168A11D03E831603139B
:102AE400A800FF3003180030A9002808BE07031807
:102AF400BF0A2908BF070130A8002808831203135E
:102B0400EA076A0884000A168A1500200A168A1140
:102B14000A168A15B0240A168A110318922D932DC9
:102B2400512D831203136A0884000A168A150020A3
:102B34000A168A112E3A031DA02DA12DF32D8316FA
:102B440003133D170130A800280883120313EA0772
:102B540083160313C401C501E12D0A30F2000030CD
:102B6400F300831603134508F5004408F4000A161D
:102B74008A1507250A168A11730883160313C500DC
:102B84007208C400831203136A0884000A168A15A3
:102B940000200A168A11D03E83160313A800FF30C2
:102BA40003180030A9002808C4070318C50A290817
:102BB400C5070130A800280883120313EA0783120B
:102BC4006A0884000A168A1500200A168A110A1651
:102BD4008A15B0240A168A110318F12DF22DAF2D8F
:102BE400FB2D83160313C401C5013D16FB2D3D15B2
:102BF400192E013083120313EA07FF306A07840099
:102C04000A168A1500200A168A1183160313C700B0
:102C1400A800A9012908003A0319112E042D280837
:102C2400003A0319FD2F663A0319F92D042D0030DB
:102C34003C05A80007303D05A9002808290403190C
:102C4400242E272E0A128A11342C3D1E2A2E2B2EB6
:102C54002F2E0630C4000030C500310884008313D1
:102C64000008C000840A0008C100840A0008C200E9
:102C7400840A0008C3000430A8002808B1074308E8
:102C8400F5004208F4004108F3004008F200003067
:102C9400F9000030F8000030F7000030F6000A16A2
:102CA4008A1117200A168A110318592E5A2E772EC4
:102CB400831603134308F5004208F4004108F300A7
:102CC4004008F2000A168A1593240A168A11750818
:102CD40083160313C3007408C2007308C10072088A
:102CE400C0000330BC040030BD0483160313BA01D2
:102CF400BB014308F5004208F4004108F300400812
:102D0400F2000030F9000030F8000030F700003025
:102D1400F6000A168A1566250A168A110318932ED8
:102D2400942E942F031083160313420D430D823EF9
:102D3400BA00FF3003180030BB00FF30BA07031895
:102D4400BB0AFF30BB070330F2000030F3003B083E
:102D5400F5003A08F4000A168A1507250A168A119E
:102D6400730883160313BB007208BA000A30831277
:102D74000313A0000030A100831603133B08831241
:102D84000313A300831603133A0883120313A20048
:102D94000A168A151B270A168A118312031321089F
:102DA40083160313BB008312031320088316031333
:102DB400BA00BB1FDE2EDF2EE52EFF30BA07031844
:102DC400BB0AFF30BB073A03FF3A0A128A159D2457
:102DD4000A168A1183120313450883160313B900D4
:102DE40083120313440883160313B80083120313D6
:102DF400430883160313B700831203134208831690
:102E04000313B600430883120313AB0083160313A2
:102E1400420883120313AA00831603134108831282
:102E24000313A90083160313400883120313A80095
:102E340083160313390883120313AF008316031395
:102E4400380883120313AE00831603133708831262
:102E54000313AD0083160313360883120313AC0067
:102E64000A128A153C210A168A11831203132B08AD
:102E740083160313B900831203132A08831603135A
:102E8400B80083120313290883160313B7008312AF
:102E94000313280883160313B6003908F50038080D
:102EA400F4003708F3003608F2003F30F9008030B0
:102EB400F8000030F7000030F6000A168A111720D7
:102EC4000A168A110318672F682F712FFF30831693
:102ED4000313BA070318BB0AFF30BB07942F8316EA
:102EE40003133908F5003808F4003708F3003608EE
:102EF400F2004130F9002030F8000030F7000030D3
:102F0400F6000A168A1117200A168A11031C8B2F41
:102F14008C2F942F013083160313BA070318BB0AAE
:102F24000030BB07831603134508803AFF00803046
:102F34007F02031D9F2F0D3044020318A22FA32FDD
:102F4400EA2F8316031344080A168A11F2220A167A
:102F54008A11831203134508D9004408D800430892
:102F6400D7004208D60083160313430883120313C1
:102F7400DD0083160313420883120313DC00831657
:102F84000313410883120313DB0083160313400861
:102F940083120313DA000A128A114F250A168A11C2
:102FA40083120313590883160313C30083120313F4
:102FB400580883160313C200831203135708831699
:102FC4000313C10083120313560883160313C000AE
:102FD400831603133B08803AFF0080307F02031DF1
:102FE400F52F0A303A020318FA2F0A128A111F2801
:102FF4000A128A1170280A128A114A2D18308A007E
:103004000408840A820700340034003480343F34D6
:10301400003400342034413400340034C8344234A1
:10302400003400347A344434003440341C3446349C
:1030340000345034C33447340034243474344934B1
:103044008034963418344B342034BC34BE344C347D
:1030540028346B346E344E34F9340234153450341D
:10306400EC347834AD346034CA34F23449347134D5
:103074000034003480343F34CD34CC34CC343D344B
:103084000A34D73423343C346F34123483343A341E
:103094001734B734D1343834AC34C53427343734E6
:1030A400BD343734863435349534BF34D634333470
:1030B4007734CC342B3432345F3470348934303444
:1030C400FF34E634DB342E340834E5343C341E3427
:1030D40060344234A2340D340134003400340034FA
:1030E4000A340034003400346434003400340034CE
:1030F400E83403340034003410342734003400340A
:10310400A034863401340034403442340F34003463
:1031140080349634983400340034E134F534053482
:103124000034CA349A343B34253430342E343034A9
:0A3134006634203463346D34003437
:1038E40071088A00700E8300FE0E7E0E0900831696
:1038F40003130F088F3960388F000F140800640019
:103904008001840A0406031900340406822CF200A0
:10391400831203130C1E8F2C902C8A2C720899008E
:103924000800750874047304720403199A2C9B2C00
:103934009D2C8030F5060800831603178801890141
:103944008316031305108514051586018801860165
:10395400831203138601880185010800F300F20134
:103964003A3073020318B72CB82CC02C30307302D1
:10397400031CBD2CBE2CC02CF201F20A720C0800F0
:10398400F600F401F501D72C74087607F3007308E8
:10399400840000080A168A1589240A168A1501303B
:1039A400F4070318F50A0030F50774087607F300E6
:1039B4007308840083130008031DE12CE22CC62C39
:1039C4000800831203132608F2002708F3000030CE
:1039D400F31BFF30F400F50001300A168A11BB20F6
:1039E4000A168A15750883120313AD007408AC0017
:1039F4007308AB007208AA002D08A9002C08A800BF
:103A04002B08A7002A08A6000800F601F701721C7B
:103A14000C2D0D2D132D7408F6070318F70A7508DD
:103A2400F70701300310F40DF50DFF3E031D142DAF
:103A340001300310F30CF20CFF3E031D1B2D720822
:103A44007304031D262D272D092D7708F30076080E
:103A5400F2000800720873040319312D322D612D10
:103A6400F701F70A402D01300310F20DF30DFF3E6C
:103A7400031D362D0130F6007608F707F31F432D9A
:103A8400442D352D73087502031D4A2D72087402E6
:103A9400031C4D2D4E2D542D7208F4027308031C83
:103AA400F503F50201300310F30CF20CFF3E031D85
:103AB400552D0130F702031D602D612D442D75082D
:103AC400F3007408F2000800003072058312031337
:103AD400A00000307305A10080307405A2007F307F
:103AE4007505A3002308220421042004031D7B2D53
:103AF4007C2D842D0030F5000030F4000030F300FC
:103B04000030F20000307605A00000307705A100F7
:103B140080307805A2007F307905A30023082204B1
:103B240021042004031D972D982DA02D0030F900A9
:103B34000030F8000030F7000030F6007908750610
:103B4400031DAE2D78087406031DAE2D7708730689
:103B5400031DAE2D760872060319B12DB22DB42DB6
:103B64000310B52D03140800803083160313A30635
:103B7400270883120313D90083160313260883121C
:103B84000313D80083160313250883120313D700E5
:103B940083160313240883120313D6008316031316
:103BA400230883120313DD008316031322088312F0
:103BB4000313DC0083160313210883120313DB00B1
:103BC40083160313200883120313DA000A128A11DE
:103BD4004F250A168A1583120313590883160313F3
:103BE400A30083120313580883160313A20083123D
:103BF4000313570883160313A100831203135608F3
:103C040083160313A0000800750874047304720477
:103C140003190D2E0E2E512EFB01FB0A1E2E013010
:103C2400FA000310F20DF30DF40DF50DFA0B132E3B
:103C34000130FA007A08FB07F51F212E222E112EDF
:103C440075087902031D302E74087802031D302E86
:103C540073087702031D302E72087602031C332E7C
:103C6400342E422E7208F6027308031C730FF702F7
:103C74007408031C740FF8027508031C750FF9020D
:103C840001300310F50CF40CF30CF20CFF3E031D91
:103C9400432E0130FB02031D502E512E222E790893
:103CA400F5007808F4007708F3007608F2000800BD
:103CB400F801F51F5E2E5F2E662EF409F509F40A4D
:103CC4000319F50AF801F80AF31F692E6A2E6F2EFC
:103CD400F209F309F20A0319F30A720873040319C7
:103CE400742E752EA42EF701F70A832E01300310CB
:103CF400F20DF30DFF3E031D792E0130F600760818
:103D0400F707F31F862E872E782E73087502031D7E
:103D14008D2E72087402031C902E912E972E720819
:103D2400F4027308031CF503F50201300310F30CCD
:103D3400F20CFF3E031D982E0130F702031DA32E43
:103D4400A42E872E78080319A82EA92EAE2EF409C6
:103D5400F509F40A0319F50A7508F3007408F2006A
:103D64000800003083120313A3000030A2000030C7
:103D7400A1000030A00075087404730472040319D0
:103D8400C42EC52E122FA401A40AD52E0130FA0088
:103D94000310F20DF30DF40DF50DFA0BCA2E0130DC
:103DA400FA007A08A407F51FD82ED92EC82E0130A0
:103DB400FA000310A00DA10DA20DA30DFA0BDB2E2A
:103DC40075087902031DF02E74087802031DF02E85
:103DD40073087702031DF02E72087602031CF32E7B
:103DE400F42E032F7208F6027308031C730FF702F4
:103DF4007408031C740FF8027508031C750FF9028C
:103E0400201401300310F50CF40CF30CF20CFF3EFB
:103E1400031D042F0130A402031D112F122FD92ECC
:103E24002308F5002208F4002108F3002008F2001A
:103E3400080083120313A501A11F212F222F292F6C
:103E4400A009A109A00A0319A10AA501A50AA31F93
:103E54002C2F2D2F362FA209A309A20A0319A30A76
:103E64000130F9007908A506A601A701200821045C
:103E740003193D2F3E2F752FA401A40A4C2F0130A6
:103E84000310A00DA10DFF3E031D422F0130F900C8
:103E94007908A407A11F4F2F502F412F0130031081
:103EA400A60DA70DFF3E031D512F21082302031D5C
:103EB4005D2F20082202031C602F612F682F200829
:103EC400A2022108031CA303A30226140130031039
:103ED400A10CA00CFF3E031D692F0130A402031D99
:103EE400742F752F502F25080319792F7A2F7F2FC0
:103EF400A609A709A60A0319A70A2708A1002608E4
:103F0400A0000800031083120313570D580DD900A5
:103F14005908DF005F08031D902F912F9A2F00305E
:103F2400D8000030D7000030D6000030D500FF2F75
:103F34005508D9005608DA005708DB005808DC0099
:103F44001F300310DC0CDB0CDA0CD90CFF3E031D14
:103F5400A32F5908DD005D08DE00D717FF30D50513
:103F6400FF30D605FF30D7050030D8059630DF0284
:103F7400DF1FBD2FBE2FD82F5F08803A973E03184E
:103F8400C42FC52FC62F912F01300310D80CD70C86
:103F9400D60CD50CFF3E031DC72F0130D90059089C
:103FA400DF07031DD62FD72FC62FEF2F20305F0238
:103FB400031CDD2FDE2FEA2F912F0130D9000310CF
:103FC400D50DD60DD70DD80DD90BE12F0130DF0259
:103FD4005F08031DEE2FEF2FDF2F5E080319F32F69
:103FE400F42FFF2FD509D609D709D809D50A031903
:0C3FF400D60A0319D70A0319D80A0800DE
:04400E00D420FF3F7C
:00000001FF
