:020000040000FA
:060000000A128A110C280F
:10000800FE00030EF1000A08F2000A128A111528F0
:100018000A128A110F28F401F50183010A128A11C4
:10002800C028831203138C1D1A281B287128141248
:10003800141B1F2820282428941F232824282B2811
:100048001308F0007008F50014139413141683169F
:100058000313941A302831284D28141934283528C8
:100068004D28831203131308F0007008F5008C1153
:10007800141683160313141C422843283D288312A0
:10008800031313088800A630F000F00B492800007D
:100098006E28941A502851286E28141D5428552863
:1000A8006E28831203131308F0007008F5008316F6
:1000B8000313141083120313050893001416A630B3
:1000C800F000F00B652800008316031314186D2840
:1000D8006E286828831203138C110B1C742875284A
:1000E80084280618782879287D280130F0007008BF
:1000F80085078618802881288328013085020B10FF
:1001080072088A00710E8300FE0E7E0E09008316A7
:1001180003178801890183160313061486148801BE
:100128008501831203138601880185018316031351
:1001380081130330950040300A128A11A6200A1252
:100148008A110800F30073088316031393003630EE
:100158008312031394008030831603139400013034
:100168009100871507168B170B17831203138C1131
:10017800831603138C1508000A128A118B200A12A1
:100188008A110A128A11D9200A128A110A128A11AE
:10019800D3200A128A11CF280A128A110C28033098
:1001A8008316031396000B10080070308316031390
:0601B8008F040F14080083
:04400E00D420FF3F7C
:00000001FF
