:020000040000FA
:060000000A128A11FA2F1A
:100EA000F0007008831203139300080083160313E5
:100EB000141C5B2F5C2F562F0800831603130F089A
:100EC0008F3940388F000F1408000A128A115627F4
:100ED0000A128A118312031313080800F300831601
:100EE00003138712731D752F762F7A2F72089400C3
:100EF00087157E2F7008720494008711730871049F
:100F000083120313940008008316031788018901D4
:100F1000831603130711051086018801831203133A
:100F2000860188010715F001F101F20120300A1253
:100F30008A116E270A128A1108000A128A11842760
:100F40000A128A110A128A115D270A128A11831263
:100F5000031305140711C730F400AE2FF40BAD2FA7
:100F6000B12FB22F8312031306080A128A115027D9
:100F70000A128A1183120313051CBF2FC02FCA2F18
:100F80000A128A1165270A128A1183120313880034
:100F90000510D92F0518CD2FCE2FD92F0A128A115F
:100FA00065270A128A11F4007408F70083120313EC
:100FB0000514C730F400DC2FF40BDB2FDF2FE02FFC
:100FC0008312031307150230F6004530F500A930EF
:100FD000F400F40BE92FF50BE92FF60BE92FF02FB6
:100FE0000130F4007408831203138607AA2F0A1233
:100FF0008A110028F701F80183010A128A119D2F36
:04400E00D620FF3F7A
:00000001FF
