:020000040000FA
:060000000A128A110C280F
:10000800FE00030EF1000A08F2000A128A11012903
:100018000A128A110F28F801F901FA018312031351
:10002800A601A701A801A90183010A128A111C28A7
:100038000A128A117C210A128A110A128A11922143
:100048000A128A11831203138F018E0105140230DC
:1000580083120313A400A40B2F2800008312031398
:100068000510851C382839283528101485183D288E
:100078003E283A2810100F08A9000E08A8003A30A8
:10008800F3000030F4002908F6002808F5000A12E9
:100098008A1198200A128A11740883120313A70080
:1000A8007308A6002708803AFF0080307F02031DEE
:1000B8005F2814302602031C6228632867288312ED
:1000C80003130610F801831203132708803AFF0070
:1000D80080307F02031D7228143026020318752809
:1000E80076287B28831203130614F801F80A831272
:1000F8000313051D8028812884288614F901F90A2C
:100108000519872888288A288610F90182308312E1
:100118000313A500DD30A400A40B9028A50B90289C
:1001280026280A128A110C2883120313A101F41F2E
:100138009E289F28A628F309F409F30A0319F40A4C
:10014800A101A10AF61FA928AA28B328F509F609CA
:10015800F50A0319F60A0130F7007708A106A2018B
:10016800A301730874040319BA28BB28F228A00154
:10017800A00AC92801300310F30DF40DFF3E031D3A
:10018800BF280130F7007708A007F41FCC28CD2836
:10019800BE2801300310A20DA30DFF3E031DCE287B
:1001A80074087602031DDA2873087502031CDD281B
:1001B800DE28E5287308F5027408031CF603F60226
:1001C800221401300310F40CF30CFF3E031DE62843
:1001D8000130A002031DF128F228CD2821080319B7
:1001E800F628F728FC28A209A309A20A0319A30ADA
:1001F8002308F4002208F3000800831203138C1D5F
:10020800062907295B291412141B0B290C2910290C
:10021800941F0F29102917291308F0007008FA00F5
:1002280014139413141683160313941A1C291D29E6
:10023800382914192029212938298312031313086E
:10024800F0007008FA008C11141683160313141C9E
:100258002E292F29292983120313130888005330C4
:10026800F000F00B35295829941A3B293C295829C4
:10027800141D3F2940295829831203131308F0003D
:100288007008FA0083160313141083120313060868
:10029800930014165330F000F00B50298316031303
:1002A8001418572958295229831203138C117208DC
:1002B8008A00710E8300FE0E7E0E0900F30073089B
:1002C800831603139300363083120313940080308F
:1002D80083160313940001309100871507168B17B6
:1002E8000B17831203138C11831603138C15080044
:1002F80083160317880189018316031305108514D3
:100308000515860188018312031386018801503080
:100318000A128A1162210A128A110800831603132D
:0C0328000F088F3960388F000F14080098
:04400E00D420FF3F7C
:00000001FF
