:020000040000FA
:060000000A128A110C280F
:10000800FE00030EF1000A08F2000A128A11922873
:100018000A128A110F28F701F801F901FA0183126F
:100028000313A701A801A901AA0183010A128A11D1
:100038001D280A128A1168210A128A110A128A11C5
:100048009C210A128A11831203138F018E01051451
:10005800023083120313A500A50B30280000831279
:1000680003130510851C39283A28362810148518DA
:100078003E283F283B2810100F08AA000E08A900A8
:100088003A30F3000030F4002A08F6002908F50099
:100098000A128A11FF200A128A11740883120313A4
:1000A800A8007308A7002808803AFF0080307F0264
:1000B800031D60280A302702031C6328642865286A
:1000C800F801831203132808803AFF0080307F026A
:1000D800031D70280A30270203187328742876280D
:1000E800F801F80A83120313051D7B287C287E2853
:1000F800F701F70A0519812882288328F70141307A
:1001080083120313A600ED30A500A50B8928A60BC2
:1001180089288E2827280A128A110C28831203138B
:100128008C1D97289828F8281412141B9C289D28A1
:10013800A128941FA028A128A8281308F000700857
:10014800FA0014139413141683160313941AAD2883
:10015800AE28CB281419B128B228CB288312031350
:100168001308F0007008FA008C1114168316031394
:10017800141CBF28C028BA28831203131308F000E0
:100188007008F9005330F000F00BC828F528941ACD
:10019800CE28CF28F528141DD228D328F528831275
:1001A80003131308F0007008FA00831603131410E1
:1001B8007708F00003300310F00DFF3E031DDF2821
:1001C8000310700D78048312031393001416533030
:1001D800F000F00BED28831603131418F428F52803
:1001E800EF28831203138C1172088A00710E8300A2
:1001F800FE0E7E0E090083120313A201F41F0529C7
:1002080006290D29F309F409F30A0319F40AA201CE
:10021800A20AF61F102911291A29F509F609F50A63
:100228000319F60A0130A0002008A206A301A401C0
:10023800730874040319212922295929A101A10A43
:10024800302901300310F30DF40DFF3E031D26295C
:100258000130A0002008A107F41F332934292529DB
:1002680001300310A30DA40DFF3E031D35297408AA
:100278007602031D412973087502031C4429452988
:100288004C297308F5027408031CF603F6022314BC
:1002980001300310F40CF30CFF3E031D4D2901300F
:1002A800A102031D582959293429220803195D2957
:1002B8005E296329A309A409A30A0319A40A240827
:1002C800F4002308F3000800831603178801890146
:1002D800831603138601870189010630850088018A
:1002E8008312031385018601870188018901503033
:1002F8000A128A1182210A128A110800F30073086F
:10030800831603139300363083120313940080304E
:1003180083160313940001309100871507168B1775
:100328000B17831203138C11831603138C15080003
:10033800831603130F088F3960388F000F140800D5
:04400E00D420FF3F7C
:00000001FF
