:020000040000FA
:060000000A128A110C280F
:10000800FE00030EF3000A08F4000A168A15C22C33
:100018000A128A110F28F701F8018313CE308400E1
:10002800E3300A168A15F6230A128A1183010A1682
:100038008A15CF2E83160313480883120313A300CF
:1000480083160313470883120313A20083160313AE
:10005800460883120313A10083160313450883126D
:100068000313A0000030A7000030A6000030A50050
:100078000030A4000A168A157E250A128A11031870
:10008800462847282929831603134808831203138F
:10009800DE0083160313470883120313DD0083165B
:1000A8000313460883120313DC0083160313450861
:1000B80083120313DB000A128A1502200A128A111E
:1000C800831203135E085D045C045B04031D6D2842
:1000D8006E282929831603134408803AFF008030CC
:1000E8007F02031D792802304302031C7C287D28E7
:1000F800292983160313420883120313A3008316C6
:100108000313410883120313A20083160313400844
:1001180083120313A100831603133F0883120313EA
:10012800A0004030A7008930A6007030A5005F30DD
:10013800A4000A168A110F200A128A110318A5288A
:10014800A628AF28F73083160313C3070318C40A79
:10015800FF30C407B728F83083160313C307031802
:10016800C40AFF30C40743080A128A159D240A12DC
:100178008A11831203134B0883160313C2008312D8
:1001880003134A0883160313C10083120313490893
:1001980083160313C000831203134808831603133E
:1001A800BF00480883120313A300831603134708EC
:1001B80083120313A2008316031346088312031342
:1001C800A10083160313450883120313A0008316A6
:1001D8000313420883120313A7008316031341086D
:1001E80083120313A6008316031340088312031314
:1001F800A500831603133F0883120313A4000A12F1
:100208008A157E200A128A11831203132308831683
:100218000313BA0083120313220883160313B900C9
:1002280083120313210883160313B80083120313E0
:10023800200883160313B7000030C8000030C70039
:100248000030C6000030C500AB29831603134808E8
:1002580083120313DE008316031347088312031364
:10026800DD0083160313460883120313DC0083168C
:100278000313450883120313DB000A128A150220B0
:100288000A128A11831203135E0883160313BA0035
:10029800831203135D0883160313B9008312031333
:1002A8005C0883160313B800831203135B088316D4
:1002B8000313B7003A0883120313A300831603132A
:1002C800390883120313A200831603133808831214
:1002D8000313A10083160313370883120313A00026
:1002E80000300A168A11B3200A128A1183120313E6
:1002F800230883160313A30083120313220883160B
:100308000313A20083120313210883160313A10009
:1003180083120313200883160313A0004808A700BC
:100328004708A6004608A5004508A4000A168A152D
:10033800CE250A128A11831603132308C80022083F
:10034800C7002108C6002008C500C301C401CC01AC
:10035800CC0A4C08AD0001300310AD0DFF3E031D63
:10036800B02903102D0D693E84000A168A15002055
:100378000A128A11AE000A168A1500200A128A117A
:10038800AF000A168A1500200A128A11B0000A1650
:100398008A1500200A128A11B10031083A02031D99
:1003A800DF2930083902031DDF292F083802031D11
:1003B800DF292E0837020318E229E329E429EE2968
:1003C8000130AD002D08CC070A304C06031DED297D
:1003D800EE29AD294C084A07AD004B0803184B0A13
:1003E800AE0043082D07AF0044080318440A2E073F
:1003F800B0002F08BD023008031CBE03BE024A0825
:100408004B040319082A092A0F2AFF30BD070318CD
:10041800BE0AFF30BE0703303B05AD0000303C0587
:10042800AE002D082E0403191A2A1B2A302AFF3081
:10043800BD070318BE0AFF30BE07302A20308316D6
:100448000313AD00490884002D0883138000013090
:10045800AD002D08C9071B2A3E08803AFF008030EE
:100468007F02031D392A01303D0203183C2A3D2A28
:10047800222A0330831603133B05AD0000303C05E8
:10048800AE002D082E0403194A2A4B2AFD2A2D30C6
:10049800AD00490884002D08831380000130AD00A9
:1004A8002D08C907FD2A4C08AD0001300310AD0D19
:1004B800FF3E031D5A2A03102D0D693E84000A16BB
:1004C8008A1500200A128A1183120313A0000A1643
:1004D8008A1500200A128A11A1000A168A1500201E
:1004E8000A128A11A2000A168A1500200A128A1115
:1004F800A300831603133A0883120313A700831675
:100508000313390883120313A6008316031338084C
:1005180083120313A50083160313370883120313EA
:10052800A4000A168A152F270A128A1183120313A8
:10053800230883160313C2008312031322088316A9
:100548000313C10083120313210883160313C00089
:1005580083120313200883160313BF00003083128D
:100568000313A3000030A2000030A1000A30A0004D
:1005780083160313420883120313A7008316031379
:10058800410883120313A60083160313400883123D
:100598000313A500831603133F0883120313A40053
:1005A8000A168A151E260A128A11831203132308B3
:1005B80083160313C200831203132208831603133E
:1005C800C10083120313210883160313C00083128A
:1005D8000313200883160313BF003F08303EAD0005
:1005E800490884002D08831380000130AD002D08D0
:1005F800C9070130CC024C0A031D032B042B572AD0
:10060800182B303083160313AD00490884002D08D9
:10061800831380000130AD002D08C907FF30C307E0
:100628000318C40AFF30C4074408803AFF0080302A
:100638007F02031D212B013043020318242B252B95
:10064800052B831603134B08803AFF0080307F0286
:10065800031D302B09304A02031C332B342B3B2B50
:10066800083083160313AD002D08CC00412B8316E8
:1006780003134A08AD002D08CC004C08AD00AE01AC
:100688002D08CA022E08031CCB03CB024C08031901
:100698004E2B4F2B5A2B2E30AD00490884002D08C5
:1006A800831380000130AD002D08C9074C080A12D9
:1006B8008A159D240A128A11831203134B08831684
:1006C8000313B500831203134A0883160313B400F7
:1006D80083120313490883160313B3008312031309
:1006E800480883160313B200350883120313B500B4
:1006F80083160313340883120313B40083160313F9
:10070800330883120313B3008316031332088312CA
:100718000313B20083160313480883120313B100AE
:1007280083160313470883120313B00083160313B9
:10073800460883120313AF00831603134508831278
:100748000313AE000A128A153C210A128A11831279
:1007580003133108DE003008DD002F08DC002E0806
:10076800DB000A128A1502200A128A118312031367
:100778005E0883160313BA00831203135D088316F9
:100788000313B900831203135C0883160313B8001C
:10079800831203135B0883160313B700D42C4C0889
:1007A800AD0001300310AD0DFF3E031DD62B031025
:1007B8002D0D693E84000A168A1500200A128A1136
:1007C80083120313A0000A168A1500200A128A1140
:1007D800A1000A168A1500200A128A11A2000A1618
:1007E8008A1500200A128A11A300831603133A08F7
:1007F80083120313A7008316031339088312031304
:10080800A60083160313380883120313A500831662
:100818000313370883120313A4000A168A152F2717
:100828000A128A1183120313230883160313C200C2
:1008380083120313220883160313C10083120313C0
:10084800210883160313C00083120313200883169C
:100858000313BF00003083120313A3000030A2006B
:100868000030A1000A30A000831603134208831247
:100878000313A70083160313410883120313A6006A
:1008880083160313400883120313A500831603136A
:100898003F0883120313A4000A168A151E260A129B
:1008A8008A1183120313230883160313C2008312C9
:1008B8000313220883160313C100831203132108AC
:1008C80083160313C000831203132008831603132F
:1008D800BF003F08303EAD00490884002D0883134F
:1008E80080000130AD002D08C9074C08AD0001306B
:1008F8000310AD0DFF3E031D7C2C03102D0D693E2A
:1009080084000A168A1500200A128A11831203131A
:10091800A0000A168A1500200A128A11A1000A16D8
:100928008A1500200A128A11A2000A168A150020C8
:100938000A128A11A300831603133A0883120313B9
:10094800A70083160313390883120313A60083161E
:100958000313380883120313A500831603133708FB
:1009680083120313A4000A168A151E260A128A1176
:1009780083120313230883160313BA008312031385
:10098800220883160313B900831203132108831660
:100998000313B80083120313200883160313B70048
:1009A8000130CC024C0A031DDA2CDB2CD32BED2CA6
:1009B8003030AD00490884002D08831380000130D1
:1009C800AD002D08C907FF30CA070318CB0AFF304E
:1009D800CB074A084B04031DF22CF32CDC2CB92D51
:1009E8004A084B04031DF92CFA2C082D3A0839043F
:1009F80038043704031D012D022D082D0130CA07C4
:100A08000318CB0A0030CB074B08803A803C031D03
:100A18000F2D4A084C020318122D132D1A2D831678
:100A280003134A08AD002D08CC00322D831603139A
:100A38004B08803AAD0080302D02031D252D4C084F
:100A48004A020318282D292D322D831603134C082A
:100A5800AD00AE012D08CA002E08CB008316031383
:100A68003D083E040319392D3A2D4C2D03303B0522
:100A7800AD0000303C05AE002D082E040319452DAD
:100A8800462D4C2DFF30BD070318BE0AFF30BE07A8
:100A98003C1F4F2D502D6B2D4B08803AAD003E0862
:100AA800803A2D02031D5A2D3D084A0203185D2D78
:100AB8005E2D672D831603134A08BD024B08031CDD
:100AC800BE03BE026B2D83160313BD01BE013E0893
:100AD800803A803C031D722D3D084C020318752D89
:100AE800762D822D831603134C08AD00AE012D0818
:100AF800BD022E08031CBE03BE02862D83160313F7
:100B0800BD01BE013D083E0403198B2D8C2DA32D7C
:100B18002030AD00490884002D088313800001307F
:100B2800AD002D08C907FF30BD070318BE0AFF3006
:100B3800BE073D083E04031DA22DA32D8C2D0330B6
:100B48003B05AD0000303C05AE002D082E0403190E
:100B5800AE2DAF2DB92D2D30AD00490884002D08DC
:100B6800831380000A168A11CB2C0130A807FF30A6
:100B7800280784000A168A1500200A128A11AD0077
:100B88002D08CC004C08031DCA2DCD2D0A168A113C
:100B9800BE2C4908840083138001080083120313C4
:100BA800DB006E305B02031CDA2DDB2DEA2E3F30B2
:100BB800B1000030B0000030AF000030AE0064304B
:100BC800A4000030A5005B08CC00CD014C08A600AD
:100BD8004D08A7000A168A1538250A128A118312A9
:100BE80003132408CE0001300310CE0DFF3E031D71
:100BF800F82D03104E0D7D3E84000A168A1500203C
:100C08000A128A11CF000A168A1500200A128A11C0
:100C1800D0000A168A1500200A128A11D1000A1675
:100C28008A1500200A128A11D2005208B50051080C
:100C3800B4005008B3004F08B2000A128A153C21CC
:100C48000A128A11831203133108DA003008D90016
:100C58002F08D8002E08D7000A30A4000030A500BD
:100C68005B08CC00CD014C08A2004D08A3006430FD
:100C7800A0000030A1000A168A15FC240A128A1165
:100C8800831203132108A7002008A6000A168A1554
:100C980038250A128A11831203132408CE00013062
:100CA8000310CE0DFF3E031D542E03104E0D593E6A
:100CB80084000A168A1500200A128A11CF000A1623
:100CC8008A1500200A128A11D0000A168A150020F7
:100CD8000A128A11D1000A168A1500200A128A11EE
:100CE800D2005208B1005108B0005008AF004F08B8
:100CF800AE005A08B5005908B4005808B3005708A0
:100D0800B2000A128A153C210A128A1183120313AF
:100D18003108D6003008D5002F08D4002E08D3009B
:100D28000A30A0000030A1005B08CC00CD014C08BF
:100D3800A2004D08A3000A168A15FC240A128A117B
:100D4800831203132008CE0001300310CE0DFF3E9E
:100D5800031DA92E03104E0D353E84000A168A1570
:100D680000200A128A11CF000A168A1500200A12DA
:100D78008A11D0000A168A1500200A128A11D10099
:100D88000A168A1500200A128A11D2005208B100E8
:100D98005108B0005008AF004F08AE005608B50023
:100DA8005508B4005408B3005308B2000A128A1553
:100DB8003C210A128A11831203133108CB00300830
:100DC800CA002F08C9002E08C800DE2F0B305B02AE
:100DD800031CEF2EF02E9B2F3F30B1000030B000E7
:100DE8000030AF000030AE000A30A4000030A5008B
:100DF8005B08CC00CD014C08A6004D08A7000A16D8
:100E08008A1538250A128A11831203132408CE0082
:100E180001300310CE0DFF3E031D0D2F03104E0DA4
:100E2800593E84000A168A1500200A128A11CF003A
:100E38000A168A1500200A128A11D0000A168A1585
:100E480000200A128A11D1000A168A1500200A12F7
:100E58008A11D2005208B5005108B4005008B300F6
:100E68004F08B2000A128A153C210A128A1183120D
:100E780003133108DA003008D9002F08D8002E08EB
:100E8800D7000A30A0000030A1005B08CC00CD01DB
:100E98004C08A2004D08A3000A168A15FC240A1261
:100EA8008A11831203132008CE0001300310CE0DDF
:100EB800FF3E031D5A2F03104E0D353E84000A16BF
:100EC8008A1500200A128A11CF000A168A150020F6
:100ED8000A128A11D0000A168A1500200A128A11ED
:100EE800D1000A168A1500200A128A11D200520867
:100EF800B1005108B0005008AF004F08AE005A08C2
:100F0800B5005908B4005808B3005708B2000A12CF
:100F18008A153C210A128A11831203133108CB0067
:100F28003008CA002F08C9002E08C800DE2F3F303D
:100F3800B1000030B0000030AF000030AE005B08F8
:100F4800CC0001300310CC0DFF3E031DA62F03106B
:100F58004C0D353E84000A168A1500200A128A11A3
:100F6800CD000A168A1500200A128A11CE000A1628
:100F78008A1500200A128A11CF000A168A15002045
:100F88000A128A11D0005008B5004F08B4004E0864
:100F9800B3004D08B2000A128A153C210A128A11C0
:100FA800831203133108CB003008CA002F08C90088
:100FB8002E08C80008008316031318121815831684
:100FC80003178715CF308316031399009A018312EC
:100FD8000313981718131816831603139816080086
:100FE800F500831203130C1EFA2FFB2FF52F75083B
:040FF8009900080054
:101004000310831203135D0D5E0DDF005F08E5001E
:101014006508031D0E280F2818280030DE00003054
:10102400DD000030DC000030DB007D285B08DF00E1
:101034005C08E0005D08E1005E08E2001F30031078
:10104400E20CE10CE00CDF0CFF3E031D21285F08DD
:10105400E3006308E400DD17FF30DB05FF30DC0547
:10106400FF30DD050030DE059630E502E51F3B2844
:101074003C2856286508803A973E0318422843289E
:1010840044280F2801300310DE0CDD0CDC0CDB0CD3
:10109400FF3E031D45280130DF005F08E507031DFF
:1010A4005428552844286D2820306502031C5B28E9
:1010B4005C2868280F280130DF000310DB0DDC0DED
:1010C400DD0DDE0DDF0B5F280130E5026508031D31
:1010D4006C286D285D2864080319712872287D28FE
:1010E400DB09DC09DD09DE09DB0A0319DC0A031963
:1010F400DD0A0319DE0A0800031083120313220D0C
:10110400230DF5007508AD002D08031D8A288B28D2
:1011140094280030A3000030A2000030A100003069
:10112400A0003B290310260D270DF5007508AC001F
:101134002C08031D9E289F28A0288B28A217FF3067
:10114400A005FF30A105FF30A2050030A305A617B6
:10115400FF30A405FF30A505FF30A6050030A70524
:101164000030AB000030AA000030A9000030A80015
:101174007F30AD02A0302C07F5007508AD02203099
:10118400F5007508AC000130F5000310A80DA90D99
:10119400AA0DAB0DF50BC72827082302031DDC2875
:1011A40026082202031DDC2825082102031DDC2851
:1011B40024082002031CDF28E028EF282408A002CA
:1011C4002508031C250FA1022608031C260FA202D2
:1011D4002708031C270FA30228140130F50003106D
:1011E400A00DA10DA20DA30DF50BF1280130AC0249
:1011F400031DFD28FE28C528AD1F012902291C292D
:101204002D08803A9F3E0318082909290A298B28AA
:1012140001300310AB0CAA0CA90CA80CFF3E031D53
:101224000B290130F5007508AD07031D1A291B2988
:101234000A29332920302D02031C212922292E2991
:101244008B280130F5000310A80DA90DAA0DAB0DD4
:10125400F50B25290130AD022D08031D3229332950
:1012640023292B08A3002A08A2002908A100280882
:10127400A00008008312031331088039B600360831
:10128400BB003108B6003607B7003708C100B01FED
:101294004C294D294E294114410803195229532937
:1012A4006229410A031D5729582960290030B100D9
:1012B4000030B0000030AF000030AE00B0176A2933
:1012C4000030B1000030B0000030AF000030AE009C
:1012D40035088039B6003608BB063508B60036072F
:1012E400B7003708BC00B41F782979297A293C143F
:1012F4003C0803197E297F298E293C0A031D832972
:1013040084298C290030B5000030B4000030B300CB
:101314000030B200B41796290030B5000030B40094
:101324000030B3000030B2003C0803199A299B290D
:10133400A0294108031D9F29A029A9290030B10033
:101344000030B0000030AF000030AE009C2C2E08FE
:10135400B6003608F50034080A168A1599240A12CC
:101364008A15760883120313C7007508C600460859
:10137400B600B701B801B9013908C0003808BF0088
:101384003708BE003608BD004708B600B701B801EB
:10139400B9013908C5003808C4003708C300360845
:1013A400C2002F08B6003608F50033080A168A155D
:1013B40099240A128A15760883120313C700750844
:1013C400C6004608B600B701B801B9013608BD0722
:1013D400370803110318013E0319F129BE07380821
:1013E40003110318013E0319F829BF073908031133
:1013F4000318013E0319FF29C0074708B600B701C7
:10140400B801B9013608C207370803110318013EB1
:1014140003190D2AC307380803110318013E0319E1
:10142400142AC407390803110318013E03191B2A9F
:10143400C5073008B6003608F50032080A168A15C2
:1014440099240A128A15760883120313C7007508B3
:10145400C6004608B600B701B801B9013608BD0791
:10146400370803110318013E0319392ABE07380847
:1014740003110318013E0319402ABF073908031159
:101484000318013E0319472AC0074708B600B701ED
:10149400B801B9013608C207370803110318013E21
:1014A4000319552AC307380803110318013E031909
:1014B4005C2AC407390803110318013E0319632A7F
:1014C400C5070830B6000310BD0DBE0DBF0DC00D1D
:1014D400B60B652A2F08B6003608F50032080A163E
:1014E4008A1599240A128A15760883120313C700F1
:1014F4007508C6004608B6004708B700B801B90128
:101504003608BD07370803110318013E03198B2A57
:10151400BE07380803110318013E0319922ABF07B6
:10152400390803110318013E0319992AC0072E082C
:10153400B6003608F50033080A168A1599240A12EB
:101544008A15760883120313C7007508C600460877
:10155400B6004708B700B801B9013608BD07370817
:1015640003110318013E0319B82ABE0738080311F2
:101574000318013E0319BF2ABF07390803110318D2
:10158400013E0319C62AC0070830B6000310BD0D7A
:10159400BE0DBF0DC00DB60BC82A2E08B600360806
:1015A400F50032080A168A1599240A128A15760853
:1015B40083120313C7007508C6004608B60047081F
:1015C400B700B801B9013608BD073708031103187D
:1015D400013E0319EE2ABE07380803110318013E21
:1015E4000319F52ABF07390803110318013E03192B
:1015F400FC2AC0072F08B6003608F50034080A167E
:101604008A1599240A128A15760883120313C700CF
:101614007508C6004608B6004708B700B801B90106
:101624003608C207370803110318013E03191B2BA0
:10163400C307380803110318013E0319222BC407FA
:10164400390803110318013E0319292BC507300873
:10165400B6003608F50033080A168A1599240A12CA
:101664008A15760883120313C7007508C600460856
:10167400B6004708B700B801B9013608C2073708F1
:1016840003110318013E0319482BC307380803113B
:101694000318013E03194F2BC4073908031103181B
:1016A400013E0319562BC5073008B6003608F5006D
:1016B40034080A168A1599240A128A1576088312A0
:1016C4000313C7007508C6004608B6004708B700EC
:1016D400B801B90108300310B60DB70DB80DB90D36
:1016E400FF3E031D6D2B3608C2073708031103188C
:1016F400013E03197E2BC307380803110318013E6A
:101704000319852BC407390803110318013E031973
:101714008C2BC5073D08B6003E08B7003F08B8004B
:101724004008B90018300310B90CB80CB70CB60C4B
:10173400FF3E031D952B3608C20737080311031813
:10174400013E0319A62BC307380803110318013EF1
:101754000319AD2BC407390803110318013E0319FB
:10176400B42BC5070830B6000310BD0DBE0DBF0D68
:10177400C00DB60BB62B41083C07B600B701B70D38
:101784003608823EC60037080318013EFF3EC700F4
:10179400E82B0130B6000310C20DC30DC40DC50DF6
:1017A400B60BCD2BC01FD72BD82BD92B421401300D
:1017B400B6000310BD0DBE0DBF0DC00DB60BDB2B67
:1017C400FF30C6070318C70AFF30C707C41FEB2B37
:1017D400EC2BCB2BBC01C01FF02BF12B0D2CFF30BD
:1017E4003D05B600FF303E05B700FF303F05B800A9
:1017F4007F304005B900390838043704360403192A
:10180400042C052C082CBC01BC0A0D2C421C0B2CEE
:101814000C2C0D2C052C3C080319112C122C432CD8
:101824000130C207003003180130C3070030031829
:101834000130C407003003180130C507451C232CB0
:10184400242C432C4208B6004308B7004408B800CF
:101854004508B9000130BA00390DB90CB80CB70C01
:10186400B60CBA0B2E2C3908C5003808C40037084A
:10187400C3003608C2000130C6070318C70A003087
:10188400C7074708803AFF0080307F02031D4C2CB5
:10189400FF304602031C4F2C502C5B2C7F308312EC
:1018A4000313C5008030C4000030C3000030C20000
:1018B400902C831203134708803AFF0080307F0284
:1018C400031D662C013046020318692C6A2C762C01
:1018D400003083120313C5000030C4000030C3007D
:1018E4000030C200BB01902C831203134608B600DB
:1018F4003608C100FF30C205FF30C3057F30C40580
:101904000030C505411C872C882C892CC41741083C
:10191400B6000310360CB7003708C5003B08B60004
:101924003608C5044508B1004408B0004308AF00B8
:101934004208AE00080083120313DA00DA1FA32C56
:10194400A42C532EDA09DA0A5A08803A123E031CF0
:10195400AC2CAD2C972D0A30A6000030A7005A08F5
:10196400A200A301A21BA3036430A0000030A100C5
:101974000A168A1574260A128A158312031321087B
:10198400A9002008A8000A168A1597270A128A15A2
:10199400831203132608CC0001300310CC0DFF3E44
:1019A400031DCF2C03104C0D593E84000A168A15D2
:1019B40000200A128A15CD000A168A1500200A1280
:1019C4008A15CE000A168A1500200A128A15CF003D
:1019D4000A168A1500200A128A15D0005008B10090
:1019E4004F08B0004E08AF004D08AE006430A600AA
:1019F4000030A7005A08A800A901A81BA9030A16C9
:101A04008A1597270A128A15831203132608D10010
:101A140001300310D10DFF3E031D0B2D0310510D9A
:101A24007D3E84000A168A1500200A128A15D20007
:101A34000A168A1500200A128A15D3000A168A1576
:101A440000200A128A15D4000A168A1500200A12E8
:101A54008A15D5005508B5005408B4005308B300DE
:101A64005208B2000A128A153C210A128A158312FE
:101A740003133108D9003008D8002F08D7002E08E6
:101A8400D6000A30A0000030A1005A08A200A30129
:101A9400A21BA3030A168A1574260A128A15831236
:101AA40003132008CC0001300310CC0DFF3E031DAE
:101AB400562D03104C0D353E84000A168A1500205D
:101AC4000A128A15CD000A168A1500200A128A15F0
:101AD400CE000A168A1500200A128A15CF000A16AB
:101AE4008A1500200A128A15D0005008B1004F0848
:101AF400B0004E08AF004D08AE005908B5005808B4
:101B0400B4005708B3005608B2000A128A153C21E3
:101B14000A128A15831203133108CB003008CA0055
:101B24002F08C9002E08C800FF2F5A08803A753EB6
:101B3400031C9D2D9E2D262E0A30A0000030A100EE
:101B44005A08A200A301A21BA3030A168A1574262D
:101B54000A128A15831203132008CC0001300310E3
:101B6400CC0DFF3E031DB12D03104C0D353E8400FA
:101B74000A168A1500200A128A15CD000A168A153B
:101B840000200A128A15CE000A168A1500200A12AD
:101B94008A15CF000A168A1500200A128A15D00069
:101BA4005008B1004F08B0004E08AF004D08AE0019
:101BB4000A30A6000030A7005A08A800A901A81BF3
:101BC400A9030A168A1597270A128A158312031382
:101BD4002608D10001300310D10DFF3E031DED2D69
:101BE4000310510D593E84000A168A1500200A126A
:101BF4008A15D2000A168A1500200A128A15D30003
:101C04000A168A1500200A128A15D4000A168A15A3
:101C140000200A128A15D5005508B5005408B400EE
:101C24005308B3005208B2000A128A153C210A1262
:101C34008A15831203133108CB003008CA002F0819
:101C4400C9002E08C800FF2F5A08CC000130031029
:101C5400CC0DFF3E031D292E03104C0D353E840090
:101C64000A168A1500200A128A15CD000A168A154A
:101C740000200A128A15CE000A168A1500200A12BC
:101C84008A15CF000A168A1500200A128A15D00078
:101C94005008CB004F08CA004E08C9004D08C800C0
:101CA400FF2F5A08803A123E031C592E5A2E442FF5
:101CB4000A30A6000030A7005A08A200A301A21B04
:101CC400A3036430A0000030A1000A168A1574260C
:101CD4000A128A15831203132108A9002008A800F8
:101CE4000A168A1597270A128A15831203132608DF
:101CF400CC0001300310CC0DFF3E031D7C2E0310DD
:101D04004C0D253E84000A168A1500200A128A15F5
:101D1400CD000A168A1500200A128A15CE000A166A
:101D24008A1500200A128A15CF000A168A15002087
:101D34000A128A15D0005008B1004F08B0004E08AE
:101D4400AF004D08AE006430A6000030A7005A086A
:101D5400A800A901A81BA9030A168A1597270A1225
:101D64008A15831203132608D10001300310D10D04
:101D7400FF3E031DB82E0310510D493E84000A1680
:101D84008A1500200A128A15D2000A168A15002024
:101D94000A128A15D3000A168A1500200A128A1517
:101DA400D4000A168A1500200A128A15D50055088F
:101DB400B5005408B4005308B3005208B2000A1224
:101DC4008A153C210A128A15831203133108D9009B
:101DD4003008D8002F08D7002E08D6000A30A000FB
:101DE4000030A1005A08A200A301A21BA3030A16F3
:101DF4008A1574260A128A15831203132008CC004C
:101E040001300310CC0DFF3E031D032F03104C0DB6
:101E1400013E84000A168A1500200A128A15CD0094
:101E24000A168A1500200A128A15CE000A168A1587
:101E340000200A128A15CF000A168A1500200A12F9
:101E44008A15D0005008B1004F08B0004E08AF000A
:101E54004D08AE005908B5005808B4005708B3003F
:101E64005608B2000A128A153C210A128A158312F6
:101E740003133108CB003008CA002F08C9002E080C
:101E8400C800FF2F5A08803A753E031C4A2F4B2F77
:101E9400D32F0A30A0000030A1005A08A200A301E9
:101EA400A21BA3030A168A1574260A128A15831222
:101EB40003132008CC0001300310CC0DFF3E031D9A
:101EC4005E2F03104C0D013E84000A168A15002073
:101ED4000A128A15CD000A168A1500200A128A15DC
:101EE400CE000A168A1500200A128A15CF000A1697
:101EF4008A1500200A128A15D0005008B1004F0834
:101F0400B0004E08AF004D08AE000A30A600003005
:101F1400A7005A08A800A901A81BA9030A168A1534
:101F240097270A128A15831203132608D100013059
:101F34000310D10DFF3E031D9A2F0310510D253EB2
:101F440084000A168A1500200A128A15D2000A167D
:101F54008A1500200A128A15D3000A168A15002051
:101F64000A128A15D4000A168A1500200A128A1544
:101F7400D5005508B5005408B4005308B3005208FE
:101F8400B2000A128A153C210A128A15831203131D
:101F94003108CB003008CA002F08C9002E08C80039
:101FA400FF2F5A08CC0001300310CC0DFF3E031D57
:101FB400D62F03104C0D013E84000A168A1500200A
:101FC4000A128A15CD000A168A1500200A128A15EB
:101FD400CE000A168A1500200A128A15CF000A16A6
:101FE4008A1500200A128A15D0005008CB004F0829
:0C1FF400CA004E08C9004D08C8000800D3
:1020040083120313230822042104200403190B2838
:102014000C280E288030A306080000308312031316
:102024002005A80000302105A90080302205AA005F
:102034007F302305AB002B082A0429042804031D40
:10204400242825282D280030A3000030A2000030C9
:10205400A1000030A00000302405A80000302505B0
:10206400A90080302605AA007F302705AB002B0885
:102074002A0429042804031D402841284928003043
:10208400A7000030A6000030A5000030A400A31F64
:102094004C284D2871280030A8000030A9000030D9
:1020A400AA008030AB002008A8022108031C210FDD
:1020B4005C285D28A9022208031C220F62286328D9
:1020C400AA022308031C230F68286928AB022B08E3
:1020D400A3002A08A2002908A1002808A000A71F1D
:1020E4007428752899280030A8000030A900003011
:1020F400AA008030AB002408A8022508031C250F81
:1021040084288528A9022608031C260F8A288B28E0
:10211400AA022708031C270F90289128AB022B083A
:10212400A7002A08A6002908A5002808A4008030D2
:10213400A3068030A70627082302031DAB28260820
:102144002202031DAB2825082102031DAB28240805
:1021540020020318AE28AF28B1280310B2280314B4
:10216400080083120313A80028080319BA28BB28FF
:10217400CF28A31FBE28BF28CF282009AA002109E1
:10218400AB002209AC002309AD00AA0A0319AB0A6B
:102194000319AC0A0319AD0AD7282308AD00220895
:1021A400AC002108AB002008AA0023082204210463
:1021B4002004031DDE28DF28E8280030A3000030B7
:1021C400A2000030A1000030A0006E299630A400C7
:1021D4002408A900FA280130A4002408A907013022
:1021E4000310AD0CAC0CAB0CAA0CFF3E031DF22883
:1021F400FE302D05031DFF280029ED281C29013080
:10220400A4002408A9070130AA07003003180130EC
:10221400AB07003003180130AC070030031801305D
:10222400AD0701300310AD0CAC0CAB0CAA0CFF3E97
:10223400031D1429FF302D05031D212922290129FD
:102244002E290130A9020130A4000310AA0DAB0D00
:10225400AC0DAD0DA40B2729AC1B3129322938292B
:1022640002302902031837293829232929183B2940
:102274003C294429FF30AA05FF30AB057F30AC056B
:10228400FF30AD050310A90C2908A400A501A6017F
:10229400A70118300310A40DA50DA60DA70DFF3E30
:1022A400031D4C292408AA042508AB042608AC0401
:1022B4002708AD0428080319602961296629A31F8A
:1022C400642965296629AD172D08A3002C08A200EE
:1022D4002B08A1002A08A000080083120313200879
:1022E400A8002108A9002208AA000310290D2A0D1C
:1022F400AB002B08B1003108031D812982298B29E9
:102304000030A3000030A2000030A1000030A00083
:102314002B2A2408A8002508A9002608AA000310CF
:10232400290D2A0DAB002B08B0003008031D9B2992
:102334009C299D298229A117FF30A005FF30A10502
:102344000030A205A517FF30A405FF30A505003015
:10235400A6050030AF000030AE000030AD00003004
:10236400AC007F30B10298303007A8002808B102D1
:102374001830A8002808B0000130A8000310AC0DE4
:10238400AD0DAE0DAF0DA80BC02926082202031D0A
:10239400D12925082102031DD12924082002031C68
:1023A400D429D529E0292408A0022508031C250FD7
:1023B400A1022608031C260AA2022C1401300310D1
:1023C400A00DA10DA20DFF3E031DE1290130B002B5
:1023D400031DED29EE29BE29B11FF129F2290C2A8A
:1023E4003108803A973E0318F829F929FA298229F5
:1023F40001300310AF0CAE0CAD0CAC0CFF3E031D52
:10240400FB290130A8002808B107031D0A2A0B2A5A
:10241400FA29232A18303102031C112A122A1E2AEF
:1024240082290130A8000310AC0DAD0DAE0DAF0D27
:10243400A80B152A0130B1023108031D222A232AD0
:10244400132A2F08A3002E08A2002D08A1002C088F
:10245400A0000800831203135F088039E4006408B5
:10246400EC005F08E4006407E5006508EE00DE1F89
:102474003C2A3D2A3E2A6E146E080319422A432A36
:10248400532A6E0A031D472A482A502A0030DF00C7
:102494000030DE000030DD000030DC00DE17DF013C
:1024A4005B2A0030DF000030DE000030DD00003049
:1024B400DC0063088039E4006408ED006D086C06F4
:1024C4000319652A662A672A6C176308E4006407FF
:1024D400E5006508ED00E21F702A712A722A6D1466
:1024E4006D080319762A772A872A6D0A031D7B2A29
:1024F4007C2A842A0030E3000030E2000030E1004E
:102504000030E000E217E3018F2A0030E3000030DE
:10251400E2000030E1000030E0006E086D020318B4
:10252400942A952AD92A6C1F982A992A9D2A8030A0
:10253400E4006408EC066E08E4006408EF006D082B
:10254400E4006408EE006F08E4006408ED005C0831
:10255400E4006408EF006008E4006408DC006F082D
:10256400E4006408E0005D08E4006408EF0061082A
:10257400E4006408DD006F08E4006408E1005E081C
:10258400E4006408EF006208E4006408DE006F08F9
:10259400E4006408E2005F08E4006408EF006308F4
:1025A400E4006408DF006F08E4006408E300EF015E
:1025B4006D08E400E5016508E7006E086402E600C2
:1025C400031CE7036708803AFF0080307F02031D85
:1025D400ED2A1A306602031CF02AF12A2E2B8312EC
:1025E40003135F085E045D045C04031DFA2AFC2ADD
:1025F4000130FD2A0030E4006408EF000030DF0001
:102604000030DE000030DD000030DC006D08E40046
:102614006408EE00362B6F1C102B112B1A2B6F083D
:10262400E4000310640C0138E5006508EF001C2B7E
:102634000310EF0C5C1C1F2B202B212BEF170130F8
:10264400E4005F0DDF0CDE0CDD0CDC0CE40B232B53
:102654000130E4006408EE07831203136D086E0270
:10266400031C352B362B0D2B6C1B392B3A2B852B4E
:102674006E08031D3E2B3F2B482B0030DF0000303B
:10268400DE000030DD000030DC00B32C6008DC0725
:10269400610803110318013E0319512BDD07620879
:1026A40003110318013E0319582BDE0763080311B5
:1026B4000318013E03195F2BDF075F1C622B632B9A
:1026C400392C6F1C662B672B702B6F08E4000310EA
:1026D400640C0138E5006508EF00722B0310EF0C61
:1026E4005C1C752B762B772BEF170130E4005F0D04
:1026F400DF0CDE0CDD0CDC0CE40B792B0130E40088
:102704006408EE07392C5F08803AFF006308803ABA
:102714007F02031D972B62085E02031D972B61083D
:102724005D02031D972B60085C0203189A2B9B2BF8
:10273400F32BFF30E400FF30E500FF30E600FF300C
:10274400E7006008E8006108E9006208EA0063083D
:10275400EB005C08E8025D08031C5D0FB22BB32B91
:10276400E9025E08031C5E0FB82BB92BEA025F086E
:10277400031C5F0FBE2BBF2BEB026808E40769083C
:102784000318690FC62BC72BE5076A0803186A0FDD
:10279400CC2BCD2BE6076B0803186B0AE7076708F9
:1027A400DF006608DE006508DD006408DC008030B8
:1027B400E4006408EC06EF09EF0A6F08031DE32B3D
:1027C400E42B012C0130DC07003003180130DD0755
:1027D400003003180130DE07003003180130DF0732
:1027E400012C6008DC026108031C610FDD02620831
:1027F400031C620FDE026308031C630FDF025F0821
:102804005E045D045C04031D082C092C352C6F0840
:10281400031D0D2C0E2C352C0030DF000030DE00A3
:102824000030DD000030DC00B32C0130E400031084
:10283400DC0DDD0DDE0DDF0DE40B192CEF1F232C59
:10284400242C252C5C146F1C282C292C2C2C0314D0
:10285400EF0D2E2C0310EF0D6E080319322C332CC0
:10286400352C0130EE02DE1F382C392C172CED01EB
:10287400EF1F3D2C3E2C4C2C6F087F390319432C41
:10288400442C472CED01ED0A4C2C5C1C4A2C4B2C9F
:102894004C2C442C6D080319502C512C852C0130E0
:1028A400DC07003003180130DD0700300318013065
:1028B400DE07003003180130DF075F1C622C632C35
:1028C400852C5C08E4005D08E5005E08E6005F080E
:1028D400E7000130E800670DE70CE60CE50CE40CBA
:1028E400E80B6D2C6708DF006608DE006508DD0074
:1028F4006408DC006E0A0319802C812C852C0130BD
:10290400E4006408EE076E0A0319892C8A2C8F2CC4
:102914006E08031D8E2C8F2C9D2C0030DF000030A0
:10292400DE000030DD000030DC006E08031D9B2C4F
:102934009C2C9D2CEC016E1CA02CA12CA32CDE172E
:10294400A72C7F30E4006408DE056E08E400031061
:10295400640CE5006508DF00EC1FB12CB22CB32C2D
:10296400DF17080083160313C900A930AD002D0832
:10297400B6000A128A11B92D25304C060319C32C4E
:10298400C42CD02C4C08AD00490884002D088313B6
:1029940080000130AD002D08C907BB2CBD01BE016C
:1029A400BB01BC01280884000A168A1500200A16F7
:1029B4008A110A168A15FE230A168A11031CE32CAF
:1029C400E42C322D83160313BD01BE010A30831299
:1029D4000313A0000030A100831603133E088312E2
:1029E4000313A300831603133D0883120313A200E9
:1029F4000A168A1549240A168A1183120313210818
:102A040083160313BE0083120313200883160313D3
:102A1400BD00280884000A168A1500200A168A11A7
:102A2400D03EAD00FF3003180030AE002D08BD07C6
:102A34000318BE0A2E08BE070130AD002D08A807F2
:102A4400280884000A168A1500200A168A110A1614
:102A54008A15FE230A168A110318312D322DE82C0B
:102A640083160313280884000A168A1500200A1600
:102A74008A112E3A031D3F2D402D932D3C17013012
:102A8400AD002D08A807CA01CB01822D0A3083129C
:102A94000313A0000030A100831603134B08831214
:102AA4000313A300831603134A0883120313A2001B
:102AB4000A168A1549240A168A1183120313210857
:102AC40083160313CB008312031320088316031306
:102AD400CA00280884000A168A1500200A168A11DA
:102AE400D03EAD00FF3003180030AE002D08CA07F9
:102AF4000318CB0A2E08CB070130AD002D08A80718
:102B0400280884000A168A1500200A168A110A1653
:102B14008A15FE230A168A110318912D922D482D29
:102B2400992DCA01CB013C16992D3C15B52D0130C8
:102B340083160313A807FF30280784000A168A1592
:102B440000200A168A11CC00AD00AE012E08003A0E
:102B54000319AD2DBB2C2D08003A0319FD2F663A3D
:102B64000319972DBB2C00303B05AD0007303C0505
:102B7400AE002D082E040319C02DC32D0A128A118C
:102B8400F42C3C1EC62DC72DCB2D0630CA000030B8
:102B9400CB003608840083130008C500840A0008AB
:102BA400C600840A0008C700840A0008C80004306C
:102BB400AD002D08B607480883120313A30083163B
:102BC4000313470883120313A20083160313460852
:102BD40083120313A10083160313450883120313FE
:102BE400A0000030A7000030A6000030A50000308F
:102BF400A4000A168A110F200A168A110318032E3C
:102C0400042E3D2E83160313480883120313A300D6
:102C140083160313470883120313A20083160313B6
:102C2400460883120313A100831603134508831275
:102C34000313A0000A168A1102200A168A118312AD
:102C44000313230883160313C800831203132208F3
:102C540083160313C7008312031321088316031377
:102C6400C60083120313200883160313C500033020
:102C7400BB040030BC0483160313C301C401480819
:102C840083120313A3008316031347088312031349
:102C9400A20083160313460883120313A1008316AC
:102CA4000313450883120313A0000030A70000306B
:102CB400A6000030A5000030A4000A168A157E255F
:102CC4000A168A110318672E682E942F0310831690
:102CD4000313470D480D823EC300FF300318003034
:102CE400C400FF30C3070318C40AFF30C40703300D
:102CF40083120313A0000030A100831603134408B9
:102D040083120313A30083160313430883120313CC
:102D1400A2000A168A1549240A168A11831203137B
:102D2400210883160313C400831203132008831697
:102D34000313C3000A3083120313A6000030A70054
:102D440083160313440883120313A9008316031381
:102D5400430883120313A8000A168A1597270A1634
:102D64008A1183120313270883160313C4008312E2
:102D74000313260883160313C300C41FC22EC32ED5
:102D8400C92EFF30C3070318C40AFF30C407430326
:102D9400FF3A0A128A159D240A168A118312031314
:102DA4004B0883160313C200831203134A088316C5
:102DB4000313C10083120313490883160313C000CD
:102DC40083120313480883160313BF0048088312B1
:102DD4000313B10083160313470883120313B000CF
:102DE40083160313460883120313AF0083160313D9
:102DF400450883120313AE0083160313420883129B
:102E04000313B50083160313410883120313B4009C
:102E140083160313400883120313B30083160313AA
:102E24003F0883120313B2000A128A153C210A16C2
:102E34008A1183120313310883160313C200831209
:102E44000313300883160313C100831203132F08DE
:102E540083160313C000831203132E08831603136F
:102E6400BF00420883120313A3008316031341080F
:102E740083120313A200831603134008831203135F
:102E8400A100831603133F0883120313A0003F30ED
:102E9400A7008030A6000030A5000030A4000A1668
:102EA4008A110F200A168A110318592F5A2F632FDB
:102EB400FF3083160313C3070318C40AFF30C40783
:102EC400942F83160313420883120313A30083165B
:102ED4000313410883120313A2008316031340084B
:102EE40083120313A100831603133F0883120313F1
:102EF400A0004130A7002030A6000030A50000301B
:102F0400A4000A168A110F200A168A11031C8B2F9B
:102F14008C2F942F013083160313C3070318C40A9C
:102F24000030C407831603134B08803AFF00803037
:102F34007F02031D9F2F0D304A020318A22FA32FD7
:102F4400EA2F831603134A080A128A11D2250A1695
:102F54008A11831203134B08DF004A08DE00490874
:102F6400DD004808DC0083160313480883120313AA
:102F7400E30083160313470883120313E200831646
:102F84000313460883120313E10083160313450851
:102F940083120313E0000A168A112C220A168A11DE
:102FA400831203135F0883160313C80083120313E9
:102FB4005E0883160313C700831203135D08831688
:102FC4000313C600831203135C0883160313C5009E
:102FD400831603134408803AFF0080307F02031DE8
:102FE400F52F0A3043020318FA2F0A128A111E28F9
:102FF4000A128A117D280A128A11CD2D18308A00EE
:103004000408840A820700340034003480343F34D6
:10301400003400342034413400340034C8344234A1
:10302400003400347A344434003440341C3446349C
:1030340000345034C33447340034243474344934B1
:103044008034963418344B342034BC34BE344C347D
:1030540028346B346E344E34F9340234153450341D
:10306400EC347834AD346034CA34F23449347134D5
:103074000034003480343F34CD34CC34CC343D344B
:103084000A34D73423343C346F34123483343A341E
:103094001734B734D1343834AC34C53427343734E6
:1030A400BD343734863435349534BF34D634333470
:1030B4007734CC342B3432345F3470348934303444
:1030C400FF34E634DB342E340834E5343C341E3427
:1030D40060344234A2340D340134003400340034FA
:1030E4000A340034003400346434003400340034CE
:1030F400E83403340034003410342734003400340A
:10310400A034863401340034403442340F34003463
:1031140080349634983400340034E134F534053482
:103124000034CA349A343B34253433342E343034A6
:0431340066340034C9
:1037C4007030831603138F040F140800033083161C
:1037D400031396000B1008008B170B1783160313A3
:1037E4008C168B150B10080064008001840A0406F3
:1037F400031900340406F72BF600F5013A3076027B
:103804000318052C062C0E2C30307602031C0B2CCE
:103814000C2C0E2CF501F50A750C08008316031701
:103824008801890183160313850186018801061422
:1038340086148113033095008312031386018801D3
:103844008501080083120313A200A001A1013D2CED
:1038540020082207F6007608840000080A128A115C
:10386400F4270A168A15013083120313A0070318DC
:10387400A10A0030A10720082207F6007608840078
:1038840083130008031D472C482C2A2C0800F5013B
:10389400F60183120313201C502C512C572C2208A0
:1038A400F5070318F60A2308F60701300310A20DE2
:1038B400A30DFF3E031D582C01300310A10CA00CD6
:1038C400FF3E031D5F2C20082104031D6A2C6B2C72
:1038D4004B2C7608A1007508A0000800831203137E
:1038E400BA003A08B200B301B401B5013508A30027
:1038F4003408A2003308A1003208A00001300A16DF
:103904008A11B3200A168A15831203132308B900F7
:103914002208B8002108B7002008B6003908B10011
:103924003808B0003708AF003608AE00080083122C
:103934000313A600A201A3017508A000A101200899
:10394400A4002108A500261CA82CA92CAF2C24080F
:10395400A2070318A30A2508A30701300310A40D26
:10396400A50DFF3E031DB02C0310A60C2608031D55
:10397400BC2CBD2CA52C2308F6002208F500080059
:10398400831203138C1EC72CC82CDB2C0C3099001B
:103994000D3099001A0888001530F2004B30F10000
:1039A400BE30F000F00BD42CF10BD42CF20BD42C41
:1039B40000000B1CDE2CDF2CF52C831203130618DD
:1039C400E42CE52CEB2C0130F00070088316031373
:1039D400D80783128618EF2CF02CF42C01308316B0
:1039E4000313D8020B1074088A00730E8300FE0EB2
:1039F4007E0E090083120313200821040319032DEA
:103A0400042D332DF601F60A122D01300310A00DFA
:103A1400A10DFF3E031D082D0130F5007508F607C2
:103A2400A11F152D162D072D21082302031D1C2D62
:103A340020082202031C1F2D202D262D2008A2025F
:103A44002108031CA303A30201300310A10CA00C42
:103A5400FF3E031D272D0130F602031D322D332DA9
:103A6400162D2308A1002208A000080083120313C6
:103A7400A901AA01240825040319412D422D792DF9
:103A8400AB01AB0A502D01300310A40DA50DFF3E70
:103A9400031D462D0130A8002808AB07A51F532D90
:103AA400542D452D01300310A90DAA0DFF3E031D11
:103AB400552D25082702031D612D24082602031C09
:103AC400642D652D6C2D2408A6022508031CA7036C
:103AD400A702291401300310A50CA40CFF3E031DFA
:103AE4006D2D0130AB02031D782D792D542D2A083C
:103AF400A5002908A4000800003083120313200540
:103B0400A80000302105A90080302205AA007F30DA
:103B14002305AB002B082A0429042804031D932D34
:103B2400942D9C2D0030A3000030A2000030A10091
:103B34000030A00000302405A80000302505A900AD
:103B440080302605AA007F302705AB002B082A0405
:103B540029042804031DAF2DB02DB82D0030A70073
:103B64000030A6000030A5000030A400270823067A
:103B7400031DC62D26082206031DC62D2508210671
:103B8400031DC62D240820060319C92DCA2DCC2DCA
:103B94000310CD2D03140800803083160313A306ED
:103BA400270883120313DF008316031326088312E6
:103BB4000313DE0083160313250883120313DD00A9
:103BC40083160313240883120313DC0083160313E0
:103BD400230883120313E3008316031322088312BA
:103BE4000313E20083160313210883120313E10075
:103BF40083160313200883120313E0000A168A11A4
:103C04002C220A168A15831203135F0883160313E2
:103C1400A300831203135E0883160313A200831206
:103C240003135D0883160313A100831203135C08B6
:103C340083160313A000080083120313230822042D
:103C4400210420040319272E282E6B2EF601F60AD0
:103C5400382E0130F5000310A00DA10DA20DA30D07
:103C6400F50B2D2E0130F5007508F607A31F3B2E2A
:103C74003C2E2B2E23082702031D4A2E220826023F
:103C8400031D4A2E21082502031D4A2E2008240262
:103C9400031C4D2E4E2E5C2E2008A4022108031C6A
:103CA400210FA5022208031C220FA6022308031CCD
:103CB400230FA70201300310A30CA20CA10CA00C2B
:103CC400FF3E031D5D2E0130F602031D6A2E6B2E8E
:103CD4003C2E2708A3002608A2002508A1002408DA
:103CE400A000080083120313A501A31F7A2E7B2EC4
:103CF400822EA209A309A20A0319A30AA501A50AEF
:103D0400A11F852E862E8B2EA009A109A00A0319B6
:103D1400A10A200821040319902E912EC02EA4017B
:103D2400A40A9F2E01300310A00DA10DFF3E031D18
:103D3400952E0130F5007508A407A11FA22EA32E0D
:103D4400942E21082302031DA92E20082202031CFD
:103D5400AC2EAD2EB32E2008A2022108031CA3030F
:103D6400A30201300310A10CA00CFF3E031DB42ECE
:103D74000130A402031DBF2EC02EA32E2508031953
:103D8400C42EC52ECA2EA209A309A20A0319A30A86
:103D94002308A1002208A00008000A168A1510248E
:103DA4000A168A150A168A15EE230A168A150A16A1
:103DB4008A15E8230A168A150A128A11DF270A16B9
:103DC4008A150A168A15E2230A168A15831603131E
:103DD40058080A168A1570240A168A1583120313C2
:103DE400310883160313E600831203133008831685
:103DF4000313E500831203132F0883160313E4004F
:103E0400831203132E0883160313E3009130CD00AD
:103E14004D08A8006608AC006508AB006408AA0059
:103E24006308A900D9300A168A11B4240A168A151F
:103E34000C30831203139900D9300A168A152424EE
:103E44000A168A15A53083160313CD00CD0B282F2F
:103E54002B2FE82E0A128A110C2800308312031328
:103E6400AB000030AA000030A9000030A8002308ED
:103E74002204210420040319402F412F8E2FAC016A
:103E8400AC0A512F0130F5000310A00DA10DA20DB5
:103E9400A30DF50B462F0130F5007508AC07A31FE1
:103EA400542F552F442F0130F5000310A80DA90DF0
:103EB400AA0DAB0DF50B572F23082702031D6C2FFA
:103EC40022082602031D6C2F21082502031D6C2FD6
:103ED40020082402031C6F2F702F7F2F2008A402B8
:103EE4002108031C210FA5022208031C220FA6028D
:103EF4002308031C230FA702281401300310A30C6A
:103F0400A20CA10CA00CFF3E031D802F0130AC02BB
:103F1400031D8D2F8E2F552F2B08A3002A08A200D6
:103F24002908A1002808A000080083120313AB018C
:103F3400A71F9D2F9E2FA52FA609A709A60A03191F
:103F4400A70AAB01AB0AA91FA82FA92FB22FA80952
:103F5400A909A80A0319A90A0130F6007608AB06D4
:103F6400AC01AD01260827040319B92FBA2FF12F8C
:103F7400AA01AA0AC82F01300310A60DA70DFF3EFF
:103F8400031DBE2F0130F6007608AA07A71FCB2F0A
:103F9400CC2FBD2F01300310AC0DAD0DFF3E031D22
:103FA400CD2F27082902031DD92F26082802031C18
:103FB400DC2FDD2FE42F2608A8022708031CA90301
:103FC400A9022C1401300310A70CA60CFF3E031DFC
:103FD400E52F0130AA02031DF02FF12FCC2F2B085F
:103FE4000319F52FF62FFB2FAC09AD09AC0A031901
:0C3FF400AD0A2D08A7002C08A60008004C
:04400E00D420FF3F7C
:00000001FF
