:020000040000FA
:060000000A128A110C280F
:10000800FE00030EF3000A08F4000A168A151E2CD7
:100018000A128A110F28F701F8018313CE308400E1
:10002800E3300A168A1566230A128A1183010A1612
:100038008A152B2E83160313480883120313A30073
:1000480083160313470883120313A20083160313AE
:10005800460883120313A10083160313450883126D
:100068000313A0000030A7000030A6000030A50050
:100078000030A4000A168A15DA240A128A11031815
:10008800462847282929831603134808831203138F
:10009800DE0083160313470883120313DD0083165B
:1000A8000313460883120313DC0083160313450861
:1000B80083120313DB000A128A1500200A128A1120
:1000C800831203135E085D045C045B04031D6D2842
:1000D8006E282929831603134008803AFF008030D0
:1000E8007F02031D792802303F02031C7C287D28EB
:1000F8002929831603133E0883120313A3008316CA
:1001080003133D0883120313A200831603133C084C
:1001180083120313A100831603133B0883120313EE
:10012800A0004030A7008930A6007030A5005F30DD
:10013800A4000A168A155C270A128A110318A52832
:10014800A628AF28F73083160313BF070318C00A81
:10015800FF30C007B728F83083160313BF0703180A
:10016800C00AFF30C0073F080A128A1538210A1250
:100178008A11831203134B0883160313BE008312DC
:1001880003134A0883160313BD0083120313490897
:1001980083160313BC008312031348088316031342
:1001A800BB00480883120313A300831603134708F0
:1001B80083120313A2008316031346088312031342
:1001C800A10083160313450883120313A0008316A6
:1001D80003133E0883120313A700831603133D0875
:1001E80083120313A600831603133C088312031318
:1001F800A500831603133B0883120313A4000A12F5
:100208008A114E260A128A118312031323088316B1
:100218000313BA0083120313220883160313B900C9
:1002280083120313210883160313B80083120313E0
:10023800200883160313B7000030C8000030C70039
:100248000030C6000030C500AB29831603134808E8
:1002580083120313DE008316031347088312031364
:10026800DD0083160313460883120313DC0083168C
:100278000313450883120313DB000A128A150020B2
:100288000A128A11831203135E0883160313BA0035
:10029800831203135D0883160313B9008312031333
:1002A8005C0883160313B800831203135B088316D4
:1002B8000313B7003A0883120313A300831603132A
:1002C800390883120313A200831603133808831214
:1002D8000313A10083160313370883120313A00026
:1002E80000300A128A157C200A128A11831203131D
:1002F800230883160313A30083120313220883160B
:100308000313A20083120313210883160313A10009
:1003180083120313200883160313A0004808A700BC
:100328004708A6004608A5004508A4000A168A152D
:100338002A250A128A11831603132308C8002208E3
:10034800C7002108C6002008C500BF01C001CC01B4
:10035800CC0A4C08AD0001300310AD0DFF3E031D63
:10036800B02903102D0D693E84000A168A15002055
:100378000A128A11AE000A168A1500200A128A117A
:10038800AF000A168A1500200A128A11B0000A1650
:100398008A1500200A128A11B10031083A02031D99
:1003A800DF2930083902031DDF292F083802031D11
:1003B800DF292E0837020318E229E329E429EE2968
:1003C8000130AD002D08CC070A304C06031DED297D
:1003D800EE29AD294C084907AD004A0803184A0A16
:1003E800AE003F082D07AF0040080318400A2E074B
:1003F800B0002F08C3023008031CC403C402490814
:100408004A040319082A092A0F2AFF30C3070318C8
:10041800C40AFF30C40703304105AD00003042056F
:10042800AE002D082E0403191A2A1B2A212AFF3090
:10043800C3070318C40AFF30C407411D242A252A0C
:10044800712A03304105AD0000304205AE002D0889
:100458002E040319302A312A502A2D30AD004B08BA
:1004680084002D08831380000130AD002D08CB07D0
:10047800502A303083160313AD004B0884002D0832
:10048800831380000130AD002D08CB07FF30C30770
:100498000318C40AFF30C4074408803AFF008030BC
:1004A8007F02031D592A0130430203185C2A5D2A82
:1004B8003D2A3E2B203083160313AD004B088400E1
:1004C8002D08831380000130AD002D08CB07FF30C5
:1004D800C3070318C40AFF30C4074408803AFF0062
:1004E80080307F02031D7A2A0130430203187D2AD7
:1004F8007E2A5E2A0330831603134105AD000030BF
:100508004205AE002D082E0403198B2A8C2A3E2B97
:100518002D30AD004B0884002D0883138000013076
:10052800AD002D08CB073E2B4C08AD000130031061
:10053800AD0DFF3E031D9B2A03102D0D693E84005F
:100548000A168A1500200A128A1183120313A000C2
:100558000A168A1500200A128A11A1000A168A159D
:1005680000200A128A11A2000A168A1500200A120F
:100578008A11A300831603133A0883120313A700F2
:1005880083160313390883120313A6008316031373
:10059800380883120313A500831603133708831240
:1005A8000313A4000A168A158B260A128A118312CD
:1005B8000313230883160313BE00831203132208B0
:1005C80083160313BD008312031321088316031334
:1005D800BC0083120313200883160313BB000030EA
:1005E80083120313A3000030A2000030A1000A30D8
:1005F800A000831603133E0883120313A700831673
:1006080003133D0883120313A600831603133C0843
:1006180083120313A500831603133B0883120313E5
:10062800A4000A168A157A250A128A11831203135E
:10063800230883160313BE008312031322088316AC
:100648000313BD0083120313210883160313BC0090
:1006580083120313200883160313BB003B08303EA4
:10066800AD004B0884002D08831380000130AD00D5
:100678002D08CB07013083160313CC024C0A031D47
:10068800462B472B982A5B2B303083160313AD007B
:100698004B0884002D08831380000130AD002D081D
:1006A800CB07FF30BF070318C00AFF30C007400858
:1006B800803AFF0080307F02031D642B01303F0227
:1006C8000318672B682B482B831603134A08803AB4
:1006D800FF0080307F02031D732B09304902031C81
:1006E800762B772B7E2B083083160313AD002D084D
:1006F800CC00842B831603134908AD002D08CC00C9
:100708004C08AD00AE012D08C9022E08031CCA030F
:10071800CA024C080319912B922B9D2B2E30AD0049
:100728004B0884002D08831380000130AD002D088C
:10073800CB074C080A128A1538210A128A1183122B
:1007480003134B0883160313B500831203134A08D7
:1007580083160313B4008312031349088316031383
:10076800B30083120313480883160313B200350835
:1007780083120313B500831603133408831203137B
:10078800B40083160313330883120313B3008316CC
:100798000313320883120313B200831603134808A5
:1007A80083120313B100831603134708831203133C
:1007B800B00083160313460883120313AF00831691
:1007C8000313450883120313AE000A168A119F24E7
:1007D8000A128A11831203133108DE003008DD0083
:1007E8002F08DC002E08DB000A128A1500200A12E6
:1007F8008A11831203135E0883160313BA00831247
:1008080003135D0883160313B900831203135C08EE
:1008180083160313B800831203135B0883160313AC
:10082800B700172D4C08AD0001300310AD0DFF3E89
:10083800031D192C03102D0D693E84000A168A1514
:1008480000200A128A1183120313A0000A168A15BF
:1008580000200A128A11A1000A168A1500200A121D
:100868008A11A2000A168A1500200A128A11A3000A
:10087800831603133A0883120313A700831603137E
:10088800390883120313A60083160313380883124A
:100898000313A50083160313370883120313A40058
:1008A8000A168A158B260A128A1183120313230843
:1008B80083160313BE00831203132208831603133F
:1008C800BD0083120313210883160313BC0083128F
:1008D8000313200883160313BB000030831203138D
:1008E800A3000030A2000030A1000A30A000831647
:1008F80003133E0883120313A700831603133D084E
:1009080083120313A600831603133C0883120313F0
:10091800A500831603133B0883120313A4000A16C9
:100928008A157A250A128A1183120313230883165B
:100938000313BE0083120313220883160313BD009A
:1009480083120313210883160313BC0083120313B5
:10095800200883160313BB003B08303EAD004B084C
:1009680084002D08831380000130AD002D08CB07CB
:100978004C08AD0001300310AD0DFF3E031DBF2C28
:1009880003102D0D693E84000A168A1500200A12EC
:100998008A1183120313A0000A168A1500200A126E
:1009A8008A11A1000A168A1500200A128A11A200CB
:1009B8000A168A1500200A128A11A3008316031347
:1009C8003A0883120313A700831603133908831206
:1009D8000313A60083160313380883120313A50014
:1009E80083160313370883120313A4000A168A1503
:1009F8007A250A128A118312031323088316031314
:100A0800BA0083120313220883160313B900831252
:100A18000313210883160313B80083120313200855
:100A280083160313B7000130CC024C0A031D1D2D99
:100A38001E2D162C302D3030AD004B0884002D08AB
:100A4800831380000130AD002D08CB07FF30C907A4
:100A58000318CA0AFF30CA0749084A04031D352D7E
:100A6800362D1F2D352E49084A04031D3C2D3D2DDA
:100A78004B2D3A08390438043704031D442D452DFD
:100A88004B2D0130C9070318CA0A0030CA074A08A3
:100A9800803A803C031D522D49084C020318552DFD
:100AA800562D5D2D831603134908AD002D08CC0083
:100AB800752D831603134A08803AAD0080302D0245
:100AC800031D682D4C08490203186B2D6C2D752DDC
:100AD800831603134C08AD00AE012D08C9002E087B
:100AE800CA00831603134308440403197C2D7D2D83
:100AF8008F2D03304105AD0000304205AE002D08B2
:100B08002E040319882D892D8F2DFF30C307031854
:100B1800C40AFF30C407421F922D932DAE2D4A08F8
:100B2800803AAD004408803A2D02031D9D2D4308EC
:100B380049020318A02DA12DAA2D831603134908D5
:100B4800C3024A08031CC403C402AE2D8316031350
:100B5800C301C4014408803A803C031DB52D4308F5
:100B68004C020318B82DB92DC52D831603134C0854
:100B7800AD00AE012D08C3022E08031CC403C40235
:100B8800C92D83160313C301C401411DCC2DCD2DDE
:100B9800022E03304105AD0000304205AE002D089D
:100BA8002E040319D82DD92DE42D2D30AD004B0876
:100BB80084002D08831380000130AD002D08CB0779
:100BC800430844040319E92DEA2D352E3030AD00D1
:100BD8004B0884002D08831380000130AD002D08D8
:100BE800CB07FF30C3070318C40AFF30C407430804
:100BF8004404031D002E012EEA2D352E430844041B
:100C08000319072E082E1F2E2030AD004B08840034
:100C18002D08831380000130AD002D08CB07FF306D
:100C2800C3070318C40AFF30C40743084404031D5C
:100C38001E2E1F2E082E03304105AD000030420540
:100C4800AE002D082E0403192A2E2B2E352E2D30FA
:100C5800AD004B0884002D08831380000A128A1502
:100C6800B22C0130A807FF30280784000A168A151D
:100C780000200A128A11AD002D08CC004C08031D73
:100C8800462E492E0A128A15A52C4B088400831378
:100C980080010800031083120313220D230DF500B1
:100CA8007508AD002D08031D5A2E5B2E642E0030EA
:100CB800A3000030A2000030A1000030A0000B2FDC
:100CC8000310260D270DF5007508AC002C08031D30
:100CD8006E2E6F2E702E5B2EA217FF30A005FF30F0
:100CE800A105FF30A2050030A305A617FF30A40513
:100CF800FF30A505FF30A6050030A7050030AB0082
:100D08000030AA000030A9000030A8007F30AD02F2
:100D1800A0302C07F5007508AD022030F5007508E5
:100D2800AC000130F5000310A80DA90DAA0DAB0DFC
:100D3800F50B972E27082302031DAC2E2608220246
:100D4800031DAC2E25082102031DAC2E2408200209
:100D5800031CAF2EB02EBF2E2408A0022508031CAA
:100D6800250FA1022608031C260FA2022708031C30
:100D7800270FA30228140130F5000310A00DA10DC0
:100D8800A20DA30DF50BC12E0130AC02031DCD2E13
:100D9800CE2E952EAD1FD12ED22EEC2E2D08803AB8
:100DA8009F3E0318D82ED92EDA2E5B2E0130031061
:100DB800AB0CAA0CA90CA80CFF3E031DDB2E0130BE
:100DC800F5007508AD07031DEA2EEB2EDA2E032F6A
:100DD80020302D02031CF12EF22EFE2E5B2E013048
:100DE800F5000310A80DA90DAA0DAB0DF50BF52EF6
:100DF8000130AD022D08031D022F032FF32E2B08FF
:100E0800A3002A08A2002908A1002808A0000800B9
:100E1800831203132008A8002108A9002208AA00A9
:100E28000310290D2A0DAB002B08B1003108031D52
:100E38001E2F1F2F282F0030A3000030A2000030E3
:100E4800A1000030A000C82F2408A8002508A90088
:100E58002608AA000310290D2A0DAB002B08B000A4
:100E68003008031D382F392F3A2F1F2FA117FF30B5
:100E7800A005FF30A1050030A205A517FF30A40585
:100E8800FF30A5050030A6050030AF000030AE00E9
:100E98000030AD000030AC007F30B1029830300730
:100EA800A8002808B1021830A8002808B0000130AE
:100EB800A8000310AC0DAD0DAE0DAF0DA80B5D2F46
:100EC80026082202031D6E2F25082102031D6E2FFE
:100ED80024082002031C712F722F7D2F2408A002E2
:100EE8002508031C250FA1022608031C260AA202B6
:100EF8002C1401300310A00DA10DA20DFF3E031DFF
:100F08007E2F0130B002031D8A2F8B2F5B2FB11F5C
:100F18008E2F8F2FA92F3108803A973E0318952FCF
:100F2800962F972F1F2F01300310AF0CAE0CAD0C6E
:100F3800AC0CFF3E031D982F0130A8002808B1070C
:100F4800031DA72FA82F972FC02F18303102031C7D
:100F5800AE2FAF2FBB2F1F2F0130A8000310AC0DF1
:100F6800AD0DAE0DAF0DA80BB22F0130B102310897
:100F7800031DBF2FC02FB02F2F08A3002E08A200DB
:100F88002D08A1002C08A000080083120313A60056
:100F9800A201A3017508A000A1012008A40021084E
:100FA800A500261CD82FD92FDF2F2408A207031845
:100FB800A30A2508A30701300310A40DA50DFF3EC1
:100FC800031DE02F0310A60C2608031DEC2FED2FA0
:100FD800D52F2308F6002208F50008008312031312
:100FE80023082204210420040319FB2FFC2FFE2FC1
:060FF8008030A306080092
:101000000310831203135D0D5E0DDF005F08E50022
:101010006508031D0C280D2816280030DE0000305E
:10102000DD000030DC000030DB007B285B08DF00E7
:101030005C08E0005D08E1005E08E2001F3003107C
:10104000E20CE10CE00CDF0CFF3E031D1F285F08E3
:10105000E3006308E400DD17FF30DB05FF30DC054B
:10106000FF30DD050030DE059630E502E51F39284A
:101070003A2854286508803A973E031840284128AA
:1010800042280D2801300310DE0CDD0CDC0CDB0CDB
:10109000FF3E031D43280130DF005F08E507031D05
:1010A0005228532842286B2820306502031C5928F7
:1010B0005A2866280D280130DF000310DB0DDC0DF7
:1010C000DD0DDE0DDF0B5D280130E5026508031D37
:1010D0006A286B285B28640803196F2870287B280E
:1010E000DB09DC09DD09DE09DB0A0319DC0A031967
:1010F000DD0A0319DE0A080083120313A80028087A
:101100000319832884289828A31F872888289828CB
:101110002009AA002109AB002209AC002309AD0077
:10112000AA0A0319AB0A0319AC0A0319AD0AA028CD
:101130002308AD002208AC002108AB002008AA005B
:101140002308220421042004031DA728A828B1286D
:101150000030A3000030A2000030A1000030A00049
:1011600037299630A4002408A900C3280130A40020
:101170002408A90701300310AD0CAC0CAB0CAA0C71
:10118000FF3E031DBB28FE302D05031DC828C928BE
:10119000B628E5280130A4002408A9070130AA07D1
:1011A000003003180130AB07003003180130AC07E2
:1011B000003003180130AD0701300310AD0CAC0C4A
:1011C000AB0CAA0CFF3E031DDD28FF302D05031DCF
:1011D000EA28EB28CA28F7280130A9020130A40028
:1011E0000310AA0DAB0DAC0DAD0DA40BF028AC1B7C
:1011F000FA28FB28012902302902031800290129B5
:10120000EC282918042905290D29FF30AA05FF30EB
:10121000AB057F30AC05FF30AD050310A90C2908E4
:10122000A400A501A601A70118300310A40DA50D67
:10123000A60DA70DFF3E031D15292408AA042508A5
:10124000AB042608AC042708AD0428080319292993
:101250002A292F29A31F2D292E292F29AD172D0823
:10126000A3002C08A2002B08A1002A08A000080057
:1012700083120313DA00DA1F3E293F29EE2ADA0926
:10128000DA0A5A08803A123E031C47294829322AB2
:101290000A30A6000030A7005A08A200A301A21B32
:1012A000A3036430A0000030A1000A168A15D025DF
:1012B0000A128A15831203132108A9002008A80026
:1012C0000A168A15F3260A128A15831203132608B2
:1012D000CC0001300310CC0DFF3E031D6A29031022
:1012E0004C0D593E84000A168A1500200A128A15F0
:1012F000CD000A168A1500200A128A15CE000A1699
:101300008A1500200A128A15CF000A168A150020B5
:101310000A128A15D0005008B1004F08B0004E08DC
:10132000AF004D08AE006430A6000030A7005A0898
:10133000A800A901A81BA9030A168A15F3260A12F8
:101340008A15831203132608D10001300310D10D32
:10135000FF3E031DA6290310510D7D3E84000A1691
:101360008A1500200A128A15D2000A168A15002052
:101370000A128A15D3000A168A1500200A128A1545
:10138000D4000A168A1500200A128A15D5005508BD
:10139000B5005408B4005308B3005208B2000A164E
:1013A0008A119F240A128A15831203133108D90067
:1013B0003008D8002F08D7002E08D6000A30A00029
:1013C0000030A1005A08A200A301A21BA3030A1621
:1013D0008A15D0250A128A15831203132008CC001F
:1013E00001300310CC0DFF3E031DF12903104C0DFD
:1013F000353E84000A168A1500200A128A15CD008F
:101400000A168A1500200A128A15CE000A168A15B5
:1014100000200A128A15CF000A168A1500200A1227
:101420008A15D0005008B1004F08B0004E08AF0038
:101430004D08AE005908B5005808B4005708B3006D
:101440005608B2000A168A119F240A128A158312BE
:1014500003133108CB003008CA002F08C9002E083A
:10146000C8009A2C5A08803A753E031C382A392A3B
:10147000C12A0A30A0000030A1005A08A200A3012E
:10148000A21BA3030A168A15D0250A128A158312F5
:1014900003132008CC0001300310CC0DFF3E031DC8
:1014A0004C2A03104C0D353E84000A168A15002084
:1014B0000A128A15CD000A168A1500200A128A150A
:1014C000CE000A168A1500200A128A15CF000A16C5
:1014D0008A1500200A128A15D0005008B1004F0862
:1014E000B0004E08AF004D08AE000A30A600003034
:1014F000A7005A08A800A901A81BA9030A168A1563
:10150000F3260A128A15831203132608D10001302C
:101510000310D10DFF3E031D882A0310510D593EC3
:1015200084000A168A1500200A128A15D2000A16AB
:101530008A1500200A128A15D3000A168A1500207F
:101540000A128A15D4000A168A1500200A128A1572
:10155000D5005508B5005408B4005308B30052082C
:10156000B2000A168A119F240A128A1583120313E5
:101570003108CB003008CA002F08C9002E08C80067
:101580009A2C5A08CC0001300310CC0DFF3E031DED
:10159000C42A03104C0D353E84000A168A1500201B
:1015A0000A128A15CD000A168A1500200A128A1519
:1015B000CE000A168A1500200A128A15CF000A16D4
:1015C0008A1500200A128A15D0005008CB004F0857
:1015D000CA004E08C9004D08C8009A2C5A08803A23
:1015E000123E031CF42AF52ADF2B0A30A600003035
:1015F000A7005A08A200A301A21BA3036430A00005
:101600000030A1000A168A15D0250A128A15831205
:1016100003132108A9002008A8000A168A15F3263A
:101620000A128A15831203132608CC000130031016
:10163000CC0DFF3E031D172B03104C0D253E8400DF
:101640000A168A1500200A128A15CD000A168A1574
:1016500000200A128A15CE000A168A1500200A12E6
:101660008A15CF000A168A1500200A128A15D000A2
:101670005008B1004F08B0004E08AF004D08AE0052
:101680006430A6000030A7005A08A800A901A81BD2
:10169000A9030A168A15F3260A128A158312031360
:1016A0002608D10001300310D10DFF3E031D532B3E
:1016B0000310510D493E84000A168A1500200A12B3
:1016C0008A15D2000A168A1500200A128A15D3003C
:1016D0000A168A1500200A128A15D4000A168A15DD
:1016E00000200A128A15D5005508B5005408B40028
:1016F0005308B3005208B2000A168A119F240A1236
:101700008A15831203133108D9003008D8002F0836
:10171000D7002E08D6000A30A0000030A1005A08D9
:10172000A200A301A21BA3030A168A15D0250A1240
:101730008A15831203132008CC0001300310CC0D4E
:10174000FF3E031D9E2B03104C0D013E84000A1624
:101750008A1500200A128A15CD000A168A15002063
:101760000A128A15CE000A168A1500200A128A1556
:10177000CF000A168A1500200A128A15D0005008D8
:10178000B1004F08B0004E08AF004D08AE00590838
:10179000B5005808B4005708B3005608B2000A163E
:1017A0008A119F240A128A15831203133108CB0071
:1017B0003008CA002F08C9002E08C8009A2C5A0801
:1017C000803A753E031CE52BE62B6E2C0A30A000F8
:1017D0000030A1005A08A200A301A21BA3030A160D
:1017E0008A15D0250A128A15831203132008CC000B
:1017F00001300310CC0DFF3E031DF92B03104C0DDF
:10180000013E84000A168A1500200A128A15CD00AE
:101810000A168A1500200A128A15CE000A168A15A1
:1018200000200A128A15CF000A168A1500200A1213
:101830008A15D0005008B1004F08B0004E08AF0024
:101840004D08AE000A30A6000030A7005A08A800D4
:10185000A901A81BA9030A168A15F3260A128A15DC
:10186000831203132608D10001300310D10DFF3E6F
:10187000031D352C0310510D253E84000A168A15D0
:1018800000200A128A15D2000A168A1500200A12B0
:101890008A15D3000A168A1500200A128A15D40068
:1018A0000A168A1500200A128A15D5005508B500B7
:1018B0005408B4005308B3005208B2000A168A1143
:1018C0009F240A128A15831203133108CB003008B3
:1018D000CA002F08C9002E08C8009A2C5A08CC004C
:1018E00001300310CC0DFF3E031D712C03104C0D75
:1018F000013E84000A168A1500200A128A15CD00BE
:101900000A168A1500200A128A15CE000A168A15B0
:1019100000200A128A15CF000A168A1500200A1222
:101920008A15D0005008CB004F08CA004E08C900E5
:101930004D08C800080083160313CB00A930AD0082
:101940002D08B6000A128A11352E25304C060319CF
:10195000AA2CAB2CB72C4C08AD004B0884002D08EA
:10196000831380000130AD002D08CB07A22CC301EA
:10197000C401C101C201C12C41150130AD002D08C7
:10198000A807280884000A168A1500200A128A155A
:10199000AD00AE012E08003A0319CF2CD42C2D082F
:1019A000303A0319BC2CD42C280884000A168A1556
:1019B00000200A128A150A168A156E230A128A1541
:1019C000031CE32CE42C322D83160313C301C40142
:1019D0000A3083120313A0000030A1008316031302
:1019E000440883120313A3008316031343088312CE
:1019F0000313A2000A168A15CE230A128A1583122F
:101A00000313210883160313C40083120313200851
:101A100083160313C300280884000A168A150020C1
:101A20000A128A15D03EAD00FF3003180030AE0018
:101A30002D08C3070318C40A2E08C4070130AD00DF
:101A40002D08A807280884000A168A1500200A1203
:101A50008A150A168A156E230A128A150318312D63
:101A6000322DE82C83160313280884000A168A15E1
:101A700000200A128A152E3A031D3F2D402D932D6A
:101A800042170130AD002D08A807C901CA01822DF7
:101A90000A3083120313A0000030A1008316031341
:101AA0004A0883120313A300831603134908831201
:101AB0000313A2000A168A15CE230A128A1583126E
:101AC0000313210883160313CA008312031320088B
:101AD00083160313C900280884000A168A150020FB
:101AE0000A128A15D03EAD00FF3003180030AE0058
:101AF0002D08C9070318CA0A2E08CA070130AD000D
:101B00002D08A807280884000A168A1500200A1242
:101B10008A150A168A156E230A128A150318912D42
:101B2000922D482D992DC901CA014216992D4215B1
:101B3000B52D013083160313A807FF302807840052
:101B40000A168A1500200A128A15CC00AD00AE01D3
:101B50002E08003A0319AD2DA22C2D08003A0319C6
:101B6000FD2F663A0319972DA22C00304105AD00D8
:101B700007304205AE002D082E040319C02DC32DD9
:101B80000A128A11372D421EC62DC72DCB2D0630C5
:101B9000C9000030CA003608840083130008C5005D
:101BA000840A0008C600840A0008C700840A0008E6
:101BB000C8000430AD002D08B6074808831203138F
:101BC000A30083160313470883120313A20083168E
:101BD0000313460883120313A10083160313450859
:101BE00083120313A0000030A7000030A6000030CD
:101BF000A5000030A4000A168A155C270A128A156F
:101C00000318032E042E3D2E831603134808831257
:101C10000313A30083160313470883120313A200C0
:101C200083160313460883120313A10083160313BC
:101C3000450883120313A0000A128A11F2270A1220
:101C40008A1583120313230883160313C800831213
:101C50000313220883160313C700831203132108FA
:101C600083160313C600831203132008831603137D
:101C7000C5000330C1040030C20483160313BF0142
:101C8000C001480883120313A300831603134708F7
:101C900083120313A200831603134608831203134F
:101CA000A10083160313450883120313A00000301C
:101CB000A7000030A6000030A5000030A4000A16DE
:101CC0008A15DA240A128A150318672E682E942FB3
:101CD000031083160313470D480D823EBF00FF30EB
:101CE00003180030C000FF30BF070318C00AFF30E0
:101CF000C007033083120313A0000030A100831635
:101D00000313400883120313A300831603133F0831
:101D100083120313A2000A168A15CE230A128A150B
:101D200083120313210883160313C00083120313C5
:101D3000200883160313BF000A3083120313A60082
:101D40000030A70083160313400883120313A90071
:101D5000831603133F0883120313A8000A168A157B
:101D6000F3260A128A158312031327088316031316
:101D7000C00083120313260883160313BF00C01F7D
:101D8000C22EC32EC92EFF30BF070318C00AFF3072
:101D9000C0073F03FF3A0A128A1538210A128A1532
:101DA000831203134B0883160313BE00831203131D
:101DB0004A0883160313BD008312031349088316D0
:101DC0000313BC0083120313480883160313BB00DC
:101DD000480883120313B1008316031347088312C4
:101DE0000313B00083160313460883120313AF00D6
:101DF00083160313450883120313AE0083160313DF
:101E00003E0883120313B500831603133D088312A3
:101E10000313B400831603133C0883120313B300A7
:101E2000831603133B0883120313B2000A168A11A8
:101E30009F240A128A158312031331088316031391
:101E4000BE0083120313300883160313BD008312F0
:101E500003132F0883160313BC00831203132E08E9
:101E600083160313BB003E0883120313A3008316DB
:101E700003133D0883120313A200831603133C08C7
:101E800083120313A100831603133B088312031369
:101E9000A0003F30A7008030A6000030A500003031
:101EA000A4000A168A155C270A128A150318592FEE
:101EB0005A2F632FFF3083160313BF070318C00A7E
:101EC000FF30C007942F831603133E0883120313B9
:101ED000A300831603133D0883120313A200831685
:101EE00003133C0883120313A100831603133B085A
:101EF00083120313A0004130A7002030A600003059
:101F0000A5000030A4000A168A155C270A128A155B
:101F1000031C8B2F8C2F942F013083160313BF07C4
:101F20000318C00A0030C007831603134A08803A1A
:101F3000FF0080307F02031D9F2F0D3049020318E0
:101F4000A22FA32FEA2F8316031349080A168A111A
:101F50000A200A128A15831203134B08DF004A086D
:101F6000DE004908DD004808DC008316031348083A
:101F700083120313E300831603134708831203132A
:101F8000E20083160313460883120313E10083164D
:101F90000313450883120313E0000A168A1117225F
:101FA0000A128A15831203135F0883160313C800ED
:101FB000831203135E0883160313C70083120313EF
:101FC0005D0883160313C600831203135C0883168F
:101FD0000313C500831603134008803AFF008030C6
:101FE0007F02031DF52F0A303F020318FA2F0A1251
:101FF0008A111E280A128A117D280A128A11492E76
:10200000F500831203130C1E062807280128750803
:102010009900080083120313DB006E305B02031C7F
:102020001228132822293F30B1000030B0000030C0
:10203000AF000030AE006430A4000030A5005B08A3
:10204000CC00CD014C08A6004D08A7000A168A1541
:1020500094240A168A11831203132408CE00013037
:102060000310CE0DFF3E031D302803104E0D7D3EA4
:1020700084000A168A1500200A168A11CF000A1653
:102080008A1500200A168A11D0000A168A15002027
:102090000A168A11D1000A168A1500200A168A111A
:1020A000D2005208B5005108B4005008B3004F08E0
:1020B000B2000A168A119F240A168A11831203138A
:1020C0003108DA003008D9002F08D8002E08D700D0
:1020D0000A30A4000030A5005B08CC00CD014C08FC
:1020E000A2004D08A3006430A0000030A1000A1631
:1020F0008A1558240A168A11831203132108A7008F
:102100002008A6000A168A1594240A168A1183123A
:1021100003132408CE0001300310CE0DFF3E031D33
:102120008C2803104E0D593E84000A168A15002093
:102130000A168A11CF000A168A1500200A168A117B
:10214000D0000A168A1500200A168A11D1000A1634
:102150008A1500200A168A11D2005208B1005108CF
:10216000B0005008AF004F08AE005A08B50059083B
:10217000B4005808B3005708B2000A168A119F2409
:102180000A168A11831203133108D6003008D500CD
:102190002F08D4002E08D3000A30A0000030A10080
:1021A0005B08CC00CD014C08A2004D08A3000A1624
:1021B0008A1558240A168A11831203132008CE00A8
:1021C00001300310CE0DFF3E031DE12803104E0D1C
:1021D000353E84000A168A1500200A168A11CF009F
:1021E0000A168A1500200A168A11D0000A168A15C6
:1021F00000200A168A11D1000A168A1500200A1634
:102200008A11D2005208B1005108B0005008AF0046
:102210004F08AE005608B5005508B4005408B30086
:102220005308B2000A168A119F240A168A118312D3
:1022300003133108CB003008CA002F08C9002E084C
:10224000C800162A0B305B02031C27292829D32932
:102250003F30B1000030B0000030AF000030AE00C1
:102260000A30A4000030A5005B08CC00CD014C086A
:10227000A6004D08A7000A168A1594240A168A118A
:10228000831203132408CE0001300310CE0DFF3E4D
:10229000031D452903104E0D593E84000A168A1568
:1022A00000200A168A11CF000A168A1500200A1685
:1022B0008A11D0000A168A1500200A168A11D10048
:1022C0000A168A1500200A168A11D2005208B50093
:1022D0005108B4005008B3004F08B2000A168A1122
:1022E0009F240A168A11831203133108DA0030087A
:1022F000D9002F08D8002E08D7000A30A0000030DF
:10230000A1005B08CC00CD014C08A2004D08A30041
:102310000A168A1558240A168A11831203132008F4
:10232000CE0001300310CE0DFF3E031D9229031095
:102330004E0D353E84000A168A1500200A168A11B1
:10234000CF000A168A1500200A168A11D0000A1634
:102350008A1500200A168A11D1000A168A15002053
:102360000A168A11D2005208B1005108B000500874
:10237000AF004F08AE005A08B5005908B40058081D
:10238000B3005708B2000A168A119F240A168A1150
:10239000831203133108CB003008CA002F08C9008C
:1023A0002E08C800162A3F30B1000030B0000030BF
:1023B000AF000030AE005B08CC0001300310CC0D44
:1023C000FF3E031DDE2903104C0D353E84000A1626
:1023D0008A1500200A168A11CD000A168A150020D7
:1023E0000A168A11CE000A168A1500200A168A11CA
:1023F000CF000A168A1500200A168A11D00050084C
:10240000B5004F08B4004E08B3004D08B2000A16DC
:102410008A119F240A168A11831203133108CB00F4
:102420003008CA002F08C9002E08C800080083120F
:1024300003135F088039E4006408EC005F08E400DF
:102440006407E5006508EE00DE1F272A282A292AEE
:102450006E146E0803192D2A2E2A3E2A6E0A031DB9
:10246000322A332A3B2A0030DF000030DE00003001
:10247000DD000030DC00DE17DF01462A0030DF001F
:102480000030DE000030DD000030DC006308803901
:10249000E4006408ED006D086C060319502A512A07
:1024A000522A6C176308E4006407E5006508ED0034
:1024B000E21F5B2A5C2A5D2A6D146D080319612AEC
:1024C000622A722A6D0A031D662A672A6F2A003063
:1024D000E3000030E2000030E1000030E000E217ED
:1024E000E3017A2A0030E3000030E2000030E1002E
:1024F0000030E0006E086D0203187F2A802AC42A8B
:102500006C1F832A842A882A8030E4006408EC0641
:102510006E08E4006408EF006D08E4006408EE0053
:102520006F08E4006408ED005C08E4006408EF0054
:102530006008E4006408DC006F08E4006408E00060
:102540005D08E4006408EF006108E4006408DD0051
:102550006F08E4006408E1005E08E4006408EF002E
:102560006208E4006408DE006F08E4006408E2002A
:102570005F08E4006408EF006308E4006408DF001B
:102580006F08E4006408E300EF016D08E400E50172
:102590006508E7006E086402E600031CE7036708AD
:1025A000803AFF0080307F02031DD82A1A3066026D
:1025B000031CDB2ADC2A192B831203135F085E0439
:1025C0005D045C04031DE52AE72A0130E82A003097
:1025D000E4006408EF000030DF000030DE0000306F
:1025E000DD000030DC006D08E4006408EE00212B03
:1025F0006F1CFB2AFC2A052B6F08E4000310640CF7
:102600000138E5006508EF00072B0310EF0C5C1C98
:102610000A2B0B2B0C2BEF170130E4005F0DDF0CA6
:10262000DE0CDD0CDC0CE40B0E2B0130E400640846
:10263000EE07831203136D086E02031C202B212B5F
:10264000F82A6C1B242B252B702B6E08031D292BBD
:102650002A2B332B0030DF000030DE000030DD009D
:102660000030DC009E2C6008DC07610803110318B1
:10267000013E03193C2BDD07620803110318013EDC
:102680000319432BDE07630803110318013E0319E6
:102690004A2BDF075F1C4D2B4E2B242C6F1C512B1C
:1026A000522B5B2B6F08E4000310640C0138E5002B
:1026B0006508EF005D2B0310EF0C5C1C602B612B99
:1026C000622BEF170130E4005F0DDF0CDE0CDD0C38
:1026D000DC0CE40B642B0130E4006408EE07242CCE
:1026E0005F08803AFF006308803A7F02031D822B57
:1026F00062085E02031D822B61085D02031D822BAE
:1027000060085C020318852B862BDE2BFF30E4006B
:10271000FF30E500FF30E600FF30E7006008E8002A
:102720006108E9006208EA006308EB005C08E8025F
:102730005D08031C5D0F9D2B9E2BE9025E08031CA8
:102740005E0FA32BA42BEA025F08031C5F0FA92BCB
:10275000AA2BEB026808E40769080318690FB12B7C
:10276000B22BE5076A0803186A0FB72BB82BE607E8
:102770006B0803186B0AE7076708DF006608DE00CE
:102780006508DD006408DC008030E4006408EC06C5
:10279000EF09EF0A6F08031DCE2BCF2BEC2B013076
:1027A000DC07003003180130DD070030031801306A
:1027B000DE07003003180130DF07EC2B6008DC0275
:1027C0006108031C610FDD026208031C620FDE0258
:1027D0006308031C630FDF025F085E045D045C0492
:1027E000031DF32BF42B202C6F08031DF82BF92B62
:1027F000202C0030DF000030DE000030DD00003033
:10280000DC009E2C0130E4000310DC0DDD0DDE0D3C
:10281000DF0DE40B042CEF1F0E2C0F2C102C5C147E
:102820006F1C132C142C172C0314EF0D192C0310F0
:10283000EF0D6E0803191D2C1E2C202C0130EE020A
:10284000DE1F232C242C022CED01EF1F282C292C19
:10285000372C6F087F3903192E2C2F2C322CED01C9
:10286000ED0A372C5C1C352C362C372C2F2C6D08A0
:1028700003193B2C3C2C702C0130DC070030031872
:102880000130DD07003003180130DE070030031887
:102890000130DF075F1C4D2C4E2C702C5C08E400CF
:1028A0005D08E5005E08E6005F08E7000130E8002B
:1028B000670DE70CE60CE50CE40CE80B582C6708F8
:1028C000DF006608DE006508DD006408DC006E0AD3
:1028D00003196B2C6C2C702C0130E4006408EE079B
:1028E0006E0A0319742C752C7A2C6E08031D792C32
:1028F0007A2C882C0030DF000030DE000030DD0054
:102900000030DC006E08031D862C872C882CEC011F
:102910006E1C8B2C8C2C8E2CDE17922C7F30E400BE
:102920006408DE056E08E4000310640CE500650829
:10293000DF00EC1F9C2C9D2C9E2CDF1708008312BF
:10294000031331088039B6003608BB003108B600E1
:102950003607B7003708C100B01FAF2CB02CB12C20
:10296000411441080319B52CB62CC52C410A031D8E
:10297000BA2CBB2CC32C0030B1000030B0000030AA
:10298000AF000030AE00B017CD2C0030B1000030E9
:10299000B0000030AF000030AE0035088039B6001E
:1029A0003608BB063508B6003607B7003708BC0046
:1029B000B41FDB2CDC2CDD2C3C143C080319E12C6F
:1029C000E22CF12C3C0A031DE62CE72CEF2C003006
:1029D000B5000030B4000030B3000030B200B417CE
:1029E000F92C0030B5000030B4000030B3000030E6
:1029F000B2003C080319FD2CFE2C032D4108031DD9
:102A0000022D032D0C2D0030B1000030B00000303D
:102A1000AF000030AE00FF2F2E08B6003608F500DC
:102A200034080A128A11C9270A168A1176088312F5
:102A30000313C7007508C6004608B600B701B80101
:102A4000B9013908C0003808BF003708BE00360891
:102A5000BD004708B600B701B801B9013908C50083
:102A60003808C4003708C3003608C2002F08B60073
:102A70003608F50033080A128A11C9270A168A1186
:102A8000760883120313C7007508C6004608B6000F
:102A9000B701B801B9013608BD073708031103189B
:102AA000013E0319542DBE07380803110318013ED7
:102AB00003195B2DBF07390803110318013E0319E1
:102AC000622DC0074708B600B701B801B901360842
:102AD000C207370803110318013E0319702DC307FD
:102AE000380803110318013E0319772DC40739086C
:102AF00003110318013E03197E2DC5073008B600E7
:102B00003608F50032080A128A11C9270A168A11F6
:102B1000760883120313C7007508C6004608B6007E
:102B2000B701B801B9013608BD073708031103180A
:102B3000013E03199C2DBE07380803110318013EFE
:102B40000319A32DBF07390803110318013E031908
:102B5000AA2DC0074708B600B701B801B901360869
:102B6000C207370803110318013E0319B82DC30724
:102B7000380803110318013E0319BF2DC407390893
:102B800003110318013E0319C62DC5070830B6000E
:102B90000310BD0DBE0DBF0DC00DB60BC82D2F0807
:102BA000B6003608F50032080A128A11C9270A163B
:102BB0008A11760883120313C7007508C6004608F9
:102BC000B6004708B700B801B9013608BD07370895
:102BD00003110318013E0319EE2DBE073808031137
:102BE0000318013E0319F52DBF0739080311031817
:102BF000013E0319FC2DC0072E08B6003608F5006B
:102C000033080A128A11C9270A168A117608831214
:102C10000313C7007508C6004608B6004708B7008A
:102C2000B801B9013608BD07370803110318013E82
:102C300003191B2EBE07380803110318013E0319A0
:102C4000222EBF07390803110318013E0319292E4C
:102C5000C0070830B6000310BD0DBE0DBF0DC00D7E
:102C6000B60B2B2E2E08B6003608F50032080A12D5
:102C70008A11C9270A168A11760883120313C7001E
:102C80007508C6004608B6004708B700B801B90184
:102C90003608BD07370803110318013E0319512EEA
:102CA000BE07380803110318013E0319582EBF0749
:102CB000390803110318013E03195F2EC0072F08BE
:102CC000B6003608F50034080A128A11C9270A1618
:102CD0008A11760883120313C7007508C6004608D8
:102CE000B6004708B700B801B9013608C20737086F
:102CF00003110318013E03197E2EC3073808031180
:102D00000318013E0319852EC4073908031103185F
:102D1000013E03198C2EC5073008B6003608F500B1
:102D200033080A128A11C9270A168A1176088312F3
:102D30000313C7007508C6004608B6004708B70069
:102D4000B801B9013608C207370803110318013E5C
:102D50000319AB2EC307380803110318013E0319EA
:102D6000B22EC407390803110318013E0319B92E06
:102D7000C5073008B6003608F50034080A128A1173
:102D8000C9270A168A11760883120313C70075082B
:102D9000C6004608B6004708B700B801B9010830B8
:102DA0000310B60DB70DB80DB90DFF3E031DD02EA3
:102DB0003608C207370803110318013E0319E12E34
:102DC000C307380803110318013E0319E82EC4078E
:102DD000390803110318013E0319EF2EC5073D08FA
:102DE000B6003E08B7003F08B8004008B9001830E8
:102DF0000310B90CB80CB70CB60CFF3E031DF82E2F
:102E00003608C207370803110318013E0319092FBA
:102E1000C307380803110318013E0319102FC40714
:102E2000390803110318013E0319172FC50708308D
:102E3000B6000310BD0DBE0DBF0DC00DB60B192F92
:102E400041083C07B600B701B70D3608823EC60000
:102E500037080318013EFF3EC7004B2F0130B60074
:102E60000310C20DC30DC40DC50DB60B302FC01F0E
:102E70003A2F3B2F3C2F42140130B6000310BD0DFA
:102E8000BE0DBF0DC00DB60B3E2FFF30C607031899
:102E9000C70AFF30C707C41F4E2F4F2F2E2FBC016C
:102EA000C01F532F542F702FFF303D05B600FF3049
:102EB0003E05B700FF303F05B8007F304005B90040
:102EC00039083804370436040319672F682F6B2F2D
:102ED000BC01BC0A702F421C6E2F6F2F702F682F01
:102EE0003C080319742F752FA62F0130C20700303C
:102EF00003180130C307003003180130C407003045
:102F000003180130C507451C862F872FA62F4208BE
:102F1000B6004308B7004408B8004508B9000130BE
:102F2000BA00390DB90CB80CB70CB60CBA0B912F0E
:102F30003908C5003808C4003708C3003608C20085
:102F40000130C6070318C70A0030C7074708803A90
:102F5000FF0080307F02031DAF2FFF304602031CAD
:102F6000B22FB32FBE2F7F3083120313C5008030E2
:102F7000C4000030C3000030C200F32F83120313DB
:102F80004708803AFF0080307F02031DC92F0130BF
:102F900046020318CC2FCD2FD92F003083120313F4
:102FA000C5000030C4000030C3000030C200BB01C7
:102FB000F32F831203134608B6003608C100FF3012
:102FC000C205FF30C3057F30C4050030C505411C74
:102FD000EA2FEB2FEC2FC4174108B6000310360C74
:102FE000B7003708C5003B08B6003608C5044508D9
:102FF000B1004408B0004308AF004208AE0008002A
:1030000018308A000408840A82070034003400342F
:1030100080343F34003400342034413400340034F0
:10302000C8344234003400347A34443400344034F8
:103030001C34463400345034C33447340034243410
:10304000743449348034963418344B342034BC34CE
:10305000BE344C3428346B346E344E34F93402347C
:1030600015345034EC347834AD346034CA34F2342E
:10307000493471340034003480343F34CD34CC349E
:10308000CC343D340A34D73423343C346F341234D6
:1030900083343A341734B734D1343834AC34C5348B
:1030A00027343734BD343734863435349534BF341F
:1030B000D63433347734CC342B3432345F347034F8
:1030C00089343034FF34E634DB342E340834E534CC
:1030D0003C341E3460344234A2340D3401340034A4
:1030E000003400340A3400340034003464340034D2
:1030F00000340034E834033400340034103427340E
:1031000000340034A0348634013400344034423476
:103110000F34003480349634983400340034E13471
:10312000F53405340034CA349A343B342534303411
:083130002E3430346634003403
:1036A4007030831603138F040F140800033083163D
:1036B400031396000B1008008B170B1783160313C4
:1036C4008C168B150B10080064008001840A040614
:1036D400031900340406672BF600F5013A3076022C
:1036E4000318752B762B7E2B30307602031C7B2B34
:1036F4007C2B7E2BF501F50A750C08008316031745
:103704008801890183160313850186018801061443
:1037140086148113033095008312031386018801F4
:10372400850108008316031318121815831603174E
:103734008715CF308316031399009A01831203135C
:103744009817181318168316031398160800831273
:103754000313A200A001A101C22B20082207F60036
:103764007608840000080A168A1100200A168A15B1
:10377400013083120313A0070318A10A0030A10724
:1037840020082207F6007608840083130008031D2E
:10379400CC2BCD2BAF2B0800F501F60183120313BC
:1037A400201CD52BD62BDC2B2208F5070318F60A90
:1037B4002308F60701300310A20DA30DFF3E031DDD
:1037C400DD2B01300310A10CA00CFF3E031DE42BE4
:1037D40020082104031DEF2BF02BD02B7608A10029
:1037E4007508A000080083120313BA003A08B20057
:1037F400B301B401B5013508A3003408A2003308AD
:10380400A1003208A00001300A128A157C200A1691
:103814008A15831203132308B9002208B80021086B
:10382400B7002008B6003908B1003808B0003708DE
:10383400AF003608AE000800831203138C1E232C3D
:10384400242C372C0C3099000D3099001A0888006C
:103854001530F2004B30F100BE30F000F00B302C8C
:10386400F10B302CF20B302C00000B1C3A2C3B2CAF
:10387400512C831203130618402C412C472C013081
:10388400F000700883160313D807831286184B2C94
:103894004C2C502C013083160313D8020B107408DF
:1038A4008A00730E8300FE0E7E0E0900831203133A
:1038B4002008210403195F2C602C8F2CF601F60AD2
:1038C4006E2C01300310A00DA10DFF3E031D642CCE
:1038D4000130F5007508F607A11F712C722C632CBA
:1038E40021082302031D782C20082202031C7B2CB0
:1038F4007C2C822C2008A2022108031CA303A3020F
:1039040001300310A10CA00CFF3E031D832C0130D9
:10391400F602031D8E2C8F2C722C2308A100220882
:10392400A000080083120313A901AA012408250496
:1039340003199D2C9E2CD52CAB01AB0AAC2C013069
:103944000310A40DA50DFF3E031DA22C0130A800F9
:103954002808AB07A51FAF2CB02CA12C01300310F5
:10396400A90DAA0DFF3E031DB12C25082702031D36
:10397400BD2C24082602031CC02CC12CC82C2408EE
:10398400A6022508031CA703A7022914013003106B
:10399400A50CA40CFF3E031DC92C0130AB02031D72
:1039A400D42CD52CB02C2A08A5002908A400080082
:1039B4000030831203132005A80000302105A9005C
:1039C40080302205AA007F302305AB002B082A048F
:1039D40029042804031DEF2CF02CF82C0030A3003C
:1039E4000030A2000030A1000030A0000030240507
:1039F400A80000302505A90080302605AA007F30E4
:103A04002705AB002B082A0429042804031D0B2DC9
:103A14000C2D142D0030A7000030A6000030A500A6
:103A24000030A40027082306031D222D26082206A1
:103A3400031D222D25082106031D222D24082006FE
:103A44000319252D262D282D0310292D03140800D4
:103A5400803083160313A306270883120313DF00A1
:103A640083160313260883120313DE00831603133D
:103A7400250883120313DD0083160313240883121D
:103A84000313DC0083160313230883120313E300D8
:103A940083160313220883120313E200831603130D
:103AA400210883120313E1008316031320088312F1
:103AB4000313E0000A168A1117220A168A158312C4
:103AC40003135F0883160313A300831203135E0812
:103AD40083160313A200831203135D0883160313D2
:103AE400A100831203135C0883160313A0000800CB
:103AF4008312031323082204210420040319832DB1
:103B0400842DC72DF601F60A942D0130F50003101B
:103B1400A00DA10DA20DA30DF50B892D0130F5000B
:103B24007508F607A31F972D982D872D23082702C4
:103B3400031DA62D22082602031DA62D21082502F9
:103B4400031DA62D20082402031CA92DAA2DB82D7F
:103B54002008A4022108031C210FA5022208031C2B
:103B6400220FA6022308031C230FA702013003100F
:103B7400A30CA20CA10CA00CFF3E031DB92D013017
:103B8400F602031DC62DC72D982D2708A30026086D
:103B9400A2002508A1002408A00008008312031332
:103BA400A501A31FD62DD72DDE2DA209A309A20A94
:103BB4000319A30AA501A50AA11FE12DE22DE72DF2
:103BC400A009A109A00A0319A10A200821040319C4
:103BD400EC2DED2D1C2EA401A40AFB2D01300310A5
:103BE400A00DA10DFF3E031DF12D0130F500750858
:103BF400A407A11FFE2DFF2DF02D21082302031D74
:103C0400052E20082202031C082E092E0F2E200840
:103C1400A2022108031CA303A30201300310A10C78
:103C2400A00CFF3E031D102E0130A402031D1B2E09
:103C34001C2EFF2D25080319202E212E262EA20925
:103C4400A309A20A0319A30A2308A1002208A000B9
:103C540008000A168A1580230A168A150A168A1578
:103C64005E230A168A150A168A1558230A168A1517
:103C74000A168A1594230A168A150A168A155223D7
:103C84000A168A158316031358080A168A15F5238B
:103C94000A168A1583120313310883160313E600E8
:103CA40083120313300883160313E50083120313EE
:103CB4002F0883160313E400831203132E088316BC
:103CC4000313E3009130CD004D08A8006608AC0052
:103CD4006508AB006408AA006308A900D9300A1279
:103CE4008A159B240A168A150C3083120313990033
:103CF400D9300A168A15A9230A168A15A5308316FF
:103D04000313CD00CD0B842E872E442E0A128A1164
:103D14000C28003083120313AB000030AA000030DB
:103D2400A9000030A8002308220421042004031958
:103D34009C2E9D2EEA2EAC01AC0AAD2E0130F5006E
:103D44000310A00DA10DA20DA30DF50BA22E0130A1
:103D5400F5007508AC07A31FB02EB12EA02E0130BC
:103D6400F5000310A80DA90DAA0DAB0DF50BB32E8C
:103D740023082702031DC82E22082602031DC82E6D
:103D840021082502031DC82E20082402031CCB2E63
:103D9400CC2EDB2E2008A4022108031C210FA5022F
:103DA4002208031C220FA6022308031C230FA702C8
:103DB400281401300310A30CA20CA10CA00CFF3E8C
:103DC400031DDC2E0130AC02031DE92EEA2EB12EB8
:103DD4002B08A3002A08A2002908A1002808A00093
:103DE400080083120313AB01A71FF92EFA2E012F2B
:103DF400A609A709A60A0319A70AAB01AB0AA91FBA
:103E0400042F052F0E2FA809A909A80A0319A90A26
:103E14000130F6007608AB06AC01AD012608270494
:103E24000319152F162F4D2FAA01AA0A242F01308A
:103E34000310A60DA70DFF3E031D1A2F0130F60037
:103E44007608AA07A71F272F282F192F0130031040
:103E5400AC0DAD0DFF3E031D292F27082902031DBC
:103E6400352F26082802031C382F392F402F260807
:103E7400A8022708031CA903A9022C14013003106B
:103E8400A70CA60CFF3E031D412F0130AA02031DFF
:103E94004C2F4D2F282F2B080319512F522F572FFA
:103EA400AC09AD09AC0A0319AD0A2D08A7002C080A
:103EB400A60008000030831203132005A800003078
:103EC4002105A90080302205AA007F302305AB001C
:103ED4002B082A0429042804031D712F722F7A2F1A
:103EE4000030A3000030A2000030A1000030A00088
:103EF40000302405A80000302505A90080302605DF
:103F0400AA007F302705AB002B082A0429042804C3
:103F1400031D8D2F8E2F962F0030A7000030A60092
:103F24000030A5000030A400A31F992F9A2FBE2FA4
:103F34000030A8000030A9000030AA008030AB0097
:103F44002008A8022108031C210FA92FAA2FA902C7
:103F54002208031C220FAF2FB02FAA022308031C30
:103F6400230FB52FB62FAB022B08A3002A08A200FB
:103F74002908A1002808A000A71FC12FC22FE62FDF
:103F84000030A8000030A9000030AA008030AB0047
:103F94002408A8022508031C250FD12FD22FA9021B
:103FA4002608031C260FD72FD82FAA022708031C84
:103FB400270FDD2FDE2FAB022B08A7002A08A6004F
:103FC4002908A5002808A4008030A3068030A7068D
:103FD40027082302031DF82F26082202031DF82FA9
:103FE40025082102031DF82F240820020318FB2FA3
:0C3FF400FC2FFE2F0310FF2F0314080009
:04400E00D420FF3F7C
:00000001FF
