:020000040000FA
:060000000A128A110C280F
:10000800FE00030EF1000A08F2000A168A15672C92
:100018000A128A110F28F901FA018313D5308400D6
:10002800EA300A168A1100200A128A1183010A1678
:100038008A15EC2E83160313500883120313A300AA
:10004800831603134F0883120313A20083160313A6
:100058004E0883120313A100831603134D0883125D
:100068000313A0000030A7000030A6000030A50050
:100078000030A4000A168A151A250A128A110318D4
:100088004628472829298316031350088312031387
:10009800DA00831603134F0883120313D90083165B
:1000A80003134E0883120313D800831603134D0855
:1000B80083120313D7000A128A1504200A128A1120
:1000C800831203135A08590458045704031D6D2852
:1000D8006E282929831603134808803AFF008030C8
:1000E8007F02031D792802304702031C7C287D28E3
:1000F800292983160313460883120313A3008316C2
:100108000313450883120313A2008316031344083C
:1001180083120313A10083160313430883120313E6
:10012800A0004030A7008930A6007030A5005F30DD
:10013800A4000A168A155C270A128A110318A52832
:10014800A628AF28F73083160313C7070318C80A71
:10015800FF30C807B728F83083160313C7070318FA
:10016800C80AFF30C80747080A128A159D240A12D0
:100178008A1183120313470883160313C6008312D8
:100188000313460883160313C50083120313450897
:1001980083160313C400831203134408831603133E
:1001A800C300500883120313A300831603134F08D8
:1001B80083120313A200831603134E08831203133A
:1001C800A100831603134D0883120313A00083169E
:1001D8000313460883120313A70083160313450865
:1001E80083120313A6008316031344088312031310
:1001F800A50083160313430883120313A4000A12ED
:100208008A1132260A128A118312031323088316CD
:100218000313C20083120313220883160313C100B9
:1002280083120313210883160313C00083120313D8
:10023800200883160313BF000030D0000030CF0021
:100248000030CE000030CD008F29831603135008EC
:1002580083120313DA00831603134F088312031360
:10026800D900831603134E0883120313D80083168C
:1002780003134D0883120313D7000A128A150420AA
:100288000A128A11831203135A0883160313C20031
:1002980083120313590883160313C100831203132F
:1002A800580883160313C0008312031357088316D4
:1002B8000313BF004208F6004108F5004008F400A7
:1002C8003F08F30000300A128A1580200A128A11AA
:1002D800760883160313A3007508A2007408A1000A
:1002E8007308A0005008A7004F08A6004E08A500F4
:1002F8004D08A4000A128A11AD270A128A11831622
:1003080003132308D0002208CF002108CE002008BC
:10031800CD00C701C801D401D40A5408B500013082
:100328000310B50DFF3E031D94290310350D693EDA
:1003380084000A168A1500200A128A11B6000A16C5
:100348008A1500200A128A11B7000A168A15002099
:100358000A128A11B8000A168A1500200A128A1190
:10036800B90039084202031DC32938084102031D98
:10037800C32937084002031DC32936083F02031862
:10038800C629C729C829D2290130B5003508D4079C
:100398000A305406031DD129D2299129540851073E
:1003A800B50052080318520AB60047083507B700C7
:1003B80048080318480A3607B8003708CB02380837
:1003C800031CCC03CC02510852040319EC29ED2973
:1003D800F329FF30CB070318CC0AFF30CC070330D2
:1003E8004905B50000304A05B6003508360403193A
:1003F800FE29FF29052AFF30CB070318CC0AFF3056
:10040800CC07491D082A092A552A03304905B50091
:1004180000304A05B600350836040319142A152A8F
:10042800342A2D30B5005308840035088313800022
:100438000130B5003508D307342A3030831603134A
:10044800B500530884003508831380000130B500D7
:100458003508D307FF30CB070318CC0AFF30CC0789
:100468004C08803AFF0080307F02031D3D2A01308E
:100478004B020318402A412A212A222B20308316B6
:100488000313B50053088400350883138000013036
:10049800B5003508D307FF30CB070318CC0AFF3067
:1004A800CC074C08803AFF0080307F02031D5E2A8B
:1004B80001304B020318612A622A422A033083164C
:1004C80003134905B50000304A05B600350836045F
:1004D80003196F2A702A222B2D30B5005308840087
:1004E8003508831380000130B5003508D307222B67
:1004F8005408B50001300310B50DFF3E031D7F2AD7
:100508000310350D693E84000A168A1500200A1268
:100518008A1183120313A0000A168A1500200A12F2
:100528008A11A1000A168A1500200A128A11A2004F
:100538000A168A1500200A128A11A30083160313CB
:10054800420883120313A70083160313410883127A
:100558000313A60083160313400883120313A50090
:10056800831603133F0883120313A4000A168A157F
:100578001B260A128A1183120313230883160313F6
:10058800C60083120313220883160313C5008312BF
:100598000313210883160313C400831203132008CE
:1005A80083160313C300003083120313A300003023
:1005B800A2000030A1000A30A000831603134608E9
:1005C80083120313A700831603134508831203132A
:1005D800A60083160313440883120313A500831689
:1005E8000313430883120313A4000A168A156A2505
:1005F8000A128A1183120313230883160313C600F1
:1006080083120313220883160313C50083120313EE
:10061800210883160313C4008312031320088316CA
:100628000313C3004308303EB5005308840035085F
:10063800831380000130B5003508D30701308316D5
:100648000313D402540A031D2A2B2B2B7C2A3F2B7D
:10065800303083160313B50053088400350883131C
:1006680080000130B5003508D307FF30C7070318ED
:10067800C80AFF30C8074808803AFF0080307F0268
:10068800031D482B0130470203184B2B4C2B2C2BF6
:10069800831603135208803AFF0080307F02031D3F
:1006A800572B09305102031C5A2B5B2B622B083045
:1006B80083160313B5003508D400682B831603137B
:1006C8005108B5003508D4005408B500B6013508FE
:1006D800D1023608031CD203D20254080319752B21
:1006E800762B812B2E30B5005308840035088313F0
:1006F80080000130B5003508D30754080A128A155E
:100708009D240A128A1183120313470883160313C0
:10071800BD0083120313460883160313BC0083121B
:100728000313450883160313BB00831203134408FD
:1007380083160313BA003D0883120313B10083160E
:1007480003133C0883120313B000831603133B08FA
:1007580083120313AF00831603133A08831203139B
:10076800AE0083160313500883120313AD008316DB
:1007780003134F0883120313AC00831603134E08A8
:1007880083120313AB00831603134D08831203135C
:10079800AA000A128A153C210A128A11831203132D
:1007A8002D08DA002C08D9002B08D8002A08D70011
:1007B8000A128A1504200A128A11831203135A088E
:1007C80083160313C20083120313590883160313F5
:1007D800C10083120313580883160313C000831241
:1007E8000313570883160313BF00FB2C5408B500E6
:1007F80001300310B50DFF3E031DFD2B0310350D11
:10080800693E84000A168A1500200A128A1183128A
:100818000313A0000A168A1500200A128A11A100E3
:100828000A168A1500200A128A11A2000A168A15C9
:1008380000200A128A11A3008316031342088312A8
:100848000313A70083160313410883120313A6009A
:1008580083160313400883120313A500831603139A
:100868003F0883120313A4000A168A151B260A12CE
:100878008A1183120313230883160313C6008312F5
:100888000313220883160313C500831203132108D8
:1008980083160313C400831203132008831603135B
:1008A800C300003083120313A3000030A2000030FD
:1008B800A1000A30A000831603134608831203130D
:1008C800A70083160313450883120313A600831693
:1008D8000313440883120313A50083160313430864
:1008E80083120313A4000A168A156A250A128A11AC
:1008F80083120313230883160313C60083120313FA
:10090800220883160313C5008312031321088316D4
:100918000313C40083120313200883160313C300B0
:100928004308303EB500530884003508831380001F
:100938000130B5003508D3075408B500013003105D
:10094800B50DFF3E031DA32C0310350D693E840031
:100958000A168A1500200A128A1183120313A000AE
:100968000A168A1500200A128A11A1000A168A1589
:1009780000200A128A11A2000A168A1500200A12FB
:100988008A11A30083160313420883120313A700D6
:1009980083160313410883120313A6008316031357
:1009A800400883120313A500831603133F0883121C
:1009B8000313A4000A168A156A250A128A118312DB
:1009C8000313230883160313C20083120313220898
:1009D80083160313C100831203132108831603131C
:1009E800C00083120313200883160313BF000130CD
:1009F800D402540A031D012D022DFA2B142D303078
:100A0800B500530884003508831380000130B50011
:100A18003508D307FF30D1070318D20AFF30D207B1
:100A280051085204031D192D1A2D032D192E510892
:100A38005204031D202D212D2F2D4208410440046E
:100A48003F04031D282D292D2F2D0130D107031810
:100A5800D20A0030D2075208803A803C031D362D56
:100A6800510854020318392D3A2D412D83160313CA
:100A78005108B5003508D400592D831603135208C0
:100A8800803AB50080303502031D4C2D54085102C0
:100A980003184F2D502D592D831603135408B500F4
:100AA800B6013508D1003608D200831603134B0867
:100AB8004C040319602D612D732D03304905B500D1
:100AC80000304A05B6003508360403196C2D6D2D23
:100AD800732DFF30CB070318CC0AFF30CC074A1F11
:100AE800762D772D922D5208803AB5004C08803A21
:100AF8003502031D812D4B0851020318842D852DC5
:100B08008E2D831603135108CB025208031CCC0305
:100B1800CC02922D83160313CB01CC014C08803AEA
:100B2800803C031D992D4B08540203189C2D9D2DC4
:100B3800A92D831603135408B500B6013508CB0256
:100B48003608031CCC03CC02AD2D83160313CB014E
:100B5800CC01491DB02DB12DE62D03304905B50056
:100B680000304A05B600350836040319BC2DBD2DE2
:100B7800C82D2D30B5005308840035088313800034
:100B88000130B5003508D3074B084C040319CD2DA7
:100B9800CE2D192E3030B500530884003508831344
:100BA80080000130B5003508D307FF30CB070318A4
:100BB800CC0AFF30CC074B084C04031DE42DE52D6F
:100BC800CE2D192E4B084C040319EB2DEC2D032EBA
:100BD8002030B500530884003508831380000130A5
:100BE800B5003508D307FF30CB070318CC0AFF3010
:100BF800CC074B084C04031D022E032EEC2D0330AA
:100C08004905B50000304A05B60035083604031911
:100C18000E2E0F2E192E2D30B500530884003508DE
:100C2800831380000A168A11FA2C0130A807FF30B6
:100C3800280784000A168A1500200A128A11B500AE
:100C48003508D4005408031D2A2E2D2E0A168A11A1
:100C5800ED2C5308840083138001080003108312CD
:100C68000313220D230DF3007308AD002D08031D97
:100C78003E2E3F2E482E0030A3000030A200003048
:100C8800A1000030A000EF2E0310260D270DF30061
:100C98007308AC002C08031D522E532E542E3F2EE1
:100CA800A217FF30A005FF30A105FF30A2050030D4
:100CB800A305A617FF30A405FF30A505FF30A6053C
:100CC8000030A7050030AB000030AA000030A900B2
:100CD8000030A8007F30AD02A0302C07F300730865
:100CE800AD022030F3007308AC000130F3000310AC
:100CF800A80DA90DAA0DAB0DF30B7B2E2708230217
:100D0800031D902E26082202031D902E250821027D
:100D1800031D902E24082002031C932E942EA32E2C
:100D28002408A0022508031C250FA1022608031C7D
:100D3800260FA2022708031C270FA302281401303C
:100D4800F3000310A00DA10DA20DA30DF30BA52E0A
:100D58000130AC02031DB12EB22E792EAD1FB52E77
:100D6800B62ED02E2D08803A9F3E0318BC2EBD2EDD
:100D7800BE2E3F2E01300310AB0CAA0CA90CA80CF8
:100D8800FF3E031DBF2E0130F3007308AD07031D9E
:100D9800CE2ECF2EBE2EE72E20302D02031CD52EB0
:100DA800D62EE22E3F2E0130F3000310A80DA90D18
:100DB800AA0DAB0DF30BD92E0130AD022D08031D82
:100DC800E62EE72ED72E2B08A3002A08A200290812
:100DD800A1002808A0000800831203132008F300CC
:100DE8002108F4002208F5000310740D750DF600B3
:100DF8007608AD002D08031D022F032F0C2F00309D
:100E0800A3000030A2000030A1000030A000AC2FE9
:100E18002408F3002508F4002608F5000310740DD3
:100E2800750DF6007608AC002C08031D1C2F1D2F2D
:100E38001E2F032FA117FF30A005FF30A10500309A
:100E4800A205A517FF30A405FF30A5050030A605AB
:100E58000030AB000030AA000030A9000030A80024
:100E68007F30AD0298302C07F3007308AD021830BC
:100E7800F3007308AC000130F3000310A80DA90DAE
:100E8800AA0DAB0DF30B412F26082202031D522F8A
:100E980025082102031D522F24082002031C552F68
:100EA800562F612F2408A0022508031C250FA10234
:100EB8002608031C260AA202281401300310A00DDC
:100EC800A10DA20DFF3E031D622F0130AC02031DD0
:100ED8006E2F6F2F3F2FAD1F722F732F8D2F2D0861
:100EE800803A973E0318792F7A2F7B2F032F0130F2
:100EF8000310AB0CAA0CA90CA80CFF3E031D7C2FF9
:100F08000130F3007308AD07031D8B2F8C2F7B2F47
:100F1800A42F18302D02031C922F932F9F2F032FDD
:100F28000130F3000310A80DA90DAA0DAB0DF30BAA
:100F3800962F0130AD022D08031DA32FA42F942F47
:100F48002B08A3002A08A2002908A1002808A0004D
:100F58000800803083160313A3062708831203139F
:100F6800DB0083160313260883120313DA008316A3
:100F78000313250883120313D900831603132408C7
:100F880083120313D8008316031323088312031351
:100F9800DF0083160313220883120313DE0083166F
:100FA8000313210883120313DD008316031320089B
:100FB80083120313DC000A168A115B220A128A11B3
:100FC800831203135B0883160313A300831203130E
:100FD8005A0883160313A2008312031359088316B1
:100FE8000313A10083120313580883160313A000E8
:020FF8000800EF
:10100800031083120313590D5A0DDB005B08E1002E
:101018006108031D102811281A280030DA00003052
:10102800D9000030D8000030D7007F285708DB00EF
:101038005808DC005908DD005A08DE001F3003108C
:10104800DE0CDD0CDC0CDB0CFF3E031D23285B08EB
:10105800DF005F08E000D917FF30D705FF30D8055B
:10106800FF30D9050030DA059630E102E11F3D284E
:101078003E2858286108803A973E03184428452896
:101088004628112801300310DA0CD90CD80CD70CDB
:10109800FF3E031D47280130DB005B08E107031D05
:1010A8005628572846286F2820306102031C5D28DF
:1010B8005E286A2811280130DB000310D70DD80DEF
:1010C800D90DDA0DDB0B61280130E1026108031D3F
:1010D8006E286F285F2860080319732874287F28F2
:1010E800D709D809D909DA09D70A0319D80A031977
:1010F800D90A0319DA0A080083120313A400240882
:101108000319872888289C28F61F8B288C289C2858
:101118007309A6007409A7007509A8007609A90033
:10112800A60A0319A70A0319A80A0319A90AA428D1
:101138007608A9007508A8007408A7007308A60017
:101148007608750474047304031DAB28AC28B5280D
:101158000030F6000030F5000030F4000030F300F5
:101168003B299630A0002008A500C7280130A00020
:101178002008A50701300310A90CA80CA70CA60C81
:10118800FF3E031DBF28FE302905031DCC28CD28AE
:10119800BA28E9280130A0002008A5070130A607D1
:1011A800003003180130A707003003180130A807E2
:1011B800003003180130A90701300310A90CA80C4E
:1011C800A70CA60CFF3E031DE128FF302905031DCF
:1011D800EE28EF28CE28FB280130A5020130A00018
:1011E8000310A60DA70DA80DA90DA00BF428A81B88
:1011F800FE28FF280529023025020318042905299D
:10120800F0282518082909291129FF30A605FF30DB
:10121800A7057F30A805FF30A9050310A50C2508F0
:10122800A000A101A201A30118300310A00DA10D77
:10123800A20DA30DFF3E031D19292008A6042108AD
:10124800A7042208A8042308A904240803192D299F
:101258002E293329F61F312932293329A9172908BC
:10126800F6002808F5002708F4002608F30008000F
:10127800831203132D088039B2003208B7002D08F5
:10128800B2003207B3003308BD00AC1F4C294D290A
:101298004E293D143D0803195229532962293D0A54
:1012A800031D5729582960290030AD000030AC00D3
:1012B8000030AB000030AA00AC176A290030AD003E
:1012C8000030AC000030AB000030AA003108803993
:1012D800B2003208B7063108B2003207B30033084B
:1012E800BC00B01F782979297A293C143C080319D5
:1012F8007E297F298E293C0A031D832984298C296C
:101308000030B1000030B0000030AF000030AE0057
:10131800B01796290030B1000030B0000030AF009F
:101328000030AE003C0803199A299B29A0293D08E2
:10133800031D9F29A029A9290030AD000030AC0069
:101348000030AB000030AA009C2C2A08B2003208FA
:10135800F30030080A168A15B7240A128A15740889
:1013680083120313C3007308C2004208B200B3011A
:10137800B401B5013508BB003408BA003308B90018
:101388003208B8004308B200B301B401B50135080A
:10139800C1003408C0003308BF003208BE002B0863
:1013A800B2003208F3002F080A168A15B7240A1269
:1013B8008A15740883120313C3007308C200420815
:1013C800B200B301B401B5013208B80733080311FC
:1013D8000318013E0319F129B9073408031103184A
:1013E800013E0319F829BA07350803110318013E0D
:1013F8000319FF29BB074308B200B301B401B501C3
:101408003208BE07330803110318013E03190D2AD9
:10141800BF07340803110318013E0319142AC00733
:10142800350803110318013E03191B2AC1072C08AC
:10143800B2003208F3002E080A168A15B7240A12D9
:101448008A15740883120313C3007308C200420884
:10145800B200B301B401B5013208B807330803116B
:101468000318013E0319392AB90734080311031870
:10147800013E0319402ABA07350803110318013E33
:101488000319472ABB074308B200B301B401B501E9
:101498003208BE07330803110318013E0319552A01
:1014A800BF07340803110318013E03195C2AC0075B
:1014B800350803110318013E0319632AC1070830D0
:1014C800B2000310B80DB90DBA0DBB0DB20B652AE9
:1014D8002B08B2003208F3002E080A168A15B72422
:1014E8000A128A15740883120313C3007308C20012
:1014F8004208B2004308B300B401B5013208B80786
:10150800330803110318013E03198B2AB90734085D
:1015180003110318013E0319922ABA07350803116B
:101528000318013E0319992ABB072A08B20032089A
:10153800F3002F080A168A15B7240A128A157408A8
:1015480083120313C3007308C2004208B2004308A1
:10155800B300B401B5013208B80733080311031802
:10156800013E0319B82AB907340803110318013ECC
:101578000319BF2ABA07350803110318013E0319D6
:10158800C62ABB070830B2000310B80DB90DBA0D52
:10159800BB0DB20BC82A2A08B2003208F3002E0885
:1015A8000A168A15B7240A128A15740883120313B7
:1015B800C3007308C2004208B2004308B300B40174
:1015C800B5013208B807330803110318013E03199F
:1015D800EE2AB907340803110318013E0319F52A46
:1015E800BA07350803110318013E0319FC2ABB0783
:1015F8002B08B2003208F30030080A168A15B724FF
:101608000A128A15740883120313C3007308C200F0
:101618004208B2004308B300B401B5013208BE075E
:10162800330803110318013E03191B2BBF073408A5
:1016380003110318013E0319222BC00735080311B3
:101648000318013E0319292BC1072C08B2003208E0
:10165800F3002F080A168A15B7240A128A15740887
:1016680083120313C3007308C2004208B200430880
:10167800B300B401B5013208BE07330803110318DB
:10168800013E0319482BBF07340803110318013E14
:1016980003194F2BC007350803110318013E03191E
:1016A800562BC1072C08B2003208F30030080A167E
:1016B8008A15B7240A128A15740883120313C30003
:1016C8007308C2004208B2004308B300B401B50170
:1016D80008300310B20DB30DB40DB50DFF3E031D58
:1016E8006D2B3208BE07330803110318013E031996
:1016F8007E2BBF07340803110318013E0319852BFD
:10170800C007350803110318013E03198C2BC107C4
:101718003808B2003908B3003A08B4003B08B500ED
:1017280018300310B50CB40CB30CB20CFF3E031DFB
:10173800952B3208BE07330803110318013E03191D
:10174800A62BBF07340803110318013E0319AD2B5C
:10175800C007350803110318013E0319B42BC1074C
:101768000830B2000310B80DB90DBA0DBB0DB20B9D
:10177800B62B3D083C07B200B301B30D3208823ED8
:10178800C20033080318013EFF3EC300E82B0130B6
:10179800B2000310BE0DBF0DC00DC10DB20BCD2B95
:1017A800BB1FD72BD82BD92B3E140130B200031006
:1017B800B80DB90DBA0DBB0DB20BDB2BFF30C2074C
:1017C8000318C30AFF30C307C01FEB2BEC2BCB2B2E
:1017D800BC01BB1FF02BF12B0D2CFF303805B200DC
:1017E800FF303905B300FF303A05B4007F303B05C0
:1017F800B50035083404330432040319042C052CCD
:10180800082CBC01BC0A0D2C3E1C0B2C0C2C0D2CDE
:10181800052C3C080319112C122C432C0130BE074F
:10182800003003180130BF07003003180130C0072B
:10183800003003180130C107411C232C242C432CF1
:101848003E08B2003F08B3004008B4004108B500A4
:101858000130B600350DB50CB40CB30CB20CB60B98
:101868002E2C3508C1003408C0003308BF003208E8
:10187800BE000130C2070318C30A0030C30743087B
:10188800803AFF0080307F02031D4C2CFF3042025B
:10189800031C4F2C502C5B2C7F3083120313C10088
:1018A8008030C0000030BF000030BE00902C831292
:1018B80003134308803AFF0080307F02031D662C23
:1018C800013042020318692C6A2C762C00308312EE
:1018D8000313C1000030C0000030BF000030BE005C
:1018E800B701902C831203134208B2003208BD00DE
:1018F800FF30BE05FF30BF057F30C0050030C10591
:101908003D1C872C882C892CC0173D08B200031079
:10191800320CB3003308C1003708B2003208C104E2
:101928004108AD004008AC003F08AB003E08AA00E3
:10193800080083120313D600D61FA32CA42C532E01
:10194800D609D60A5608803A123E031CAC2CAD2C98
:10195800972D0A30A2000030A3005608F500F601C2
:10196800F51BF6036430F3000030F4000A168A15FC
:10197800C0250A128A15740883120313A500730878
:10198800A4000A168A1583260A128A1583120313DD
:101998002208C80001300310C80DFF3E031DCF2CDC
:1019A8000310480D593E84000A168A1500200A12B1
:1019B8008A15C9000A168A1500200A128A15CA0053
:1019C8000A168A1500200A128A15CB000A168A15EB
:1019D80000200A128A15CC004C08AD004B08AC0058
:1019E8004A08AB004908AA006430A2000030A300EE
:1019F8005608A400A501A41BA5030A168A15832668
:101A08000A128A15831203132208CD00013003102D
:101A1800CD0DFF3E031D0B2D03104D0D7D3E8400A3
:101A28000A168A1500200A128A15CE000A168A1587
:101A380000200A128A15CF000A168A1500200A12F9
:101A48008A15D0000A168A1500200A128A15D100B4
:101A58005108B1005008B0004F08AF004E08AE0062
:101A68000A128A153C210A128A15831203132D08BB
:101A7800D5002C08D4002B08D3002A08D2000A303D
:101A8800F3000030F4005608F500F601F51BF603E4
:101A98000A168A15C0250A128A15730883120313B9
:101AA800C80001300310C80DFF3E031D562D03105A
:101AB800480D353E84000A168A1500200A128A1538
:101AC800C9000A168A1500200A128A15CA000A16C1
:101AD8008A1500200A128A15CB000A168A150020DA
:101AE8000A128A15CC004C08AD004B08AC004A0815
:101AF800AB004908AA005508B1005408B0005308C3
:101B0800AF005208AE000A128A153C210A128A1543
:101B1800831203132D08C7002C08C6002B08C50024
:101B28002A08C400FF2F5608803A753E031C9D2DD5
:101B38009E2D262E0A30F3000030F4005608F500DA
:101B4800F601F51BF6030A168A15C0250A128A152E
:101B5800730883120313C80001300310C80DFF3E39
:101B6800031DB12D0310480D353E84000A168A1551
:101B780000200A128A15C9000A168A1500200A12BE
:101B88008A15CA000A168A1500200A128A15CB007F
:101B98000A168A1500200A128A15CC004C08AD00D6
:101BA8004B08AC004A08AB004908AA000A30A2005A
:101BB8000030A3005608A400A501A41BA5030A161B
:101BC8008A1583260A128A15831203132208CD0068
:101BD80001300310CD0DFF3E031DED2D03104D0DFB
:101BE800593E84000A168A1500200A128A15CE006A
:101BF8000A168A1500200A128A15CF000A168A15B5
:101C080000200A128A15D0000A168A1500200A1226
:101C18008A15D1005108B1005008B0004F08AF0034
:101C28004E08AE000A128A153C210A128A15831240
:101C380003132D08C7002C08C6002B08C5002A0866
:101C4800C400FF2F5608C80001300310C80DFF3E1E
:101C5800031D292E0310480D353E84000A168A15E7
:101C680000200A128A15C9000A168A1500200A12CD
:101C78008A15CA000A168A1500200A128A15CB008E
:101C88000A168A1500200A128A15CC004C08C700CB
:101C98004B08C6004A08C5004908C400FF2F56086B
:101CA800803A123E031C592E5A2E442F0A30A200A5
:101CB8000030A3005608F500F601F51BF603643062
:101CC800F3000030F4000A168A15C0250A128A1596
:101CD800740883120313A5007308A4000A168A1552
:101CE80083260A128A15831203132208C8000130BA
:101CF8000310C80DFF3E031D7C2E0310480D253E22
:101D080084000A168A1500200A128A15C9000A16C4
:101D18008A1500200A128A15CA000A168A15002098
:101D28000A128A15CB000A168A1500200A128A158B
:101D3800CC004C08AD004B08AC004A08AB00490881
:101D4800AA006430A2000030A3005608A400A50130
:101D5800A41BA5030A168A1583260A128A1583125C
:101D680003132208CD0001300310CD0DFF3E031DE3
:101D7800B82E03104D0D493E84000A168A1500201E
:101D88000A128A15CE000A168A1500200A128A1528
:101D9800CF000A168A1500200A128A15D0000A16E2
:101DA8008A1500200A128A15D1005108B10050087E
:101DB800B0004F08AF004E08AE000A128A153C2149
:101DC8000A128A15831203132D08D5002C08D40093
:101DD8002B08D3002A08D2000A30F3000030F400A0
:101DE8005608F500F601F51BF6030A168A15C025F4
:101DF8000A128A15730883120313C80001300310EE
:101E0800C80DFF3E031D032F0310480D013E84003B
:101E18000A168A1500200A128A15C9000A168A1598
:101E280000200A128A15CA000A168A1500200A120A
:101E38008A15CB000A168A1500200A128A15CC00CA
:101E48004C08AD004B08AC004A08AB004908AA0092
:101E58005508B1005408B0005308AF005208AE004E
:101E68000A128A153C210A128A15831203132D08B7
:101E7800C7002C08C6002B08C5002A08C400FF2F7D
:101E88005608803A753E031C4A2F4B2FD32F0A3031
:101E9800F3000030F4005608F500F601F51BF603D0
:101EA8000A168A15C0250A128A15730883120313A5
:101EB800C80001300310C80DFF3E031D5E2F03103C
:101EC800480D013E84000A168A1500200A128A1558
:101ED800C9000A168A1500200A128A15CA000A16AD
:101EE8008A1500200A128A15CB000A168A150020C6
:101EF8000A128A15CC004C08AD004B08AC004A0801
:101F0800AB004908AA000A30A2000030A300560816
:101F1800A400A501A41BA5030A168A1583260A1284
:101F28008A15831203132208CD0001300310CD0D4A
:101F3800FF3E031D9A2F03104D0D253E84000A16FF
:101F48008A1500200A128A15CE000A168A15002062
:101F58000A128A15CF000A168A1500200A128A1555
:101F6800D0000A168A1500200A128A15D1005108D5
:101F7800B1005008B0004F08AF004E08AE000A127A
:101F88008A153C210A128A15831203132D08C700EB
:101F98002C08C6002B08C5002A08C400FF2F5608C5
:101FA800C80001300310C80DFF3E031DD62F0310D3
:101FB800480D013E84000A168A1500200A128A1567
:101FC800C9000A168A1500200A128A15CA000A16BC
:101FD8008A1500200A128A15CB000A168A150020D5
:101FE8000A128A15CC004C08C7004B08C6004A08DC
:101FF800C5004908C400080064008001840A04067A
:10200800031900340406012883120313A601A7014B
:10201800200821040319112812284928A501A50A16
:10202800202801300310A00DA10DFF3E031D162826
:102038000130A4002408A507A11F23282428152857
:1020480001300310A60DA70DFF3E031D252821080A
:102058002302031D312820082202031C34283528B6
:102068003C282008A2022108031CA303A30226146B
:1020780001300310A10CA00CFF3E031D3D280130C8
:10208800A502031D4828492824282708A100260856
:10209800A000080083120313D7006E305702031CF8
:1020A8005628572866293F30AD000030AC00003074
:1020B800AB000030AA006430A0000030A10057082F
:1020C800C800C9014808A2004908A3000A168A11D5
:1020D80008200A168A11831203132008CA00013047
:1020E8000310CA0DFF3E031D742803104A0D7D3EE0
:1020F80084000A168A1500200A168A11CB000A16CF
:102108008A1500200A168A11CC000A168A150020A2
:102118000A168A11CD000A168A1500200A168A1195
:10212800CE004E08B1004D08B0004C08AF004B0877
:10213800AE000A128A153C210A168A11831203136B
:102148002D08D6002C08D5002B08D4002A08D30067
:102158000A30A0000030A1005708C800C90148088B
:10216800F5004908F6006430F3000030F4000A1660
:102178008A15E0240A168A11740883120313A3002F
:102188007308A2000A168A1108200A168A118312F7
:1021980003132008CA0001300310CA0DFF3E031DB7
:1021A800D02803104A0D593E84000A168A150020CB
:1021B8000A168A11CB000A168A1500200A168A11F7
:1021C800CC000A168A1500200A168A11CD000A16B4
:1021D8008A1500200A168A11CE004E08AD004D0857
:1021E800AC004C08AB004B08AA005608B1005508D3
:1021F800B0005408AF005308AE000A128A153C21FB
:102208000A168A11831203132D08D2002C08D10054
:102218002B08D0002A08CF000A30F3000030F40061
:102228005708C800C9014808F5004908F6000A1609
:102238008A15E0240A168A11730883120313CA0048
:1022480001300310CA0DFF3E031D252903104A0D56
:10225800353E84000A168A1500200A168A11CB001A
:102268000A168A1500200A168A11CC000A168A1541
:1022780000200A168A11CD000A168A1500200A16AF
:102288008A11CE004E08AD004D08AC004C08AB00DA
:102298004B08AA005208B1005108B0005008AF001E
:1022A8004F08AE000A128A153C210A168A118312B9
:1022B80003132D08C7002C08C6002B08C5002A08E0
:1022C800C4005A2A0B305702031C6B296C29172AA1
:1022D8003F30AD000030AC000030AB000030AA0049
:1022E8000A30A0000030A1005708C800C9014808FA
:1022F800A2004908A3000A168A1108200A168A11A2
:10230800831203132008CA0001300310CA0DFF3ED0
:10231800031D892903104A0D593E84000A168A159F
:1023280000200A168A11CB000A168A1500200A1600
:102338008A11CC000A168A1500200A168A11CD00C7
:102348000A168A1500200A168A11CE004E08B10016
:102358004D08B0004C08AF004B08AE000A128A15B1
:102368003C210A168A11831203132D08D6002C0863
:10237800D5002B08D4002A08D3000A30F300003017
:10238800F4005708C800C9014808F5004908F600D4
:102398000A168A15E0240A168A1173088312031391
:1023A800CA0001300310CA0DFF3E031DD6290310D1
:1023B8004A0D353E84000A168A1500200A168A112D
:1023C800CB000A168A1500200A168A11CC000A16B4
:1023D8008A1500200A168A11CD000A168A150020CF
:1023E8000A168A11CE004E08AD004D08AC004C0804
:1023F800AB004B08AA005608B1005508B0005408B5
:10240800AF005308AE000A128A153C210A168A1139
:10241800831203132D08C7002C08C6002B08C5001B
:102428002A08C4005A2A3F30AD000030AC00003002
:10243800AB000030AA005708C80001300310C80DCF
:10244800FF3E031D222A0310480D353E84000A165C
:102458008A1500200A168A11C9000A168A15002052
:102468000A168A11CA000A168A1500200A168A1145
:10247800CB000A168A1500200A168A11CC004C08CF
:10248800B1004B08B0004A08AF004908AE000A1274
:102498008A153C210A168A11831203132D08C700D6
:1024A8002C08C6002B08C5002A08C400080083129F
:1024B80003135B088039E0006008E8005B08E0006F
:1024C8006007E1006108EA00DA1F6B2A6C2A6D2AAE
:1024D8006A146A080319712A722A822A6A0A031D71
:1024E800762A772A7F2A0030DB000030DA000030B5
:1024F800D9000030D800DA17DB018A2A0030DB0067
:102508000030DA000030D9000030D8005F08803988
:10251800E0006008E900690868060319942A952A0A
:10252800962A68175F08E0006007E1006108E90083
:10253800DE1F9F2AA02AA12A691469080319A52A5F
:10254800A62AB62A690A031DAA2AAB2AB32A00308A
:10255800DF000030DE000030DD000030DC00DE1778
:10256800DF01BE2A0030DF000030DE000030DD0071
:102578000030DC006A0869020318C32AC42A082B41
:10258800681FC72AC82ACC2A8030E0006008E806FD
:102598006A08E0006008EB006908E0006008EA00EB
:1025A8006B08E0006008E9005808E0006008EB00EC
:1025B8005C08E0006008D8006B08E0006008DC00F8
:1025C8005908E0006008EB005D08E0006008D900E9
:1025D8006B08E0006008DD005A08E0006008EB00C6
:1025E8005E08E0006008DA006B08E0006008DE00C2
:1025F8005B08E0006008EB005F08E0006008DB00B3
:102608006B08E0006008DF00EB016908E000E10109
:102618006108E3006A086002E200031CE303630840
:10262800803AFF0080307F02031D1C2B1A306202A3
:10263800031C1F2B202B5D2B831203135B085A04EA
:1026480059045804031D292B2B2B01302C2B003047
:10265800E0006008EB000030DB000030DA000030FA
:10266800D9000030D8006908E0006008EA00652B4E
:102678006B1C3F2B402B492B6B08E0000310600CB0
:102688000138E1006108EB004B2B0310EB0C581CE0
:102698004E2B4F2B502BEB170130E0005B0DDB0C62
:1026A800DA0CD90CD80CE00B522B0130E000600892
:1026B800EA078312031369086A02031C642B652B5B
:1026C8003C2B681B682B692BB42B6A08031D6D2BE8
:1026D8006E2B772B0030DB000030DA000030D90099
:1026E8000030D800E22C5C08D8075D0803110318F5
:1026F800013E0319802BD9075E0803110318013E18
:102708000319872BDA075F0803110318013E031921
:102718008E2BDB075B1C912B922B682C6B1C952B4B
:10272800962B9F2B6B08E0000310600C0138E1002A
:102738006108EB00A12B0310EB0C581CA42BA52B54
:10274800A62BEB170130E0005B0DDB0CDA0CD90C83
:10275800D80CE00BA82B0130E0006008EA07682CD1
:102768005B08803AFF005F08803A7F02031DC62B92
:102778005E085A02031DC62B5D085902031DC62BAD
:102788005C0858020318C92BCA2B222CFF30E00022
:10279800FF30E100FF30E200FF30E3005C08E400B6
:1027A8005D08E5005E08E6005F08E7005808E402F7
:1027B8005908031C590FE12BE22BE5025A08031CA8
:1027C8005A0FE72BE82BE6025B08031C5B0FED2B87
:1027D800EE2BE7026408E00765080318650FF52B80
:1027E800F62BE10766080318660FFB2BFC2BE207A4
:1027F80067080318670AE3076308DB006208DA0062
:102808006108D9006008D8008030E0006008E80658
:10281800EB09EB0A6B08031D122C132C302C01302A
:10282800D807003003180130D907003003180130E9
:10283800DA07003003180130DB07302C5C08D802B7
:102848005D08031C5D0FD9025E08031C5E0FDA02E7
:102858005F08031C5F0FDB025B085A045904580425
:10286800031D372C382C642C6B08031D3C2C3D2C85
:10287800642C0030DB000030DA000030D900003072
:10288800D800E22C0130E0000310D80DD90DDA0D84
:10289800DB0DE00B482CEB1F522C532C542C5814F6
:1028A8006B1C572C582C5B2C0314EB0D5D2C031060
:1028B800EB0D6A080319612C622C642C0130EA02C2
:1028C800DA1F672C682C462CE901EB1F6C2C6D2C49
:1028D8007B2C6B087F390319722C732C762CE90139
:1028E800E90A7B2C581C792C7A2C7B2C732C6908D0
:1028F80003197F2C802CB42C0130D8070030031822
:102908000130D907003003180130DA070030031806
:102918000130DB075B1C912C922CB42C5808E0008A
:102928005908E1005A08E2005B08E3000130E400BE
:10293800630DE30CE20CE10CE00CE40B9C2C630847
:10294800DB006208DA006108D9006008D8006A0A6A
:102958000319AF2CB02CB42C0130E0006008EA0752
:102968006A0A0319B82CB92CBE2C6A08031DBD2CA1
:10297800BE2CCC2C0030DB000030DA000030D9004F
:102988000030D8006A08031DCA2CCB2CCC2CE801D7
:102998006A1CCF2CD02CD22CDA17D62C7F30E00032
:1029A8006008DA056A08E0000310600CE1006108BD
:1029B800DB00E81FE02CE12CE22CDB170800831673
:1029C8000313D300A930B5003508BE000A128A11D6
:1029D800192E253054060319F22CF32CFF2C540819
:1029E800B500530884003508831380000130B50012
:1029F8003508D307EA2CCB01CC01C901CA01092D3E
:102A080049150130B5003508A807280884000A16BA
:102A18008A1500200A168A11B500B6013608003A50
:102A28000319172D1C2D3508303A0319042D1C2DB8
:102A3800280884000A168A1500200A168A110A1620
:102A48008A15E6230A168A11031C2B2D2C2D6C2DB2
:102A580083160313CB01CC010A30F3000030F400D5
:102A6800831603134C08F6004B08F5000A168A155E
:102A780042240A168A11740883160313CC007308BB
:102A8800CB00280884000A168A1500200A168A1125
:102A9800D03EB500FF3003180030B6003508CB072C
:102AA8000318CC0A3608CC070130B5003508A8074A
:102AB800280884000A168A1500200A168A110A16A0
:102AC8008A15E6230A168A1103186B2D6C2D302DF2
:102AD80083160313280884000A168A1500200A168C
:102AE8008A112E3A031D792D7A2DBF2D4A170130F0
:102AF800B5003508A807D101D201AE2D0A30F30080
:102B08000030F400831603135208F6005108F5004C
:102B18000A168A1542240A168A11740883160313A2
:102B2800D2007308D100280884000A168A150020EC
:102B38000A168A11D03EB500FF3003180030B600DF
:102B48003508D1070318D20A3608D2070130B50074
:102B58003508A807280884000A168A1500200A16CE
:102B68008A110A168A15E6230A168A110318BD2D3A
:102B7800BE2D822DC52DD101D2014A16C52D4A156B
:102B8800E12D013083160313A807FF3028078400BE
:102B98000A168A1500200A168A11D400B500B60153
:102BA8003608003A0319D92DEA2C3508003A0319DA
:102BB800FD2F663A0319C32DEA2C00304905B500EC
:102BC80007304A05B600350836040319EC2DEF2DF9
:102BD8000A128A111B2D4A1EF22DF32DF72D0630ED
:102BE800D1000030D2003E08840083130008CD00D5
:102BF800840A0008CE00840A0008CF00840A00086E
:102C0800D0000430B5003508BE07500883120313FE
:102C1800A300831603134F0883120313A20083161D
:102C280003134E0883120313A100831603134D08E0
:102C380083120313A0000030A7000030A600003064
:102C4800A5000030A4000A168A155C270A168A1106
:102C580003182F2E302E4D2E831603135008F6001E
:102C68004F08F5004E08F4004D08F3000A168A15BF
:102C7800DB230A168A11760883160313D000750819
:102C8800CF007408CE007308CD000330C9040030AB
:102C9800CA0483160313C701C8015008831203131B
:102CA800A300831603134F0883120313A20083168D
:102CB80003134E0883120313A100831603134D0850
:102CC80083120313A0000030A7000030A6000030D4
:102CD800A5000030A4000A168A151A250A168A11BA
:102CE8000318772E782E942F0310831603134F0D95
:102CF800500D823EC700FF3003180030C800FF3077
:102D0800C7070318C80AFF30C8070330F3000030AC
:102D1800F4004808F6004708F5000A168A15422408
:102D28000A168A11740883160313C8007308C700AB
:102D38000A3083120313A2000030A3008316031382
:102D4800480883120313A500831603134708831248
:102D58000313A4000A168A1583260A168A118312F9
:102D68000313230883160313C800831203132208CE
:102D780083160313C700C81FC22EC32EC92EFF30E7
:102D8800C7070318C80AFF30C8074703FF3A0A12E3
:102D98008A159D240A168A1183120313470883167D
:102DA8000313C60083120313460883160313C500D2
:102DB80083120313450883160313C40083120313F5
:102DC800440883160313C300500883120313AD008D
:102DD800831603134F0883120313AC0083160313DF
:102DE8004E0883120313AB00831603134D08831296
:102DF8000313AA0083160313460883120313B100B2
:102E080083160313450883120313B00083160313B4
:102E1800440883120313AF00831603134308831275
:102E28000313AE000A128A153C210A168A1183126E
:102E380003132D0883160313C600831203132C08EB
:102E480083160313C500831203132B088316031379
:102E5800C400831203132A0883160313C300460809
:102E680083120313A3008316031345088312031365
:102E7800A20083160313440883120313A1008316C8
:102E88000313430883120313A0003F30A7008030C8
:102E9800A6000030A5000030A4000A168A155C2799
:102EA8000A168A110318592F5A2F632FFF308316D9
:102EB8000313C7070318C80AFF30C807942F8316DF
:102EC8000313460883120313A3008316031345084C
:102ED80083120313A20083160313440883120313F7
:102EE800A10083160313430883120313A000413083
:102EF800A7002030A6000030A5000030A4000A1664
:102F08008A155C270A168A11031C8B2F8C2F942F85
:102F1800013083160313C7070318C80A0030C8070F
:102F2800831603135208803AFF0080307F02031D86
:102F38009F2F0D3051020318A22FA32FEA2F8316BB
:102F4800031351080A168A114E200A168A11831291
:102F580003134708DB004608DA004508D90044088F
:102F6800D80083160313500883120313DF00831657
:102F780003134F0883120313DE00831603134E084E
:102F880083120313DD00831603134D088312031302
:102F9800DC000A168A115B220A168A1183120313AF
:102FA8005B0883160313D000831203135A08831691
:102FB8000313CF0083120313590883160313CE009B
:102FC80083120313580883160313CD0083160313C3
:102FD8004808803AFF0080307F02031DF52F0A3031
:102FE80047020318FA2F0A128A111E280A128A1198
:102FF8007D280A128A112D2E18308A000408840AA6
:10300800820700340034003480343F340034003404
:103018002034413400340034C8344234003400349D
:103028007A344434003440341C3446340034503448
:10303800C3344734003424347434493480349634E7
:1030480018344B342034BC34BE344C3428346B34FC
:103058006E344E34F934023415345034EC34783448
:10306800AD346034CA34F234493471340034003435
:1030780080343F34CD34CC34CC343D340A34D73466
:1030880023343C346F34123483343A341734B7342D
:10309800D1343834AC34C53427343734BD343734BC
:1030A800863435349534BF34D63433347734CC341D
:1030B8002B3432345F34703489343034FF34E6349E
:1030C800DB342E340834E5343C341E346034423466
:1030D800A2340D3401340034003400340A3400348E
:1030E800003400346434003400340034E8340334E9
:1030F800003400341034273400340034A0348634CB
:1031080001340034403442340F340034803496346F
:10311800983400340034E134F53405340034CA34CA
:103128009A343B34253430342E34303466342C34DD
:10313800253430342E34303466342C34253430344D
:0A3148002E34303466342C34003489
:10377A007030831603138F040F1408000330831666
:10378A00031396000B1008008B170B1783160313ED
:10379A008C168B150B100800F300831203130C1EF2
:1037AA00D72BD82BD22B73089900080076087504FA
:1037BA00740473040319E22BE32BE52B8030F6061D
:1037CA000800F400F3013A3074020318ED2BEE2BD3
:1037DA00F62B30307402031CF32BF42BF62BF30177
:1037EA00F30A730C080083160317880189018316EC
:1037FA000313850186018801061486148113033098
:10380A009500831203138601880185010800831637
:10381A00031318121815831603178715CF3083164A
:10382A00031399009A018312031398171813181691
:10383A008316031398160800F700F501F601362CD3
:10384A0075087707F4007408840000080A168A15B8
:10385A00D1230A168A150130F5070318F60A003033
:10386A00F60775087707F4007408840083130008C4
:10387A00031D402C412C252C0800F701F801731C6C
:10388A00472C482C4E2C7508F7070318F80A7608B7
:10389A00F80701300310F50DF60DFF3E031D4F2CFE
:1038AA0001300310F40CF30CFF3E031D562C730871
:1038BA007404031D612C622C442C7808F4007708E8
:1038CA00F3000800831203138C1E6C2C6D2C6F2CD2
:1038DA001A0888000B1C722C732C872C0618762C5D
:1038EA00772C7D2C0130F000700883160313DF0754
:1038FA0083128618812C822C862C0130831603139E
:10390A00DF020B1072088A00710E8300FE0E7E0E13
:10391A00090083120313B6003608AE00AF01B001E6
:10392A00B1013108F6003008F5002F08F4002E081E
:10393A00F30001300A128A1580200A168A157608C1
:10394A0083120313B5007508B4007408B300730832
:10395A00B2003508AD003408AC003308AB003208B9
:10396A00AA00080083120313A400A001A10173088E
:10397A00F500F6017508A2007608A300241CC62CDF
:10398A00C72CCD2C2208A0070318A10A2308A107D7
:10399A0001300310A20DA30DFF3E031DCE2C031010
:1039AA00A40C2408031DDA2CDB2CC32C2108F400F8
:1039BA002008F3000800730874040319E52CE62CA8
:1039CA00152DF801F80AF42C01300310F30DF40D4B
:1039DA00FF3E031DEA2C0130F7007708F807F41FB1
:1039EA00F72CF82CE92C74087602031DFE2C7308B8
:1039FA007502031C012D022D082D7308F5027408A7
:103A0A00031CF603F60201300310F40CF30CFF3E1C
:103A1A00031D092D0130F802031D142D152DF82C54
:103A2A007608F4007508F3000800003083120313C7
:103A3A002005F30000302105F40080302205F5004E
:103A4A007F302305F6007608750474047304031D99
:103A5A002F2D302D382D0030A3000030A200003069
:103A6A00A1000030A00000302405F3000030250535
:103A7A00F40080302605F5007F302705F600760829
:103A8A00750474047304031D4B2D4C2D542D003002
:103A9A00A7000030A6000030A5000030A4002708C7
:103AAA002306031D622D26082206031D622D250802
:103ABA002106031D622D240820060319652D662D93
:103ACA00682D0310692D03140800831203132308B9
:103ADA002204210420040319732D742DB72DF40137
:103AEA00F40A842D0130F3000310A00DA10DA20DDC
:103AFA00A30DF30B792D0130F3007308F407A31F0C
:103B0A00872D882D772D23082702031D962D22083D
:103B1A002602031D962D21082502031D962D200835
:103B2A002402031C992D9A2DA82D2008A4022108ED
:103B3A00031C210FA5022208031C220FA602230838
:103B4A00031C230FA70201300310A30CA20CA10C23
:103B5A00A00CFF3E031DA92D0130F402031DB62D52
:103B6A00B72D882D2708A3002608A2002508A10042
:103B7A002408A000080083120313A101F61FC62D12
:103B8A00C72DCE2DF509F609F50A0319F60AA10182
:103B9A00A10AF41FD12DD22DD72DF309F409F30A66
:103BAA000319F40A730874040319DC2DDD2D0C2E95
:103BBA00A001A00AEB2D01300310F30DF40DFF3E16
:103BCA00031DE12D0130F7007708A007F41FEE2D41
:103BDA00EF2DE02D74087602031DF52D730875028A
:103BEA00031CF82DF92DFF2D7308F5027408031C28
:103BFA00F603F60201300310F40CF30CFF3E031D2A
:103C0A00002E0130A002031D0B2E0C2EEF2D2108D1
:103C1A000319102E112E162EF509F609F50A0319A5
:103C2A00F60A7608F4007508F30008000030F70079
:103C3A000030F6000030F5000030F4008312031360
:103C4A00230822042104200403192C2E2D2E7A2E57
:103C5A00F801F80A3D2E0130F3000310A00DA10D62
:103C6A00A20DA30DF30B322E0130F3007308F807EF
:103C7A00A31F402E412E302E0130F3000310F40D05
:103C8A00F50DF60DF70DF30B432E23082702031D3E
:103C9A00582E22082602031D582E21082502031D2C
:103CAA00582E20082402031C5B2E5C2E6B2E200843
:103CBA00A4022108031C210FA5022208031C220FBB
:103CCA00A6022308031C230FA70274140130031051
:103CDA00A30CA20CA10CA00CFF3E031D6C2E0130FC
:103CEA00F802031D792E7A2E412E7708A300760852
:103CFA00A2007508A1007408A0000800831203132B
:103D0A00A701A31F892E8A2E912EA209A309A20A0E
:103D1A000319A30AA701A70AA51F942E952E9E2E62
:103D2A00A409A509A40A0319A50A0130F80078080C
:103D3A00A706A801A901220823040319A52EA62E65
:103D4A00DD2EA601A60AB42E01300310A20DA30D82
:103D5A00FF3E031DAA2E0130F8007808A607A31F0C
:103D6A00B72EB82EA92E01300310A80DA90DFF3EBB
:103D7A00031DB92E23082502031DC52E220824027D
:103D8A00031CC82EC92ED02E2208A4022308031C05
:103D9A00A503A502281401300310A30CA20CFF3EB0
:103DAA00031DD12E0130A602031DDC2EDD2EB82EF6
:103DBA0027080319E12EE22EE72EA809A909A80A65
:103DCA000319A90A2908A3002808A20008000A164C
:103DDA008A15F8230A168A150A168A15C9230A1695
:103DEA008A150A168A15C3230A168A150A168A1507
:103DFA000C240A168A150A168A15BD230A168A156C
:103E0A00831603135F080A168A158E240A168A1562
:103E1A00831203132D0883160313ED008312031371
:103E2A002C0883160313EC00831203132B08831642
:103E3A000313EB00831203132A0883160313EA0001
:103E4A00913083120313EC006C0883160313A80045
:103E5A006D08AC006C08AB006B08AA006A08A900E0
:103E6A006D08B0006C08AF006B08AE006A08AD00C0
:103E7A006D08B4006C08B3006B08B2006A08B100A0
:103E8A00E0300A168A11E3240A168A15E0300A1667
:103E9A008A1521240A168A15A53083120313EC0009
:103EAA00EC0B552F582F052F0A128A110C280030B7
:103EBA00831203132005F30000302105F40080303B
:103ECA002205F5007F302305F60076087504740490
:103EDA007304031D712F722F7A2F0030A300003054
:103EEA00A2000030A1000030A00000302405F30039
:103EFA0000302505F40080302605F5007F302705BF
:103F0A00F6007608750474047304031D8D2F8E2F32
:103F1A00962F0030A7000030A6000030A500003020
:103F2A00A400A31F992F9A2FBE2F0030F300003050
:103F3A00F4000030F5008030F6002008F302210872
:103F4A00031C210FA92FAA2FF4022208031C220FF7
:103F5A00AF2FB02FF5022308031C230FB52FB62F5E
:103F6A00F6027608A3007508A2007408A100730877
:103F7A00A000A71FC12FC22FE62F0030F300003088
:103F8A00F4000030F5008030F6002408F30225081A
:103F9A00031C250FD12FD22FF4022608031C260F4B
:103FAA00D72FD82FF5022708031C270FDD2FDE2F66
:103FBA00F6027608A7007508A6007408A50073081B
:103FCA00A4008030A3068030A70627082302031D19
:103FDA00F82F26082202031DF82F25082102031DA7
:103FEA00F82F240820020318FB2FFC2FFE2F0310A2
:063FFA00FF2F0314080074
:04400E00D420FF3F7C
:00000001FF
