:020000040000FA
:060000000A128A110C280F
:10000800FE00030EF3000A08F4000A168A15F32D01
:100018000A128A110F28F701F8018313CA308400E5
:10002800DF300A168A150E250A128A1183010A1270
:100038008A15002883160313BF00A930AB002B08CC
:10004800B4001B2F2530480603192B282C283828E4
:100058004808AB003F0884002B0883138000013058
:10006800AB002B08BF071B2FB501B6013D2836157D
:1000780057280130A807FF30280784000A168A117C
:1000880000200A128A11C800AB00AC012C08003A03
:1000980003194F281B2F2B08003A03192D2F663AF6
:1000A80003193B281B2F00303505AB0007303605F8
:1000B800AC002B082C04031962286328072F06308C
:1000C800B7000030B8003408840083130008C40067
:1000D800840A0008C500840A0008C600840A0008CB
:1000E800C7000430AB002B08B4074708831203137A
:1000F800A30083160313460883120313A200831672
:100108000313450883120313A1008316031344083D
:1001180083120313A0000030A7000030A6000030AF
:10012800A5000030A4000A168A110B220A128A11AF
:1001380003189F28A028D928831603134708831279
:100148000313A30083160313460883120313A200A4
:1001580083160313450883120313A10083160313A0
:10016800440883120313A0000A128A11F0270A1206
:100178008A1183120313230883160313C7008312FB
:100188000313220883160313C600831203132108DE
:1001980083160313C5008312031320088316031361
:1001A800C4000330B5040030B60483160313BD0140
:1001B800BE01470883120313A300831603134608DE
:1001C80083120313A2008316031345088312031333
:1001D800A10083160313440883120313A000003000
:1001E800A7000030A6000030A5000030A4000A16C1
:1001F8008A15AF260A128A11031803290429302AFE
:10020800031083160313460D470D823EBD00FF30D1
:1002180003180030BE00FF30BD070318BE0AFF30C8
:10022800BE07033083120313A0000030A100831619
:1002380003133E0883120313A300831603133D0818
:1002480083120313A2000A168A1549250A128A1175
:1002580083120313210883160313BE0083120313AA
:10026800200883160313BD000A3083120313A60067
:100278000030A700831603133E0883120313A90056
:10028800831603133D0883120313A8000A168A1164
:1002980026210A128A1183120313270883160313CF
:1002A800BE0083120313260883160313BD00BE1F66
:1002B8005E295F296529FF30BD070318BE0AFF3094
:1002C800BE073D03FF3A0A128A159D240A128A11B5
:1002D800831203134B0883160313C30083120313FB
:1002E8004A0883160313C2008312031349088316AE
:1002F8000313C10083120313480883160313C000B5
:10030800470883120313B1008316031346088312A8
:100318000313B00083160313450883120313AF00B9
:1003280083160313440883120313AE0083160313C2
:10033800430883120313B50083160313420883127C
:100348000313B40083160313410883120313B30085
:1003580083160313400883120313B2000A128A1586
:100368003C210A128A1183120313310883160313DE
:10037800C30083120313300883160313C2008312C9
:1003880003132F0883160313C100831203132E08C7
:1003980083160313C000430883120313A3008316B4
:1003A8000313420883120313A200831603134108A0
:1003B80083120313A1008316031340088312031347
:1003C800A0003F30A7008030A6000030A500003014
:1003D800A4000A168A110B220A128A110318F52999
:1003E800F629FF29FF3083160313BD070318BE0A39
:1003F800FF30BE07302A8316031343088312031302
:10040800A30083160313420883120313A200831662
:100418000313410883120313A10083160313400832
:1004280083120313A0004130A7002030A60000303B
:10043800A5000030A4000A168A110B220A128A119C
:10044800031C272A282A302A013083160313BD07E4
:100458000318BE0A0030BE0706300A168A116B233D
:100468000A128A11831203134B08DF004A08DE00C0
:100478004908DD004808DC00831603134708831287
:100488000313E30083160313460883120313E200E1
:1004980083160313450883120313E100831603131D
:1004A800440883120313E0000A168A1178250A12F9
:1004B8008A11831203135F0883160313C70083127C
:1004C80003135E0883160313C600831203135D0823
:1004D80083160313C500831203135C0883160313E2
:1004E800C4003E08803AFF0080307F02031D7E2A48
:1004F8000A303D020318812A822AE12A831603134F
:10050800470883120313A3008316031346088312B4
:100518000313A20083160313450883120313A100D3
:1005280083160313440883120313A0000030A700A6
:100538000030A6000030A5000030A4000A168A1575
:10054800AF260A128A110318AA2AAB2A8D2B831602
:100558000313470883120313DE00831603134608A8
:1005680083120313DD008316031345088312031354
:10057800DC0083160313440883120313DB000A16F6
:100588008A118F210A128A11831203135E085D04EF
:100598005C045B04031DD12AD22A8D2B8316031316
:1005A8003E08803AFF0080307F02031DDD2A0230BA
:1005B8003D02031CE02AE12A8D2B8316031343080E
:1005C80083120313A3008316031342088312031331
:1005D800A20083160313410883120313A100831694
:1005E8000313400883120313A0004030A70089308A
:1005F800A6007030A5005F30A4000A168A110B22ED
:100608000A128A110318092B0A2B132BF7308316A9
:100618000313BD070318BE0AFF30BE071B2BF830B3
:1006280083160313BD070318BE0AFF30BE073D0833
:100638000A128A159D240A128A11831203134B0881
:1006480083160313C300831203134A088316031384
:10065800C20083120313490883160313C1008312CF
:100668000313480883160313C000470883120313B3
:10067800A30083160313460883120313A2008316EC
:100688000313450883120313A100831603134408B8
:1006980083120313A0008316031343088312031362
:1006A800A70083160313420883120313A6008316B8
:1006B8000313410883120313A5008316031340088C
:1006C80083120313A4000A128A1132270A128A110C
:1006D80083120313230883160313BC008312031326
:1006E800220883160313BB00831203132108831601
:1006F8000313BA0083120313200883160313B900E7
:100708000030C7000030C6000030C5000030C4000B
:100718000F2C83160313470883120313DE00831676
:100728000313460883120313DD00831603134508D9
:1007380083120313DC008316031344088312031384
:10074800DB000A168A118F210A128A1183120313F9
:100758005E0883160313BC00831203135D08831617
:100768000313BB00831203135C0883160313BA0038
:10077800831203135B0883160313B9003C08831222
:100788000313A300831603133B0883120313A20069
:10079800831603133A0883120313A1008316031365
:1007A800390883120313A00000300A168A11AF22F9
:1007B8000A128A1183120313230883160313A30052
:1007C80083120313220883160313A2008312031350
:1007D800210883160313A10083120313200883162C
:1007E8000313A0004708A7004608A6004508A5006F
:1007F8004408A4000A168A15FF260A128A118316CD
:1008080003132308C7002208C6002108C5002008D2
:10081800C400BD01BE01C801C80A4808AB000130C8
:100828000310AB0DFF3E031D142C03102B0D693E66
:1008380084000A168A1100200A128A11AC000A16CE
:100848008A1100200A128A11AD000A168A110020A6
:100858000A128A11AE000A168A1100200A128A1199
:10086800AF002F083C02031D432C2E083B02031D3A
:10087800432C2D083A02031D432C2C083902031877
:10088800462C472C482C522C0130AB002B08C807AB
:100898000A304806031D512C522C112C0330350503
:1008A800AB0000303605AC002B082C0403195D2C76
:1008B8005E2C102D2D30AB003F0884002B088313CD
:1008C80080000130AB002B08BF07102D4808AB0093
:1008D80001300310AB0DFF3E031D6D2C03102B0DD3
:1008E800693E84000A168A1100200A128A118312AE
:1008F8000313A0000A168A1100200A128A11A10007
:100908000A168A1100200A128A11A2000A168A11F0
:1009180000200A128A11A300831603133C088312CD
:100928000313A700831603133B0883120313A600BF
:10093800831603133A0883120313A50083160313BF
:10094800390883120313A4000A168A11BE200A125A
:100958008A1183120313230883160313C300831217
:100968000313220883160313C200831203132108FA
:1009780083160313C100831203132008831603137D
:10098800C000003083120313A3000030A20000301F
:10099800A1000A30A000831603134308831203132F
:1009A800A70083160313420883120313A6008316B5
:1009B8000313410883120313A50083160313400889
:1009C80083120313A4000A168A154F270A128A11E4
:1009D80083120313230883160313C300831203131C
:1009E800220883160313C2008312031321088316F7
:1009F8000313C10083120313200883160313C000D6
:100A08004008303EAB003F0884002B088313800069
:100A18000130AB002B08BF070130C802480A031D8C
:100A2800162D172D6A2C2B2D303083160313AB008F
:100A38003F0884002B08831380000130AB002B088B
:100A4800BF07FF30BD070318BE0AFF30BE073E08C8
:100A5800803AFF0080307F02031D342D01303D02B3
:100A68000318372D382D182D831603133808803AAC
:100A7800FF0080307F02031D432D09303702031C1D
:100A8800462D472D4E2D083083160313AB002B0837
:100A9800C800542D831603133708AB002B08C80071
:100AA8004808AB00AC012B08B7022C08031CB8039C
:100AB800B80248080319612D622D6D2D2E30AB0048
:100AC8003F0884002B08831380000130AB002B08FB
:100AD800BF0748080A128A159D240A128A11831230
:100AE80003134B0883160313B300831203134A0836
:100AF80083160313B20083120313490883160313E2
:100B0800B10083120313480883160313B000330897
:100B180083120313B50083160313320883120313D9
:100B2800B40083160313310883120313B30083162A
:100B38000313300883120313B20083160313470804
:100B480083120313B1008316031346088312031399
:100B5800B00083160313450883120313AF008316EE
:100B68000313440883120313AE000A128A153C21AA
:100B78000A128A11831203133108DE003008DD00DF
:100B88002F08DC002E08DB000A168A118F210A12B2
:100B98008A11831203135E0883160313BC008312A1
:100BA80003135D0883160313BB00831203135C0849
:100BB80083160313BA00831203135B088316031307
:100BC800B900E72E4808AB0001300310AB0DFF3E1B
:100BD800031DE92D03102B0D693E84000A168A11A6
:100BE80000200A128A1183120313A0000A168A1120
:100BF80000200A128A11A1000A168A1100200A127E
:100C08008A11A2000A168A1100200A128A11A3006A
:100C1800831603133C0883120313A70083160313D8
:100C28003B0883120313A600831603133A088312A2
:100C38000313A50083160313390883120313A400B2
:100C48000A168A11BE200A128A1183120313230876
:100C580083160313C3008312031322088316031396
:100C6800C20083120313210883160313C1008312E1
:100C78000313200883160313C000003083120313E4
:100C8800A3000030A2000030A1000A30A0008316A3
:100C98000313430883120313A700831603134208A0
:100CA80083120313A6008316031341088312031348
:100CB800A50083160313400883120313A4000A1621
:100CC8008A154F270A128A118312031323088316E1
:100CD8000313C30083120313220883160313C200ED
:100CE80083120313210883160313C100831203130D
:100CF800200883160313C0004008303EAB003F08AD
:100D080084002B08831380000130AB002B08BF0739
:100D18004808AB0001300310AB0DFF3E031D8F2EBA
:100D280003102B0D693E84000A168A1100200A124E
:100D38008A1183120313A0000A168A1100200A12CE
:100D48008A11A1000A168A1100200A128A11A2002B
:100D58000A168A1100200A128A11A30083160313A7
:100D68003C0883120313A700831603133B0883125E
:100D78000313A600831603133A0883120313A5006E
:100D880083160313390883120313A4000A168A155D
:100D98004F270A128A118312031323088316031399
:100DA800BC0083120313220883160313BB008312AB
:100DB8000313210883160313BA00831203132008B0
:100DC80083160313B9000130C802480A031DED2E2B
:100DD800EE2EE62D002F3030AB003F0884002B08A4
:100DE800831380000130AB002B08BF07FF30B70723
:100DF8000318B80AFF30B80737083804031D052F51
:100E0800062FEF2E1B2F03303505AB0000303605BB
:100E1800AC002B082C040319122F132F1B2F2D3075
:100E2800AB003F0884002B0883138000332801306F
:100E3800A807FF30280784000A168A1100200A1222
:100E48008A11AB002B08C8004808031D2C2F2D2F32
:100E580026283F08840083138001080003108312AA
:100E68000313220D230DF5007508AD002D08031D91
:100E78003E2F3F2F482F0030A3000030A200003043
:100E8800A1000030A000EF2F0310260D270DF5005C
:100E98007508AC002C08031D522F532F542F3F2FD9
:100EA800A217FF30A005FF30A105FF30A2050030D2
:100EB800A305A617FF30A405FF30A505FF30A6053A
:100EC8000030A7050030AB000030AA000030A900B0
:100ED8000030A8007F30AD02A0302C07F50075085F
:100EE800AD022030F5007508AC000130F5000310A4
:100EF800A80DA90DAA0DAB0DF50B7B2F2708230212
:100F0800031D902F26082202031D902F2508210279
:100F1800031D902F24082002031C932F942FA32F26
:100F28002408A0022508031C250FA1022608031C7B
:100F3800260FA2022708031C270FA302281401303A
:100F4800F5000310A00DA10DA20DA30DF50BA52F03
:100F58000130AC02031DB12FB22F792FAD1FB52F71
:100F6800B62FD02F2D08803A9F3E0318BC2FBD2FD7
:100F7800BE2F3F2F01300310AB0CAA0CA90CA80CF4
:100F8800FF3E031DBF2F0130F5007508AD07031D97
:100F9800CE2FCF2FBE2FE72F20302D02031CD52FA9
:100FA800D62FE22F3F2F0130F5000310A80DA90D11
:100FB800AA0DAB0DF50BD92F0130AD022D08031D7D
:100FC800E62FE72FD72F2B08A3002A08A20029080D
:100FD800A1002808A0000800831203132308220494
:100FE800210420040319F92FFA2FFC2F8030A306BF
:020FF8000800EF
:101000000A168A1520250A128A150A168A15062537
:101010000A128A150A168A1500250A128A150A1656
:101020008A1534250A128A150A168A15FA240A1214
:101030008A158316031354080A168A1570250A1296
:101040008A1583120313310883160313E2008312F7
:101050000313300883160313E100831203132F08D0
:1010600083160313E000831203132E088316031361
:10107000DF00620883120313E9008316031361087B
:1010800083120313E800831603136008831203130B
:10109000E700831603135F0883120313E6000A16A2
:1010A0008A15C2250A128A1583120313670883164C
:1010B0000313E40083120313660883160313E3008B
:1010C0009130C9004908A8006408AA006308A90073
:1010D000D5300A128A111E200A128A15D5300A1636
:1010E0008A1199200A128A15A53083160313C900A4
:1010F000C90B78287B2819280A128A110C28831218
:1011000003132008A8002108A9002208AA00031040
:10111000290D2A0DAB002B08B1003108031D9128C1
:1011200092289B280030A3000030A2000030A100CC
:101130000030A0003B292408A8002508A9002608A3
:10114000AA000310290D2A0DAB002B08B0003008AF
:10115000031DAB28AC28AD289228A117FF30A005AD
:10116000FF30A1050030A205A517FF30A405FF3010
:10117000A5050030A6050030AF000030AE000030FD
:10118000AD000030AC007F30B10298303007A800CD
:101190002808B1021830A8002808B0000130A800C3
:1011A0000310AC0DAD0DAE0DAF0DA80BD028260869
:1011B0002202031DE12825082102031DE12824083D
:1011C0002002031CE428E528F0282408A0022508B2
:1011D000031C250FA1022608031C260AA2022C14B8
:1011E00001300310A00DA10DA20DFF3E031DF1283B
:1011F0000130B002031DFD28FE28CE28B11F0129B1
:1012000002291C293108803A973E03180829092928
:101210000A29922801300310AF0CAE0CAD0CAC0CB7
:10122000FF3E031D0B290130A8002808B107031D4C
:101230001A291B290A29332918303102031C2129B4
:1012400022292E2992280130A8000310AC0DAD0DE3
:10125000AE0DAF0DA80B25290130B1023108031DD9
:101260003229332923292F08A3002E08A2002D0894
:10127000A1002C08A0000800831203133108803954
:10128000B6003608BB003108B6003607B70037088D
:10129000C100B01F4C294D294E29411441080319A2
:1012A000522953296229410A031D572958296029C7
:1012B0000030B1000030B0000030AF000030AE00B0
:1012C000B0176A290030B1000030B0000030AF0024
:1012D0000030AE0035088039B6003608BB06350848
:1012E000B6003607B7003708BC00B41F7829792943
:1012F0007A293C143C0803197E297F298E293C0A4F
:10130000031D832984298C290030B5000030B400E6
:101310000030B3000030B200B41796290030B50099
:101320000030B4000030B3000030B2003C080319B4
:101330009A299B29A0294108031D9F29A029A92991
:101340000030B1000030B0000030AF000030AE001F
:101350009C2C2E08B6003608F50034080A168A15AB
:1013600099250A128A15760883120313C700750897
:10137000C6004608B600B701B801B9013908C00077
:101380003808BF003708BE003608BD004708B60061
:10139000B701B801B9013908C5003808C4003708D9
:1013A000C3003608C2002F08B6003608F50033081F
:1013B0000A168A1599250A128A15760883120313CC
:1013C000C7007508C6004608B600B701B801B901E4
:1013D0003608BD07370803110318013E0319F12928
:1013E000BE07380803110318013E0319F829BF0787
:1013F000390803110318013E0319FF29C0074708E4
:10140000B600B701B801B9013608C20737080311A1
:101410000318013E03190D2AC307380803110318E6
:10142000013E0319142AC407390803110318013EA9
:1014300003191B2AC5073008B6003608F500320824
:101440000A168A1599250A128A157608831203133B
:10145000C7007508C6004608B600B701B801B90153
:101460003608BD07370803110318013E0319392A4E
:10147000BE07380803110318013E0319402ABF07AD
:10148000390803110318013E0319472AC00747080A
:10149000B600B701B801B9013608C2073708031111
:1014A0000318013E0319552AC3073808031103180E
:1014B000013E03195C2AC407390803110318013ED1
:1014C0000319632AC5070830B6000310BD0DBE0D11
:1014D000BF0DC00DB60B652A2F08B6003608F50003
:1014E00032080A168A1599250A128A157608831277
:1014F0000313C7007508C6004608B6004708B700C2
:10150000B801B9013608BD07370803110318013EB9
:1015100003198B2ABE07380803110318013E03196B
:10152000922ABF07390803110318013E0319992AAB
:10153000C0072E08B6003608F50033080A168A15CB
:1015400099250A128A15760883120313C7007508B5
:10155000C6004608B6004708B700B801B90136080A
:10156000BD07370803110318013E0319B82ABE0747
:10157000380803110318013E0319BF2ABF073908B1
:1015800003110318013E0319C62AC0070830B6002C
:101590000310BD0DBE0DBF0DC00DB60BC82A2E0821
:1015A000B6003608F50032080A168A1599250A127F
:1015B0008A15760883120313C7007508C60046080B
:1015C000B6004708B700B801B9013608BD073708AB
:1015D00003110318013E0319EE2ABE073808031150
:1015E0000318013E0319F52ABF0739080311031830
:1015F000013E0319FC2AC0072F08B6003608F50083
:1016000034080A168A1599250A128A157608831253
:101610000313C7007508C6004608B6004708B700A0
:10162000B801B9013608C207370803110318013E93
:1016300003191B2BC307380803110318013E0319B4
:10164000222BC407390803110318013E0319292B63
:10165000C5073008B6003608F50033080A168A15A3
:1016600099250A128A15760883120313C700750894
:10167000C6004608B6004708B700B801B9013608E9
:10168000C207370803110318013E0319482BC3078B
:10169000380803110318013E03194F2BC4073908FA
:1016A00003110318013E0319562BC5073008B60075
:1016B0003608F50034080A168A1599250A128A1583
:1016C000760883120313C7007508C6004608B600E3
:1016D0004708B700B801B90108300310B60DB70DBF
:1016E000B80DB90DFF3E031D6D2B3608C207370834
:1016F00003110318013E03197E2BC3073808031199
:101700000318013E0319852BC40739080311031878
:10171000013E03198C2BC5073D08B6003E08B700F3
:101720003F08B8004008B90018300310B90CB80CD5
:10173000B70CB60CFF3E031D952B3608C2073708C1
:1017400003110318013E0319A62BC3073808031120
:101750000318013E0319AD2BC40739080311031800
:10176000013E0319B42BC5070830B6000310BD0DA8
:10177000BE0DBF0DC00DB60BB62B41083C07B60021
:10178000B701B70D3608823EC60037080318013E80
:10179000FF3EC700E82B0130B6000310C20DC30D99
:1017A000C40DC50DB60BCD2BC01FD72BD82BD92BF5
:1017B00042140130B6000310BD0DBE0DBF0DC00DAB
:1017C000B60BDB2BFF30C6070318C70AFF30C7076D
:1017D000C41FEB2BEC2BCB2BBC01C01FF02BF12B30
:1017E0000D2CFF303D05B600FF303E05B700FF3041
:1017F0003F05B8007F304005B90039083804370488
:1018000036040319042C052C082CBC01BC0A0D2C31
:10181000421C0B2C0C2C0D2C052C3C080319112CF4
:10182000122C432C0130C207003003180130C307CB
:10183000003003180130C407003003180130C50719
:10184000451C232C242C432C4208B6004308B70027
:101850004408B8004508B9000130BA00390DB90C88
:10186000B80CB70CB60CBA0B2E2C3908C5003808CA
:10187000C4003708C3003608C2000130C607031889
:10188000C70A0030C7074708803AFF0080307F0250
:10189000031D4C2CFF304602031C4F2C502C5B2C9C
:1018A0007F3083120313C5008030C4000030C300B2
:1018B0000030C200902C831203134708803AFF00C7
:1018C00080307F02031D662C013046020318692C0C
:1018D0006A2C762C003083120313C5000030C4003C
:1018E0000030C3000030C200BB01902C83120313F0
:1018F0004608B6003608C100FF30C205FF30C305F8
:101900007F30C4050030C505411C872C882C892CEC
:10191000C4174108B6000310360CB7003708C500DD
:101920003B08B6003608C5044508B1004408B000BD
:101930004308AF004208AE00080083120313DA0028
:10194000DA1FA32CA42C532EDA09DA0A5A08803A9B
:10195000123E031CAC2CAD2C972D0A30A600003093
:10196000A7005A08A200A301A21BA3036430A00091
:101970000030A1000A168A15A5270A128A158312BB
:1019800003132108A9002008A8000A168A1126219D
:101990000A128A15831203132608CC0001300310A3
:1019A000CC0DFF3E031DCF2C03104C0D593E84007F
:1019B0000A168A1100200A128A15CD000A168A1109
:1019C00000200A128A15CE000A168A1100200A1277
:1019D0008A15CF000A168A1100200A128A15D00033
:1019E0005008B1004F08B0004E08AF004D08AE00DF
:1019F0006430A6000030A7005A08A800A901A81B5F
:101A0000A9030A168A1126210A128A1583120313C2
:101A10002608D10001300310D10DFF3E031D0B2D10
:101A20000310510D7D3E84000A168A1100200A120F
:101A30008A15D2000A168A1100200A128A15D300CC
:101A40000A168A1100200A128A15D4000A168A1171
:101A500000200A128A15D5005508B5005408B400B4
:101A60005308B3005208B2000A128A153C210A1228
:101A70008A15831203133108D9003008D8002F08C3
:101A8000D7002E08D6000A30A0000030A1005A0866
:101A9000A200A301A21BA3030A168A15A5270A12F6
:101AA0008A15831203132008CC0001300310CC0DDB
:101AB000FF3E031D562D03104C0D353E84000A16C3
:101AC0008A1100200A128A15CD000A168A110020F8
:101AD0000A128A15CE000A168A1100200A128A15E7
:101AE000CF000A168A1100200A128A15D000500869
:101AF000B1004F08B0004E08AF004D08AE005908C5
:101B0000B5005808B4005708B3005608B2000A12CE
:101B10008A153C210A128A15831203133108CB005F
:101B20003008CA002F08C9002E08C800FF2F5A0825
:101B3000803A753E031C9D2D9E2D262E0A30A00056
:101B40000030A1005A08A200A301A21BA3030A1699
:101B50008A15A5270A128A15831203132008CC00C0
:101B600001300310CC0DFF3E031DB12D03104C0DB1
:101B7000353E84000A168A1100200A128A15CD000B
:101B80000A168A1100200A128A15CE000A168A1136
:101B900000200A128A15CF000A168A1100200A12A4
:101BA0008A15D0005008B1004F08B0004E08AF00B1
:101BB0004D08AE000A30A6000030A7005A08A80061
:101BC000A901A81BA9030A168A1126210A128A153F
:101BD000831203132608D10001300310D10DFF3EFC
:101BE000031DED2D0310510D593E84000A168A1174
:101BF00000200A128A15D2000A168A1100200A1241
:101C00008A15D3000A168A1100200A128A15D400F8
:101C10000A168A1100200A128A15D5005508B50047
:101C20005408B4005308B3005208B2000A128A15CF
:101C30003C210A128A15831203133108CB003008A5
:101C4000CA002F08C9002E08C800FF2F5A08CC0070
:101C500001300310CC0DFF3E031D292E03104C0D47
:101C6000353E84000A168A1100200A128A15CD001A
:101C70000A168A1100200A128A15CE000A168A1145
:101C800000200A128A15CF000A168A1100200A12B3
:101C90008A15D0005008CB004F08CA004E08C90072
:101CA0004D08C800FF2F5A08803A123E031C592ED7
:101CB0005A2E442F0A30A6000030A7005A08A2006E
:101CC000A301A21BA3036430A0000030A1000A16E8
:101CD0008A15A5270A128A15831203132108A90061
:101CE0002008A8000A168A1126210A128A158312D2
:101CF00003132608CC0001300310CC0DFF3E031D5A
:101D00007C2E03104C0D253E84000A168A110020FB
:101D10000A128A15CD000A168A1100200A128A15A5
:101D2000CE000A168A1100200A128A15CF000A1660
:101D30008A1100200A128A15D0005008B1004F08FD
:101D4000B0004E08AF004D08AE006430A600003071
:101D5000A7005A08A800A901A81BA9030A168A11FE
:101D600026210A128A15831203132608D100013096
:101D70000310D10DFF3E031DB82E0310510D493E37
:101D800084000A168A1100200A128A15D2000A1647
:101D90008A1100200A128A15D3000A168A1100201F
:101DA0000A128A15D4000A168A1100200A128A150E
:101DB000D5005508B5005408B4005308B3005208C4
:101DC000B2000A128A153C210A128A1583120313E3
:101DD0003108D9003008D8002F08D7002E08D600C7
:101DE0000A30A0000030A1005A08A200A301A21BE3
:101DF000A3030A168A15A5270A128A15831203134C
:101E00002008CC0001300310CC0DFF3E031D032F32
:101E100003104C0D013E84000A168A1100200A129C
:101E20008A15CD000A168A1100200A128A15CE00E2
:101E30000A168A1100200A128A15CF000A168A1182
:101E400000200A128A15D0005008B1004F08B000D7
:101E50004E08AF004D08AE005908B5005808B40050
:101E60005708B3005608B2000A128A153C210A121C
:101E70008A15831203133108CB003008CA002F08DB
:101E8000C9002E08C800FF2F5A08803A753E031C6F
:101E90004A2F4B2FD32F0A30A0000030A1005A0840
:101EA000A200A301A21BA3030A168A15A5270A12E2
:101EB0008A15831203132008CC0001300310CC0DC7
:101EC000FF3E031D5E2F03104C0D013E84000A16D9
:101ED0008A1100200A128A15CD000A168A110020E4
:101EE0000A128A15CE000A168A1100200A128A15D3
:101EF000CF000A168A1100200A128A15D000500855
:101F0000B1004F08B0004E08AF004D08AE000A30D7
:101F1000A6000030A7005A08A800A901A81BA90321
:101F20000A168A1126210A128A158312031326081B
:101F3000D10001300310D10DFF3E031D9A2F031075
:101F4000510D253E84000A168A1100200A128A15B6
:101F5000D2000A168A1100200A128A15D3000A1626
:101F60008A1100200A128A15D4000A168A1100204C
:101F70000A128A15D5005508B5005408B400530854
:101F8000B3005208B2000A128A153C210A128A15BF
:101F9000831203133108CB003008CA002F08C90090
:101FA0002E08C800FF2F5A08CC0001300310CC0DBA
:101FB000FF3E031DD62F03104C0D013E84000A1670
:101FC0008A1100200A128A15CD000A168A110020F3
:101FD0000A128A15CE000A168A1100200A128A15E2
:101FE000CF000A168A1100200A128A15D000500864
:101FF000CB004F08CA004E08C9004D08C8000800B1
:1020000010308A000408840A820700340034003447
:1020100080343F3400340034203441340034003400
:10202000C8344234003400347A3444340034403408
:102030001C34463400345034C33447340034243420
:10204000743449348034963418344B342034BC34DE
:10205000BE344C3428346B346E344E34F93402348C
:1020600015345034EC347834AD346034CA34F2343E
:10207000493471340034003480343F34CD34CC34AE
:10208000CC343D340A34D73423343C346F341234E6
:1020900083343A341734B734D1343834AC34C5349B
:1020A00027343734BD343734863435349534BF342F
:1020B000D63433347734CC342B3432345F34703408
:1020C00089343034FF34E634DB342E340834E534DC
:1020D0003C341E3460344234A2340D3401340034B4
:1020E000003400340A3400340034003464340034E2
:1020F00000340034E834033400340034103427341E
:1021000000340034A0348634013400344034423486
:102110000F34003480349634983400340034E13481
:10212000F53405340034CA349A343B3425346634EB
:10213000003483120313A200A001A101B2282008D9
:102140002207F6007608840000080A168A1516256C
:102150000A168A11013083120313A0070318A10A7B
:102160000030A10720082207F600760884008313B8
:102170000008031DBC28BD289F28080000308312DA
:102180000313AB000030AA000030A9000030A80003
:1021900023082204210420040319CF28D0281D2954
:1021A000AC01AC0AE0280130F5000310A00DA10D30
:1021B000A20DA30DF50BD5280130F5007508AC076D
:1021C000A31FE328E428D3280130F5000310A80D4D
:1021D000A90DAA0DAB0DF50BE62823082702031D58
:1021E000FB2822082602031DFB2821082502031DC7
:1021F000FB2820082402031CFE28FF280E292008A3
:10220000A4022108031C210FA5022208031C220F8F
:10221000A6022308031C230FA70228140130031071
:10222000A30CA20CA10CA00CFF3E031D0F29013032
:10223000AC02031D1C291D29E4282B08A3002A0831
:10224000A2002908A1002808A00008008312031397
:10225000AB01A71F2C292D293429A609A709A60AF5
:102260000319A70AAB01AB0AA91F3729382941294D
:10227000A809A909A80A0319A90A0130F6007608D5
:10228000AB06AC01AD0126082704031948294929EA
:102290008029AA01AA0A572901300310A60DA70D0B
:1022A000FF3E031D4D290130F6007608AA07A71F3F
:1022B0005A295B294C2901300310AC0DAD0DFF3EAE
:1022C000031D5C2927082902031D68292608280206
:1022D000031C6B296C2973292608A8022708031CF4
:1022E000A903A9022C1401300310A70CA60CFF3E71
:1022F000031D74290130AA02031D7F2980295B294F
:102300002B080319842985298A29AC09AD09AC0A4F
:102310000319AD0A2D08A7002C08A6000800031019
:10232000831203135D0D5E0DDF005F08E500650895
:10233000031D9B299C29A5290030DE000030DD000B
:102340000030DC000030DB000A2A5B08DF005C089C
:10235000E0005D08E1005E08E2001F300310E20CBF
:10236000E10CE00CDF0CFF3E031DAE295F08E3002B
:102370006308E400DD17FF30DB05FF30DC05FF30CC
:10238000DD050030DE059630E502E51FC829C929C4
:10239000E3296508803A973E0318CF29D029D1292F
:1023A0009C2901300310DE0CDD0CDC0CDB0CFF3E45
:1023B000031DD2290130DF005F08E507031DE12975
:1023C000E229D129FA2920306502031CE829E929EC
:1023D000F5299C290130DF000310DB0DDC0DDD0D3C
:1023E000DE0DDF0BEC290130E5026508031DF9293C
:1023F000FA29EA2964080319FE29FF290A2ADB09B8
:10240000DC09DD09DE09DB0A0319DC0A0319DD0A30
:102410000319DE0A08000030831203132005A80008
:1024200000302105A90080302205AA007F30230555
:10243000AB002B082A0429042804031D202A212A82
:10244000292A0030A3000030A2000030A100003093
:10245000A00000302405A80000302505A900803028
:102460002605AA007F302705AB002B082A04290483
:102470002804031D3C2A3D2A452A0030A7000030CD
:10248000A6000030A5000030A400A31F482A492A56
:102490006D2A0030A8000030A9000030AA0080306A
:1024A000AB002008A8022108031C210F582A592A32
:1024B000A9022208031C220F5E2A5F2AAA0223080F
:1024C000031C230F642A652AAB022B08A3002A08E9
:1024D000A2002908A1002808A000A71F702A712ABD
:1024E000952A0030A8000030A9000030AA008030F2
:1024F000AB002408A8022508031C250F802A812A86
:10250000A9022608031C260F862A872AAA02270862
:10251000031C270F8C2A8D2AAB022B08A7002A0840
:10252000A6002908A5002808A4008030A306803052
:10253000A70627082302031DA72A26082202031D37
:10254000A72A25082102031DA72A24082002031810
:10255000AA2AAB2AAD2A0310AE2A0314080083125C
:102560000313A80028080319B62AB72ACB2AA31FE9
:10257000BA2ABB2ACB2A2009AA002109AB002209CA
:10258000AC002309AD00AA0A0319AB0A0319AC0A6F
:102590000319AD0AD32A2308AD002208AC00210894
:1025A000AB002008AA002308220421042004031DF4
:1025B000DA2ADB2AE42A0030A3000030A20000302F
:1025C000A1000030A0006A2B9630A4002408A900C6
:1025D000F62A0130A4002408A90701300310AD0C2D
:1025E000AC0CAB0CAA0CFF3E031DEE2AFE302D05F1
:1025F000031DFB2AFC2AE92A182B0130A400240819
:10260000A9070130AA07003003180130AB070030DA
:1026100003180130AC07003003180130AD0701305A
:102620000310AD0CAC0CAB0CAA0CFF3E031D102B21
:10263000FF302D05031D1D2B1E2BFD2A2A2B0130DB
:10264000A9020130A4000310AA0DAB0DAC0DAD0D15
:10265000A40B232BAC1B2D2B2E2B342B0230290249
:102660000318332B342B1F2B2918372B382B402BD7
:10267000FF30AA05FF30AB057F30AC05FF30AD055C
:102680000310A90C2908A400A501A601A701183070
:102690000310A40DA50DA60DA70DFF3E031D482B8D
:1026A0002408AA042508AB042608AC042708AD04B6
:1026B000280803195C2B5D2B622BA31F602B612B59
:1026C000622BAD172D08A3002C08A2002B08A10037
:1026D0002A08A000080083120313DB006E305B029F
:1026E000031C732B742B832C3F30B1000030B000DF
:1026F0000030AF000030AE006430A4000030A50010
:102700005B08CC00CD014C08A6004D08A7000A16B6
:102710008A1569260A168A11831203132408CE002B
:1027200001300310CE0DFF3E031D912B03104E0D03
:102730007D3E84000A168A1100200A168A11CF00F5
:102740000A168A1100200A168A11D0000A168A1168
:1027500000200A168A11D1000A168A1100200A16D2
:102760008A11D2005208B5005108B4005008B300D5
:102770004F08B2000A128A153C210A168A118312E8
:1027800003133108DA003008D9002F08D8002E08CA
:10279000D7000A30A4000030A5005B08CC00CD01B2
:1027A0004C08A2004D08A3006430A0000030A10036
:1027B0000A168A152D260A168A1183120313210878
:1027C000A7002008A6000A168A1569260A168A118B
:1027D000831203132408CE0001300310CE0DFF3EF8
:1027E000031DED2B03104E0D593E84000A168A116D
:1027F00000200A168A11CF000A168A1100200A1634
:102800008A11D0000A168A1100200A168A11D100F6
:102810000A168A1100200A168A11D2005208B10045
:102820005108B0005008AF004F08AE005A08B5007C
:102830005908B4005808B3005708B2000A128A15A4
:102840003C210A168A11831203133108D60030087E
:10285000D5002F08D4002E08D3000A30A000003085
:10286000A1005B08CC00CD014C08A2004D08A300DC
:102870000A168A152D260A168A11831203132008B8
:10288000CE0001300310CE0DFF3E031D422C03107D
:102890004E0D353E84000A168A1100200A168A1150
:1028A000CF000A168A1100200A168A11D0000A16D3
:1028B0008A1100200A168A11D1000A168A110020F6
:1028C0000A168A11D2005208B1005108B00050080F
:1028D000AF004F08AE005608B5005508B4005408C4
:1028E000B3005308B2000A128A153C210A168A1155
:1028F000831203133108CB003008CA002F08C90027
:102900002E08C800772D0B305B02031C882C892C05
:10291000342D3F30B1000030B0000030AF00003047
:10292000AE000A30A4000030A5005B08CC00CD0149
:102930004C08A6004D08A7000A168A1569260A1633
:102940008A11831203132408CE0001300310CE0D28
:10295000FF3E031DA62C03104E0D593E84000A169F
:102960008A1100200A168A11CF000A168A11002047
:102970000A168A11D0000A168A1100200A168A1136
:10298000D1000A168A1100200A168A11D2005208B4
:10299000B5005108B4005008B3004F08B2000A1245
:1029A0008A153C210A168A11831203133108DA00B2
:1029B0003008D9002F08D8002E08D7000A30A00010
:1029C0000030A1005B08CC00CD014C08A2004D08EE
:1029D000A3000A168A152D260A168A1183120313DC
:1029E0002008CE0001300310CE0DFF3E031DF32C56
:1029F00003104E0D353E84000A168A1100200A1677
:102A00008A11CF000A168A1100200A168A11D000F6
:102A10000A168A1100200A168A11D1000A168A1194
:102A200000200A168A11D2005208B1005108B000E5
:102A30005008AF004F08AE005A08B5005908B4005E
:102A40005808B3005708B2000A128A153C210A162A
:102A50008A11831203133108CB003008CA002F08F3
:102A6000C9002E08C800772D3F30B1000030B000FB
:102A70000030AF000030AE005B08CC000130031026
:102A8000CC0DFF3E031D3F2D03104C0D353E840041
:102A90000A168A1100200A168A11CD000A168A1118
:102AA00000200A168A11CE000A168A1100200A1682
:102AB0008A11CF000A168A1100200A168A11D00046
:102AC0005008B5004F08B4004E08B3004D08B200DE
:102AD0000A128A153C210A168A118312031331083F
:102AE000CB003008CA002F08C9002E08C800080013
:102AF000831203135F088039E4006408EC005F0868
:102B0000E4006407E5006508EE00DE1F882D892DCE
:102B10008A2D6E146E0803198E2D8F2D9F2D6E0A2F
:102B2000031D932D942D9C2D0030DF000030DE001E
:102B30000030DD000030DC00DE17DF01A72D0030A3
:102B4000DF000030DE000030DD000030DC00630814
:102B50008039E4006408ED006D086C060319B12D9E
:102B6000B22DB32D6C176308E4006407E500650817
:102B7000ED00E21FBC2DBD2DBE2D6D146D08031997
:102B8000C22DC32DD32D6D0A031DC72DC82DD02DE9
:102B90000030E3000030E2000030E1000030E000EF
:102BA000E217E301DB2D0030E3000030E2000030EB
:102BB000E1000030E0006E086D020318E02DE12D09
:102BC000252E6C1FE42DE52DE92D8030E4006408EE
:102BD000EC066E08E4006408EF006D08E400640889
:102BE000EE006F08E4006408ED005C08E40064088F
:102BF000EF006008E4006408DC006F08E40064088B
:102C0000E0005D08E4006408EF006108E400640887
:102C1000DD006F08E4006408E1005E08E400640879
:102C2000EF006208E4006408DE006F08E400640856
:102C3000E2005F08E4006408EF006308E400640851
:102C4000DF006F08E4006408E300EF016D08E400B2
:102C5000E5016508E7006E086402E600031CE7036F
:102C60006708803AFF0080307F02031D392E1A303A
:102C70006602031C3C2E3D2E7A2E831203135F083E
:102C80005E045D045C04031D462E482E0130492E6F
:102C90000030E4006408EF000030DF000030DE00A8
:102CA0000030DD000030DC006D08E4006408EE0058
:102CB000822E6F1C5C2E5D2E662E6F08E4000310C2
:102CC000640C0138E5006508EF00682E0310EF0C76
:102CD0005C1C6B2E6C2E6D2EEF170130E4005F0D27
:102CE000DF0CDE0CDD0CDC0CE40B6F2E0130E4009D
:102CF0006408EE07831203136D086E02031C812E15
:102D0000822E592E6C1B852E862ED12E6E08031D09
:102D10008A2E8B2E942E0030DF000030DE00003033
:102D2000DD000030DC00FF2F6008DC0761080311C4
:102D30000318013E03199D2EDD07620803110318D5
:102D4000013E0319A42EDE07630803110318013E98
:102D50000319AB2EDF075F1CAE2EAF2E852F6F1C25
:102D6000B22EB32EBC2E6F08E4000310640C0138A1
:102D7000E5006508EF00BE2E0310EF0C5C1CC12EB1
:102D8000C22EC32EEF170130E4005F0DDF0CDE0C06
:102D9000DD0CDC0CE40BC52E0130E4006408EE070A
:102DA000852F5F08803AFF006308803A7F02031D89
:102DB000E32E62085E02031DE32E61085D02031D1F
:102DC000E32E60085C020318E62EE72E3F2FFF304B
:102DD000E400FF30E500FF30E600FF30E700600868
:102DE000E8006108E9006208EA006308EB005C089B
:102DF000E8025D08031C5D0FFE2EFF2EE9025E084F
:102E0000031C5E0F042F052FEA025F08031C5F0FEF
:102E10000A2F0B2FEB026808E40769080318690FF3
:102E2000122F132FE5076A0803186A0F182F192F9E
:102E3000E6076B0803186B0AE7076708DF006608F8
:102E4000DE006508DD006408DC008030E400640812
:102E5000EC06EF09EF0A6F08031D2F2F302F4D2FBF
:102E60000130DC07003003180130DD0700300318A3
:102E70000130DE07003003180130DF074D2F6008F6
:102E8000DC026108031C610FDD026208031C620F93
:102E9000DE026308031C630FDF025F085E045D044B
:102EA0005C04031D542F552F812F6F08031D592FCC
:102EB0005A2F812F0030DF000030DE000030DD00AF
:102EC0000030DC00FF2F0130E4000310DC0DDD0DCD
:102ED000DE0DDF0DE40B652FEF1F6F2F702F712FAD
:102EE0005C146F1C742F752F782F0314EF0D7A2F3D
:102EF0000310EF0D6E0803197E2F7F2F812F0130F5
:102F0000EE02DE1F842F852F632FED01EF1F892F27
:102F10008A2F982F6F087F3903198F2F902F932FA7
:102F2000ED01ED0A982F5C1C962F972F982F902F6C
:102F30006D0803199C2F9D2FD12F0130DC07003025
:102F400003180130DD07003003180130DE070030C0
:102F500003180130DF075F1CAE2FAF2FD12F5C08A5
:102F6000E4005D08E5005E08E6005F08E700013068
:102F7000E800670DE70CE60CE50CE40CE80BB92F54
:102F80006708DF006608DE006508DD006408DC0015
:102F90006E0A0319CC2FCD2FD12F0130E400640825
:102FA000EE076E0A0319D52FD62FDB2F6E08031DEF
:102FB000DA2FDB2FE92F0030DF000030DE00003099
:102FC000DD000030DC006E08031DE72FE82FE92F3D
:102FD000EC016E1CEC2FED2FEF2FDE17F32F7F305F
:102FE000E4006408DE056E08E4000310640CE500EC
:102FF0006508DF00EC1FFD2FFE2FFF2FDF170800F5
:1039F4007030831603138F040F14080003308316EA
:103A0400031396000B1008008B170B178316031370
:103A14008C168B150B10080064008001840A0406C0
:103A24000319003404060F2DF500831203130C1E32
:103A34001C2D1D2D172D75089900080083160317DA
:103A44008801890183160313850186018801061400
:103A540086148113033095008312031386018801B1
:103A6400850108008316031318121815831603170B
:103A74008715CF308316031399009A018312031319
:103A84009817181318168316031398160800F501CF
:103A9400F60183120313201C502D512D572D22089B
:103AA400F5070318F60A2308F60701300310A20DE0
:103AB400A30DFF3E031D582D01300310A10CA00CD3
:103AC400FF3E031D5F2D20082104031D6A2D6B2D6D
:103AD4004B2D7608A1007508A0000800831203137B
:103AE400BA003A08B200B301B401B5013508A30025
:103AF4003408A2003308A1003208A00001300A16DD
:103B04008A11AF220A168A15831203132308B900F7
:103B14002208B8002108B7002008B6003908B1000F
:103B24003808B0003708AF003608AE00080083122A
:103B34000313A600A201A3017508A000A101200897
:103B4400A4002108A500261CA82DA92DAF2D24080A
:103B5400A2070318A30A2508A30701300310A40D24
:103B6400A50DFF3E031DB02D0310A60C2608031D52
:103B7400BC2DBD2DA52D2308F6002208F500080054
:103B8400831203136908B5006808B4006708B3001A
:103B94006608B2003F30B1008030B0000030AF00A2
:103BA4000030AE000A128A153C210A168A158312C7
:103BB40003133108DE003008DD002F08DC002E0876
:103BC400DB000A168A118F210A168A158312031341
:103BD4005C08EB005B08EA006B08E7006A08E60093
:103BE4000800831203138C1EF82DF92D0C2E0C30B3
:103BF40099000D3099001A0888001530F2004B30F6
:103C0400F100BE30F000F00B052EF10B052EF20B87
:103C1400052E00000B1C0F2E102E262E83120313CC
:103C24000618152E162E1C2E0130F000700883166F
:103C34000313D40783128618202E212E252E01303B
:103C440083160313D4020B1074088A00730E8300C6
:103C5400FE0E7E0E090083120313200821040319AB
:103C6400342E352E642EF601F60A432E013003104D
:103C7400A00DA10DFF3E031D392E0130F50075087E
:103C8400F607A11F462E472E382E21082302031DB6
:103C94004D2E20082202031C502E512E572E200890
:103CA400A2022108031CA303A30201300310A10CE8
:103CB400A00CFF3E031D582E0130F602031D632E97
:103CC400642E472E2308A1002208A00008008312B6
:103CD4000313A901AA01240825040319722E732EC3
:103CE400AA2EAB01AB0A812E01300310A40DA50D41
:103CF400FF3E031D772E0130A8002808AB07A51F3F
:103D0400842E852E762E01300310A90DAA0DFF3EB8
:103D1400031D862E25082702031D922E2408260241
:103D2400031C952E962E9D2E2408A6022508031CFE
:103D3400A703A702291401300310A50CA40CFF3E0D
:103D4400031D9E2E0130AB02031DA92EAA2E852E23
:103D54002A08A5002908A4000800003083120313D0
:103D64002005A80000302105A90080302205AA0002
:103D74007F302305AB002B082A0429042804031DE3
:103D8400C42EC52ECD2E0030A3000030A20000307A
:103D9400A1000030A00000302405A8000030250553
:103DA400A90080302605AA007F302705AB002B0828
:103DB4002A0429042804031DE02EE12EE92E0030F4
:103DC400A7000030A6000030A5000030A40027089A
:103DD4002306031DF72E26082206031DF72E2508A9
:103DE4002106031DF72E240820060319FA2EFB2EA4
:103DF400FD2E0310FE2E03140800803083160313D7
:103E0400A306270883120313DF008316031326086F
:103E140083120313DE00831603132508831203138E
:103E2400DD0083160313240883120313DC008316B6
:103E34000313230883120313E300831603132208D6
:103E440083120313E200831603132108831203135E
:103E5400E10083160313200883120313E0000A16FB
:103E64008A1178250A168A15831203135F088316AC
:103E74000313A300831203135E0883160313A20023
:103E8400831203135D0883160313A1008312031323
:103E94005C0883160313A00008008312031323088D
:103EA4002204210420040319582F592F9C2FF601B2
:103EB400F60A692F0130F5000310A00DA10DA20D23
:103EC400A30DF50B5E2F0130F5007508F607A31F4F
:103ED4006C2F6D2F5C2F23082702031D7B2F2208D4
:103EE4002602031D7B2F21082502031D7B2F20089A
:103EF4002402031C7E2F7F2F8D2F2008A40221086B
:103F0400031C210FA5022208031C220FA60223086A
:103F1400031C230FA70201300310A30CA20CA10C55
:103F2400A00CFF3E031D8E2F0130F602031D9B2FB4
:103F34009C2F6D2F2708A3002608A2002508A100A6
:103F44002408A000080083120313A501A31FAB2FAC
:103F5400AC2FB32FA209A309A20A0319A30AA5012E
:103F6400A50AA11FB62FB72FBC2FA009A109A00A2B
:103F74000319A10A200821040319C12FC22FF12F0C
:103F8400A401A40AD02F01300310A00DA10DFF3EFF
:103F9400031DC62F0130F5007508A407A11FD32FF8
:103FA400D42FC52F21082302031DDA2F2008220253
:103FB400031CDD2FDE2FE42F2008A2022108031C9E
:103FC400A303A30201300310A10CA00CFF3E031DA8
:103FD400E52F0130A402031DF02FF12FD42F250863
:103FE4000319F52FF62FFB2FA209A309A20A03191F
:0C3FF400A30A2308A1002208A000080076
:04400E00D420FF3F7C
:00000001FF
